:0200000407FCF7
:10000000C061FC07B901FC07C101FC07D901FC076D
:1000100000000000000000000000000000000000E0
:10002000000000000000000000000000F101FC07DB
:100030000000000000000000F301FC07A518FC0709
:100040004D21FC078721FC07A526F0073919FC077D
:100050006F20FC07F701FC079917FC07F701FC0765
:10006000F701FC07F701FC077F14FC078314FC076A
:100070008714FC078B14FC078F14FC07F701FC079F
:100080000515FC07F701FC07F701FC07F701FC0762
:10009000F701FC07F701FC07F701FC07F701FC0774
:0800A000000000008E070E00B5
:0200000407FCF7
:100110000348854604F052FE004800478D03FC0763
:10012000C061FC0710B51F480189C908C9000181D9
:10013000018A1D4CC90713D08088002810D11B48A4
:100140001949428820310A8182888A80C2880A80BF
:10015000618AFF22813200889143C001014361829C
:100160001349062008800F2000F00EF8012000F04F
:100170000BF8002000F008F86089042188436081B2
:100180000020208062B610BD002809DBC106C90E20
:100190000120884007490860BFF34F8FBFF36F8F7E
:1001A000704700000003005000000050A000FC0752
:1001B0000034005080E100E00F4880470F480047BE
:1001C00004207146084203D0EFF309800C49084728
:1001D000EFF308800A49084704207146084203D01B
:1001E000EFF3098007490847EFF3088005490847FE
:1001F000FEE7FEE7FEE7FEE72501FC071101FC072D
:10020000A102FC070902FC0710B5044620484089FA
:10021000C00508D51B2000F0F3FF1D4860300188A1
:10022000012211430180052212071088518A00071C
:10023000800FFF2381339943C00101435182154947
:100240002068086060684860A0688860E068C860EE
:100250002069086160694861A0698861E069C861D6
:100260000C620D48836A4B62C36A8B62036BCB627C
:10027000C36B0B63436B4B63806B88630749082038
:100280000880908AC00601D500BE10BDFEE70000C0
:10029000200000500090FC0700ED00E0003300500B
:1002A00070B5052504462D07288A042108432882B5
:1002B00028894021084328812448012606602449D2
:1002C0000820088023484089C00507D51B2000F07E
:1002D00097FF204860300188314301802888698A6F
:1002E0000007800FFF2281329143C00101436982E0
:1002F00019492068086160684861A0688861E06801
:10030000C8612069086260694862A0698862E06922
:10031000C8620C631148826A4A63C26A8A63026BCC
:10032000CA63C26B0C4940310A60426B4A60806B01
:100330008860A88AC00608D500BE688A01218008A6
:100340008000C9030843688270BDFEE780E200E0D8
:1003500000330050200000504090FC0700ED00E00A
:1003600070B5094E0D4604461146304601F01AFBA1
:10037000AAB201232146304601F088FB70BD10B5BA
:10038000014801F0BBFB10BD0011005008B500F0A2
:10039000CBF800F079FB0524012524070826AA4F95
:1003A0000FE0284600F032FA002000900421684651
:1003B0004DF7C4FB002801D000F0EBFA60F7B0FC69
:1003C0000BE02089000608D501208007006B00049F
:1003D00003D49E480078C0070FD003F0B4FE002875
:1003E000EFD172B601F064FF042810D0022815D0B6
:1003F000032813D001281FD01FE05CF7FEFF002068
:1004000000F004FA924800780428D7D1C9E791484F
:100410000078012801D0032000E0022000F04EF80F
:10042000A08AC00600D53E8030BFA08AC00600D595
:100430007E8000F007F800E030BF62B6C820864931
:100440000880BEE710B500F07FF9844902280CD17E
:1004500005200007408AC005820F814802800A8972
:1004600042808A8882800A88C28048896021C005CB
:1004700000280ADB794860300088C00705D0774A39
:100480002032508A884320305082764882888A43BE
:10049000203282807448C078002807D073480068F2
:1004A00001898AB2416803205CF708F903F00CFB6C
:1004B0006F48016904229143016110BD38B5694656
:1004C000052408702407218A05460422114321824D
:1004D00000F063F8614841896022C905002905DB05
:1004E0005E4B2033598A9143403159825D498B8854
:1004F000934340338B80022D01D0032D13D181888B
:10050000490849008180002000900099491C009111
:100510001429FADB618989088900491C6181618994
:100520004906FCD5608038BDF0B5524852490523D4
:100530000127524A884201D31C4604E0904201D36D
:100540003C4600E000244E4D4E4E4748AD194E4EFD
:100550008470AD190126B6034560B54201D8142553
:1005600000E000252540494C45708C4213D2484B91
:100570002546EB18944205D38B4201D211230AE0A1
:100580003B4608E0934201D2142304E08B4201D29F
:10059000102300E000230370F0BDF8B5022801D05D
:1005A000032848D1324A136904210B4313612D4AB1
:1005B000203A93895B085B009381052410222A4E20
:1005C000240702287578608A36D010436082608ADA
:1005D000084360827068C01C870801F08BFB608A4A
:1005E0001021084360822B487F1E0762EFF31080C2
:1005F000012181F3108821888022914321800028E5
:1006000000D0012080F3108814484089C0050AD525
:1006100001F05EFB0B2000F0F3FD10486030018814
:1006200001221143018003205CF76EF8002806D0F8
:100630000120F0702583F8BD90436082F3E700202D
:10064000F07030780540F5E70033005054BAFC07ED
:100650000C8DFC07B4BAFC0700310050200000509C
:10066000A000FC0720030050C88BFC0758B9FC070A
:1006700000ED00E0C08BFC070070FC070040FC07A9
:100680001001FC0720590000000004F8C061FC07BD
:100690000C0400000000F407704770B50D460024FC
:1006A00042F72DF92855641CE4B2202CF8D3002021
:1006B00070BD10B55EF70EFD10BD10B55EF713FDF1
:1006C00010BD7047704770470649884200D000BE91
:1006D00005210907488A012280088000D2031043BF
:1006E000488270471111111144480178002902D045
:1006F0008021417070474249002008704149C8700C
:1007000070473E490A78002A03D000280CD0022006
:100710000BE0002801D0022000E0012038490870D9
:1007200038490120C87070470120803048707047F8
:10073000002805D0012804D0022804D10120E0E7D8
:10074000D2E70020FBE770472D49002009780029F7
:1007500004D0012903D0022900D1022070470120D2
:10076000704726488178002904D0491E0906090EE1
:10077000817019D142780021002A04D09207920F8B
:100780000270417004E00278002A01D0521E02700B
:100790001206120E017007D0012A03D0022A03D1DB
:1007A0000120AEE70020FCE7704700B5134A9078BF
:1007B000401C90701078002805D1FFF7C5FF431C3E
:1007C000FFF792FF137000BD0C48C07870470020FF
:1007D000EFF31081012282F310880522120712899B
:1007E000120605D40848028901231A4302811846DB
:1007F000002900D0012181F310887047D08BFC07BD
:10080000B4BAFC0754BAFC070033005010B5FE4CD4
:10081000A178002921D0FD49002803D0088840078D
:10082000FCD402E00888400717D4CA8888881104DD
:100830000A180020A070F64800235043800B401C8B
:100840004008E0611F204006492162F709FEE1628D
:10085000A06264214843000CA06110BDEB494880B0
:100860000888032210430880088804221043088067
:10087000E54901208870704770B50520000701899F
:100880003022914301810189802211430181018934
:10089000082211430181DF490A88520852000A8068
:1008A0004389182293434381048940231C430481D4
:1008B000048A0425AC430482848AA407FCD5D24D63
:1008C000AA246C61CD8801240F263602B5430B267D
:1008D0003602AD19CD80CD882543CD80448994431F
:1008E000083444814A88520852004A800189994359
:1008F0000181012080070168821591430160C6488B
:1009000001683F2252029143421489180160016834
:1009100002031143016070BD10B5BB490122D2032F
:10092000C969904205D304F05BFA8905800A08433F
:1009300010BD4843800A10BDEEE710B5B249896981
:100940004843B649401849005EF75CFB10BDF4E728
:1009500070B500F0DEFB0446FFF7F9FFAA4D2881D1
:1009600020463C30FFF7F3FFAD49001D88602A891F
:100970001018C01DAB4A48601278022A01D111300C
:100980004860FFF7D9FFA849401880B25CF7C6FD60
:1009900070BDF0B5A54985B00120C863C86B0028BB
:1009A000FCD101208007C069974C2169884201D29F
:1009B000002121611922411AD20191422AD32061DA
:1009C0009B4801880391418802918788C68899498C
:1009D00003C900900191684600F0BDFE00F0E5FEFD
:1009E0000546012020567F280CD0281A40B2002846
:1009F00001DA404240B2082805DBE068401CE060B4
:100A000001F013FE65708A48029941808780C68094
:100A10000399018005B0F0BD0020704710B58649EC
:100A200000200860FFF794FF01208007016B490058
:100A30004908016310BD08B57349888075498A88E3
:100A4000520852008A80002200920099491C0091AD
:100A50001429FADB052109074B899B089B005B1CC5
:100A60004B814B895B06FCD54880E120C000009299
:100A7000521C00928242FBDB48898008800048813A
:100A800048890006FCD508BDF8B56C48C82101802E
:100A9000002141806A480824448000F0F7FB694D3A
:100AA000A988684601800088C046C046684600881C
:100AB000042398433ED00020A8806248203001885B
:100AC0000F22920211430180524E2036718A214337
:100AD0007182504960310A880625AA430A80058838
:100AE000CA0115430580758A95437582B28A0E2521
:100AF000AA43921DB282474A5589534FED050D888E
:100B00001DD5BD435701ED190D800D880F022D0530
:100B10002D0DED190D8005882543058005889D4321
:100B200005800D886D086D000D8001884025A94362
:100B3000018020E0288A400840002882BDE7BD43AC
:100B400003277F02ED190D800D880F273F033D43DA
:100B50000D800588A543058005889D430580B58ADD
:100B600003277F02BD43B5820D8801273D430D80D9
:100B700051894907FCD50188032529430180718AE1
:100B80006025A943203171828188A9432031818069
:100B900001201D4E052530702D07E88AC0218843AD
:100BA0008030E882108A000A00021082108B1C211B
:100BB00088430830108325480380A8880121C90292
:100BC0008843A88048012249086001F093F8022078
:100BD00001F055F81F4F3869C0B2AA2875D001201E
:100BE00029880C229143800001432980C046C046D9
:100BF0000548203000F0B6FA00F02AF900F086FA35
:100C0000002864D028E00000D88BFC0700160050B4
:100C100011110100200000500002004020A1070037
:100C2000305BFC07B4BAFC07E2040000C0000040DF
:100C300000150050D450FC07A8B9FC070031005043
:100C40000033005000030050000F0000000200506D
:100C500080E200E0C07FF80700F058FAFFF7EBFEF3
:100C60007F207070B86A1E49086001F073F800F0C8
:100C700041F802F029FF012041F747FEFFF7FCFD94
:100C80001848006841F7E6FA17490020C870087153
:100C900001208007016882151143016000F0C0FD4A
:100CA0001E20FFF7DBFD0120FFF7B0FDFFF71CFD65
:100CB00002F037FA02F092F8FFF7B0FE0B49C820B5
:100CC00008800B484480F8BDFFE7032088E73869B7
:100CD000C0B2AA2801D06E20C0E78020BEE7000085
:100CE000305BFC074CB9FC0754BAFC0700310050DC
:100CF0000033005070B53548334D006834492C68D6
:100D000092B0884205D005225202324932485EF73D
:100D1000F3F9324E324930465EF707FA072131487F
:100D200009025EF702FA2C6004F030F82F492E48D1
:100D300008602F480024048030222E492E485EF798
:100D4000DBF929490822083903C91191109010A92B
:100D50002A485EF7D1F924494022283168465EF7D7
:100D6000CBF94022694626485EF7C6F9254827494F
:100D70000470254808602749254808602749264807
:100D8000086027490A200870264827490470322045
:100D90000870264905200860254A0121116025496F
:100DA0000860254906200860244907200860244976
:100DB00008200860FF2023490730086022490860A6
:100DC0002248066012B070BD5CBAFC079CB8FC07F4
:100DD0006587341200B0FC07908FFC0700A0FC0769
:100DE000AC14000000B9FC07E450FC0760BAFC0733
:100DF000088CFC077CFCF10700BAFC07DAB9FC0799
:100E0000B0BCFC07FDB9FC07603FF20750B9FC0716
:100E10006C4EFC0754B9FC07E84FFC0758B9FC07B7
:100E2000B0B9FC07B1B9FC07D9B9FC075CB9FC073C
:100E300060B9FC0764B9FC0768B9FC076CB9FC072A
:100E400070B9FC0748B9FC0744B9FC074CB9FC076A
:100E5000F0B5B84C89B00020207660760390012070
:100E6000C046C046B4480169B448814202D0C017A8
:100E700009B0F0BDB04F0425403FE819016D019164
:100E8000090F092910D001220198920790427AD3C4
:100E9000AB4A904277D8AB490835884274D1E819FB
:100EA000C16CA9484180A6E0019A01991204C9B217
:100EB000160E112935D007DC0B005EF771F90874A6
:100EC00074747474740D1F7412390B005EF768F932
:100ED000063A4B5D6B60656B207EB200C1009548A1
:100EE000403808189449143169185EF705F9207ED6
:100EF0008019C0B22076042854D854E0607EB20035
:100F0000C1008C48403808188B49103014316918DA
:100F10005EF7F2F8607E8019C0B260760C2841D886
:100F200041E0416D89B20291406D000C0146049090
:100F3000029800F0F1F8A0800499029800F0F4F80B
:100F4000E08030E0416D89B20491406D000C0146B3
:100F50000290049800F0E0F820810299049800F0D3
:100F6000E3F860811FE0039805A9800040187249EA
:100F7000B200143169185EF7BFF803988019039026
:100F800002280FD80FE02BE010E0406D60820AE0ED
:100F9000416D68484038016405E0406D0004000C74
:100FA000A08200D100BEB00045194DE06549263948
:100FB000884203D1E819C06CE0821CE06149091F36
:100FC000884204D1E819C06C5F49888013E05D490C
:100FD000083988420FD1E819C06C5B49C8800AE023
:100FE00007292ED008292FD00A292DD006292BD049
:100FF000401C07D000BE5048103029185348814289
:1010000000D23AE70598A0810698050C86B22946D9
:10101000304600F081F8E0812946304600F084F83F
:101020002082207EC10700D000BE40082076607E6E
:10103000C10700D000BE40086076A18A002905D013
:1010400007E00020C046C0462D1DD4E77D21C90021
:10105000A182042800D000BE002009E7F8B5354C75
:101060000025403C334F24E0EE00A0593849884227
:101070001AD1301900904068800A400414D001F061
:10108000B9FD092810D900980322406812020146D0
:1010900009041040890E0843A159086000982D49A1
:1010A0004068C001C00D02E030194068A1590860D5
:1010B0006D1C387EA842D7DCF8BDF8B51D4C002564
:1010C000403C2746403717E0E800061922483169BE
:1010D00081420DD101F08EFD092809D91F4970699F
:1010E00008401C490988490408433169086002E046
:1010F0003069716901606D1C787EA842E4DCF8BD3E
:101100000C48808970470B48408A70470948C08A5C
:1011100070470848808A7047081A0104890C4018F3
:101120000F49401800B27047C2008018401A0004EE
:10113000C01470474C8CFC07C07EF807A5A5A5A578
:101140004C42005028000050A000FC07C07FF80768
:101150004C1000403C5BFC0738300040FFFF01FCB6
:101160000100FFFF10B5062201495DF7C5FF10BD64
:10117000D47FF80705200007018830221143018041
:101180000188032211430180704705200007018870
:1011900030229143018001888908890001807047CD
:1011A00036490A8B03231B029A43000202430A8337
:1011B000704733498A8A03235B029A43C3085B0260
:1011C0001A438A828A8A0723DB0240079A43800CEB
:1011D00002438A822A48403001880122114301805B
:1011E0002748203841894907FCD570472448818A1F
:1011F000808A4905890F8004400FC900081870478C
:101200001F498A8A03235B029A43C3085B021A437D
:101210008A828A8A0723DB0240079A43800C0243B2
:101220008A82704710B50446154820384089C005A9
:1012300002D40120C04310BD00F047FD002806D0B5
:10124000FFF7D4FFA04202D90020C04310BD0C48D4
:10125000408AC00408D40B480088000704D4082C36
:1012600002D20420C04310BD074801210470417020
:101270002046FFF79EFF002010BD000020300050E8
:101280004000005020030050405BFC07F0B585B0E3
:101290000026884C02960298302148430096001997
:1012A0000099890046500099491C00910C29F7DBF0
:1012B0000298401C02900128EDDB02F067FB7D4D97
:1012C0000021083D296069600127029600200090F6
:1012D000029979484900465A00993846884080B2B8
:1012E00006421DD002983021484300990019890018
:1012F0004058411C1BD000280DD0C117009A5DF743
:101300003FFF029A12015DF73BFF2A686B681043AA
:101310001943286069600098401C00900C28DBDBB2
:101320000298401C02900128D0DB05B0F0BD00BE41
:10133000E3E7F8B5164605460C460A461F46012067
:1013400000215DF71DFF2A015DF71AFF594B083B8D
:101350001A685B6810401940084300D100BE68015C
:1013600056494018610008183E43C680F8BD70B564
:1013700005460C460A46012000215DF701FF2A01BF
:101380005DF7FEFE4B4A083A136852681840114058
:10139000084300D100BE6801484940180121A1401E
:1013A000818070BD70B505460C460A4601200021BB
:1013B0005DF7E6FE2A015DF7E3FE3E4A083A136850
:1013C000526818401140084300D100BE68013B49F3
:1013D00040180121A140418070BDFFB581B00C468D
:1013E00005460A461F46012000210A9E5DF7C8FEF9
:1013F0002A015DF7C5FE2F4B083B1A685B68104059
:101400001940084300D100BE002E2146284602D0D4
:10141000FFF7C8FF01E0FFF7AAFF3B462146284639
:10142000039AFFF786FF80E770B5012421460A384A
:1014300081400D4688B200F02CF884402048C189D4
:10144000A9430C43C48170BD10B504460A38042872
:101450000BD82046FFF7E8FF1649A00030314018AE
:101460008038806D002801D0804710BD002CFCDB47
:10147000E106C90E012088401249086010BD0A200B
:10148000E2E70B20E0E70C20DEE70D20DCE70E2092
:10149000DAE700280BD0411E4840C003010C0020B1
:1014A00002E04908401C80B20029FAD170471020A0
:1014B00070470000708CFC074C51FC070030005056
:1014C0000014005080E200E08307FF22DB0E9A4008
:1014D0008907090E9940002808DB830845489B00CE
:1014E0001B18186890430843186070470007000FE6
:1014F0000838830840489B001B18D869904308436C
:10150000D861704710B5FFF740FE0522120790889A
:101510003A49000504D53A4B1C880520A04311D058
:101520009088C30637481FD58388DB071CD0038803
:101530001B0619D501228280028880239A430280EB
:10154000486822E018880422104318801888400850
:10155000400018800C68002C05D00220185E995EAF
:101560000A229A5EA04710BD9288D206FBD58288D7
:101570009207F8D50288D205F5D50222828002882A
:10158000FF2301339A43028088680028EBD080470C
:1015900010BD70B505242407A58810263543A58005
:1015A000002A00D100BE0425164CA58025889B0684
:1015B000AD09AD019B0E1D432580A181521ED1B204
:1015C0006180218880221143218020810221102006
:1015D000FFF77AFF102000F004F870BD074948605B
:1015E0007047002805DBC106C90E01208840064966
:1015F0000860704700E400E000ED00E0B48CFC07F8
:10160000000200500001005000E100E07D48018828
:10161000012212039143018070477A480188012218
:10162000120311430180642000BF401EFCD17047AB
:101630007449CA88D208D2000243CA8070477149EF
:10164000CA8870239A4300010243CA807047F8B5E4
:10165000050049D06B4C29782088402290438901AD
:10166000084320806878FFF7EAFF2878002803D134
:1016700068780009FFF7DCFFE87804260128208855
:1016800033D0B04320802879A1880002C9B2014339
:10169000A180E08801274006400F7F02042826D061
:1016A000FFF7B4FFA8780F2800D900BE61880F2289
:1016B0005202914340020143618068796188890840
:1016C000890001436180A879012820883BD0B84374
:1016D0002080E879072800D900BE6188FF22C13246
:1016E0009143800101436180F8BD3043CAE7FFF7B1
:1016F0000AFD45490028088001D144480880FFF7C9
:101700008CFF20883843208021884020814301437A
:1017100021806088304360806088C004C00C608095
:1017200060880F2149028843084360806088FF2158
:10173000C1318843FF21813108436080608880087F
:1017400080006080F8BD3843C2E72E48018801223E
:1017500011430180704770B505462A4C0020208057
:101760002120000160804020A080FFF7C9FCA081FB
:10177000A189702081434031A181062000F035F815
:101780002846FFF764FFFFF7E0FF70BD1D480188A2
:1017900002221143018070471A490120C8811C4868
:1017A0000068002800D00047704710B5FFF7EEFF33
:1017B000144801888907C90FFBD10121C181008A22
:1017C000114A14491288801A7D22D2005043002801
:1017D00001DD4A1002E0002801DA0F4A80185DF7A7
:1017E00027FC8011193040B210BD002809DBC1066A
:1017F000C90E0120884009490860BFF34F8FBFF32D
:101800006F8F704700150050425BFC074076000068
:10181000C08CFC07AA0500002BFDFFFF80E100E063
:10182000F8B51D481B4D0068A84231D0FF26C136CF
:10183000012130465AF7D0FF04461848016818487D
:101840000A0A017042700A0C8270090EC1700022EF
:10185000A35CFF21C0319F07891ABF0F615CC75D80
:1018600079405940A154521CB242F1D30C481C2279
:101870002146001D5FF7D4FB002800D000BE2046A3
:101880005BF725F80648406841F73FF802480560D5
:10189000F8BD0000658734129CB8FC07305BFC077C
:1018A000445BFC0702480068002800D000477047EE
:1018B000C48CFC078307FF22DB0E9A408907090EC0
:1018C0009940002808DB8308DB489B001B18186838
:1018D00090430843186070470007000F08388308DA
:1018E000D6489B001B18D86990430843D8617047BD
:1018F000D34930B4884201D0012100E00021D14A0F
:101900004901891808E0838ADB07DB0F12D00388BE
:10191000541C8D68CC81AB54CA898B899A42F2D30E
:1019200082885208520082808A69002A02D0C889BF
:1019300030BC104730BC704710B5C34800F0FBF80E
:1019400010BDEFF31081012282F31088BC4B0522F9
:1019500012079842908801D1802300E04023184369
:101960009080002903D0012080F310887047002068
:10197000FAE710B502464032938FDB07DB0FFBD14D
:1019800083898022934313438381CCB2C0231C52AA
:101990000B041B0E03800902090E8180818991438B
:1019A000818110BDA64A904201D0012000E00020B4
:1019B000A44A4001801841617047F0B5A04F0D4620
:1019C0000446B84201D0012000E000209D494001BA
:1019D00046182046FFF7B5FF7C20005B286801020F
:1019E000090A2046FFF7C5FFE978C8068A06800F76
:1019F000D20FC000920049071043490F0843A0814D
:101A0000E878C109204680300183E978CA091AD0F4
:101A1000BC4210D14906CA0F218A202399435201A2
:101A200011432182E9784906CA0F218A022399438A
:101A300052001143218229790907890F818329796D
:101A40008907890F0184287A3077E868306128692E
:101A500070616869B06128790007800F7077F0BD08
:101A6000828A5209D207D20FFAD00180704730B56E
:101A700013460C46054606E021782846641CFFF70D
:101A8000EFFF5B1E9BB2002BF6D130BD70B56C4DE5
:101A90000446A84201D0012000E00020694E400128
:101AA00086190020F080B280002B06D0012B07D1D0
:101AB0003160AC4205D1022004E02046FFF7D7FF99
:101AC00070BD032000F029F8A08802218843084354
:101AD000A080A088802188430843A080317FAC4249
:101AE00001D1022000E00320FFF7E4FEAC4201D167
:101AF000022000E0032000F007F870BD818A890908
:101B0000C907C90FFAD07047002805DBC106C90E06
:101B1000012088404D490860704700280ADBC10653
:101B2000C90E01208840494980310860BFF34F8FBA
:101B3000BFF36F8F7047F8B5414D424E0446208980
:101B40000007000F062826D009DC012840D0022813
:101B50001DD00428F3D12046FFF7CAFEEFE707287F
:101B600028D00C28EBD1AC4201D0012000E00020AD
:101B7000400187192046FFF7BBFEA18849084900AC
:101B8000A180B9690029DAD0F8898847D7E72046CB
:101B900000F01FF8D3E72046AC4201D0012100E05D
:101BA0000021490189190A69002AC8D0818A9E2327
:101BB00019400BE02046AC4201D0012100E0002199
:101BC000490189190A69002AB9D001219047B6E76D
:101BD000F8BD1B4930B4884201D0012100E000214A
:101BE000184A490189180EE003891B069B0F032B35
:101BF0001BD0838A9B06DB0F002B1BD0531C0C6869
:101C0000CB80A25C0280CA888B889A42ECD38288FF
:101C100002239A438280828880239A4382804A6981
:101C2000002A07D0888830BC10477C231B5A9B07AA
:101C3000DB0FE1E77EE6000000E400E000ED00E0FD
:101C400000100050C88CFC070011005000E100E0BB
:101C500010B50446FFF7CAFAA04202D22046FFF7A9
:101C6000CFFA58480188C90708D1018801221143D9
:101C700001805448603841894907FCD510BD38B50A
:101C8000514C054620684107490F684601700078AD
:101C9000854219D04B4860384089C0050CD5A81E34
:101CA00003005DF77DFA05040604040409000B2017
:101CB00000E01320FFF7CCFF2068C008C0002843D5
:101CC000206060684007FCD538BD40480078704708
:101CD0003E49002008707047052109070988090658
:101CE00000D400BE80003A4909583748016139499B
:101CF0004161704710B5EFF31084012080F3108824
:101D0000304860384089C0050BD530490120087043
:101D1000FFF76CFA304908702A480088C007C00FE6
:101D20004870052000070188802211430180264861
:101D30000168C908C900016041684907FCD5032052
:101D4000FFF7CAFF002C03D0012080F3108810BDDC
:101D50000020FAE770B5EFF31084012080F31088BB
:101D60000521090708888022104308801648036867
:101D7000DB08DB00036043685B07FCD5174B03619E
:101D8000144B43610888904308800E4860384089AE
:101D9000C0050ED50D4900200F4D08702878FFF7BB
:101DA0002FFA6878002804D10648018849084900BC
:101DB0000180002C03D0012080F3108870BD00202A
:101DC000FAE70000800000500000F407088DFC07CF
:101DD0005051FC07090404A4405BFC070F0099095B
:101DE00010B5AE4A13885B085B001380138840244B
:101DF000A343138013880824A343C0000343138024
:101E00001089800A80020843108110BD30B5A34BB1
:101E10001C880125640864002C431C801C88402514
:101E2000AC432C431C80012900D101201C882025B3
:101E3000AC43400104431C8018881024A0430901CE
:101E4000084318809888800A80021043988030BD2B
:101E500030B5EFF31081012282F3108805231B07B0
:101E60009A882024A24322439A80002900D001218D
:101E700081F31088894C6034A18949084900A18107
:101E8000A189C907C90FFBD18449002220310A82E8
:101E9000824A038893824388138383889383C38809
:101EA0000B8013880625AB43457A6D002B431380C6
:101EB000827B002A00D100BEC37B002B00D100BE74
:101EC0008B8B5B095B01521E13438B830A8B530977
:101ED000C27B5B01521E13430B83817A012917D009
:101EE0008189C07AFFF77CFFA189012081430143EA
:101EF000A181A089C007C00FFBD06948016880227A
:101F0000090A09021143016066491020086030BDCA
:101F10008289C17A007AFFF779FFE5E7F0B50025FD
:101F200084462846DC0701D0022423435B4C5B4FE8
:101F300060340E46491E89B2002E1AD0268AB60792
:101F4000F60FFBD0002904D19D0702D501267602A9
:101F500000E0002665462D5C2E433E824F4D401C1E
:101F600080352D8880B2002DE3D04C494031898ADC
:101F700009E0D90707D0218A4907C90FFBD0218A78
:101F80008906C90FFBD1002A00D01580F0BD464A52
:101F9000D062424820300182704710B500210846C7
:101FA000FFF7F5FF042000F070F810BD70B505468E
:101FB000FFF7F3FF3C4B002058611C6A002C03D054
:101FC000598B2A46586AA04770BDF8B54306364972
:101FD00032481431314A6030002B14DA0020FFF708
:101FE000E5FF2E484030808AF8BD5B1C9BB20B8118
:101FF000B34204D10B7D9B0701D52B4600E00023A3
:102000002343138202E001256D026C100B898E8838
:10201000B3420AD2078ABF07FF0FE6D105E0148A50
:102020000D68EC54CB885B1CCB80CB888C88A3429A
:1020300003D2048BA406A40EF1D188889AB28242FE
:10204000D2D10120FFF7B2FFF8BD70B4164C039E49
:1020500060610D46258300206083A08320344CC43A
:102060000E4854214030808A70BC10488FE70B48DE
:1020700010B5203080890C49C96A002901D08847F1
:1020800010BD042000F001F810BD002805DBC106DA
:10209000C90E0120884006490860704700130050AF
:1020A00004E400E000E100E0585BFC07CB1FFC0704
:1020B00080E200E0F8B50125AD07AC6B2046FEF7E5
:1020C0003BFC6949694F4A688618002048603946D8
:1020D00030465CF797FF664948603A465043301AED
:1020E00000D0381A80B20860286B08218843084362
:1020F00028636048046060480068002802D0A0425D
:1021000000D200BEF8BD10B5FFF73FF8052000076C
:102110004189890703D04189890889004181018962
:10212000802211430181018A042291430182818A24
:102130008907FCD500F0B4F8012080070169490740
:1021400000D500BE01694907FCD510BD10B5FFF7E9
:1021500011F84A4801894907FCD4FFF716F84848A6
:1021600005210088090748804648474C0088801EA2
:10217000608007202080FEF7FDFF20884007FCD408
:10218000FFF7C1FF10BDF8B540480168C90703D08B
:1021900001680222114301600168490204D5016807
:1021A000012292051143016001272F4EBD072C69C2
:1021B000002C57D0200606D58020A8614BF767FB7E
:1021C0001E20FEF74BFBA00703D50220A86147F7AE
:1021D0005CFA20070AD50820A86102F084FD0020DF
:1021E00047F70CFA0420307000F0FBFCE00505D541
:1021F000FF200130A861012047F700FAA00504D5AF
:1022000001204002A8614BF7ABFB600603D54020DC
:10221000A86147F7EEF9E00603D51020A86145F75D
:10222000ABFD60070FD50420A86114480189490857
:10223000490001815BF748F940F702FA1E20FEF7DA
:102240000DFB00203070E00706D00120A8615BF78D
:1022500057F94BF71CFB3770A006A8D52020A861C2
:1022600000BEA4E7F8BD00000C8DFC077102000061
:10227000400000401C8DFC07148DFC07003300500B
:10228000DC8BFC07E08BFC070016005000020040CE
:1022900010B540F71AF8674880686749486010BD74
:1022A00010B540F73EF8644862494068886010BD48
:1022B000F8B5002500F0B9F800270090FEF784FA81
:1022C00001465E4E0020002902D13179022900D159
:1022D00000905B490989C9070DD15AF75AF90028BE
:1022E00009D0F0780125002805D005200007808A54
:1022F000C00701D0042596E0308800287DD1FEF784
:1023000063FA002806D14F48806A002802D000F006
:102310008CF80090FEF71CFBB17868465AF731FF45
:1023200000286AD00124A407206940067BD44348D2
:10233000817868464BF702FC002874D00120FEF734
:102340002FFF0099002906D0206AFF383938DA2893
:1023500001D8491E00913C4802883C480168501849
:102360003B4A1060E26B920A92020A43E263E16B1D
:10237000384A1140384A1668B2021143E163E16BF2
:10238000C902C90A40050143E163344A00980425A3
:102390000021904200D300BE314B0CCB5CF75CFEB9
:1023A0000903000D0843244A401E711C1060884236
:1023B00000D1166021480079002801D0012100E0F9
:1023C0000021106847F7D0FA2648C06A8047FEF718
:1023D00023FB002802D0FEF7CDFE0127154E206B0F
:1023E0000004C00FFBD03068C005FCD530688024E5
:1023F000A0433060002F03D000E014E0FEF7C5FEDC
:102400000F494889462804D24622174B101A1860F3
:102410004A81FFF73DFF30680006FCD50520000724
:102420000189A14301812846F8BD10480068806AEF
:102430007047000000020040148DFC0754BAFC07EE
:102440000033005074BEFC07E08BFC07385BFC07D0
:10245000885BFC07FF03E0FF345BFC0740420F0092
:10246000008CFC0758BFFC07108DFC0758B9FC070F
:10247000002070477047704710B5282801D22820E7
:1024800002E0E62800D9E620FF21F33148437D2110
:10249000C9005CF7B7FD8130C0B210BD704770470E
:1024A00010B5022902D0012900D000BE002802D0B8
:1024B000FF2802D000BE022902D000F09BFB10BD15
:1024C0000C2010BD01218907086B07221043086307
:1024D0008C480168021391430160704710B50220D7
:1024E000FEF75EFE8748016802039143016086485B
:1024F00000214163416B1F2212049143421389184A
:10250000416301060868F0229043E030086010BD86
:1025100010B58AB07D4941627D4981627D49416142
:10252000002430210C547C49C1627C4901607C4903
:1025300001627C4941607C49C16100F03EFB724808
:10254000416B1F22120491434213891841636D4865
:102550000168C2129143016068460455641CE4B2EC
:10256000282CFAD3014671482822006840305CF7D5
:10257000C3FD092000F03BFB00F03FFB002802D028
:10258000012000F034FB00F019FBFEF767FDFEF7B9
:1025900094FD00F0D5F800F058F8FFF79FFF00F029
:1025A0000BFB00F083F800F01CFB0AB010BD10B567
:1025B0005548416B1F22120491434213891841630D
:1025C00000060168C908C9000160052000070189EB
:1025D00008221143018100F010FB002802D00120E5
:1025E00000F005FB00F0EAFAFEF738FDFEF765FDA6
:1025F00000F0A6F800F029F8FFF770FF00F035F8BA
:1026000000F0EFFA10BD10B5044670224849494861
:102610005CF772FD47484830011B4648103801837B
:1026200044495C31091B418310BD10B500F0C6FA66
:10263000FEF743FD00F084F800F007F800F0BCFA64
:1026400000F023F800F0CDFA10BD2F4B10B5403349
:102650001868394C0102090EC2B20A3109040A3263
:10266000204011430143196010BD344A118B314899
:10267000103083691B0C1B040B438361518BC269AF
:10268000120C12040A43C26170472C4A203A118B83
:1026900028481030C3681B0C1B040B43C360518BCC
:1026A0000269120C12040A430261704710B5FFF769
:1026B000ECFFFFF7DAFF21482038018A1D4810306F
:1026C0008268120C12040A4382601C4A40329188CC
:1026D000036A1B0C1B040B430362D188426A120C71
:1026E00012040A43426215494A88836A1B0C1B0480
:1026F000134383628988C26A120C12040A43C262BD
:1027000010BD000000020040400000407124FC07A2
:102710007524FC07A124FC07C524FC077724FC07CB
:102720009D24FC079F24FC077924FC074CB9FC0777
:102730006C51FC0770A0FC0700FF00FF2030004038
:10274000F0B5FE48406B7F21090288430B21090246
:102750004018FA494863086AF94980B24018F749B5
:102760000862886BF749012208405203F349801838
:102770008863F2484030016903231B021943016159
:10278000818B102421438183EC48203081880124EF
:1027900021438180ED49EC480860ED4C20883F21C1
:1027A000090188432F21090140182080E84820387A
:1027B0008169E84D490D490549198161C169E64DB5
:1027C000294009256D024919C1614168E34D29403D
:1027D000E34D491941608168E24D2940E24D4919B4
:1027E0008160C168E14D2940E14D4919C16001692D
:1027F000E04D2940E04D49190161E049C5140978CF
:1028000009064919C1256D012943DD4D29600525BA
:10281000DC49AD020D816D1D8D81DA4920310D89B4
:102820002D0A2D0255350D818D25AD000D82D64D19
:102830008D82D64D0D83D44D0E3D8D83D349D14D20
:10284000C91D40352980D249A181C16BD14C21409D
:10285000D14C0919C163FF20D04C6C302080CF4887
:102860002030068B1F2149010B258E43AD017619BF
:102870000683CA484030868809278E43BF01F6196F
:102880008680068915278E437F01F6190681868981
:102890008E4371198181FF208D30A080BF48803028
:1028A0000189E024A14319430181818B4909490130
:1028B00019318183B2482030818B5B01994389189B
:1028C0008183AF4880300168C908C900C91C016014
:1028D000AB49B34840314862F0BDA94908B5002072
:1028E0008031C8620090401C0090FF28FBDDAD489D
:1028F0000078AA49C006820D4031C8681F235B01D9
:1029000098431043C86008BDA7488C49006840310F
:1029100008608A488169890989011C31816181695E
:10292000C21391438161016B3F221206914307223A
:10293000920689180163016B3F22920191430F2295
:10294000D20189180163016B890989011E31016374
:1029500070477A48C16949084900C16170478F488A
:1029600008B54030C1688F4A8905C90E1170C16829
:102970001F2252019143C160814901208871804822
:102980008030C16A03221143C16200200090401CC4
:102990000090FF28FBDD08BD08B579490220887149
:1029A00000200090401C00900B28FBDB08BD634812
:1029B00041210177C169032252029143021589180E
:1029C000C16170475D4840300168774A116000215D
:1029D000C943016059488169890989018161816917
:1029E000C21391438161C1690322520291430315CD
:1029F000C918C161C169702399434031C161016B3C
:102A00003F231B0699430B235B06C9180163016B27
:102A10003F239B01994389180163016B890989014F
:102A2000183101637047F8B5554803274771434C87
:102A30006068C009C00114306060FFF7C3FF432025
:102A40002077FFF7A9FFFFF78AFF002526150095DD
:102A50000098401C0090B042FADB494903204871BD
:102A6000364880308068C705FF0DFFF736FF0095B8
:102A70000098401C00901028FADBA0694002400A30
:102A8000F9050843A061A06948490840B901084315
:102A9000A061FFF78CFFFFF77FFFFFF760FF009556
:102AA0000098401C0090B042FADB35490320487181
:102AB000224880308068C705FF0DFFF70EFF0095A4
:102AC0000098401C00901028FADBA0694002400AE0
:102AD000F9050843A061A06934490840B9010843D9
:102AE000A061FFF764FFFFF757FFFFF738FF00957E
:102AF0000098401C0090B042FADB21490320487145
:102B00000E4880308068C605A069F60D4002400A74
:102B1000F1050843A061A06924490840B1010843B8
:102B2000A061FFF716FFFFF7EFFEFFF7D6FE009557
:102B30000098401C00901028FADB39E0003000407B
:102B400000008888FF00FEFF59055C0780000040F8
:102B50002020004009581A00FEE1FFFFE0E00000DD
:102B60000809294900000303696A686C031FFFFF15
:102B700070600000E0E0E0E00B0A0A08208DFC072E
:102B80000010004020130040340A000051080000EB
:102B9000070F00002F64E0FE101A0601001200402B
:102BA000500150011C5AFC078C5BFC073F80FFFF63
:102BB000134846810120F8BD35E7704708B5114834
:102BC0000821017100210091009A521C0092102AE4
:102BD000FADB0091491C00911029FBDB03214171B4
:102BE00008BD084802218171002181807047064993
:102BF0000870704704480078704703484078704771
:102C0000905BFC0700100040208DFC07FFB585B0ED
:102C10000C46FD205EF7ECFA03900027684607702B
:102C200008986946060A20885FF70EFC054660880A
:102C3000002800D000BE002D6BD1FD2000F064FE06
:102C40000146426868460078142386464343181DAF
:102C5000105C022821D1D058354A008890421CD1FE
:102C60000197029720885FF78AFB002800D100BEF9
:102C700001AB002204A94EF777F90498214680059C
:102C8000C00F5FF767FB05062D0E42D1684601783D
:102C9000E28830465FF739FD20E000290AD08869D4
:102CA0008446002806D0A2886188A31D7046654628
:102CB000A847054601970297208801A94DF7CFFE46
:102CC000002D26D101980089C00B07D16288A18808
:102CD0002088A31D4DF72DFF051E1AD131460398FC
:102CE0005EF7A4FA0146A088079A801D83B21148B6
:102CF00059F780FE0746A288A11D801D5CF7FCF9EC
:102D0000684600787880A088B8803E70384659F7C9
:102D10008CFE04230848079A089959F76BFE21880E
:102D20000180857059F781FE002009B0F0BD0000D8
:102D3000022900000AFD0000160C0000F8B500256D
:102D4000244CFF272E46002813D128461030266138
:102D5000A082E7826660A660E681A681C0B22146B5
:102D600026605AF746F86D1CEDB21834022DECD3EC
:102D7000F8BDE08A5EF7C2FA002802D0416820461A
:102D80008847E7826660A660E681207D5AF78BF867
:102D90006D1CEDB21834022DEBD3F8BDF1B50D4D1D
:102DA0000D4F00242E46E88AFD2803D118206043E9
:102DB00080194760E88A5EF7A1FA002803D082688C
:102DC000284600999047641CE4B21835022CEAD3D7
:102DD000F8BD0000288DFC073452FC0710B500F048
:102DE00085FB60F785FC0120FDF7A2FC10BD0C21DE
:102DF000474A10B5414389188978FF2902D000F06D
:102E0000F7F810BD00F0B1F910BD10B500F0ADF944
:102E100010BD10B560F754FB002801D000F0A5F9F3
:102E200010BD10B500F0A1F910BD10B539490A78F0
:102E30000270401C491C5CF75FF910BD3549498C94
:102E4000018070470821018010214180002181808C
:102E50007D21C180704770B50C46017800252D4B4F
:102E6000002904D0012909D04820207070BD827843
:102E7000011D1A70581C5CF73FF901E04088588426
:102E8000257070BD01200870002048808880704740
:102E900070B504464079800911D13FF730FD0146F5
:102EA00020700A0A62700A0CA270090EE170251DDA
:102EB0003FF725FD2870000AC0210843607170BDEE
:102EC00010B500F0F6FB10BD1FB54978002908D0F9
:102ED000114A012901D002290DD1012300920422B7
:102EE00006E00EA21ECA03946C460EC401231022F3
:102EF000694600F0FDFB1FBD10B50446497800F09F
:102F000049FA204600F033FC204600F024FC10BDB6
:102F1000708DFC077C8DFC0740E20100000102037C
:102F20000405060708090A0B0C0D0E0F00219A4A2A
:102F300005E0834201D101207047491CC9B20C232E
:102F40004B43D35CFF2BF4D10020704770B59249FE
:102F5000924C0E460C36924D0DE052185268002AE3
:102F600007D0C2B20C235A4351184968401C607004
:102F70002DE0401C607060780C2242438B5CFF2B7C
:102F8000EBD10AE089194968002903D0FFF7CEFF89
:102F9000002809D02078401C207021780C20414363
:102FA000705CFF28EED117E020780C21414389198D
:102FB0004968401C20700AE04919C968002909D0F5
:102FC000C1B21C2251434919C968401CA0708847EE
:102FD000002070BD401CA070A0781C2141436A5C99
:102FE000FF2AE9D10020A07060702070012070BD20
:102FF000F8B505460024684E0AE08019816800296A
:1030000004D0641CE4B22846884701E0641CE4B2A2
:1030100020460C214843315CFF29EED15E4E00244E
:103020000C3609E08F19B968002903D0FFF77EFF3D
:10303000002809D0641CE4B20C216143705CFF28B5
:10304000F0D10024564E10E0641CB968E4B2284662
:103050008847F1E780190169002904D0641CE4B2B3
:103060002846884701E0641CE4B220461C214843FE
:10307000315CFF29EED1F8BD10B5484CE06800285E
:103080001CD1522304220921464859F7B3FC0D21D3
:10309000E060017000214170434A8280C2800722B3
:1030A0000272817201224272C1722B2319540246AC
:1030B0000C323EA30B210B3060F72CFAE06810BDF8
:1030C00070B5364EB068002829D136482C2304222A
:1030D0000921093859F78EFC032101700A21B060DB
:1030E0004170172101840025857604464580102112
:1030F0000A305CF71AF82021E176A583E5832E4893
:103100006584C08F0021002800D90846E0842A4841
:10311000002140300088002800D908462085B0688A
:1031200070BD3EB500251C49009501950C22343137
:10313000684602955BF7E0FF18480C221830694694
:103140005BF7DAFF154C0B222434227017A1601CA8
:103150005BF7D2FF104965842431042059F749FEFA
:103160000021042059F777FE3EBD10B5FFF784FF1C
:1031700059F75BFC09490020C8600221042059F777
:103180006AFE10BD10B5FFF79BFF59F74EFC0349CF
:103190000020886010BD00007052FC07588DFC07AD
:1031A0003054FC070D0D00004C0400004449414C14
:1031B0004F472D544D504C00F0BBFC0710B5104646
:1031C00059F75EFE002802D000BE002010BD01238A
:1031D000042209216A4859F70DFC0121017059F7B1
:1031E00024FCF2E710B508780F2813DA0C2811DA5E
:1031F000012802D003280DD105E04878002805D128
:10320000FFF7C0FF06E04878002801D000BE01E0CB
:1032100000F055FF002010BDF8B51C4610460E46C4
:1032200059F72EFE022802D000BE0020F8BD240A65
:1032300000D000BE0C202746474352483D18AC70D2
:10324000FF2C1AD00121E9700321042059F703FE55
:103250004C483188C153707A28713146681D062266
:103260000A315BF749FF7A204749604340186030D4
:10327000017E0122204660F737F93146204600F0F2
:1032800016FFD2E70A784878092A02D0002800D031
:1032900000BE0020704770B51D4610460C4659F719
:1032A000EFFD2A0A032802D000BE002070BD0C20CA
:1032B00042433448FF21101881700021C17020461C
:1032C00000F0F9FEF1E7F0B5087800252F4C89B041
:1032D0001F461646002804D0012817D0022827D1FF
:1032E00029E06846FFF7A1FD684603783246394673
:1032F00020460A3359F77EFB04460570684602787B
:10330000411C6280201D5BF7F7FE2BE069460D80B3
:103310006846FFF793FD0A2332463946204659F79F
:1033200069FB0121017069460988418059F77DFBDD
:10333000002009B0F0BD0A233946204659F75AFB50
:1033400004466846FFF77EFD02202070684600882C
:10335000608068464088A08068468088E080684633
:10336000C08820812046E1E7FEB51C46089B0E265A
:10337000074D6F4668C7134622465FF7B9FFFEBD8B
:10338000020D0000708DFC07B68DFC070B0E0000CF
:10339000B052FC07F8B50E467A2148430B4D07465C
:1033A00044192046082226771430114600F0E8FA26
:1033B000A01C1022314600F0E3FA3FF7A0FA608229
:1033C000E85D01210843E855F8BD0000B68DFC0713
:1033D00010B50A78180A13005BF7E2FE0805191900
:1033E00019131A1A16190C223D4C424312190123C3
:1033F000D3727A223B4C00234243A354FFF760FD73
:1034000006E0FFF761FD03E0FFF776FD00E000BE98
:10341000002010BDF8B5180A1B0A00901C460C26A7
:103420007A20304D73430A7844432D4E6019074685
:103430009E19921E603713005BF7B2FE0604122A33
:1034400019212C2A89783976C90706D0711D0622E0
:1034500071305BF751FE3079F8750020F07217E09B
:103460000020F0723876009860F78AF810E0172292
:103470003A30891C5BF740FE285D042106E01022EB
:103480006130891C5BF738FE285D10210843285500
:103490000020F8BD1C221E30891C5BF72DFE285D24
:1034A0000221F3E700207047180A7A2250430D4AA0
:1034B000097880186030017600207047002070473E
:1034C0000020704700207047FEB51C46089B072669
:1034D000054D6F4668C7134622465FF709FFFEBDDC
:1034E000708DFC07B68DFC072053FC07704710B5A4
:1034F0000A23042209210B4859F77CFA04461B20B1
:103500002070142060F7C8F86070142060800420D8
:10351000A0800020E080FF2174312181204659F7EE
:1035200084FA10BD1B0D0000F8B50E460978184648
:10353000002425460B005BF733FE09060912091526
:10354000150C180F1B000B241AA512E007241CA54C
:103550000FE008241CA50CE007241EA509E00A249E
:103560001EA506E00D2420A503E0062422A500E008
:1035700000BEA31C0146224859F73CFA07463078A2
:1035800038707C70002C04D022462946B81C5BF7AA
:10359000B3FD384659F749FA0020F8BDFEB51C4680
:1035A000089B0126174D6F4668C7134622465FF7F2
:1035B0009FFEFEBD4469616C6F672053656D6900B5
:1035C0004441313435333100123456FFFE9ABCDEAB
:1035D0000000000001D2008005000100312E302ED5
:1035E000302E302D4C450000765F362E302E313691
:1035F0002E31313434000000FFEEDDCCBBAA0000D8
:10360000031400005853FC0705200007008900063A
:1036100008D501208007006B000403D4034800781C
:10362000C00701D0002070470120704754BAFC0742
:1036300070B51049049C4118052901D3012070BDC3
:1036400000F00FF80025002807DB0B4A81005058D6
:10365000002803D05550804700E000BE25700020B0
:1036600070BD04494018052801D240B270470020BF
:10367000C0437047F2FBFFFF348EFC07F8B5494D9D
:1036800084002959002912D101021E230422464830
:103690000A3159F7AFF9012606700746285107226B
:1036A0004249801C5BF728FD002038717E70285944
:1036B000F8BD10B50446FFF7E1FF59F7B6F9002051
:1036C000384AA100505010BD70B5364D84002D1DF4
:1036D0002959002901D0084670BD01021E23042289
:1036E00031480A3159F786F904210170285170BD1B
:1036F000FFB581B01F460446FFF7E6FF294D064699
:10370000A4002D1D28591021801C5BF70EFD28599F
:10371000039A801C02995BF7EFFC7770304659F7EB
:1037200084F90020285105B0F0BD70B51D4D84000E
:103730000C352959002901D0084670BD01021E230D
:10374000042219480A3159F755F90721017001215E
:103750004170285170BD10B50446FFF7E6FF59F7D8
:1037600064F9104A0020A1000C32505010BD70B511
:103770000546FFF7DAFF04467A2045430C48082245
:103780002D18287F2077688A6082294620461431C8
:1037900014305BF7B1FCA91C1022A01C5BF7ACFC39
:1037A00070BD0000488EFC07140E00002854FC0772
:1037B000B68DFC077047704770B50D460446FFF79D
:1037C00023FF002806D04A482A460421201859F72A
:1037D00050FC70BDFCF7FBFF45480422082311464E
:1037E000801E59F707F94560047059F71EF970BD3E
:1037F000F8B5404C069D06190024002E26D0012E57
:103800000CD03E4F3C4B3A46283A022E0AD039495A
:10381000C91E41180A2927D30120F8BD00F03EF83F
:10382000287039E00878461E092E0DD88000001F48
:10383000105898422FD1B0003B5813504A6808786E
:103840001146FFF7B9FF26E000BE24E04A68002ACF
:1038500002D02B48824200D900BE08782449401883
:10386000042159F706FC16E02249891E4018C0B20F
:10387000411E0929E8D88600B218803AD16F002984
:1038800009D0994207D01F4B994204D0D467F2194E
:10389000803AD46788472C700020F8BD10B50878AE
:1038A0000C46411E09291FD882001448121F2838CF
:1038B0008258144B9A4205D1002289004250283088
:1038C000425012E0890040580B4988420DD1042231
:1038D00008231146064859F78DF821780170616870
:1038E000416059F7A2F800E000BE002010BD0000C2
:1038F00003040000FFFBFFFFB737FC07888EFC07BF
:10390000FCFF3F00B537FC070021154A06E0834263
:1039100003D11C20414388187047491C1C234B438A
:10392000D35CFF2BF3D10020704710B5182304227D
:1039300009210C4859F75EF804461B202070FD2031
:103940005FF7AAFE6070FD2060800420A080002147
:10395000E180E1602161A182204659F766F810BD3F
:103960003054FC071B0D00003EB51D46069B00248D
:1039700000931346019402942A465FF7B9FC3EBDBA
:1039800010B58A4201D35FF7EBFC10BD70B5594802
:1039900000228169D243002901D0114600E00121B3
:1039A000CB178C0E9B0123438C01816152490D681A
:1039B0004E682C4333430C604B60436A002B01D0AC
:1039C000144600E00124E317E50D5B022B4344623B
:1039D0000D6864024E682C4333430C604B600369EE
:1039E000002B01D0144600E00124E317250F1B0132
:1039F0002B4304610D6824014E682C4333430C6053
:103A00004B604368002B01D0144600E00124446061
:103A1000E31724190D685B414E682C4333430C6057
:103A20004B60C368002B01D0144600E00124E3176B
:103A3000650FDB002B43C4600D68E4004E682C4327
:103A400033430C604B604369002B00D1012242617B
:103A5000D017D30E400118430C6852014B68224323
:103A600018430A60486070BD38B5002403252D0254
:103A700004232A46062120460094FDF7AEFC0022CE
:103A80000923042110460094FDF7A7FC00220A2315
:103A9000012110460094FDF7A0FC012400232A46D2
:103AA000032118460094FDF798FC00232A460521BF
:103AB00018460094FDF791FC00231A460921184688
:103AC0000094FDF78AFC38BD10B51B20FDF7AAFB5A
:103AD00001F046F909490A48FDF76FFFFFF7C4FFF7
:103AE0000848FEF7B5F90848012182898A430A434C
:103AF000828110BD708CFC07688CFC07EC58FC07B9
:103B0000001100501E5AFC070003005070B5044617
:103B10000D46104600F0E2F82146284600F099FADA
:103B200070BD10B5044600F0B4F9204600F09DFACF
:103B300010BD70B5012500246D02FDF74FFD002377
:103B4000012221462846FDF724FD70BD10B5224B09
:103B500000245C7018709C705A601972204600F046
:103B6000A1F910BD38B51C4C0546A17800200029EC
:103B70002ED1684600F0C6F86078002829D065701C
:103B8000607800F0E0F8207800F0C5F805460020E5
:103B900000F03DF90543072000F021F90543606876
:103BA000FFF7C7FF207A00F03AFA0543042000F03F
:103BB00046F90543012000F054F90543002000F0C8
:103BC00016FA0543032000F06DF928430121A17086
:103BD00038BD02206070D3E7B08EFC0730B5EFF33C
:103BE0001082012383F310883E4B188207200002C5
:103BF00018823C4C3B488034603003E02588002D1F
:103C000000D000BE058A2D07ED0FF7D01B8A0B7080
:103C1000018A8906C90FFBD1002A0AD0012080F34E
:103C200010882088002806D02E484030808A002046
:103C300030BD0020F3E7012030BD1FB500236A46E8
:103C4000138010715171EFF31084012080F31088FC
:103C50000346022101A8FEF761F9002C05D00121DD
:103C600081F31088022806D101E00021F8E76846B8
:103C70000088002802D0002004B010BD0120FBE71E
:103C800038B515460C46EFF31081012282F31088F7
:103C900080221043134A108212486030028A520771
:103CA000D20FFBD000290CD0012080F310880D48E2
:103CB00080300088002806D00A484030808A0020E2
:103CC00038BD0020F1E70220009007480023026879
:103CD00029462046FEF7B9F9012038BD024908609F
:103CE0007047000000130050BC8EFC0710B5FFF7B2
:103CF000C7FF10BD10B5FFF771FF10BD10B5FFF77E
:103D00009CFF10BD10B501460F20FFF7F3FF002800
:103D100000D0012010BD38B5044669462020FFF7C9
:103D2000E9FF00280ED06846007821010007000F47
:103D30000143C9B2684601702020FFF7DFFF002869
:103D400000D0012038BD1CB5044669462020FFF78D
:103D5000D1FF002819D001A92320FFF7CBFF0028AD
:103D600013D068460178C9480A0905D102781209BA
:103D700012010A4369460A70002C07D0F721082374
:103D8000012C14D0022C09D000201CBD69460978F2
:103D900001700807000F6946087010E06846027855
:103DA0000A40027002790A401A43027107E06A462B
:103DB0001078084018431070107908401071684658
:103DC00001782020FFF79AFF0028DED068460179AD
:103DD0002320FFF793FF0028D7D001201CBD38B562
:103DE000044669462020FFF785FF00280ED068466C
:103DF00000786107C008C000490F014368460170A0
:103E00002020FFF77BFF002800D0012038BD38B507
:103E1000044669462320FFF76DFF00280ED0684650
:103E20000178CF20014020010843C1B268460170EB
:103E30002320FFF763FF002800D0012038BD38B5EC
:103E4000044669462220FFF755FF002808D068463F
:103E5000047021462220FFF751FF002800D00120E6
:103E600038BD38B5044669462420FFF743FF0028D3
:103E70000ED068460178F7200140E0000843C1B247
:103E8000684601702420FFF739FF002800D0012088
:103E900038BD08B569463120FFF72CFF002800D057
:103EA000012008BD38B5BF24042809D040250028CA
:103EB00023D001283CD0022857D003287BD077E0BC
:103EC00069462E20FFF716FF002872D0684600785A
:103ED000C106C90E684601702E20FFF70FFF0028AB
:103EE00067D069462420FFF705FF002861D06846A7
:103EF000017821400170242056E069462420FFF714
:103F0000F9FE002855D06846017821402943017008
:103F10002420FFF7F3FE00284BD069462E20FFF740
:103F2000E9FE002845D068460078C106C90E38E091
:103F300069462420FFF7DEFE00283AD06846017863
:103F400021402C46214301702420FFF7D7FE002892
:103F50002FD069462E20FFF7CDFE002829D06846D5
:103F600000782146C006C00E1AE069462420FFF7FB
:103F7000C1FE00281DD06846017821402943017008
:103F80002420FFF7BBFE002813D069462E20FFF740
:103F9000B1FE00280DD068460078C006C00E802112
:103FA0000143684601702E20FFF7A8FE002800D0CC
:103FB000012038BDFFE769462420FFF79BFE00285B
:103FC000F7D0684601782140294301702420FFF78B
:103FD00095FE0028EDD069462E20FFF78BFE0028C5
:103FE000E7D068460078C006C00EC021D8E738B5D3
:103FF000044669462E20FFF77DFE0028D9D068468A
:104000000178DF20014060010843C1B268460170B9
:104010002E20FFF773FE0028CBD00120C9E738B56A
:1040200004461F2801D90020C3E769462E20FFF768
:1040300061FE0028BDD0684600784109490121434E
:10404000684601702E20FFF759FE0028B1D00120EC
:10405000AFE7062251438AB210B501462820FFF788
:1040600045FE002800D0012010BD38B50446694641
:104070002F20FFF73FFE00289BD069460878C00636
:10408000C00E08702070012093E70000BA5BFC07A7
:10409000424901200872704710B5002A00D100BEC5
:1040A0003F48FFF746FD3D490320087210BD10B59B
:1040B000FEF79DFE10BD10B5FEF7A7FE10BD10B5B2
:1040C000FEF7A7FE374938A05CF718FE344A1E21D8
:1040D0000220FFF73BFD012800D000BE00202F4941
:1040E000087210BD70B52D4C0020C03C10E00621B8
:1040F0004143091902228A5E92114A8004228A5E93
:1041000092118A8006228A5E9211401CCA80C0B237
:1041100021788142EBD8C9B225A05CF7EFFD0025DC
:104120000DE0062068430019062304220221C35E25
:10413000825E415E26A05CF7E1FD6D1CEDB2207849
:10414000A842EED870BD10B5144C207A03005BF77E
:1041500027F805040E1D220C1D000220FFF702FDAA
:10416000012800D000BE04202072002010BD0B48A2
:10417000C038FFF7D6FC0949C0390878002805D0B7
:1041800002222272174A891CFFF7C0FC1649C82078
:104190000880012010BDFFF7A5FFE4E7808FFC0732
:1041A0009140FC070459FC0725730D0A000000002C
:1041B00053616D706C657320526561642066726F27
:1041C0006D204649464F3A202564200D0A00000024
:1041D00020783A25642C20793A25642C207A3A25D7
:1041E000640D0A009940FC0700310050F8B50746FD
:1041F00001200023024600901946032045F702F9EA
:104200000446022180300170FF4DFE482A68438831
:104210001146FF31F7310B8680884886FB48066AD5
:104220000123DB069E431E430662FF320020FF325D
:10423000383250829082D0821D200882F44848840F
:10424000F448C882F448088300204882384645F77D
:1042500019FC01462868FF30F730C28B92099201A1
:104260000A43C283ED48416800208847002C02D0F1
:10427000204644F7B0FC2046F8BDFFB58BB006469B
:1042800016980027022821D00D98018814988142A1
:1042900078D37188084640383F2802D8159851F7DE
:1042A000ADFC0C98361D0088149A80190E995AF7A7
:1042B00023FF0C980188149808180C9908800D9811
:1042C00001881498081A0D9908805CE100200E9D61
:1042D000079069782C78090221433180E978AC781D
:1042E0000902214371808C46403904242D1D024669
:1042F00003468E46402900D32878614604291FD002
:10430000052914D0062918D070463F283DD81598A5
:1043100051F774FC0006000E04D0C148008D000661
:10432000C00F30D002230120BE4A002712E0697876
:1043300000290FD0BC4A17230CE0BC4A0F2309E028
:10434000522802D0D22802D002E0142000E015202A
:10435000B74A1F23002A1AD0984218D2800010585A
:104360000490002813D000200890059070884038F1
:10437000402803D32878052430716D1C701D0090EF
:104380000498B5E0FEE03027F0E03327EEE07088D7
:10439000042872D10627E9E0522862D00CDC4B28B1
:1043A0003FD004DC41286AD0422858D111E04C2883
:1043B00020D0502853D140E0632830D004DC572867
:1043C00018D061284BD19BE06C2864D0772846D167
:1043D00009E00098297801700098641C401CA4B280
:1043E0006D1C009081E00498401C049001780898AE
:1043F00081427AD10098A41C401C41084900881CC5
:10440000009068782A780002104308800599AD1C56
:10441000A4B2002969D008900020059065E0012031
:10442000FBE71022294600985AF766FE00981034E0
:104430001030A4B21035009057E020464030149957
:10444000039088420BD84022294600985AF754FE20
:104450000098403000900398403584B245E03427FE
:1044600043E00822294600985AF746FE009808348F
:104470000830A4B20835009037E068E0FFE7062274
:10448000294600985AF738FE0098A41D801DA4B252
:10449000AD1D009029E01498001B80B20390308875
:1044A000001B001D81B2012007900498401C04905D
:1044B0000098401C4008400000900498007857285D
:1044C0001CD04228CBD100980170090A4170009895
:1044D0002946801C0090039A5AF70EFE0398039910
:1044E000201884B20098401800900498401C049052
:1044F000007800281ED0002F17D01BE04908E2E703
:104500001498001B81B200980391401C40084000A1
:10451000009001200A460790294600985AF7ECFDC2
:104520000399601884B20098DDE70D990988A142CB
:1045300000D331E70D980088A04208D30499097888
:10454000002904D10799002903D1A04201D03427C2
:104550000CE00D99001B08800C9801880098801BC6
:10456000001F08180C99002F08800CD070880428B0
:1045700009D0062807D04038402804D30E98407947
:10458000707100E0342738460FB0F0BDFFB581B040
:104590001F4616460C46104658F772FC00257F2829
:1045A00002D02189062909D03B463246214601988E
:1045B00051F7B7FE0546284605B0F0BDC00601D547
:1045C0000225F8E720780028F5D1300AA11D3EF732
:1045D00040F8F0E7F1B598B018983EF738FA04467D
:1045E000189805210079134A4006C00F09906846C3
:1045F0000184618B08460A38904276D2E08A062808
:1046000073D319E030BCFC074CB9FC07C000004074
:1046100010800000294100007671000058BFFC079F
:1046200048BEFC073803F2074003F2079C03F20779
:10463000D803F207770C00001922D201904254D817
:10464000228BFF23F5339A424FD8521C9300D21885
:104650004243521C0A23521059438A4245DC217FAF
:1046600000290CD1617F002909D1A17F002906D141
:10467000E17F002903D12021095DC90635D02746F5
:1046800020377978C906C90E491F0C292DD2A18A75
:1046900081422AD8E17C002927D0421E082A01D96C
:1046A000082000E0401E81421FD8684642F790FA79
:1046B00000281AD1FE4D0622286221460BA85AF77F
:1046C0001BFDA8792E46803E00287DD060798009A8
:1046D00001280BD00BA8099948F749FD010003D028
:1046E0003820405C002870D09CE009E1F06A807AB4
:1046F000012808D0042806D00BA848F7A5FD286299
:1047000000284ED054E0686A06220BA932305AF7CE
:1047100017FD002806D00BA848F796FD2862002850
:1047200002D012E0686AF9E700210BA848F7A2FD61
:104730002862F16A897A012905D18B071A6849062E
:104740008A430A431A60002811D0F16A286A0622B7
:10475000253010315AF7F4FC002808D1286AF16A94
:104760002030C07AC97B884201D1286A1EE0D14836
:10477000D1490088C96880B20622504308183EF724
:104780006BF9014614A8062202305AF7B5FC13AAA9
:1047900000213C203EF72DFC0121B06D43F754FE73
:1047A000AAE011A90BA848F765FD2862002839D0B6
:1047B00001460A9006220FA825315AF79DFC0A9956
:1047C00008AA2031C97A01E042E025E00FA848F7A5
:1047D000B1FB002812D0286A2030C07A002809D105
:1047E0006846B649008C47F718FB08AA0121B34870
:1047F00048F7A0FB68460BA9008C0AE008AA012133
:1048000011A848F797FB00280CD0296A6846008C4D
:10481000323147F718FB05E00A18527D002A08D00C
:1048200010286DDBF06A407A022806D0032804D0F5
:104830000EE0401C1028EFDBF4E76846008C0528EA
:1048400006D308AA0BA8099948F774FB002857D08B
:1048500000226946204648F716FC002850D1F06A2D
:10486000407A02280BD0032809D00023684602882A
:104870000BA8099948F728FC002802D02FE0012353
:10488000F4E7E18A68460181218B4181618B818156
:10489000787806224109684681757878C106C90E84
:1048A0006846417521460E305AF726FC1898007963
:1048B0004006C10F684601750388214602A8B26D03
:1048C00043F768F90146B06502A83EF7E0FB002017
:1048D000B065214668461C31008842F7CCF945F79F
:1048E0004BFA734C2034207A002805D0002109208F
:1048F00058F709FC002020720021084658F7ABFA4F
:1049000019B0F0BDF8B56E4C064685000F466059EB
:104910004C21095C24290ED140691022791D2E30CA
:104920005AF7EAFB615925204031087300221146ED
:10493000304650F7B6FA60594C21095C0C291FD15A
:1049400040691022791D2E305AF7D6FB60595F213D
:104950004069095C09072DD401462E3110221E3012
:104960005AF7EEFB00280CD0605909214030017342
:10497000304650F7B3FF0146002230464FF710FE95
:10498000F8BD0421684601706A46052130464FF79C
:10499000B1FF6846017860200143684601703046E7
:1049A00050F79CFF014668460278012330464FF7D6
:1049B0000CFFF8BD304650F791FF012809D060592F
:1049C00007214030017300221146304650F769FA42
:1049D000F8BD615900204969C031887160590421CE
:1049E000426930461E324FF785FF605941694031B8
:1049F000897F002907D01A214030017300213046F9
:104A000050F7D9FAF8BD1B2140300173304650F7FA
:104A100027FBF8BDF8B52A4C05468600A0594C2264
:104A2000125C192A11D140224D30491D5AF764FBFE
:104A3000A059402223494D305AF782FB002805D067
:104A400020492846203957F7E6FCF8BD0B21684677
:104A500001706A46052128464FF74CFF68460178E9
:104A60006020014368460170284650F737FF014631
:104A700068460278012328464FF7A7FEF8BDFFB528
:104A800081B003980C46060A002558F7F9F900286A
:104A900027D0132825D0142823D00B48B700C0599D
:104AA0002030407BC00637D5039858F7E9F90DE070
:104AB00030BCFC0768B9FC0760BBFC0750F5F10788
:104AC0003CBEFC07FCBDFC0778BBFC0715280CD0DE
:104AD000A0793DF7AFFF304643F74AF8032806D0E8
:104AE00015E0A0793DF7A6FF1FE002251DE0A848CC
:104AF000C0592030407B400704D53D2130463EF769
:104B000097FC04E03D22002130463EF7A0FC3D2109
:104B1000304642F775F808E0204610389D4901817B
:104B2000468120464AF75EFD0125284644E5F8B552
:104B300010460D46140A58F7A3F9010030D09448E6
:104B4000A200835801271E8BBF023E431E831329F8
:104B500026D0142924D0152911D080582D21095C84
:104B60000123CA06002A0CDA0246A032967D002EE6
:104B700007D093753D21204642F742F810E002200D
:104B8000F8BD090703D50021A0308175F7E7A030F3
:104B9000837520463FF7CCF9294620463FF700FAB7
:104BA0000020F8BDFFB581B01546170A104658F72A
:104BB00067F9002837D0132835D0142833D0290AB4
:104BC0008C00734E152815D0FF202946033058F766
:104BD0009AFA30592D21095CC90603D5A030C07D51
:104BE00000280DD03D026D1CA8B258F749F91928CC
:104BF0000BD00EE030590121A030C1750220DBE45A
:104C00003D21384641F7FCFF0DE0A8B2012158F7DD
:104C100022F930590122018B520291430183384617
:104C200002993FF7BDF90020C6E4F0B55849870066
:104C3000C959002680314A8C8B8C1B2A00D21B223A
:104C40008C8B944200D222468A849A4200D001265C
:104C50000B8CCD8C1B2B00D21B23CC8B9C4200D207
:104C60002346CB84AB4200D001260B8ECD8D9C46D3
:104C7000FF2349339D4201D21C4600E02C460D8D96
:104C8000A54200D325460D86654500D001264C8EF1
:104C9000A4468C8D9C4200D21C464B8DA34200D270
:104CA0001C464C86644500D00126EB080B3B9BB2AA
:104CB0009A4200D213468B86522335495843364BCD
:104CC000CA591C688032D28C0419FF34D2B2013424
:104CD0002286C9591A6880318018FF30498E013008
:104CE00041863046F0BD2D485222006864308188EC
:104CF000C37E5143284A12688918FF225F32525AF4
:104D0000FF31120AD21A01310B8CD2B2DB0B09D05F
:104D10000B8C5B045B0C0B84002A03D18088204A37
:104D2000012111547047FFB51746140A81B0184A83
:104D30000298A100515840780026194D002907D04B
:104D4000295D002905D0002803D120463FF7D4FD76
:104D50002E553A46049B0299019840F75EFD2BE4DC
:104D600010B518220F4910485AF7C6F90D4B0F48D5
:104D70000C3B0ECB0EC00C480D49A03001600D4914
:104D8000416009490C482039086010BD7047000097
:104D900078BBFC07060800004CB9FC0784BBFC0785
:104DA0008A8FFC073459FC0720000840C000FC072C
:104DB0000459F007490C00BF07001000064C0125FC
:104DC000064E05E0E36807CC2B430C3C98471034B3
:104DD000B442F7D3FBF7A0F9FC59FC071C5AFC07B7
:104DE000F8B5040C8BB2264682B25E430D0C104619
:104DF000370C5843360480190021794116466E431A
:104E0000370C36048019794126466E438919F8BD5E
:104E100002E008C8121F08C1002AFAD17047704783
:104E2000002001E001C1121F002AFBD170470000E1
:104E3000305AFC07C58BFC07C68BFC07C08BFC07F0
:104E4000C48BFC076103FC077F03FC076307FC07B7
:104E5000AB07FC07F401010070CAEA80D0070640E6
:104E600064320000544EFC07F88BFC071125FC0748
:104E7000AF25FC0793DEF007F1DEF007F9DEF0075F
:104E800049DFF00761DFF00777DFF00799DFF00710
:104E900019E3F007BDE5F007FDE3F0071DE4F007B7
:104EA0003DE4F0077BE4F0078BE4F007F5F9F00749
:104EB000B1F7F007CFF7F007EBF7F00705F8F007C9
:104EC00019F8F00797F8F007AFF8F007DFCDF10712
:104ED00067D0F107DBB9F007CD0DF207B10EF2078D
:104EE000AD0EF207A90EF2078D21F007C906FC07E7
:104EF000B520FC071D0AFC074F09FC073909FC0710
:104F0000B57EF007837DF007ED41FC07599EF10760
:104F1000634CF1073D2DFC07D110F2079D2DFC07D6
:104F2000B111F2074112F2077912F20700000000F6
:104F3000C306FC07C506FC07B9C6F007D592F10702
:104F40007B42FC075F9DF1075F9CF1078D45FC07E5
:104F5000EB72F107B922F1076B04F1079906FC0720
:104F60002BA4F007F1D2F0075FBDF007D5BDF00725
:104F700085BEF0072B4CFC07752EF0071581F00756
:104F8000DF7FF0070937F00700000000B306FC07D9
:104F9000BB06FC079B06FC07F3C3F10775C4F107CA
:104FA000C706FC070726FC07000000000000000001
:104FB00000000000000000000000000000000000F1
:104FC00000000000000000000000000000000000E1
:104FD00000000000000000000000000000000000D1
:104FE000000000000000000005000000C061FC0798
:104FF000000400009C93FC07AC020000908FFC07AB
:10500000000400005496FC07700500002003000017
:1050100000A60E0004000000D200000032000000D4
:105020003C00000001000000010000000200000040
:105030000200000004000000030000000600000061
:10504000000000000200000002000000000000005C
:105050000000000003000000030000000500000045
:1050600005000000060000000A0000000A00000021
:10507000C8000000B80B000002000000B80B0000E0
:10508000B80B000010000000D4010000CC010000AB
:10509000700200006A00000004000000010000002F
:1050A000200000000A00000001000000E2040000EF
:1050B0008A020000DC050000AF000000644EFC071F
:1050C00000000000DC51FC075452FC070854FC07A8
:1050D000304EFC0701040000000000003F0000000B
:1050E00000000000010000017F4AFC0701001D01D3
:1050F0002F4BFC0701001E01A54BFC07010000021D
:10510000274DFC0700000000000000002000800088
:1051100000C0000000008400000028220000000001
:105120000000040000F7FFFF7F00000030F0FF0FD9
:10513000000000000004000000000000000000006B
:10514000000000000000000000000000FF0F000051
:105150000100990903009909070099090F009909AD
:105160001F1099092F2099095F519909080004908F
:105170000000000000000000030005D08B0035F0A7
:1051800010005CF0000010B0000018B000001AB071
:10519000030051F0000038B000003AB0000064B0E5
:1051A000000066B0000022B0000024B0010005D06D
:1051B000000000000A00008008030490000004F0D2
:1051C000030006D0000000000A00008008030490DD
:1051D000000004F0030006D0000000006055FC074A
:1051E0006455FC076855FC070939FC07130C0000DF
:1051F0004B29F207150C00000D2CFC07170C0000C2
:10520000572BF207000C00002328F20706FD0000D0
:105210005728F20703FD00003728F20708FD0000B9
:10522000B328F2070EFD00000F29F20705FD00006C
:10523000992BF207EC51FC07090000001400000054
:10524000ED14F207FD0000002126F207FF00000028
:10525000000000003C52FC07288DFC070200000003
:1052600000004C044C040701000102030405060081
:10527000FF0000000000000000000000140000001B
:10528000EF34FC0700000000FF00000000000000F9
:105290000000000000000000583FF207B48DFC073A
:1052A00004000100000000000000000000000000F9
:1052B000010D0000BD31FC07000D0000E531FC07C9
:1052C000000E00008532FC07010E00001932FC07B9
:1052D000030E00009732FC070A0E0000C732FC07DD
:1052E0000C0E00008531F2071C0D0000C731F207DB
:1052F000100D00008530F2070F0E0000F931F207A3
:105300002C0E00003932F207120C00005332F20763
:10531000080E00006F32F2071B0E00009F30F207EC
:10532000130E0000D133FC07150E00001534FC07E6
:10533000170E0000A534FC07190E0000A934FC0765
:10534000150D0000BD34FC07210D0000C134FC0721
:10535000220D0000C534FC07021400002935FC07AB
:10536000AF40FC07B740FC07000000000000000051
:10537000BF40FC070000000000000000000000002B
:10538000232EFC07000000000000000000000000C9
:105390002B2EFC073D2EFC07452EFC07572EFC0745
:1053A00000000000852EFC07912EFC070000000085
:1053B00000000000C12EFC07C92EFC070000000001
:1053C00000000000F92EFC070000000000000000B3
:1053D00000000000000000000000000000000000CD
:1053E0000000000000000000000000006933FC071E
:1053F000F137FC073136FC07C934FC079D35FC0743
:105400006939FC07F80000008531FC074D2FFC07C7
:105410006053FC0700000000EC53FC07708DFC0794
:10542000B68DFC07A08DFC070300001000010000F2
:10543000FD0000006855FC072D0000002B39FC071B
:10544000000000000000000000000000FF0000005D
:10545000000000000000000000000000000000004C
:105460000000000000000000595A08E4862A9E8FC0
:10547000E911BC7C9843421820EE8D0CE1F04A0CF7
:10548000B325DC536A68862D4F43313C939242E644
:10549000A876FA3BEFB4875A17B967984C664C0167
:1054A000963331B1915900152368EC521E62447451
:1054B0009A1BD18BAB75B66E9EE7BA08B9A948ABFB
:1054C000A1AC031C2E0D296C28D5E1C1E1C54729EB
:1054D000B55765C3BA47159E8C09E0D18154424047
:1054E0008E4FD2B377E32A77595A08E4862A9E8FE3
:1054F000E911BC7C7C46421820EE8D0CE1F04A0C90
:10550000B325DC536A68862C4F43313C939242E6C4
:10551000A876FA3BEFB48759595A08E4862A9E08C0
:10552000E911BC7CD047421817B967984C664C010A
:10553000963331B1915900142368EC521E624474C1
:105540009A1BD18BAB75B66D28D5E1C1E1C5472952
:10555000B55765C3BA47159D0028032802290129BC
:10556000001A212D030000005855FC071000000010
:1055700001000000100010006854FC075A55FC0799
:105580000200000001000000000000000000000018
:105590007854FC0710000000080002000100000021
:1055A000000000005E55FC07020000000100000042
:1055B0000D000D00EC59FC075A55FC0702000000D5
:1055C0000100000000000000000000008854FC07FB
:1055D00010000000088000000180000000000000B2
:1055E0005E55FC07020000000100000009000900F0
:1055F000C459FC075A55FC070200000001000000D6
:1056000000000000000000009854FC07100000009B
:105610000102000002000000000000005C55FC07D1
:10562000020000000900020002000000000000006B
:105630005E55FC0702000000010000000B000B009B
:105640008859FC075A55FC070200000001000000C1
:105650000000000000000000A854FC07100000003B
:105660000100000002000000000000005E55FC0781
:1056700002000000010000000B000B009459FC0721
:105680005A55FC0702000000010000000000000065
:1056900000000000B854FC071000000001020000E8
:1056A00001000000000000005C55FC070200000043
:1056B0000900020002000000000000005E55FC0727
:1056C00002000000010000000C000C00D059FC0793
:1056D0005A55FC0702000000010000000000000015
:1056E00000000000C854FC0710000000410000004A
:1056F00014000000000000005C55FC0702000000E0
:105700000900020002000000000000005E55FC07D6
:1057100002000000010000000C000C00A059FC0772
:105720005A55FC07020000000100000000000000C4
:1057300000000000D854FC0710000000090202001D
:1057400032000000000000005C55FC070200000071
:105750000900020002000000000000005E55FC0786
:1057600002000000010000000A000A00E059FC07E6
:105770005855FC0710000000010000001000100048
:10578000E854FC075A55FC07020000000100000025
:105790000000000000000000F854FC0710000000AA
:1057A0000800020001800000000000005E55FC07B8
:1057B000020000000100000008000800B859FC07C2
:1057C0005A55FC0702000000010000000000000024
:1057D000000000000855FC071000000008800000D1
:1057E00001000000000000005E55FC070200000000
:1057F00001000000110011006059FC075855FC071A
:105800001000000001000000100010001855FC07F7
:105810005A55FC07020000000100000000000000D3
:10582000000000002855FC071000000001020000E5
:1058300002000000000000005C55FC0702000000B0
:105840000900020002000000000000005E55FC0795
:105850000200000001000000100010007459FC0755
:105860005A55FC0702000000010000000000000083
:10587000000000003855FC07100000000100000087
:1058800002000000000000005E55FC07020000005E
:105890000100000007000700B059FC075A55FC073B
:1058A00002000000010000000000000000000000F5
:1058B0004855FC07100000004100000002000000F5
:1058C000000000005C55FC07020000000900020017
:1058D00002000000000000005E55FC07020000000E
:1058E00001000000120012004C59FC070001008367
:1058F00000000000020000000000000000000000A6
:1059000000000000757365725F6170705F6F6E5F9D
:105910007365745F6465765F636F6E6669675F6306
:105920006F6D706C65746500D545FC070549FC0713
:10593000154AFC07F99DF00700000000E3A1F107FC
:10594000000000004FA4F1070000000052656164F0
:10595000206D652028696E646963617465290000A3
:105960005772697465206D6520286E6F20727370A0
:105970002900000052656164206D6520286E6F74F7
:1059800069667929000000004144432056616C7526
:10599000652031004144432056616C75652032001A
:1059A000496E64696361746561626C650000000042
:1059B00052656164206D65005772697465206D657C
:1059C000000000004C4544205374617465000000E1
:1059D000427574746F6E205374617465000000002A
:1059E0004C6F6E672056616C75650000436F6E7476
:1059F000726F6C20506F696E74000000305AFC07A3
:105A0000305AFC0790070000204EFC07C08BFC07B3
:105A1000C08BFC07D0030000204EFC070E0048009E
:105A20004F000800170001010100190010100000CC
:0400000507FC0111E2
:00000001FF
