:0200000407FCF7
:10000000185EFD07B500FC07BD00FC07D500FC0726
:1000100000000000000000000000000000000000E0
:10002000000000000000000000000000ED00FC07E0
:100030000000000000000000EF00FC07814DFD07FC
:10004000F300FC07F300FC07094DFD070D4DFD070C
:10005000ED4BFD07F300FC07F300FC07F300FC0782
:10006000F300FC07F300FC07F300FC07F300FC07B8
:10007000F300FC07F300FC07F300FC07F300FC07A8
:10008000F300FC07F300FC07F300FC07F300FC0798
:10009000F300FC07F300FC07F300FC07F300FC0788
:1000A0000348854600F052F800480047AF45FD0779
:1000B000185EFD070F4880470F480047042071462F
:1000C000084203D0EFF309800C490847EFF308809A
:1000D0000A49084704207146084203D0EFF309801B
:1000E00007490847EFF3088005490847FEE7FEE7A0
:1000F000FEE7FEE70501FC07A100FC070540FD0740
:100100000140FD0710B50F49062008800F2000F0C0
:100110000CF8012000F009F8002000F006F800209B
:1001200005210907088062B610BD002809DBC10659
:10013000C90E0120884004490860BFF34F8FBFF308
:100140006F8F70470034005080E100E0064C0125BD
:10015000064E05E0E36807CC2B430C3C984710346F
:10016000B442F7D3FFF7A0FF9001FC07B001FC07F2
:1001700002E008C8121F08C1002AFAD17047704770
:10018000002001E001C1121F002AFBD170470000CE
:10019000B001FC070040FD07E41500007001FC07FA
:1001A0009417FC07E455FD077C0800008001FC075C
:1001B000FEE7000005200007018A042211430182A6
:1001C000018A0222114301820189402211430181E7
:1001D000054A01211160418A012289088900D20360
:1001E000114341827047000080E200E0F0B500203A
:1001F00099B0149004461390169015900746064641
:1002000005461790072168460C22C90300F0BFF885
:1002100068460078702878D168464078522874D1B2
:1002200001981190029810906846402212901199FE
:1002300000F0ADF868468078AA2811D168460078A9
:1002400070280DD168464078512809D10198149042
:100250006846C07816900298179008A8067801247E
:1002600040221099129800F092F868468078AA28E7
:1002700010D16846007870280CD168464078512823
:1002800008D16846C07815900198139008A80578A1
:10029000029FA41C032C04D0012C0ED0022C35D0BC
:1002A0005FE016991598FF2901D100282ED0FF286C
:1002B00001D1002901D0814228D311990020403179
:1002C000149A00F064F8002E02D0149800F0A8FCF4
:1002D00000210846149A00F063FA1799884240D02A
:1002E000032C3ED1109900204031139A00F04FF8B2
:1002F000002D02D0139800F093FC00210846139AB9
:1003000000F04EFAB84228D12BE026E010990020E8
:100310004031139A00F03BF8002D02D0139800F002
:100320007FFC00210846139A00F03AFAB84218D030
:10033000032C16D1119900204031149A00F027F8AF
:10034000002E02D0149800F06BFC00210846149A8D
:1003500000F026FA1799884203D00020C04319B054
:10036000F0BD0020FBE710B586B0694603A800F099
:1003700015F803A86C4604A900F0D6F80A3002D19B
:10038000204600F068F8FFF731FF06B010BD08B551
:1003900092B26B4600F0DEF8002008BDF8B50446C6
:1003A000012003270E463F02009008233A4603210E
:1003B000022000F07EF9002507233A462946022054
:1003C000009500F076F906233A46092102200095AF
:1003D00000F06FF90523002204210220009500F0AF
:1003E00068F92078F1214008400008400007000F1C
:1003F000203020706078C721C008C00008406070BD
:100400000220A0700320E07001208004B06031461B
:10041000204600F024F8F8BD10B5012000F04DFC96
:100420000520000200F0A9FC80B210BD10B5FFF756
:10043000F3FFC00701D00D20C04310BD10B500F080
:1004400077FC00F017FC002000F037FCAB2000F038
:1004500094FC002010BD0DC883490DC1704710B534
:100460000C4600F03BFC002C06D02046FFF7F3FFC3
:10047000FFF7E4FF002010BD0620C04310BD10B5FB
:100480000446FFF7D3FF00281ED100F016FC00F051
:100490004FFC9F2000F053FC002000F050FC0006B1
:1004A000000A2060002000F04AFC00062168000CD1
:1004B00008432060002000F042FC2168C0B20843DD
:1004C000206000F0D7FB002010BD70B59AB0064642
:1004D00060226649684600F0F8FD18A8FFF7CFFFD4
:1004E000002815D11898002814D0411C12D00821DA
:1004F00000246D460C2262435219526882420CD18C
:100500000C2044436019FFF7A6FF285D30700020DF
:100510001AB070BD0A20C043FAE7641CE4B28C42F2
:10052000E8D30920C043F3E710B50C4600F0D6FB32
:10053000FFF784FF2046FFF7C8FF10BD10B5FFF797
:1005400075FF002805D100F0B8FBB92000F015FCBC
:10055000002010BDF8B51D4617460C460646FFF7AD
:1005600065FF002825D1404839198068814202D9A9
:10057000001B288000E02F80022000F09EFB00F08E
:10058000D7FB032120460906084300F0D8FB0020D2
:1005900000F093FB002406E0002000F0D0FB641C78
:1005A0003070A4B2761C2888A042F5D800F062FB17
:1005B0000020F8BD7CB505200007018A0222914386
:1005C0000182818A0907FCD5418A20221143418298
:1005D0000326012536020823324603210220009516
:1005E00000F067F8002407233246214602200094D9
:1005F00000F05FF80623324609210220009400F043
:1006000058F80523002204210220009400F051F83C
:100610001648001F0068019001A800F05FFBFFF77B
:100620000DFFFFF78BFF00F02CFB00233246032168
:100630000220009500F03DF800236D022A4619467D
:100640000220009400F035F800232A4609210220F8
:10065000009400F02EF800232A4604210220009482
:1006600000F027F87CBD0000E455FD07444FFD076E
:10067000704710B5032800D10420174C4001001921
:10068000490008181A43C28010BD032800D1042075
:10069000114A4001801801228A4082807047032855
:1006A00000D104200C4A4001801801228A40428077
:1006B000704770B506460498144600280D4630462B
:1006C00002D0FFF7ECFF01E0FFF7DFFF22462946EB
:1006D0003046FFF7CEFF70BD0030005038B500F057
:1006E000D0FA012002020090002303210220FFF72C
:1006F000E0FF002401256D0223462A462146022000
:100700000094FFF7D6FF00232A4609210220009417
:10071000FFF7CFFF00232A46042102200094FFF7B1
:10072000C8FF1A4800681B494001C20D18480DD087
:10073000438A6A461380128893089B006A469B1C72
:10074000138013880B43138012884282438A6A46BF
:10075000138013880B4313801188418238BD0E4CDF
:100760006088012108436080FF2020800B4E08250F
:10077000758000F018FCC827FFF7F5FD0028FBD1B5
:1007800027807580FFF7AAFFF6E700000000FC074E
:100790000000005000800000003100500033005085
:1007A00010B5C043064B07E00C7844402406A40D66
:1007B0001C59000A6040491C521EF5D2C04310BDAE
:1007C000A44FFD07FFB583B0002B4AD0012B7DD18C
:1007D0000E200825039A108003984580039F00206F
:1007E0003F1D002D27DD0B7884001A464B78801CB6
:1007F0001B021A438B781B041A43CB781B061A433F
:1008000012BA120ACB7812021A433A510B791A46DD
:100810004B791B021A438B791B041A43CB791B06B5
:100820001A4312BA120ACB7912021A43E319083199
:100830005A60A842D7DBF448009003982E460088FF
:100840008000001D0190854247DAB0000290C01977
:100850008038C46F2946304600F023FC0B0003D0DB
:100860001AE00A200425B5E7E848E1B2415C0A0233
:100870002104090E415C090411432202120E825C1C
:1008800012060A43210E405C0099104309780C06B9
:1008900044400098401C0090082D12D1042B10D128
:1008A000DA48E1B2425C2104090E415C09021143BD
:1008B0002202120E825C12040A43210E405C0406DE
:1008C0001443701B80003858604000E00CE002992F
:1008D000761C785001988642B7DB03981022FF30CF
:1008E000E530059900F0F1FB07B0F0BDF0B4044627
:1008F000008814348500281F002833DD2D1F206850
:10090000C349C44B02460A40C609DF433E40921B1E
:10091000C14E4100194032405140FA010E46164086
:10092000F709F61BBC4F4A001A403E407240B84ED1
:10093000570016401F40F309F31AB74E33405F408B
:100940000B4678405340414018267B40F1415940C6
:1009500042401023DA414A400821C841424004C4C1
:100960006D1ECCD1F0BC7047F0B597B002880792ED
:100970001201101814308446084610300023022457
:1009800008909D00674602467D1B803A803DD66FE9
:10099000EF6F08387E40D667966FAD6F9B1C6E4038
:1009A0009667641EEDD160461038139000200490C5
:1009B000079800287EDD401E119010A81490042294
:1009C000941CA407240F0C59944B2402240E1D5D83
:1009D000541CD01CA4078007240F000F0C5B085880
:1009E00096072404360F000E240E8E5D185C1C5DE5
:1009F0009B5D119F049EBE4279DA06466E400396C7
:100A0000370603D576001B277E4000E07600F6B25D
:100A1000654009962F462E0603D57D001B2675409E
:100A200000E07D00EDB2059525465D402E0603D51C
:100A30006D001B26754000E06D00EDB20A951D4665
:100A400045402E0603D56D001B26754000E06D0065
:100A5000EDB21595059E099D75402E0603D56D00D6
:100A60001B26754000E06D00EDB2AC460A9E059D68
:100A700075402E0603D56D001B26754000E06D0005
:100A8000EDB26646AE466E40350603D575001B26B0
:100A9000754000E07500EEB23D465D4067467D4022
:100AA000099F75407D4060405840774678407040CF
:100AB000059F00E04CE07840039F00045F406346E0
:100AC0005F400A9B77405F40039B634074466340EE
:100AD000159C734063402C060443380204431C43B6
:100AE00093000CA818188038C4670BE0FFE70006D5
:100AF0002D04284324022043184394000CABE31830
:100B0000803BD867521E00D05AE70024149B089AF5
:100B1000022518468038C66F1398A700C01B80387E
:100B2000C76F083B7E401746803FFE671E68806F98
:100B3000083A4640A41C16606D1EEAD11398079A25
:100B4000103813900498401C0490904200DA36E765
:100B500017B0F0BDFFB59BB01B98FF3081300090FF
:100B6000446E826EC16E006F25BA00BA1C4616BA7A
:100B70000FBA0390103C3BD4102212A81C9900F02D
:100B8000A4FA1C9810301C90129800BA16900A9083
:100B9000139801BA149802910B9101BA1598189103
:100BA00000BA0C9104900D900AA91B98FFF7DCFE87
:100BB0000A980D99684000BA0E900B98169D7040E7
:100BC00000BA0F900C98029E784000BA10900398DB
:100BD000189F41400498039008BA119010220EA962
:100BE0001D9800F072FA1D9810301D90103CC3D56E
:100BF000039A009C3BBA12BAE36631BA226728BA5C
:100C0000A16660661FB0F0BDA455FD07A453FD07A3
:100C100080808080FEFEFEFE1B1B1B1BA454FD0774
:100C200010B5094A04461146002310390748FFF75A
:100C3000C9FD0648FFF75AFE002223461146034825
:100C4000FFF788FF10BD0000D255FD07F055FD07E6
:100C5000EFF31080012181F31088052109078A88AC
:100C60000123DB021A438A80002800D0012080F390
:100C70001088704710B5474841780078FFF70FFD9E
:100C800010BD10B5EFF31084012080F310884248A6
:100C90000188490849000180052000078188012258
:100CA000D20291438180FFF7E5FF002C03D00120A1
:100CB00080F3108810BD0020FAE737490A885208EF
:100CC00052000A800A88FF2381339A43C0010243FD
:100CD0000A800888012210430880704710B5044636
:100CE00081782C480170E1784170FFF7C3FFFFF76E
:100CF000AFFF20780207C107520F490E52000009CA
:100D00001143C000014360784207920D4006C00FB6
:100D1000114380030143204801800189890889002B
:100D200001810121C18002880A430280002010BD98
:100D300010B5184841780078FFF7A7FC10BD164998
:100D400000220B899B089B009B1C0B810B88DB05F9
:100D50009B0F012B01D9030C8B80488008888004ED
:100D6000FCD50120C8800888C005800F012801D962
:100D70008888020448888018704710B50446FFF739
:100D8000D7FF2046FFF7DBFF0446FFF773FF20463F
:100D900010BD0000185EFD070012005010B50A4893
:100DA00080890A49C96A002901D0884710BD0420FA
:100DB00000F001F810BD002805DBC106C90E0120B6
:100DC000884003490860704720130050E457FD072E
:100DD00080E200E0534930B4884201D0012100E0B4
:100DE0000021514A4901891808E0838ADB07DB0F9B
:100DF00012D00388541C8D68CC81AB54CA898B896E
:100E00009A42F2D382885208520082808A69002A6C
:100E100002D0C88930BC104730BC7047F8B5414D8E
:100E2000414E044620890007000F062826D009DC21
:100E3000012840D002281DD00428F3D12046FFF716
:100E4000C9FFEFE7072828D00C28EBD1AC4201D02E
:100E5000012000E00020400187192046FFF7BAFF7B
:100E6000A18849084900A180B9690029DAD0F88928
:100E70008847D7E7204600F023F8D3E72046AC4266
:100E800001D0012100E00021490189190A69002AE5
:100E9000C8D0818A9E2319400BE02046AC4201D085
:100EA000012100E00021490189190A69002AB9D00D
:100EB00001219047B6E7F8BD1A48AFE71B48ADE7F8
:100EC000184930B4884201D0012100E00021164ABF
:100ED000490189180EE003891B069B0F032B1BD0C9
:100EE000838A9B06DB0F002B96D0531C0C68CB80AB
:100EF000A25C0280CA888B889A42ECD38288022343
:100F00009A438280828880239A4382804A69002A99
:100F100082D0888830BC10477C231B5A9B07DB0F8C
:100F2000E1E779E7001000501C5EFD07001100505A
:100F300002480068002800D0004770475C5EFD074B
:100F400018B5164900220A6005200007448A40238C
:100F50001C434482448A9C4344824A61104B8B6206
:100F600001231B04CB62048880231C43048000926D
:100F7000521C0092642AFBDB0A68D208D2000A6085
:100F800001889943018018BD0449002802D0FF2040
:100F9000023000E001200860704700000000F40704
:100FA000204F101A704738B5274908200880FFF7EE
:100FB0005FFB26484088FFF7F5FF24484030418812
:100FC000C908C9004180214C203C618989050AD5A6
:100FD0004188C2130905090D89184180418878228A
:100FE000914340314180608840084000608018484B
:100FF0000021016005252D076B8A402213436B8277
:101000006B8A93436B824161124A8262012212040D
:10101000C262288880221043288000910098401CDA
:1010200000906428FADB0020FFF7AEFFFFF788FF8F
:10103000FFF7C0FA00F010F8A220E8826088E021F3
:101040008843A030608038BD00330050400000501D
:101050000000F407204F101A05200007018A022221
:1010600091430182818A0907FCD5418A202291435C
:1010700011434182704730B50B46014600202022C3
:10108000012409E00D46D5409D4205D31D469540FB
:10109000491B2546954040191546521E002DF1DC8E
:1010A00030BD70B500242546002801DA01244042F5
:1010B000002901DA01254942FFF7DDFFAC4200D0EB
:1010C0004042002C00D0494270BD03460B439B07B1
:1010D00003D009E008C9121F08C0042AFAD203E0AD
:1010E0000B780370401C491C521EF9D27047000057
:1010F00000000203010000001130EF0000000200B8
:10110000020000001230EF000000040003000000A5
:1011100000421F0000000200040000001120C20075
:1011200000000200050000001128C20000000200BB
:10113000060000001228C200000004000F0000009A
:101140001160850000000200120000001264C80057
:101150000000040000000000963007772C610EEEBE
:10116000BA51099919C46D078FF46A7035A563E9FE
:10117000A395649E3288DB0EA4B8DC791EE9D5E025
:1011800088D9D2972B4CB609BD7CB17E072DB8E724
:10119000911DBF906410B71DF220B06A4871B9F379
:1011A000DE41BE847DD4DA1AEBE4DD6D51B5D4F4B2
:1011B000C785D38356986C13C0A86B647AF962FD17
:1011C000ECC9658A4F5C0114D96C0663633D0FFA64
:1011D000F50D088DC8206E3B5E10694CE44160D56A
:1011E000727167A2D1E4033C47D4044BFD850DD254
:1011F0006BB50AA5FAA8B5356C98B242D6C9BBDB67
:1012000040F9BCACE36CD832755CDF45CF0DD6DC61
:10121000593DD1ABAC30D9263A00DE518051D7C808
:101220001661D0BFB5F4B42123C4B3569995BACF93
:101230000FA5BDB89EB802280888055FB2D90CC6B4
:1012400024E90BB1877C6F2F114C6858AB1D61C12D
:101250003D2D66B69041DC760671DB01BC20D2984C
:101260002A10D5EF8985B1711FB5B606A5E4BF9FD9
:1012700033D4B8E8A2C9077834F9000F8EA80996CC
:1012800018980EE1BB0D6A7F2D3D6D08976C649137
:10129000015C63E6F4516B6B62616C1CD830658550
:1012A0004E0062F2ED95066C7BA5011BC1F408822D
:1012B00057C40FF5C6D9B06550E9B712EAB8BE8B6E
:1012C0007C88B9FCDF1DDD62492DDA15F37CD38CF7
:1012D000654CD4FB5861B24DCE51B53A7400BCA3F5
:1012E000E230BBD441A5DF4AD795D83D6DC4D1A427
:1012F000FBF4D6D36AE96943FCD96E34468867ADFE
:10130000D0B860DA732D0444E51D03335F4C0AAA9C
:10131000C97C0DDD3C710550AA41022710100BBE9F
:1013200086200CC925B56857B3856F2009D466B9E6
:101330009FE461CE0EF9DE5E98C9D9292298D0B01B
:10134000B4A8D7C7173DB359810DB42E3B5CBDB7C8
:10135000AD6CBAC02083B8EDB6B3BF9A0CE2B60349
:101360009AD2B1743947D5EAAF77D29D1526DB04FE
:101370008316DC73120B63E3843B64943E6A6D0D49
:10138000A85A6A7A0BCF0EE49DFF099327AE000A94
:10139000B19E077D44930FF0D2A3088768F2011E27
:1013A000FEC206695D5762F7CB67658071366C19BE
:1013B000E7066B6E761BD4FEE02BD3895A7ADA10DF
:1013C000CC4ADD676FDFB9F9F9EFBE8E43BEB717C0
:1013D000D58EB060E8A3D6D67E93D1A1C4C2D8384A
:1013E00052F2DF4FF167BBD16757BCA6DD06B53FB0
:1013F0004B36B248DA2B0DD84C1B0AAFF64A0336EF
:10140000607A0441C3EF60DF55DF67A8EF8E6E316D
:1014100079BE69468CB361CB1A8366BCA0D26F25B6
:1014200036E2685295770CCC03470BBBB916022203
:101430002F260555BE3BBAC5280BBDB2925AB42B18
:10144000046AB35CA7FFD7C231CFD0B58B9ED92C2D
:101450001DAEDE5BB0C2649B26F263EC9CA36A7592
:101460000A936D02A906099C3F360EEB8567077249
:1014700013570005824ABF95147AB8E2AE2BB17BB0
:10148000381BB60C9B8ED2920DBED5E5B7EFDC7C37
:1014900021DFDB0BD4D2D38642E2D4F1F8B3DD688E
:1014A0006E83DA1FCD16BE815B26B9F6E177B06F89
:1014B0007747B718E65A0888706A0FFFCA3B066676
:1014C0005C0B0111FF9E658F69AE62F8D3FF6B6103
:1014D00045CF6C1678E20AA0EED20DD75483044EA5
:1014E000C2B30339612667A7F71660D04D47694933
:1014F000DB776E3E4A6AD1AEDC5AD6D9660BDF4046
:10150000F03BD83753AEBCA9C59EBBDE7FCFB247F8
:10151000E9FFB5301CF2BDBD8AC2BACA3093B353DD
:10152000A6A3B4240536D0BA9306D7CD2957DE54E6
:10153000BF67D9232E7A66B3B84A61C4021B685DBF
:10154000942B6F2A37BE0BB4A18E0CC31BDF055A38
:101550008DEF022D637C777BF26B6FC53001672BBB
:10156000FED7AB76CA82C97DFA5947F0ADD4A2AF97
:101570009CA472C0B7FD9326363FF7CC34A5E5F1A5
:1015800071D8311504C723C31896059A071280E253
:10159000EB27B27509832C1A1B6E5AA0523BD6B3A7
:1015A00029E32F8453D100ED20FCB15B6ACBBE3917
:1015B0004A4C58CFD0EFAAFB434D338545F9027F03
:1015C000503C9FA851A3408F929D38F5BCB6DA21BC
:1015D00010FFF3D2CD0C13EC5F974417C4A77E3DE8
:1015E000645D197360814FDC222A908846EEB8143E
:1015F000DE5E0BDBE0323A0A4906245CC2D3AC6201
:101600009195E479E7C8376D8DD54EA96C56F4EA0B
:10161000657AAE08BA78252E1CA6B4C6E8DD741F1C
:101620004BBD8B8A703EB5664803F60E613557B9DF
:1016300086C11D9EE1F8981169D98E949B1E87E999
:10164000CE5528DF8CA1890DBFE6426841992D0F48
:10165000B054BB1652096AD53036A538BF40A39E98
:1016600081F3D7FB7CE339829B2FFF87348E434481
:10167000C4DEE9CB547B9432A6C2233DEE4C950BDD
:1016800042FAC34E082EA16628D924B2765BA2493D
:101690006D8BD12572F8F66486689816D4A45CCC5C
:1016A0005D65B6926C704850FDEDB9DA5E1546572F
:1016B000A78D9D8490D8AB008CBCD30AF7E4580565
:1016C000B8B34506D02C1E8FCA3F0F02C1AFBD0371
:1016D00001138A6B3A9111414F67DCEA97F2CFCE42
:1016E000F0B4E67396AC7422E7AD3585E2F937E8DD
:1016F0001C75DF6E47F11A711D29C5896FB7620E1F
:10170000AA18BE1BFC563E4BC6D279209ADBC0FEFF
:1017100078CD5AF41FDDA8338807C731B1121059AC
:101720002780EC5F60517FA919B54A0D2DE57A9F9E
:1017300093C99CEFA0E03B4DAE2AF5B0C8EBBB3C93
:1017400083539961172B047EBA77D626E169146317
:1017500055210C7D01020408102040801B366CD8F6
:10176000AB4D9A2F5EBC63C697356AD4B37DFAEF52
:10177000C59106A9214036B8A15B512E03D534127C
:1017800000063DAFBA429D9EB430B422DA802C9F51
:04179000AC41000068
:0400000507FC00A153
:00000001FF
