:0200000407FCF7
:100000004041FC076501FC076D01FC078501FC0709
:1000100000000000000000000000000000000000E0
:100020000000000000000000000000009D01FC072F
:1000300000000000000000009F01FC07A101FC0778
:100040009510FC07AD2CFC07A526F0071D12FC0738
:10005000D511FC07A301FC075910FC07A301FC07FD
:100060006510FC07A301FC073911FC074311FC07CD
:100070004D11FC075711FC076111FC07A301FC0798
:100080006112FC07A301FC07A301FC07A301FC0705
:10009000A301FC07A301FC07A301FC07A301FC07C4
:0800A00000008E070E000000B5
:0200000407FCF7
:100110005458000652580005525453000743545394
:100120000008504F520000010000000000000000D5
:0200000407FCF7
:100130004669726D776172650000000032363332B5
:0C01400006001600790500020000000017
:0200000407FCF7
:100150000348854600F068FF00480047D916FC07B1
:100160004041FC070F4880470F4800470420714674
:10017000084203D0EFF309800C490847EFF30880E9
:100180000A49084704207146084203D0EFF309806A
:1001900007490847EFF3088005490847FEE7FEE7EF
:1001A000FEE7FEE7D530FC075101FC07E511FC072F
:1001B000D111FC07F8B50746012000230246009044
:1001C0001946032049F71EF90446022180300170C8
:1001D000FF4DFE482A6843881146FF31F7310B86F0
:1001E00080884886FB48066A0123DB069E431E433F
:1001F0000662FF320020FF32383250829082D08275
:100200001D200882F4484884F448C882F4480883D2
:1002100000204882384649F735FC01462868FF30FF
:10022000F730C28B920992010A43C283ED484168BC
:1002300000208847002C02D0204648F7CCFC2046FE
:10024000F8BDFFB58BB0064616980027022821D0CE
:100250000D9801881498814278D3718808464038F7
:100260003F2802D8159855F7C9FC0C98361D008810
:10027000149A80190E995EF73FFF0C980188149824
:1002800008180C9908800D9801881498081A0D997F
:1002900008805CE100200E9D079069782C780902A7
:1002A00021433180E978AC780902214371808C4682
:1002B000403904242D1D024603468E46402900D3B2
:1002C0002878614604291FD0052914D0062918D0A2
:1002D00070463F283DD8159855F790FC0006000E53
:1002E00004D0C148008D0006C00F30D00223012089
:1002F000BE4A002712E0697800290FD0BC4A1723B4
:100300000CE0BC4A0F2309E0522802D0D22802D0C8
:1003100002E0142000E01520B74A1F23002A1AD05B
:10032000984218D2800010580490002813D0002062
:100330000890059070884038402803D32878052419
:1003400030716D1C701D00900498B5E0FEE0302700
:10035000F0E03327EEE07088042872D10627E9E048
:10036000522862D00CDC4B283FD004DC41286AD0F4
:10037000422858D111E04C2820D0502853D140E0D9
:10038000632830D004DC572818D061284BD19BE07B
:100390006C2864D0772846D109E00098297801704C
:1003A0000098641C401CA4B26D1C009081E004986D
:1003B000401C04900178089881427AD10098A41CCE
:1003C000401C41084900881C009068782A78000287
:1003D000104308800599AD1CA4B2002969D008908B
:1003E0000020059065E00120FBE7102229460098D7
:1003F0005EF782FE009810341030A4B210350090E1
:1004000057E0204640301499039088420BD8402290
:10041000294600985EF770FE0098403000900398DF
:10042000403584B245E0342743E00822294600984D
:100430005EF762FE009808340830A4B208350090D8
:1004400037E068E0FFE70622294600985EF754FE91
:100450000098A41D801DA4B2AD1D009029E0149841
:10046000001B80B203903088001B001D81B2012068
:1004700007900498401C04900098401C40084000DD
:1004800000900498007857281CD04228CBD10098BF
:100490000170090A417000982946801C0090039A57
:1004A0005EF72AFE03980399201884B2009840183A
:1004B00000900498401C0490007800281ED0002F63
:1004C00017D01BE04908E2E71498001B81B200989E
:1004D0000391401C40084000009001200A4607900C
:1004E000294600985EF708FE0399601884B20098C8
:1004F000DDE70D990988A14200D331E70D98008806
:10050000A04208D304990978002904D10799002949
:1005100003D1A04201D034270CE00D99001B0880C4
:100520000C9801880098801B001F08180C99002F58
:1005300008800CD07088042809D0062807D04038DD
:10054000402804D30E984079707100E03427384673
:100550000FB0F0BDFFB581B01F4616460C461046E1
:100560005CF78EFC00257F2802D02189062909D05E
:100570003B4632462146019855F7D3FE05462846AC
:1005800005B0F0BDC00601D50225F8E720780028A7
:10059000F5D1300AA11D42F75CF8F0E7F1B598B04B
:1005A000189842F754FA0446189805210079134A1E
:1005B0004006C00F099068460184618B08460A38DE
:1005C000904276D2E08A062873D319E030BCFC074B
:1005D0004CB9FC07C0000040108000002941000019
:1005E0007671000058BFFC0748BEFC073803F207CD
:1005F0004003F2079C03F207D803F207770C0000D0
:100600001922D201904254D8228BFF23F5339A420B
:100610004FD8521C9300D2184243521C0A23521046
:1006200059438A4245DC217F00290CD1617F002992
:1006300009D1A17F002906D1E17F002903D1202122
:10064000095DC90635D0274620377978C906C90E15
:10065000491F0C292DD2A18A81422AD8E17C002988
:1006600027D0421E082A01D9082000E0401E8142FE
:100670001FD8684646F7ACFA00281AD1FE4D06226C
:10068000286221460AA85EF737FDA8792E46803EEB
:1006900000287DD06079800901280BD00AA809992B
:1006A0004CF765FD010003D03820405C002870D075
:1006B0009BE008E1F06A807A012808D0042806D07F
:1006C0000AA84CF7C1FD286200284ED054E0686AA1
:1006D00006220AA932305EF733FD002806D00AA8A8
:1006E0004CF7B2FD2862002802D012E0686AF9E7F0
:1006F00000210AA84CF7BEFD2862F16A897A012917
:1007000005D18B071A6849068A430A431A600028F4
:1007100011D0F16A286A0622253010315EF710FDEB
:10072000002808D1286AF16A2030C07AC97B884243
:1007300001D1286A1EE0D148D1490088C96880B239
:1007400006225043081842F787F9014614A80622EA
:1007500002305EF7D1FC13AA00213C2042F749FC8D
:100760000121B06D47F770FEA9E011A90AA84CF766
:1007700081FD2862002838D00146253106220FA8C5
:100780005EF7BAFC286A08AA2030C17A0FA801E0F7
:1007900041E024E04CF7CEFB002812D0286A20303C
:1007A000C07A002809D16846B649008C4BF735FB62
:1007B00008AA0121B3484CF7BDFB68460AA9008C82
:1007C0000AE008AA012111A84CF7B4FB00280CD0BC
:1007D000296A6846008C32314BF735FB05E00A1870
:1007E000527D002A08D010286DDBF06A407A02287A
:1007F00006D0032804D00EE0401C1028EFDBF4E7FD
:100800006846008C052806D308AA0AA809994CF75F
:1008100091FB002857D00022694620464CF733FC54
:10082000002850D1F06A407A02280BD0032809D062
:100830000023684602880AA809994CF745FC00285D
:1008400002D02FE00123F4E7E18A68460181218B81
:100850004181618B818178780622410968468175E2
:100860007878C106C90E6846417521460E305EF79C
:1008700043FC189800794006C10F6846017503884B
:10088000214602A8B26D47F785F90146B06502A876
:1008900042F7FDFB0020B065214668461C31008808
:1008A00046F7E9F949F768FA734C2034207A0028B2
:1008B00005D0002109205CF726FC002020720021D1
:1008C00008465CF7C8FA19B0F0BDF8B56E4C06469C
:1008D00085000F4660594C21095C24290ED14069DE
:1008E0001022791D2E305EF707FC6159252040311A
:1008F000087300221146304654F7D3FA60594C2150
:10090000095C0C291FD140691022791D2E305EF739
:10091000F3FB60595F214069095C09072DD401464A
:100920002E3110221E305EF70BFC00280CD06059CF
:10093000092140300173304654F7D0FF01460022B0
:10094000304653F72DFEF8BD0421684601706A4613
:100950000521304653F7CEFF6846017860200143F9
:1009600068460170304654F7B9FF01466846027880
:100970000123304653F729FFF8BD304654F7AEFF48
:10098000012809D060590721403001730022114627
:10099000304654F786FAF8BD615900204969C031E4
:1009A000887160590421426930461E3253F7A2FF14
:1009B000605941694031897F002907D01A214030B0
:1009C00001730021304654F7F6FAF8BD1B21403080
:1009D0000173304654F744FBF8BDF8B52A4C054680
:1009E0008600A0594C22125C192A11D140224D30A8
:1009F000491D5EF781FBA059402224494D305EF726
:100A00009FFB002805D02149284620395BF703FDCC
:100A1000F8BD0B21684601706A460521284653F748
:100A200069FF6846017860200143684601702846E6
:100A300054F754FF0146684602780123284653F7CD
:100A4000C4FEF8BDFFB581B003980C46060A002528
:100A50005CF716FA002827D0132825D0142823D0B5
:100A60000B48B700C0592030407BC00637D50398EB
:100A70005CF706FA15280DE030BCFC0768B9FC07E6
:100A800060BBFC0750F5F1073CBEFC07FCBDFC0752
:100A900078BBFC070CD0A07941F7CCFF304647F774
:100AA00067F8032806D015E0A07941F7C3FF1FE0DF
:100AB00002251DE03248C0592030407B400704D554
:100AC0003D21304642F7B4FC04E03D22002130468F
:100AD00042F7BDFC3D21304646F792F808E020463B
:100AE000103828490181468120464EF77BFD0125BB
:100AF000284645E524485222006864308188C37E38
:100B00005143224A12688918FF225F32525AFF313C
:100B1000120AD21A01310B8CD2B2DB0B09D00B8C2A
:100B20005B045B0C0B84002A03D18088184A0121E6
:100B300011547047FFB51746140A81B0104A029845
:100B4000A100515840780026114D002907D0295D99
:100B5000002905D0002803D1204643F7CDFE2E55AD
:100B60003A46049B0299019844F757FE08E50A4863
:100B700008490160094941607047704770470000AB
:100B800078BBFC070608000084BBFC074CB9FC07D7
:100B9000C08BFC070459F007C0000840490C00BF97
:100BA0007FB5E4486B460188428889186A461180FF
:100BB00001214C0022181546403DED8F065B5288FE
:100BC000AD19AA18491CC9B21A530729F1D3818952
:100BD000C089081881B2D981D888002821D0188905
:100BE000002820D0988800281FD0588900281ED0BF
:100BF000988900281DD0588800281CD000291CD0B6
:100C0000188800280BD00720062254001C5B8C4259
:100C100001D22146D0B2521E52B2002AF5DA04B0F7
:100C200070BD0320FBE70420F9E70220F7E7052069
:100C3000F5E70620F3E70120F1E70720EFE7F0B53D
:100C400095B0EFF310801090012080F31088BA481F
:100C5000816B4A07520F69460A800A92816B012212
:100C6000C908C9008163B5498B8869464B80022455
:100C7000B24B00219980C16A09078B0F69468B80AE
:100C80000F93C16A0C2399430831C16205210907FA
:100C900009880906CB0F6946CB800521090709930E
:100CA00009888023194305231B071980A449898AD1
:100CB0004906CB0F69460B81A1490893898A4023D5
:100CC00019439F4B9982016A09074B0F69464B8173
:100CD0000C93036A0E218B4303629B4D9948686015
:100CE000FF204030A8602888A043288097484168AA
:100CF0000B071B0F69468B810B934168090909019A
:100D000008314160416849064B0F6946CB810D931C
:100D100041687023994360314160874840380168D9
:100D20008904CB0F69460B820293036841140B437D
:100D300003600168CB07DB0F69464B820E930168A5
:100D40001143016041688903CA0D69468A82039292
:100D50004168CA05D20D6946CA8204928168890336
:100D6000CA0D69460A8301928168CA05D20D694697
:100D70004A8305924168764A11400322D2038918BA
:100D800041604168490A4902FF314131416081684F
:100D90006F4A11400322D203891881608168490A91
:100DA0004902FF3141318160642000F02DF9A889AA
:100DB00069468007C00F8883A8892043A881002442
:100DC000604F288800260121084328800A2000F06F
:100DD0001BF9FF205F4941303A680A4200D0761C77
:100DE000401E3F1D0004000CF6D1A88A8004FCD1EF
:100DF0005149886B671CC208D2007807400F024334
:100E00008A630A2000F000F960004A49FCB20E52E1
:100E1000082CD5D348480A99826BD208D2000A43DD
:100E200082636946454A498891800F998A00C16A60
:100E30000C2399431143C1620999CA01052109078D
:100E400009888023994311430522120711800899CC
:100E50008A013B49898A402399431143384A918248
:100E60000C994A00016A0E239943114301623748E5
:100E70000B994268120912010A4342600D994268B7
:100E8000090170239A430A434260029841032A48A9
:100E900040380068012252039043084326494039F4
:100EA00008600E9809684908490001432248403803
:100EB00001600398420220484038406824490840B5
:100EC00010431D4A403A506004985268520A520238
:100ED00002431948403842600198174A4002403A9C
:100EE00092680A40024314484038826012490598CB
:100EF00040398968490A490201430F4840388160F6
:100F00001098002800D0012080F3108815B0F0BDA3
:100F100010B5114C2078002808D0FFF790FEFFF79D
:100F20003FFE0E4908700020207010BD01F0AAFCA1
:100F30000120F9E7D039FC07801000400012004082
:100F400020300050D034FC070035005040200040D5
:100F5000FF01FCFFC0C0C0C0548CFC07558CFC07CF
:100F600010B5FF22154901320A60BFF34F8FBFF35E
:100F70006F8F13490A6013490B6840241B0A1B0238
:100F800023430B601049898A0021C30700D0352113
:100F9000830702D57D231B021943430702D575231E
:100FA0001B041943000702D53D20000601430648F3
:100FB0002038016301488038026010BD80E100E004
:100FC00080E200E008E400E0A010004010B5062038
:100FD00000F01AF810BD10B5092000F015F810BD8A
:100FE00010B5812000F010F810BD10B5044800F0D5
:100FF0000BF810BD10B5034800F006F810BD000056
:10100000010200000108000000280CD000BF00BF52
:1010100000BF00BF00BF00BF00BF00BF00BF00BFD8
:1010200000BF401EF0D170471CB509480090094828
:10103000019005460126009C05E0E36807CC334398
:101040000C3C98471034AC42F7D3FFF785F800000A
:10105000A834FC07C834FC0701480121018070470F
:101060000E1500500A48011F0988CA0706D00288D9
:1010700007239A43D84B5B7913430380490706D56E
:10108000018807229143D44A92790A43028070472B
:10109000B8100040B0B5254B082018800520000787
:1010A0000188302211430180048803210C4304800D
:1010B0001C896407FCD403889343038003888B4313
:1010C0000380C54CA3894380E3899D1EC14B5D808D
:1010D00007251D8005881543058005880D4305807B
:1010E0001D886D07FCD403889343038002888A43DC
:1010F00002804289920702D042898A434281018953
:1011000080220A430281018A042291430182818A5A
:101110008907FCD541F705F9A0690549086005482C
:10112000016801684907FCD5B0BDC04600330050D6
:10113000080200401000004080B50A2000F024F8AA
:1011400080BD80B50B2000F01FF880BD80B50C205D
:1011500000F01AF880BD80B50D2000F015F880BDB4
:1011600080B50E2000F010F880BD0000B0B501245D
:101170008C404001034D44531A434019490008185C
:101180004280B0BD04300050F0B5C0B203460A3B07
:1011900001210A469A4093B20B4D5C19661C5E40D1
:1011A0000A4B1C8800272E4203D07F1C7608B6B25B
:1011B000F9E79443BAB20D46954025431D8081401E
:1011C00013480160F0BDC046FEFF01000E14005040
:1011D000FEE70000024800880D48102101607047BA
:1011E0002C1300500948018904220A430281018816
:1011F00040220A430280064901220A604189054AC9
:1012000011408918091D41817047C04608000050EF
:1012100080E200E0FC7F00007047000010B50F4C3A
:10122000A1880F200840022806D004280BD00C28E3
:101230000CD00128F4D110E02088022188432080BE
:101240002088802106E001F015FFE9E701F012FF98
:101250002088012188432080E2E710BD041100505E
:1012600005210807028830239A430280028803235D
:101270009A430280828812050DD5184A13880B40C4
:10128000052B08D110880421014311801088012109
:101290008843108070478188C90606D510498A881E
:1012A000D20702D00A88120610D48088C0060CD556
:1012B0000B488188890708D50188C90505D5022111
:1012C00081800188074A0A40028070470120888097
:1012D00008888022904308807047C0460002005072
:1012E00000010050FFFE000080B5C1B20C2904D1FE
:1012F000A02108435F21884380BD08465FF7A0FF17
:1013000080BD80B5C1B2A02904D10C210843F321CE
:10131000884380BD08465FF7AFFF80BDB0B50C467F
:101320000025202D04D041F7EAFA60556D1CF8E73E
:101330000020B0BD10B504460548064970225DF78F
:10134000DBFE0548001B054908801430488010BDAD
:1013500070A0FC076431FC07B8A0FFFF78A0FC0771
:1013600010B507480188074A1368114C23405918E3
:1013700011604088516821400818506010BDC04677
:10138000183000408CA0FC0710B507480188074AB8
:101390001368074C23405918116040885168214058
:1013A0000818506010BDC0463830004098A0FC07B7
:1013B0000000FFFF07481E214180018803220A43E5
:1013C0000280018804220A430280C0480121017082
:1013D0007047C04600160050508CFC0780B50D4881
:1013E0000078C00708D105205BF74AFD00280FD11F
:1013F0002A200A49085C04E00748417D012907D1F9
:10140000007D41424141C21E50425041084380BDCF
:10141000002080BDFDB9FC0788BDFC0730BDFC077E
:1014200070477047704780B55FF7A6FD80BDF8B57F
:101430006946C870020A8A70020C4A70000E087071
:1014400008465FF781FD8FBD80B51B480021016014
:10145000FFF7C6FD164800781F214901134A13689B
:101460008B43C006800DC018106080BD80B5114848
:1014700002210170FFF7AAFD80BDC04680B50B4870
:1014800001688905C90E0A4A11701F2149010268C5
:101490008A4302600748012101700748016803225E
:1014A0000A430260FFF79CFD80BDC0464C1200401D
:1014B000C834FC0706100040AC10004070B50D4663
:1014C00033494018062861D87844007940008744A1
:1014D000035D1C5D335D46002878841C34480C2273
:1014E000194623465BF786FA0446002606702878DC
:1014F000607029788E4246D2B10701D15FF73CFD7A
:10150000A1198870761C000AF3E726480C221425DE
:1015100019462B465BF76EFA0446234908312A46E2
:101520005DF7EAFD21480178217001796170017A47
:10153000A170007BE07026E018480C2202241946B6
:1015400023465BF757FA044606202070287841B2FC
:10155000002901D403280ED33020607013E00D4819
:101560000C220124194623465BF744FA04460A4834
:10157000C078207007E00021617009A1085C06496D
:10158000C87001F029FC20465BF74FFA002070BDBF
:10159000FF5FFFFF08A00000508CFC0706A00000C2
:1015A0000C09010004A000003001FC0700320050CB
:1015B00002A0000070B5EFF31085012484F31088B9
:1015C00005200607708DC00509D54048847001F0DC
:1015D0002DFD0F4908700F48008820404870308862
:1015E0008021014331800C4801680722914301604A
:1015F00041684907FCD50949016109494161002D4C
:1016000002D084F3108870BD002080F3108870BD74
:10161000E039FC07800000500000F4070F00990932
:10162000090404A470B5174EB06800F02DF82749DE
:10163000CA690023CB611518084C284621465DF77E
:10164000E1FC706106494143481901D0201A80B27B
:101650003061306808210143316070BD71020000C3
:101660008FFDFFFF80B506480021016001F0A6FC58
:101670000120C00703490A6882430A6080BDC04652
:10168000A8B9FC073000004080B50246C00B09D065
:101690000E48806A00210B465DF7DEFC8905800A52
:1016A000401880BD0948806A4243900A80BDC04608
:1016B00080B5FFF7E9FF80BD80B50449096A414361
:1016C0000348081803495DF79DFC80BD508CFC075A
:1016D00020A1070040420F0000B59DB0AB48082193
:1016E0000C910180AA4D288819AC20802088C04622
:1016F000C046208804211891C943084202D0002026
:10170000288003E0A88901218843A8810C9BA88B2D
:10171000A049014007201490C0020818A8839E4FDA
:10172000388818433880F88D06229043F8852C4677
:101730000125A803A18B0143A18338889749014063
:10174000398078880A9210439843788005200F905A
:101750000607718D0F2001900202F88D90437D22C3
:10176000D200C90509921DD4032149020843F88516
:101770008B48401CF98D0143F985A08B9843A083C9
:10178000A08B04218843A083788886490140798012
:10179000F88D2843F88518982C460546708D40072B
:1017A000FCD519E0114618310843F885F88D7E49BB
:1017B0000840E9034018F885A08B1843A083A08B4C
:1017C000189A9043A083F88DA843F885A08B4021F8
:1017D0008843A0832C461546200212906C49888BC2
:1017E000032202921043888338882022104340232A
:1017F0001393DB4318403880088C1592104318402F
:101800000884F08A80210D9108431840F082308EC0
:10181000FF2188433086308F284318210891884360
:101820003087308FA02101431093194031875F48E2
:101830000580B0885E490140B18020045D490860A0
:10184000FFF7B8FE5C4A1068149908401AA908709E
:10185000087802281DD0708D1299084210D001F02E
:10186000E5FB0A2802D80B2001F0EAFBF88DC0073F
:10187000514A05D1F88D2043F885708D4007FCD57D
:101880001068022101430F9881431160506840079E
:10189000FCD54A480068C1B20C20AA29014600D0F4
:1018A00029463288824388183080C046C046444862
:1018B0000068444909886827434D0024EC53434A93
:1018C0001186D06201201690C046C046404B181FBA
:1018D00000684049884200D030E107941197019890
:1018E0000707042000210E91179705461918081FB5
:1018F0001A46EC32904200D324E11C4600681C904A
:101900001C9B3B40092007071C9ABB4264D11C9BCF
:101910001F0AFBB21893D2B2921F112A00D9D3E04A
:10192000920002A39A5823469746C0467519FC07B1
:101930005B1AFC07FD1AFC07FD1AFC07FD1AFC07E1
:10194000FD1AFC07FD1AFC07FD1AFC07FD1AFC072F
:10195000FD1AFC07FD1AFC077F1AFC07A51AFC07F5
:10196000CD1AFC07E71AFC07FD1AFC07ED1AFC0765
:10197000F51AFC07144A1198105CC0001018189A48
:1019800092005DF7B9FB2346119973E000330050D4
:1019900004030050FFC3000052000050FFBF0000CE
:1019A000FFEF0000FFF90000FF0F000000020050F1
:1019B000FFF7000080E200E00000F407D07FF807A6
:1019C000D47FF807D87FF807C48BFC07508CFC073E
:1019D000D47EF807A5A5A5A5900F10D01C989C490A
:1019E00088420CD828460830314628311C9A8A4251
:1019F00028D123462959974A1180179F75E71C98CB
:101A0000179F384014990907884203D10020C04627
:101A1000C04605E01C9838401699C907884202D193
:101A2000281D234661E71C9838400F9949078842D2
:101A3000234605D01C9838400299490788426ED148
:101A4000281D52E7B11C1C9A8A425DD12959662291
:101A5000814B99522346179F47E769220B927E4B91
:101A6000985CC00018181030189A92005DF744FB7B
:101A700023460B99784A505CC01950543EE0E9580F
:101A80004843EA58120C801A00B2C008724B403327
:101A9000D88288B2101A8108704A11400818401C78
:101AA000988211E0E9584843EA58120C801A00B2B3
:101AB000C008694B4033588388B2101A8108674ABE
:101AC00011400818401C1883234617E00E9FB800E9
:101AD0001AAA1018189A92005DF70EFB2346189860
:101AE000C7190E970AE0E858622105E0E8585A49FC
:101AF000086503E0E8586421574A5052189880005E
:101B00002818001D179FF0E6314624311C9A8A429E
:101B10002346179F08D1E9584E4A5180E5E61C98A4
:101B2000401C28460ED0E0E6314620311C9A8A42FD
:101B300000D0DAE6E958474A9180D6E666202D5A69
:101B4000169F31E0444D1199685C40086854692043
:101B5000295C49082954284640301A998183092173
:101B60001B9A5143130CC91A09B2C908018491B2D6
:101B7000591A8A08394B1A405118491CC183808C64
:101B8000002802D164200999295266202D5A002D7F
:101B9000169F079C08D132490968C9B2AA290D9D30
:101BA00000D06E252C490D522E488581B08CB8434B
:101BB000B0840D20FFF728FA708938430221119173
:101BC0008843708170894006FCD575800998FFF7BD
:101BD0001BFA708902998843708170890006FCD5D0
:101BE0007F20204948701E4880691F4B9860EFF3A2
:101BF0001085169A82F3108830880D99084330803A
:101C00001A490868149FB843086048684007FCD523
:101C1000174808611748486130880D99884330801B
:101C2000708D129908420DD00E488470187801F01A
:101C300007FA169A0C484078002803D10E49C88D3F
:101C40009043C885002D19D082F3108819E0C04652
:101C50004C420050A000FC07C48BFC07FF3F000073
:101C6000D07FF807508CFC07E039FC070000F40730
:101C70000F009909090404A452000050002080F3C9
:101C800010880F9FE2480068E249884200D0C7E010
:101C9000E148E2495DF749FA14980102E0485DF72E
:101CA00044FAFEF76BFFDF48DF490160DF48E04997
:101CB00030252A465DF720FADE480024C47184717D
:101CC00044710471C470847044703F210B910170A1
:101CD000D948DAA1139A5DF70FFAE8480470E8488A
:101CE000E8490160E848E9490160E949E9480860D4
:101CF000E9480A210170E94817940470E848322144
:101D00000F910170E7480760E748169C0460E748B8
:101D10000760E7480A990160E64814990160E648BF
:101D20000C9F076020020090801DE4490860E44990
:101D30000860E448B849016000F064FC23463A4674
:101D400030890395A843308130890D99084330814B
:101D5000308938433081308CA043308470890899B1
:101D6000884370813089139908433081308A042177
:101D7000149188433082B08A8007FCD5F08CD24918
:101D800008400B2109020143F184F08C1843F084D0
:101D90007089104310210E9188437081708C984394
:101DA00070843089139988433081C84837309C0744
:101DB0002168014021600B9F7802C54A1168814368
:101DC000580308181060C348401C11680143116093
:101DD0008F4800688F4988421D46189439D0B94809
:101DE0000068BB498860BC4A90681071010ED171CF
:101DF000010C9171000A50710098C030B7490A4631
:101E0000002817D0401E435C17783C46029D2C40AA
:101E1000B14D2C1924795C407C401470521CEFE7C2
:101E2000AF48AE497A02944200D931E72258625055
:101E3000241DF7E7A84C1C34A8491C2220465FF754
:101E4000EFF820465FF780F8714872490160169DEF
:101E5000189C9C48006840F7FDF9A248179F07713D
:101E6000C7702068009908432060FFF7A3FA28464E
:101E700000F0D0FC9B48C7709B4807700C249B491E
:101E800020465AF7B6FF204639465AF7E4FF9548F0
:101E9000C77095480770FFF7E5FB0520FFF760F86E
:101EA000680208900B9880020A90EA0390489149D2
:101EB0000818914940188008401E0B908F4C174617
:101EC0003089000600D4A4E11898006B104200D0BD
:101ED0009FE184480088C00700D09AE15BF78DFA43
:101EE0000025284600F096FC8548C079042800D0DB
:101EF0008FE1169800F08EFC1A951AA8042421464A
:101F00004BF71CFE002800D182E116987D4A106034
:101F1000189910680028FCD1C869794B1969884262
:101F200001D21D612946411ACA091979182A02D815
:101F3000002900D16CE1002906D071494869401C94
:101F4000486100F017FE63E16F4A118807915188DC
:101F5000069191880591D1880491158008991031D6
:101F60005180139991805C21684B595A9181644941
:101F7000154608619089139A10430399C943084094
:101F8000A88163480260BFF34F8FBFF36F8F28882B
:101F900010432880E88810430840E8802888A04340
:101FA0002880A888C0B2A880E88870210140402914
:101FB00000D0B9E06220185A0028564900D00146E6
:101FC000454841805448401C2988014329801920F4
:101FD000FFF71AF82888089B184328802888139947
:101FE0000843288068882043688068884B490840F7
:101FF000688001984002698801436980688848497F
:10200000084012998031014369804648A0E0C046EB
:102010009CB8FC076587341200A0FC07AC140000D4
:1020200000B9FC0760BAFC07E431FC0700BAFC0702
:102030007CFCF107DAB9FC07B0BCFC07200080008B
:1020400000C0000000008400000028220000000002
:102050000000040000F7FFFF7F00000030F0FF0FDA
:10206000000000000004000000000000000000006C
:10207000000000000000000000000000FDB9FC07A7
:1020800050B9FC07603FF20754B9FC071833FC074E
:1020900058B9FC071C32FC07B0B9FC07B1B9FC0702
:1020A000D9B9FC075CB9FC0760B9FC0764B9FC0747
:1020B00068B9FC076CB9FC0770B9FC0748B9FC07A4
:1020C00044B9FC074CB9FC07FFF00000C8FEFFFF55
:1020D00000020040FFFF1F00E039FC07908CFC0766
:1020E00000B0FC0754BAFC07B4BAFC075431FC0733
:1020F0007C3300005001FC07030004F8003300505B
:10210000508CFC07FC00004000150050C48BFC07FD
:1021100080E100E040760000FF0F0000FF1F00009C
:102120003FFE0000FCFF00002888F349084028809B
:102130006888ED490840688068880299884368800B
:10214000F84A104640382988014029801046089BEB
:102150006988014069802888169A10432880099868
:10216000173029890140E64C21816989014061814C
:1021700028890A990840184328816889084018432B
:102180006881288811990843288028888007FCD412
:10219000EA81288ADB494988D94C22892B890A9D02
:1021A0002B401343E04A13816289DF4B5B892B404C
:1021B000DD4D13436B81401A09994143002804DC2B
:1021C000DC4A8918C017084001E0DB480818DB49E1
:1021D0005CF72EFF84091934EE4948787F280ED029
:1021E000201A41B2C9114840401A40B2082807DB02
:1021F000E8494869401C486100F0BCFCE5494C7066
:10220000069868800598A8800498E8800798288038
:10221000B64CFFF7E3F83A46002800D150E672B614
:10222000BE4800790228179802D0B8480068406A72
:102230001A902089C00700D052E15AF7AAF93A460D
:10224000002800D14CE1B548C078002862D0B08A9F
:10225000C00700D0C5E0B148008800285AD1B8486E
:10226000806A002803D0A9480068406A1A9000F0EC
:10227000A5FEAA4881781AA85AF783FF002849D0FA
:1022800018980069400645D4A44881781AA84BF7ED
:1022900055FC00283ED04DF7D3FB3A46002800D12C
:1022A0001EE14CF74DF83A46002800D118E19B4852
:1022B00081781AA85AF765FF00281FD0189800697E
:1022C00040061BD4954881781AA84BF737FC0028A4
:1022D00014D00A98FF30954A1188014012980143A2
:1022E00011801A9A002A1DD01898006A884940184F
:1022F000DA281AD8521E06921A9217E082480078FD
:10230000C00702D140F7DEF904E0002040F72AFAC6
:1023100040F7F0F9FFF762F83A46002800D1DFE015
:1023200030BFDDE00020069000E00692B14A754B18
:10233000D0891969079108185861189DE86B81497F
:10234000084007990843E863E86B7F4908409969AA
:1023500089020143E963E86B6F49084059694905FF
:102360000818E8637948069D854200D3BAE0906B6F
:10237000D16B2A461D4600235CF76EFE0903000D53
:102380004118A869821C8A4200D0481E6349097915
:102390004A1E914147F7E8FA6D48C06A804718998C
:1023A0005C4D3A46086B1042FCD000992868084200
:1023B000FCD028680D99884328606089452804D896
:1023C00046216181081AD949C8613FF77EFFA86894
:1023D000D649886128680006FCD530890D99884364
:1023E00030814F480178308A149A10433082504B24
:1023F0001868104318603E4D2889169B9843288121
:10240000708A012903D10E99884370822AE0904393
:102410007082FFF7CFF8169B708A0E99084370827E
:1024200036480B990162EFF3108083F310883188EE
:102430000D9A91433180002802D083F3108802E086
:10244000002080F31088708D129908420AD0002075
:10245000B64988700B2000F0F3FD169B2549C88D06
:102460001843C88500203083708D1299084206D128
:1024700020490888139A1043159A90430880288CA5
:1024800013990843159988432884B08C9843B084E5
:102490000D20FEF7B9FD70891699084311998843FC
:1024A000708170894006FCD50F987080B08AC00694
:1024B00001D50C98208030BFB08A0E490888159A43
:1024C0001043109B18400880288C10431840288423
:1024D00000F098F8164A10681499884310603A463C
:1024E00062B6EDE4FEE7C046FFE1000000330050B5
:1024F0000403005052000050FFEF00000000F407FA
:10250000508CFC07E039FC07FDB9FC0758B9FC0703
:10251000C8FEFFFF00020040FFFF1F0054BAFC0787
:10252000B4BAFC073FFE00000015005038300050E0
:1025300010ED00E02BFDFFFFD5020000AA05000012
:1025400074BEFC0700FCFFFFFF03E0FF40420F00EA
:1025500058BFFC07F0B569212548415C1030C14ADD
:10256000D27800230D4E8B4212D247680A2A3C468D
:1025700006D33D46084C2540214C246864042C4376
:102580000568B54200D127462F6008305B1CEAE79A
:10259000F0BDC046508CFC07FFFF01FC3830004006
:1025A000F0B568211248415CAE4AD2780023124D42
:1025B000134E8B421AD290C80838AC4212D1FC019B
:1025C000640C2C460ED00A2A2C460BD3032424027A
:1025D0003C403F04BF0E3C192C60C488074F3C4070
:1025E000346000E0276008305B1CE2E7F0BDC046C5
:1025F000C48BFC07508CFC074C100040FF0100000E
:10260000383AFC07F8B5474E3088C005464C1AD515
:1026100046488078012803D100F008FD1B2812D815
:10262000308DC00400D4208CFF201C30404908802D
:102630001B2000F005FD3F48018801220A4302806B
:1026400030884007FCD53C483CA118225CF754FD7B
:1026500040A043491CC81CC1FEF789FA41484249C1
:10266000016008200B210324224640F71FF83F4F4A
:10267000787D002836D1B97D0B2933D8B879002868
:1026800002D1F87988422DD0B878002802D1F878A4
:10269000884227D0F87A002802D1387B884221D09E
:1026A000387C002802D1787C88421BD0012200921D
:1026B0001D480280002528462A462B46FEF756FD77
:1026C00000983083F87D411E8841B97D0C2901D3E3
:1026D000284602E0C201481C1043797D002900D041
:1026E0002846F082F978B87825020223204C2A4641
:1026F000A047F979B87900260123009332461C4C93
:10270000A047397BF87A14232A46194DA847797CCB
:10271000387C13233246A84703498889009A10431E
:102720008881F8BD2A00005000030050508CFC073F
:10273000E039FC078000005020000840F99DF007B8
:1027400000000000E3A1F107000000004FA4F10722
:10275000000000009D05FC07CB08FC07DB09FC0717
:10276000C000FC0700000840070010001001FC0733
:102770006D11FC0703480188034A11408918091D9F
:102780000180704712000050FC7F0000B0B5044685
:1027900001201E4DC0070BD0E88A5EF7AFFD002870
:1027A00003D0826828462146904718350020F1E77B
:1027B000B0BDC04670B50125144C002814D0E80700
:1027C00022D0E08A5EF79AFD002802D041682046B8
:1027D00088470025E5816560A560FF20E082207DB7
:1027E0005AF761FB1834EAE7094EE8070CD00025D8
:1027F00025606560A560E560256166611020214661
:102800005AF7F7FA1834F0E770BDC046308CFC0771
:102810001000FF00B0B5D14D2978012921D112490E
:10282000002803D008884007FCD402E0088840074D
:1028300017D400232B70C8888988000444181F20EF
:1028400040064921224660F70BFEA863E963642134
:102850004143080C286205486043800B401C400837
:10286000A862B0BD508CFC07001600501111010089
:1028700010B5F34C082020701120FEF7C5FB032093
:10288000607010BDFEB5624803250570614C20469E
:102890001438016814220A436B218A430260A06A3B
:1028A0005D49C8600020C043A06220683F21884382
:1028B00020602068594908402060606858490840F5
:1028C00001210191890202914018606060684021F5
:1028D0000143302081436160A069524908400B21C7
:1028E00049064018A061A0694F4908406902401894
:1028F000A061A0691821014327208143A1614320E1
:1029000020714A4880474A4880474A4880474048A3
:102910000570009548480668484880474848804701
:10292000206848490840F105401820603B4E403679
:1029300020683040490C40182060412727716068AA
:102940003749084002994018606038488047384845
:102950008047384880472E48057037480568374813
:10296000804737488047206836490840E9054018C5
:10297000206020683040490C401820602771606852
:102980002749084002994018606028488047284835
:102990008047284880471E480099017026480068F3
:1029A0002168284A1140C2058918216021683140F8
:1029B000254D0540A80108182060606801998843EA
:1029C0006060154EF068A06220681C21014323203E
:1029D000814321602068114908402060A0691149A5
:1029E0000840072189064018A061A0690E490840E7
:1029F0000F21C9014018A061A0691E2101432120B7
:102A00008143A1610D4880470D488047F586FEBD92
:102A10000510004018300040E039FC07FF7FFFFF41
:102A2000FFF9FFFFFFFFFFC03FF0FFFF6D14FC0742
:102A30007D14FC07EB0FFC07883000404914FC07AD
:102A4000D70FFC07FFFF7F00FF0100007047000069
:102A5000F0B58BB03022002181541F221204354B77
:102A60001D68954301246204AA181A60334B344D43
:102A70004561344D344E354F354AC261066243627A
:102A80002D4A8262C562334A07604260E004CC4A44
:102A9000136883431360282903D001A84154491CBB
:102AA000F9E72D480068403001A928225CF724FB93
:102AB000C74D0920E870FFF7DBFEFFF771FDFFF758
:102AC00049FD00F089F900F0DDFA00F06BF8FFF73E
:102AD000D9FE2C712248008807210140A971FEF718
:102AE00017FAFEF73DFCFEF74FFC1E490B881E4807
:102AF00004681E4A1440E31803601D4B1C88856956
:102B000015402C1984615B88C4691440E318C361C3
:102B10004B8A046A1440E3180362898A436A1340AB
:102B200059184162A84802218170002101800BB030
:102B3000F0BDC04674000040A12BFC079D2BFC0794
:102B4000892CFC076D2CFC071912FC07452CFC078F
:102B5000472CFC074D2AFC074CB9FC07508CFC079E
:102B6000B81000401030004088A0FC070000FFFFB4
:102B70006430004080B5FFF77BFEFFF7EBFC00F010
:102B80002BF900F07FFAFEF7C3F9FEF7E9FB8E4858
:102B9000022181700021018080BDC0460020704765
:102BA000704700000E4908880E4A02400120430287
:102BB000D2180A804105824A13688B43136081074B
:102BC00000224A671F2212044B6F934340041818D7
:102BD00048670868E0220243102082430A60704779
:102BE00038300050FFFC000080B51F200004012198
:102BF0008A07536F834348041818506710680721E9
:102C0000884310600D48018808220A430280FFF7BC
:102C10002FFEFFF7C5FCFFF79DFC00F0DDF800F08C
:102C200031FAFFF7BFFFFEF7AFFB67480221817063
:102C3000002101800520FEF793F980BD08000050B7
:102C400004100040704780B5E62800D3E62028280D
:102C500000D82820F9214A0042437D20C1001046B7
:102C60005CF7D0F97F38C0B280BD0000054801682C
:102C700007220A4302600120800451490A68824306
:102C80000A60704730000040022901D0012904D1B8
:102C9000002803D0FF2805D0FEE7FEE7022901D176
:102CA0000C207047DB48C0787047C046F8B54448F0
:102CB0000168C90703D0016802220A4302600124A7
:102CC0000168490203D5A10502680A430260270290
:102CD00065023C490095084608380668002E6ED00B
:102CE000300606D5802008604AF7D1FDFEF762FB6A
:102CF0003449B00704D50220086046F7C6FC3149C4
:102D0000300714D508200860FDF7F4FE3D4627463D
:102D10000024204646F772FC2A490420BD4AD0719F
:102D20000220294A907014803C462F46009D3E4266
:102D300004D00F60012046F761FC22492E4203D0E7
:102D40000D604AF70DFE1F49700604D5402008604B
:102D500046F74FFC1B49F00604D51020086045F7E4
:102D60000BF8184970071BD504200860174908881C
:102D7000A043088017480078C00702D13FF7A2FCA3
:102D800004E000203FF7EEFC3FF7B4FC5AF79CFB51
:102D90003FF756FCFEF70EFB00209E49C87109491B
:102DA000F00707D00C605AF7ABFB4AF770FD0549F6
:102DB0009848C471B0068ED5202008608BE7F8BD16
:102DC000000200401800004004100040083300508A
:102DD000508CFC07FDB9FC07FCB57F200002594A66
:102DE000516981430B20000208185061106880B2BD
:102DF0005549401810609069544C04400123580311
:102E0000009020189061032001900002146B04438D
:102E10001463908F10240443948790881843908003
:102E2000A1484B4A02604B4A104610384A4DAC8BC1
:102E3000044015204301E0185030A8836869474CCE
:102E40000440474820186861A869464C044009209E
:102E500040022018A8612868434C044043482018C9
:102E600028606868424C0440424820186860A8689E
:102E7000414C044041482018A860E868404C044098
:102E800040482018E860C1204001624CE4782406E4
:102E900020183D4C2060052080023C4F3880401DAA
:102EA000B880388C55260643AA2086433E84FF26E8
:102EB0006C363046C9303885354908460E30B885FD
:102EC00034483886B986C01D388733482885A86BB2
:102ED0003249014032480818A863324D2E80288FAD
:102EE00010401F462037C01928872F4801881140FD
:102EF0008919D531018081881140C91881800189E3
:102F00001140C91901812136AE802848018811403D
:102F1000C91860310180818A19220A4306218A4337
:102F20008282A08F2249014000980818A08721487A
:102F30000168019A11430422914301601E486066B2
:102F4000FCBDC0462030004000008888FF00FEFF26
:102F500059055C071FFCFFFF042000400000E0FF54
:102F600009581A00FEE1FFFFE0E0000008092949C6
:102F700000000303696A686C031FFFFF70600000B4
:102F8000E0E0E0E00B0A0A080010004028130040CF
:102F9000260A000051080000070F00002F64E0FE21
:102FA000101A06010012004044120040881200402E
:102FB000FF9F00008010004050015001F8B56420D0
:102FC00013490E5A134F3C6A304660431249401869
:102FD00012495CF717F80546F8813C3666430E48FF
:102FE00030180E495CF70EF8001D0D4908612818CD
:102FF000C01D88610B4A1278022A01D11130886104
:10300000FEF742FB0849401880B25AF787FAF8BD2C
:10301000C48BFC07508CFC0720A1070040420F0026
:10302000E039FC07B4BAFC07E20400000E4801884E
:10303000890918220A4000888004400F80187047D0
:1030400010B51F21490282010A4007490B88074C2D
:103050001C4014430C800A88054B13404007800C29
:103060001818088010BDC04654000050FFF9000039
:10307000FFC7000002480188012291430180704788
:103080000411005018B50848016800910099074ADA
:10309000009B1A40FF2424040C40D9B20919044BA8
:1030A000C9181143016018BD8000004000FF00FFF7
:1030B0000A000A0002E008C8121F08C1002AFAD15B
:1030C00070477047002001E001C1121F002AFBD1A8
:1030D000704700001A49888807229043888005209D
:1030E00000078A89D2070DD0098800290AD115491D
:1030F0000A8802854A88828489880184418A124A22
:103100000A404282114906220A800121CA03104B5B
:103110001A60BFF34F8FBFF36F8F02221A60BFF3A5
:103120004F8FBFF36F8F1960BFF34F8FBFF36F8F58
:1031300041890422914341810021018062B6704798
:1031400004030050A000FC077FFE00000034005084
:1031500080E100E000000000D431FC07488CFC074F
:1031600002000100080004900000000000000000C0
:10317000030005D08B0035F010005CF0000010B0AB
:10318000000018B000001AB0030051F0000038B081
:1031900000003AB0000064B0000066B0000022B049
:1031A000000024B0010005D0000000000A000080EB
:1031B00008030490000004F0030006D000000000A3
:1031C0000A00008008030490000004F0030006D009
:1031D00000000000DC31FC0701000000FFFF0000E0
:1031E000BD14FC0701000001450AFC0701000002B4
:1031F000350BFC070000000000000000F401110086
:10320000F4352348F40108C4140A00001400000037
:10321000ED14F207FF0000000000000005000000B0
:103220004041FC07000400009C90FC07AC02000039
:10323000908CFC07000400005493FC07700500000C
:103240002003000000A60E0005000000D2000000D0
:10325000320000003C0000000100000001000000FE
:103260000200000002000000040000000300000053
:103270000600000000000000020000000200000044
:103280000000000000000000030000000300000038
:103290000500000005000000060000000A00000014
:1032A0000A000000C8000000B80B00000200000087
:1032B000B80B0000B80B000010000000D4010000A3
:1032C000CC010000700200006A0000000400000051
:1032D00001000000200000000A00000001000000C2
:1032E000E20400008A020000DC050000AF000000DC
:1032F0009434FC070833FC07000000009C34FC07F2
:103300000000000000000000A8B8FC07A0B8FC07FF
:10331000B8B8FC07F8B8FC07512AFC07E92BFC07F2
:1033200093DEF007F1DEF007F9DEF00749DFF00782
:1033300061DFF00777DFF00799DFF00719E3F007A7
:10334000BDE5F007FDE3F0071DE4F0073DE4F007FD
:103350007BE4F0078BE4F007F5F9F007B1F7F0072D
:10336000CFF7F007EBF7F00705F8F00719F8F007CB
:1033700097F8F007AFF8F007DFCDF10767D0F10756
:10338000DBB9F007CD0DF207B10EF207AD0EF20773
:10339000A90EF2078D21F0077527FC072516FC07FB
:1033A0006516FC07B916FC07B116FC07B57EF007D9
:1033B000837DF007B501FC07599EF107634CF107C7
:1033C000B527FC07D110F2078D27FC07B111F207D2
:1033D000E912FC070313FC07000000002314FC079C
:1033E0002514FC07B9C6F007D592F1074302FC0784
:1033F0005F9DF1075F9CF1075505FC07EB72F10734
:10340000B922F1076B04F1072114FC072BA4F00784
:10341000F1D2F0075FBDF007D5BDF00785BEF0071C
:10342000DB2DF007752EF0071581F007DF7FF00721
:103430000937F007000000002714FC072F14FC07D1
:103440001D13FC07F3C3F10775C4F10703C5F107AA
:103450003513FC0700000000000000000000000021
:10346000000000000000000000000000000000005C
:10347000000000000000000000000000000000004C
:10348000000000000000000000000000000000003C
:1034900000000000FC31FC077C8CFC070C32FC07B0
:1034A000308CFC0701000000CC34FC07D034FC0752
:1034B000700C0000C430FC07C08BFC07C08BFC07FD
:0C34C000D0000000C430FC070E0000002B
:0400000507FC0151A2
:00000001FF
