:0200000407FCF7
:100000001886FC07B500FC07BD00FC07D500FC07FF
:1000100000000000000000000000000000000000E0
:10002000000000000000000000000000ED00FC07E0
:100030000000000000000000EF00FC07F100FC07DA
:10004000F300FC07F300FC079506FC079906FC0784
:10005000F300FC07F300FC07F300FC07F300FC07C8
:10006000F300FC07F300FC071B03FC071F03FC075E
:100070002303FC072703FC072B03FC07F300FC0703
:10008000F300FC07F300FC07F300FC07B103FC07D7
:10009000F300FC07F300FC07F300FC07F300FC0788
:1000A0000348854601F028FA00480047EF12FC0794
:1000B0001886FC070F4880470F4800470420714608
:1000C000084203D0EFF309800C490847EFF308809A
:1000D0000A49084704207146084203D0EFF309801B
:1000E00007490847EFF3088005490847FEE7FEE7A0
:1000F000FEE7FEE70501FC07A100FC079B01FC07EA
:100100009901FC0710B51F480189C908C900018180
:10011000018A1D4CC90713D08088002810D11B48C4
:100120001949428820310A8182888A80C2880A80DF
:10013000618AFF22813200889143C00101436182BC
:100140001349062008800F2000F00EF8012000F06F
:100150000BF8002000F008F86089042188436081D2
:100160000020208062B610BD002809DBC106C90E40
:100170000120884007490860BFF34F8FBFF36F8F9E
:100180007047000000030050000000500280FC0790
:100190000034005080E100E0FEE7FEE731498A8A42
:1001A00003235B029A43C3085B021A438A828A8A4A
:1001B0000723DB0240079A43800C02438A822948C6
:1001C00040300188012211430180264820384189AE
:1001D0004907FCD570472348818A808A4905890FE1
:1001E0008004400FC900081870471E498A8A0323FB
:1001F0005B029A43C3085B021A438A828A8A0723F6
:10020000DB0240079A43800C02438A82704710B594
:100210000446144820384089C00502D40120C04358
:1002200010BD00F0A0FE002806D0FFF7D4FFA042CA
:1002300002D90020C04310BD0A48408AC00408D437
:1002400009480088000704D4082C02D20420C043C7
:1002500010BD06480121047041702046FFF79EFF43
:10026000002010BD40000050200300500080FC071B
:10027000704710B5364C40010019490008181A4360
:10028000C28010BD324A4001801801228A4082801B
:1002900070472F4A4001801801228A4042807047EF
:1002A00070B506460498144600280D46304602D024
:1002B000FFF7EFFF01E0FFF7E5FF22462946304652
:1002C000FFF7D7FF70BD70B5012421460A38814081
:1002D0000D4688B200F02BF884401E48C189A9431E
:1002E0000C43C48170BD10B504460A3804280AD8EE
:1002F0002046FFF7E8FF1849A00040188038806DBD
:10030000002801D0804710BD002CFCDBE106C90E9F
:10031000012088401149086010BD0A20E3E70B2046
:10032000E1E70C20DFE70D20DDE70E20DBE700280A
:100330000BD0411E4840C003010C002002E04908D8
:10034000401C80B20029FAD170471020704700008D
:1003500000300050001400501886FC0780E200E0D6
:1003600081894908490081818189082291438181DD
:10037000704710B50C46034601207949C004086057
:10038000BFF34F8FBFF36F8F002A02D01846FFF7DD
:10039000E7FF58083821734A08401358002B03D050
:1003A0008018406821469847132000F0CFF810BD10
:1003B00070B56D4E7488002520E06B4928018039A6
:1003C0004018E10717D08189090609D40189491C21
:1003D0008AB24189491C89B28A4201D1012200E0D6
:1003E000002241064B0F01219940B1800189491C2F
:1003F00089B2FFF7BEFF6D1CEDB26408002C01D07E
:10040000042DDAD370BD70B54B79CA799C07D20739
:10041000E40F920C2403DB0722431B0D1A430B79D4
:100420001C09240222431C07E40FE40122439C0719
:10043000E40FA40122435C07E40F6401DB072243BD
:10044000DB0E1A430B785C07E40FE4009B072243A2
:100450005B0F1A4382818D790F2D26D0434AF023FA
:100460008418414A002C06D0102C04D0202C2BD00C
:10047000302C1AD128E0EFF31084012686F310887F
:1004800016883606360FAE4203D115889D431D43AC
:1004900015808B7915882D092D011D43158028E0C5
:1004A000002200E0012282F310888A680280120C88
:1004B0004280CA688280120CC2800A8A521E42811F
:1004C0004A88002A19D117E0EFF31084012686F339
:1004D000108816883607360FAE4204D116880F25CD
:1004E000AE432E4316808D7916889E432B011E4302
:1004F0001680002CD6D1D3E70A8A521E028140080A
:1005000038221040174A4B6913508969801841609E
:10051000174801680902090AC20611430160132045
:1005200000F014F870BD4008382318400D4B1950E6
:10053000C01842607047828908239A43C9000A4361
:10054000828181890122114381817047002806DB65
:10055000C106C90E012088400149803908607047F2
:1005600080E100E02C86FC078036005000CAFFAF17
:1005700010E400E08307FF22DB0E9A408907090E92
:100580009940002808DB8308D2489B001B18186894
:1005900090430843186070470007000F083883082D
:1005A000CD489B001B18D86990430843D861704719
:1005B000CA4930B4884201D0012100E00021C84A74
:1005C0004901891808E0838ADB07DB0F12D0038812
:1005D000541C8D68CC81AB54CA898B899A42F2D362
:1005E00082885208520082808A69002A02D0C88913
:1005F00030BC104730BC7047F8B5B84DB84E044613
:1006000020890007000F062826D009DC012840D0E9
:1006100002281DD00428F3D12046FFF7C9FFEFE7D9
:10062000072828D00C28EBD1AC4201D0012000E0F3
:100630000020400187192046FFF7BAFFA18849082A
:100640004900A180B9690029DAD0F8898847D7E73D
:10065000204600F00CF9D3E72046AC4201D001213E
:1006600000E00021490189190A69002AC8D0818A5D
:100670009E2319400BE02046AC4201D0012100E04E
:100680000021490189190A69002AB9D0012190473E
:10069000B6E7F8BD9148AFE79248ADE7EFF31081B8
:1006A000012282F310888D4B052212079842908810
:1006B00001D1802300E0402318439080002903D01B
:1006C000012080F3108870470020FAE710B5024639
:1006D0004032938FDB07DB0FFBD18389802293436A
:1006E00013438381CCB2C0231C520B041B0E038026
:1006F0000902090E818081899143818110BDF0B585
:10070000764F0D460446B84201D0012000E000209B
:100710007349400146182046FFF7C0FF7C20005B6C
:1007200028680102090A2046FFF7D0FFE978C806C9
:100730008A06800FD20FC000920049071043490F6C
:100740000843A081E878C109204680300183E97818
:10075000CA091AD0BC4210D14906CA0F218A2023E7
:100760009943520111432182E9784906CA0F218A2F
:100770000223994352001143218229790907890FE5
:10078000818329798907890F0184287A3077E8687D
:100790003061286970616869B06128790007800F4D
:1007A0007077F0BD828A5209D207D20FFAD0018049
:1007B000704730B513460C46054606E021782846BA
:1007C000641CFFF7EFFF5B1E9BB2002BF6D130BD20
:1007D00070B5424D0446A84201D0012000E000203F
:1007E0003F4E400186190020F080B280002B06D0D9
:1007F000012B07D13160AC4205D1022004E0204634
:10080000FFF7D7FF70BD032000F023F8A088022176
:1008100088430843A080A088802188430843A080A3
:10082000317FAC4201D1022000E00320FFF7A2FE9D
:10083000AC4201D1022000E0032000F001F870BDBD
:10084000002805DBC106C90E012088402649086042
:10085000704700280ADBC106C90E012088402249E2
:1008600080310860BFF34F8FBFF36F8F70471B4914
:1008700030B4884201D0012100E00021184A49012A
:1008800089180EE003891B069B0F032B1BD0838A5C
:100890009B06DB0F002B1BD0531C0C68CB80A25C8B
:1008A0000280CA888B889A42ECD3828802239A43BA
:1008B0008280828880239A4382804A69002A07D0F6
:1008C000888830BC10477C231B5A9B07DB0FE1E76D
:1008D00090E6000000E400E000ED00E000100050B1
:1008E0004C86FC070011005000E100E038B50C46D2
:1008F00005460909684601700A2901D2302000E046
:1009000037204118684601700023012269462846B5
:10091000FFF75EFF2107090F684601700A2901D21F
:10092000302000E03720401869460870002301227B
:100930002846FFF74DFF38BD70B505460C46084602
:1009400000F0C4FD82B2002321462846FFF740FF95
:1009500070BD0000E84A08461178C90703D1E7498D
:100960000B8BDB0BFCD1D268002A00D010477047FC
:10097000FFB5E14C944622780346D206A06981B0C7
:10098000120F01D0012600E0002685890627BD430D
:1009900072001543858103801A0C4280491E018133
:1009A000418100226146FFF7BEFDA0690499FFF76F
:1009B000C2FDD2490888082290431043088005B040
:1009C000F0BDFFB5CC4C944622780346D206606950
:1009D00081B0120F01D0012600E00026858906278C
:1009E000BD4372001543858183801A0CC280491E65
:1009F0000181418100226146FFF795FD60690499FC
:100A0000FFF799FDBD4908881022904310430880E4
:100A1000D5E7FFB5B94C06468E46208881B00D4615
:100A2000F44640094001208021880220814301438F
:100A3000218021880420814301432180AE48007831
:100A4000C1060A0F022B1AD1AB4F022A17D001237D
:100A5000AB4A60460399FFF7B4FFB8698189402229
:100A600091431143818100231A4630460399FFF7D1
:100A70007FFF2188012081430143218038E02388C2
:100A800001208343034323809C4F0023203728E029
:100A9000048B640BE407E40FFAD1012A02D934680D
:100AA000240C3C810C0F01D0348800E034783C8069
:100AB000914C247CA619048B240BE407E40FFAD193
:100AC0000C0F17D0808B012A18D0644620603C8917
:100AD00024042018644620606046001D84465B1C88
:100AE0009BB2039883428548D2D3018BC90BFCD1BA
:100AF000002064E7808B28706D1CF0E7744620802E
:100B00007046801C8646EAE710B57D2212027B4CB7
:100B1000904201D17F2005E04100104600F0AEFC7C
:100B2000401EC0B22189C909C9010143218110BDFC
:100B3000EFF31080012181F31088052109078A88CD
:100B400001239B021A438A80002800D0012080F3F1
:100B50001088704769498A889208920002438A8007
:100B6000704730B5012465497C23634A002803D0CF
:100B7000012807D002280BD08D889D431C358D801D
:100B800014740AE08C889C433C348C80022103E07E
:100B90008C881C438C80042111741178E123000798
:100BA0001940C00E0143117030BD5349C8607047F1
:100BB00070B50446FFF7BCFF504D202028802079F7
:100BC0004007400FFFF7CDFF20780007400FFFF7E9
:100BD000C1FF2078C207A88880218843120E1043E5
:100BE000A880454E22783078D20740084000D20FC6
:100BF000104330700022AA812A890A432A81217871
:100C0000C90712D12179C0068906490FC00E4901D2
:100C1000084330706088FFF777FFA07DC107288800
:100C200040229043490E08432880A0687060E06825
:100C3000B0602069F060204600F028F82888202164
:100C400088432880002070BD2C49088820229043CA
:100C50000880294829490078400920318880704758
:100C6000264900202031888024490888202290438A
:100C700010430880704730B41F4C2478E40703D039
:100C8000002030BCC043704730BCC2E670B504469B
:100C9000007D88B0C00729D01A4E174D1C221A4972
:100CA00068466E6100F000FC69460879617D0007C6
:100CB000000F09010843694608713046FFF7A3FB9E
:100CC000207DC00715D00F4810306A46A861117901
:100CD00002221143FB2211406A461171074920315B
:100CE00003916946FFF78FFB08B070BD054E203EAB
:100CF000D3E704481038E8E78C86FC070012005060
:100D00005509FC07203600505415FC0708B57149F9
:100D1000088071498A88520852008A800022009215
:100D20000099491C00911429FADB052109074B8918
:100D30009B089B005B1C4B814B895B06FCD5488064
:100D4000E120C0000092521C00928242FBDB4889E5
:100D500080088000488148890006FCD508BDF8B5A8
:100D60005E4808240480FFF783FA5D4DA988684631
:100D700001800088C046C046684600880426B0430B
:100D80003ED00020A8805648203001880F229202D1
:100D900011430180504A2032518A214351824E49E9
:100DA00060310B880625AB430B800588CB011D43C2
:100DB0000580558A9D435582938A0E25AB439B1D22
:100DC0009382454B5D89EF05464D0F881DD5AF4396
:100DD00015017D190D800D880F022D052D0DED19C2
:100DE0000D800588254305800488B44304800C8861
:100DF000640864000C8001884024A143018020E045
:100E0000288A400840002882BDE7AF4303256D02D1
:100E10007D190D800D880F273F033D430D80058808
:100E2000A54305800488B4430480958A03246402A2
:100E3000A54395820C8801252C430C8059894907CC
:100E4000FCD50188032421430180518A6024A143F9
:100E5000203151828188A1432031818005242407DB
:100E6000E08AC02188438030E082188A000A0002AC
:100E70001882188B1C2188430830188300F07EF8F4
:100E8000022000F04AF8184D2869C0B2AA2817D0ED
:100E9000012021880C229143800001432180C0461B
:100EA000C04600F0E1F800F0CFF900280AD000F0C9
:100EB000CBF9FFF72BFF00F091F800F09FFAF8BD97
:100EC0000320E6E72869C0B2AA2801D06E20F0E727
:100ED0008020EEE7A886FC07200000500033005079
:100EE00000030050000F0000C07FF80710B5044653
:100EF000FFF771F9A04202D22046FFF776F9534876
:100F00000188C90708D101880122114301804F4897
:100F1000603841894907FCD510BD38B54C4C0546B1
:100F200020684107490F684601700078854219D052
:100F3000464860384089C0050CD5A81E030000F063
:100F4000EDFA05040604040409000B2000E0132058
:100F5000FFF7CCFF2068C008C0002843206060680D
:100F60004007FCD538BD3B48007870473A498000BF
:100F700009583748016139494161704710B5EFF3AD
:100F80001084012080F31088304860384089C00503
:100F90000BD5304901200870FFF71DF93049087062
:100FA0002A480088C007C00F487005200007018844
:100FB00080221143018026480168C908C9000160E8
:100FC00041684907FCD50320FFF7D0FF002C03D070
:100FD000012080F3108810BD0020FAE770B5EFF310
:100FE0001084012080F310880521090708888022D9
:100FF0001043088016480368DB08DB000360436881
:101000005B07FCD5174B0361144B43610888904381
:1010100008800E4860384089C0050ED50D49002073
:101020000F4D08702878FFF7E0F86878002804D1A1
:1010300006480188490849000180002C03D001209E
:1010400080F3108870BD0020FAE700008000005097
:101050000000F407AA86FC077015FC07090404A425
:101060000080FC070F009909F0B5804C89B0002082
:101070002076607603900120C046C0467C48006917
:101080007C49884202D0C81709B0F0BD784F0425CA
:10109000403FE819016D0191090F092910D0012283
:1010A00001989207904272D3734A90426FD8734965
:1010B000083588427AD1E819C16C7148418099E0BD
:1010C000019A01991204C9B2160E11292FD007DC1A
:1010D0000B0000F023FA086868686868680D1C68EF
:1010E00012390B0000F01AFA063445555F585D5F5F
:1010F000207EB200C1005D48403808185C491431B8
:10110000691800F0D1F9207E801920764BE0607ECE
:10111000B200C10055484038081855491030143104
:10112000691800F0C1F9607E801960763BE0416D7E
:1011300089B20491406D000C01460290049800F0C1
:1011400086F8A0800299049800F089F8E0802AE0EF
:10115000416D89B20491406D000C014602900498E3
:1011600000F075F820810299049800F078F8608109
:1011700019E0039806A9800040183D49B2001431D7
:10118000691800F091F90398801903900BE027E0AB
:101190000CE0406D608206E0416D344840380164E7
:1011A00001E0406DA082B000451946E03349263980
:1011B000884203D1E819C06CE0821BE02F49091F67
:1011C000884204D1E819C06C2D49888012E02B496F
:1011D000083988420ED1E819C06C2949C88009E055
:1011E000072927D0082928D00A2926D0062924D063
:1011F000401C06D01E48103029182248814200D2D7
:1012000047E70698A0810798050C86B22946304624
:1012100000F01DF8E0812946304600F020F82082D9
:10122000207E40082076607E40086076A08A0028F4
:1012300005D007E00020C046C0462D1DDAE77D201E
:10124000C000A08200201FE70848C08A7047081A23
:101250000104890C40180C49401800B27047C200C4
:101260008018401A0004C01470470000EC86FC0788
:10127000C07EF807A5A5A5A54C4200502800005047
:101280000280FC07C07FF8070100FFFFF8B50646A3
:10129000FFF7E6FC2749284800F01FF9274D0028F2
:1012A0000AD027A12846FFF747FB2DA12846FFF7C4
:1012B00043FB0024204F0FE031A1F3E737A128467C
:1012C000FFF73AFB395D2846FFF710FB34A12846AB
:1012D000FFF732FB641CE4B2B442EFD331A12846DD
:1012E000FFF72AFB14492846FFF726FBF8BDFFF756
:1012F00036FD00F000F8114C2DA12046FFF71CFB35
:1013000031A12046FFF718FB35A12046FFF714FB5B
:101310003948FFF74AFCFFF797FCFFF7A1FCFFF7FE
:1013200093FC044802230C2203490C38FFF7A3FC6A
:10133000FEE700009815FC070C80FC070011005028
:101340000A0D496E76616C69642062797465287350
:10135000292072656365697665640D0A0D0A0000CF
:101360000A0D4279746573207265636569766564F8
:101370003A0D0A2020496E206865783A0000000086
:101380000A0D416C6C206279746573207265636527
:1013900069766564204F4B0D0A000000307800002C
:1013A0002C2000000A0D2020537472696E673A00E9
:1013B0000A0D2A2A2A2A2A2A2A2A2A2A2A2A2A2ACA
:1013C0002A2A2A2A2A0000000A0D2A2053504920DE
:1013D0004D41535445522044454D4F202A000000B2
:1013E0000A0D2A2A2A2A2A2A2A2A2A2A2A2A2A2A9A
:1013F0002A2A2A2A2A0A0D008D12FC07F8B51C4E4B
:10140000012535801B20FEF702FF1A491A48FFF715
:1014100076F918481830FFF7CBFB002403273F026A
:1014200004233A46052120460094FEF739FF1D2388
:101430003A46082100200095FEF732FF1C233A4669
:10144000062100200094FEF72BFF1B233A460921BA
:1014500000200094FEF724FF00221A230B211046DF
:101460000094FEF71DFFB089A8432843B081F8BD62
:1014700000030050A415FC070011005030B50B46C6
:10148000014600202022012409E00D46D5409D425E
:1014900005D31D469540491B2546954040191546E4
:1014A000521E002DF1DC30BD03460B439B0703D0D9
:1014B00009E008C9121F08C0042AFAD203E00B7819
:1014C0000370401C491C521EF9D27047421C01781F
:1014D000401C0029FBD1801A704710B5002200E0A3
:1014E000521C835C8C5CA34201D1002BF8D1D8B292
:1014F000E1B2401A10BD0000064C0125064E05E081
:10150000E36807CC2B430C3C98471034B442F7D324
:10151000FEF7CAFDD415FC07F415FC0730B4744679
:10152000641E2578641CAB4200D21D46635D5B00DF
:10153000E31830BC184702E008C8121F08C1002A8F
:10154000FAD170477047002001E001C1121F002A44
:10155000FBD1704704000000050000001C12005081
:10156000000000000000000000000000000000007B
:101570000100990903009909070099090F009909C9
:101580001F1099092F2099095F5199094469616CCD
:101590006F672064656D6F00526573706F6E736561
:1015A00020736C000B0800830000000002000000A4
:1015B0000000000000000000000000000000D00754
:1015C000080008000000000000000000000000000B
:1015D00000000000F415FC070080FC070C00000070
:1015E0003615FC070016FC070C80FC07FC06000003
:1015F0004615FC070000000000008E070E000000EA
:0400000507FC00A153
:00000001FF
