:0200000407FCF7
:10000000783AFC072501FC072D01FC074501FC0798
:1000100000000000000000000000000000000000E0
:100020000000000000000000000000005D01FC076F
:1000300000000000000000005F01FC07E103FC0776
:10004000B901FC079920FC07A526F007F103FC077E
:100050000D03FC076301FC07AD01FC076301FC070E
:100060006301FC076301FC071902FC072302FC077C
:100070002D02FC073702FC074102FC076301FC0765
:100080005504FC076301FC076301FC076301FC07DF
:100090006301FC076301FC076301FC076301FC07C4
:0800A0000000000090070E00B3
:0200000407FCF7
:100110000348854600F038F800480047ED10FC071A
:10012000783AFC070F4880470F4800470420714683
:10013000084203D0EFF309800C490847EFF3088029
:100140000A49084704207146084203D0EFF30980AA
:1001500007490847EFF3088005490847FEE7FEE72F
:10016000FEE7FEE73927FC071101FC071D03FC072A
:100170008502FC07704770477047421C0178401C9D
:100180000029FBD1801A7047064C0125064E05E078
:10019000E36807CC2B430C3C98471034B442F7D3A8
:1001A000FFF7BAFF1C33FC073C33FC070148012171
:1001B000018070470E15005010B5ED4CA18B608B7F
:1001C00060F7ACFF5FF7EDFA10484188890703D06C
:1001D0004188032291434180018880220A430280A2
:1001E000018904229143018181898907FCD542F765
:1001F00098F8606B0649086006480168490700D511
:1002000000BE01684907FCD510BDC046080000507B
:10021000080200401000004080B50A2000F028F8D5
:1002200080BD80B50B2000F023F880BD80B50C2088
:1002300000F01EF880BD80B50D2000F019F880BDDB
:1002400080B50E2000F014F880BD80B513460A4634
:10025000032109025FF7A0FB80BD80B509205FF78D
:1002600093FB80BD80B509205FF786FB80BD000051
:1002700010B504465FF79CFCE0B201218140504874
:10028000016010BDF8B5044601273E0205200507B0
:10029000688DC00506D51B205FF7C0FA4A48018863
:1002A000394301808036288840013040698A474AB6
:1002B0000A4002436A822168134801606168416014
:1002C000A1688160E168C160216901616169416182
:1002D000A1698161E169C16104623E490A684262C3
:1002E0004A6882628A68C2624A690263CA68426373
:1002F00009698163334808210180A88AC00600D4B7
:10030000FEE700BEF8BDC04600F8FC0702480088C2
:100310002B481021016070472C130050F8B504469B
:1003200005200507288A04210143298228894021C4
:1003300001432981224801270760224808210180C2
:100340003E02688DC00506D51B205FF767FA1E4880
:100350000188394301808036288840013040698A0D
:100360001A4A0A4002436A8221681948016061689A
:100370004160A1688160E168C160216901616169D2
:100380004161A1698161E169C161046211490A6841
:1003900042624A6882628A68C2624A690263CA68C3
:1003A000426309698163A88AC00600D4FEE700BEE3
:1003B000688A094908404018001D6882F8BDC04697
:1003C00080E200E000330050800000507FFE00001B
:1003D00050F8FC0728ED00E0FC7F000070470000AB
:1003E00080B5E948006B002801D001F0A5FF80BD71
:1003F000B0B5174CE44DA1880F200840022806D064
:10040000042810D00C2811D00128F4D11FE0A88AAC
:10041000298B81420FD2A088C02101402046C029EB
:1004200012D0103011E001F0E1FFE4E701F0DEFF4F
:100430002088012105E0208802218843208020882F
:10044000802188432080D6E778300088D3E7B0BD8C
:100450000411005080B55FF7A4F919480188090517
:100460000CD518490A8805231340052B06D10888A6
:10047000042202430A80088801221EE00188C9067E
:1004800006D511498A88D20702D00A88120610D4EC
:100490000088C0060CD50C488188890708D50188DA
:1004A000C90505D5022181800188084A0A400280D9
:1004B00080BD01208880088880229043088080BD0C
:1004C000040000500002005000010050FFFE000038
:1004D000F8B50C20CF4F38560F4C254610352F3429
:1004E0000028294600DA21467F2210400E1801F02C
:1004F000B7FB39465831062230465CF759FF7B7A04
:10050000397A2846224662F751FB0448044900F034
:100510008BF9B872F8BDC04668CDFC07B80B000077
:10052000D104FC0770B5FD2042F74DF901460F4894
:100530000424082522462B465AF7DEFBB54E718C63
:10054000491C71840122427002228280C180458050
:100550005AF7EDFB20465AF715FE032804D1642014
:10056000044900F061F9F08370BDC04606FD00004B
:10057000F0CCFC072505FC0770B537480921042499
:10058000182322465AF7B8FB05461B202870FD2683
:10059000304662F7B9FB0021A982E96029616C60ED
:1005A0006E80687028465AF7C2FB70BD1FB51446AE
:1005B000002202920192069A00921A46234662F79E
:1005C0004FFE04B010BD0000B0B5F84842791449A0
:1005D000D4B20C236343CD5CFF2D0AD0012C02D191
:1005E00002224271F4E7521C4271C81840688047E9
:1005F0000EE08179F24ACCB21C236343D45CFF2C19
:1006000008D0491C8171D318DB68002BF3D09847C0
:100610000020B0BD0021417181710120B0BDC046F4
:10062000FC2DFC0770B50C48092104240A2322463E
:100630005AF762FB05461B2028701426304662F7E5
:1006400063FBFF21743129816C606E8068702846DD
:100650005AF76DFB70BDC0461B0D00001FB5144658
:1006600001220292044A0192069A00921A462346F7
:1006700062F7F6FD04B010BD2828FC07F8B5CB4D95
:10068000A86C00287BD14148092104222C235AF769
:1006900033FB0446A864172020843D4820800120B5
:1006A000A0760027678020460A3010215CF799FE6B
:1006B000251D3848461D3849062230465CF79CFE09
:1006C000002806D000BE0622284631465CF770FEA0
:1006D00040E0B64E5236304600F076F90622284603
:1006E00031465CF765FE2D482D4DA8472D48A8479B
:1006F0002D48A8472948A8472A4D28462849884711
:100700002846274988477079284DA8472848244912
:1007100088473079A8472648214DA847F0782349D3
:1007200088472348A847B078204DA84720481C494F
:1007300088477078A8472E461D48194DA847522073
:100740009A49085CB047174E3046A8473046A8473C
:100750003046A847954D6784E783A7832020E0763D
:100760007E211448415AFB2900D3FB21E1848021DA
:10077000405A1149884200D308462085A86C5AF790
:10078000D6FA0020A864F8BDF0CCFC07040D0000E8
:10079000030A0000F032FC0794D4F1075531FC073E
:1007A000E71EFC075231FC07F830FC07A91EFC07C6
:1007B0002032FC0774FBFC074808000070B57B4D35
:1007C000286C002800D070BD134809210422522350
:1007D0005AF792FA04462864072020720F48E080F6
:1007E000A0800D2020800026A6721622E272012031
:1007F000607220460C300A495CF7DAFD2B20265443
:1008000020462B302C341021064B224662F7BCF9CF
:10081000286C70BDF0CCFC070D0D00004C040000EE
:100820007032FC078832FC0770B504460025384852
:100830002A460A2A39D00368002B02D0001D521C18
:10084000F7E70160551C1A490888000619480FD5BA
:10085000194B1B681B040BD4184B1B88DB0707D1F3
:10086000D1B24018C01C042122465AF784FD1CE076
:10087000EFF31083012282F310880988090603D45C
:100880000F490E8816430E80002B02D082F3108889
:1008900002E0002181F31088042108230A465AF758
:1008A0002BFA446005705AF742FAE8B270BDC046B0
:1008B00008000050010400003000004018FAFC0756
:1008C00008330050F8B50446401E09281BD8A00084
:1008D0000F494018071F3868002816D00D4DA84250
:1008E00013D00D482018401C042631465AF78DFDC0
:1008F0003D6008230848314632465AF7FDF9047036
:100900005AF715FAF8BD00BEF8BD00BEF8BDC046E6
:1009100098CCFC07E923FC0702040000B0B50C46A4
:100920000025202D04D041F7EAFF60556D1CF8E743
:100930000020B0BDB0B5044609480A4D4022294602
:100940005CF736FD48350848302229465CF730FD13
:100950000648001B0649088014304880B0BDC046D8
:1009600070E0FC077C37F207B0E0FC07B8E0FFFF5F
:1009700078E0FC0707481E214180018803220A43D2
:100980000280018804220A43028008480121017084
:100990007047C0460016005080B503480168034800
:1009A000401C5EF735FC80BD3C33FC07F0CCFC07F7
:1009B00070470000FD2801D00020704700487047B4
:1009C000A028FC0770477047FEB5019000F010FBAF
:1009D000022060F773F8174841680291046800F03C
:1009E000FFFA00252F462E462E2D0FD002982146C5
:1009F0002A4662F73DFE012108400FA14A5D002111
:100A00005CF71AFD0E4307436D1CEDE70024019DC2
:100A1000302C08D038463146224662F729FE28702D
:100A20006D1C0834F4E7019A5079C02101435171DB
:100A3000FEBDC046E42FF8071F171C09080E11164B
:100A40001407181D1E271B1506010400232A290A56
:100A500012250B22281A2D0F2C20210213242B03E0
:100A60000D051926100C000080B501F0D5FC80BDE5
:100A700070211E4A515A01807047C04680B54E22EF
:100A80001A498A5C0270401C4F315CF791FC80BDB2
:100A90007D21C180002181801021418008210180B9
:100AA000704780B562F746F8002801D001F0B4FC29
:100AB00080BD000010B50C46017801290CD000293A
:100AC00010D142884E21094B5A544F33011DD2B2E6
:100AD00018465CF76DFC03E040887021034A5052D1
:100AE000002000E04820207010BDC04668CDFC0703
:100AF00000208880488001200870704780B55EF72C
:100B00002BFC80BDF8B56946C870020A8A70020CD9
:100B10004A70000E087008465EF706FC8FBD7047ED
:100B2000704770B505460469261D3068002805D059
:100B3000304641F7B3FF5AF74CF8F6E7002028613A
:100B400020465AF746F870BD10B589B2431C002004
:100B500009280AD00C46C440E40704D09CB2641CA7
:100B6000944203D09B1C401CF2E70920C0B210BD88
:100B7000F0B58BB01E4607920F46044610980690BB
:100B800000880890002101200246092913D003257E
:100B90008540099020463446089ECE403B460127BA
:100BA00037407E421F462E4032432646044609986F
:100BB000801C491CE9E70A92802030439E210140B5
:100BC000A08A03911D4902910190002000901C49C8
:100BD0000AAA132338464EF7A5FE0546002829D158
:100BE0000897202701210591384659F777FF099684
:100BF000064639465CF7F5FB266130461E30114942
:100C00006160A0600898008830830598E081142016
:100C1000E082A08A70800998C00307990843308059
:100C2000069800887083301D41F730FFA08A0021AC
:100C30005AF793FA28460BB0F0BDC046D02CFC07FB
:100C40000A180000B42DFC0700487047D42DFC079B
:100C5000FEB5019302920C46142060F74FFF054643
:100C6000002800D100BE2778082F13D8698B288B65
:100C70003A4600F0F7F800280ED060788D268028DC
:100C800039D8082F0AD0072F0BD0062F0BD10828F0
:100C900009D030E081262EE082262CE0072802D001
:100CA00029E0062827D32E1D35462D68002D0BD0B0
:100CB0002979B942F9D100223046294641F75EFF31
:100CC000284659F786FF60780830012159F706FF5A
:100CD0000546617808315CF784FB207828716078DC
:100CE0006871A81D6278A11C5CF762FB304629463A
:100CF00041F7F0FE0026064802230199029A59F7AF
:100D0000FBFF2178017046705AF711F80020FEBDF4
:100D100001140000F8B514460D4610465AF732FA91
:100D2000012840D1142060F7E9FE0746002803D0CF
:100D3000798B388B3E7F06E000BE1A200188182090
:100D400000881C221678324600F08CF80246787F24
:100D50000002083029788E4213D117466A7881B292
:100D6000931D9D48224659F7C7FF06460020307163
:100D7000378068787080701D6A78A91C5CF718FB52
:100D80000AE081B2944806231546224659F7B4FF7B
:100D90000646802030713580304659F7C8FF002163
:100DA00020465AF7DAF90020F8BDC046F8B51F46CC
:100DB0000C460878082811D80725002100911AA6AA
:100DC000784400794000874419040F040606121580
:100DD00018001A4E12E00D25174E0FE000BE002637
:100DE00001200090354609E00A2515A606E00825F1
:100DF00018A603E006250EA600E014A6AB1C1848B2
:100E0000394659F779FF0746207838707D70009889
:100E1000002804D1B81C31462A465CF7C9FA384686
:100E200059F785FF0020F8BD52656E657361730048
:100E3000FFEEDDCCBBAA00001232FC070A32FC0731
:100E4000312E302E302E302D4C45000001D2008046
:100E500005000100123456FFFE9ABCDE00000000BF
:100E600003140000B0B58BB2411C00200446092CCD
:100E70000DD01D46E540ED0702D0A24202D0891CEC
:100E8000641CF4E7092A01D0481C00E0002080B26D
:100E9000B0BD000080B55AF78FFC4BF702F96B48E4
:100EA0000121017180BDC04600BE704780B50020A1
:100EB00048F7C6FA65480421017160F7A1FB80BDBF
:100EC00080B5012048F7BCFA80BD80B54BF7E9F842
:100ED000FFF750FD80BD80B548F7FEFA80BD0000E9
:100EE00080B5074801880122914301805AF748FCE8
:100EF00041F7A6FBFFF73EFD54480021017180BD7C
:100F000008330050FEB51F4615460E4610465AF7E8
:100F100039F901280DD0002400285AD10297142055
:100F200060F7ECFD07460028019604D0798B388BDA
:100F300006E002244DE000BE1A2001881820008837
:100F40003288FFF701FE064608281ED800943C1D93
:100F50002468002C27D02079B042F9D16079831D14
:100F60001D4802992A4659F7C7FE05460198008890
:100F7000288000232B7160796880681D6279A11D2B
:100F80001C465CF715FA28460AE013480623029926
:100F90002A4659F7B1FE0199098801808021017123
:100FA00059F7C5FE15E03E770298010A7977384671
:100FB00060F7C2FD0146094801272A463B4659F71A
:100FC0009BFE067059F7B3FE284639465AF7C5F816
:100FD000009C2046FEBDC046140C00000214000018
:100FE00080B51A48C01C06495FF74CFE80BDC0465C
:100FF00080B51648C01C02495FF798FD80BDC04609
:101000007033FC07F8B51C4FBC68204600F036F87A
:101010000E4DE96B0022EA630E180D4930465CF76D
:101020004DF978610B494143881902D00849081AE3
:1010300080B238613868082101433960A86B002804
:1010400002D0A04200D200BEF8BDC046F0CCFC07E2
:10105000710200008FFDFFFF80B50648002101608E
:1010600001F034F90120C00703490A6882430A608D
:1010700080BDC0469CF9FC073000004080B50246A8
:10108000C00B09D00E48406800210B465CF740F9C0
:101090008905800A401880BD094840684243900A8B
:1010A00080BDC04680B5FFF7E9FF80BD80B504492B
:1010B000096841430348081803495CF7FFF880BDFD
:1010C00068CDFC0720A1070040420F0010B506487C
:1010D00000243E224223214659F70EFE4470082187
:1010E00001704CF78BFE10BD0408000000B5A7B0DE
:1010F000D148C8211591018000264680CF48082399
:1011000003801B96CE4C1B98002812DC00202490F4
:10111000249A1B990B2A09DC30224A43A118249AED
:10112000920088502499491C2491F1E7481C1B9097
:10113000E9E71093636AF0430122002B189200D074
:1011400002465102BF4D2F6E0F430146686E2F6657
:101150001992D70D002B0A4600D11A465202D21915
:1011600002436A666368002B189800D00846C50FD2
:10117000002B109F00D1194649004919B14D6A6EE4
:101180000A43296E6A6642000A432A666E662E6624
:101190001999616260601B961B98002835DC00205D
:1011A000249024980B282CDC24981B990B2828D8F1
:1011B00030201B9941436118249A92008958491C98
:1011C00000D100BE1B9941436118249A92008958AE
:1011D000002913D01B9948432018249989004058AE
:1011E000C117249A5CF728F91B9A12015CF724F9BD
:1011F0006A6E0A43296E6A66014329662498401C78
:10120000CEE71B98401C1B90C6E78F4D288824AC66
:1012100020802088C046C04620880422D14308424E
:1012200019923A4601D02E8003E0A8890121884313
:10123000A8810F2016908002A98B0143A983834FB8
:1012400038881546104338800124200213902C3032
:101250005EF78CFA78888021129108437880F88DA7
:1012600006229043F885A003774B998B014399831D
:101270003888774901403980788818921043A8430C
:10128000788005200C900507688D724AFF32F98D31
:1012900011407D22D200169B1B03C00517940992B2
:1012A0000D931AD5104618300143F985F88D6A4917
:1012B0000140E0030818F885634A908B10990843B1
:1012C0009083908B199B98439083F88DA043F88569
:1012D000908B40210143918320E00320420211437F
:1012E000F985F98D1943F985574B998B109A9143DC
:1012F0009983998B0422914399837988574A0A40AC
:101300007A807988564A0A40C00210187880F88D91
:101310002043F885199B688D4007FCD54A49888B86
:101320000322119210438883398820200F900143B3
:101330004020C04301403980E98A129A114301409C
:10134000E982298EFF220B9291432986298F194326
:10135000182291432987298FA0220A4302402A8715
:1013600040480380A88840490140A980354C179F18
:10137000677038043D4908601C46FFF739FE0220BB
:1013800014905FF79BFB3A480068C1B20C20AA2971
:10139000014600D021462A88824388182880C0460A
:1013A000C046284A10464C3032490988818032486C
:1013B0000068D0643846C046C04688272F48C653C8
:1013C0001BAC2FA1242220465BF7F2FF35492B48A6
:1013D000324623465EF74AF8284BD85DC10701D054
:1013E00000BED85D4008D8558920195CCA0701D0D5
:1013F00000BE195C490819548420195A002909991A
:101400000B9F00D119528621585A00284DD13A021B
:1014100017480068104035221202904209D00D2270
:101420009202904203D03322120290423CD1942087
:1014300000E09020585238E0003100500233005054
:10144000C0CCFC07F0CCFC07040300505200005055
:10145000FFBF000000F0FFFFFF0F0000FFF90000DA
:10146000FFC7000000020050FFF7000080E200E02C
:10147000D02FF807D82FF807D42FF807C0CBFC07D8
:101480009D1DFC07711DFC071D1DFC0700000000D1
:10149000491DFC070000000000000000D02EF807E6
:1014A000C02FF807A000FC070020D94C60835DF72F
:1014B000C7FE7F20A070D7488069D7498860FFF7B2
:1014C0008FFDD6480068D64988420C9B00D08FE03B
:1014D000D448D5491E465BF784FF072019900102C6
:1014E000D2485BF77EFFFEF747FED148D149016045
:1014F000D148D24930225BF75BFFD1480024C47148
:10150000847144710471C470847044703F210A91E5
:101510000170CC48CCA140220E925BF749FFDA481B
:10152000C4718471119941710771C77087704770D8
:101530000770D6480470D648D6490160D648D749C6
:101540000160D749D7480860D7480A210170D748B9
:101550000470D7480660D74817990160D6480660DE
:10156000D64818990160D64819990160D548109954
:101570000160139EB01DD4490860D4490860D44F5F
:10158000A848386000F016FC5DF788FD5DF7CCFDDB
:101590000D99FF31E88C0840199949020143E9840B
:1015A0005DF7DEFD9D4800689D49884216943BD05A
:1015B0003868C8498860984A90681071010ED171E6
:1015C000010C9171000A50713046C030C24A0028A7
:1015D00018D0401EC049435C17783C4611990C4016
:1015E0008D490C1924795C407C401470521CEEE744
:1015F000BA48B9495A02964200D969E7325872503E
:10160000361DF7E7844C2034B3491C2220465EF790
:101610004BFC002800D000BE20465DF785FE7F48C9
:101620007F490160169CAA4F386840F713FEAC480A
:101630000471C470179FBC07206830432060FFF717
:1016400099F9384600F058FC4E20A64B10221A5447
:101650001698A349C870A44908706D4FB866F8661B
:101660003867074618464F30A0490D925BF7A0FE39
:101670009C484E30478404279D49384659F73BFD26
:1016800019973846169F394659F767FD604908464D
:101690005830878097488865CF71924810309649B6
:1016A00016273A465BF784FE5948078161F758FBD5
:1016B0008B481699C1708C480170FFF7CDFC8F489C
:1016C000159901808E48109901801799480202905F
:1016D0000A9880020890CF034F480C301890894830
:1016E00089490818894940188008401E0B900A97BC
:1016F00001942889000600D44FE1206B384200D0C5
:101700004BE177480088C00700D046E159F7D1FF88
:1017100000200C9000F0F0FB3D480079042800D038
:101720003BE1179800F0E8FB0C981A901AA80421E6
:101730004AF70EFE002800D12FE11798744908607F
:1017400008680028FCD1E0693149896A884203D2DF
:101750002F490C9A8A621146411AC909192900D2E7
:101760001BE12B4988626B490888079048880690DE
:1017700088880590C88804900C9825906648249025
:101780001BA90C9165A00390039C0DCC0DC17C207E
:10179000654A105A00090C9B18711F48811C24A827
:1017A0005FF772FB099817305A4A11890140184BAC
:1017B000D9815189014019821089089B18400299EA
:1017C0000843108150891840084350815FF750FC4E
:1017D0000C901149488803900D4AD2894D490B89D4
:1017E0000898034013430B81094A128A4B8903402E
:1017F0001343099A4B810C980399401A11464143AF
:10180000002800DD94E0494A8918C017084091E09B
:10181000F0CCFC07D02FF8074033FC079CF8FC07FE
:101820006587341200E0FC07AC14000000F9FC07E7
:1018300024FAFC07E42DFC07C8F9FC075CDEF1077D
:10184000A4F9FC073CFCFC072000800000C000005D
:101850000000040000002822000000000000040036
:1018600000F7FFFF7F00000030F0070800000000D5
:101870000004000000000000000000000000000064
:101880000000000000000000ACF9FC07C5F9FC07EF
:1018900050F9FC07E036F20754F9FC07642FFC0707
:1018A00058F9FC074C2EFC07A1F9FC07A2F9FC072C
:1018B0005CF9FC0760F9FC0764F9FC0768F9FC07B0
:1018C0006CF9FC0770F9FC0748F9FC0744F9FC07C0
:1018D0004CF9FC0700020040DCCDFC0700F0FC07DF
:1018E00018FAFC0768CDFC0778FAFC078832FC0779
:1018F0001828FC0705FFCDAB7032FC070031005003
:1019000002330050303200001001FC07030004F8DD
:10191000FC00004000150050010400005BB005020F
:101920000000000032000000C0CBFC0782FBFFFF7C
:1019300050189630019CC1495BF7D6FC82091932D8
:10194000F44988787F281ED0101A41B2C911484046
:10195000401A40B2082817DBEE49C86A401CC8622A
:101960000C925FF737FE00F08DF900F0AFFB5FF7E8
:101970006FFE5FF7F5FDA84870305FF79BFE5FF7DD
:101980003FFEE4490C9A8A70A9480699418005995E
:1019900081800499C1800799018072B624A9169AA2
:1019A0000A70A04800790228104602D09B480068BF
:1019B000806A1B901898A24A5FF7F2FB00287DD13D
:1019C000A048806A002803D094480068806A1B9071
:1019D00000F07CFC1BA918985FF718FC00286DD15B
:1019E00001205DF7E9FE1B9A002A07D0206A96497C
:1019F0004018DA2803D8521E1B9200E00022C54886
:101A0000808B844E3169081870618B487E30E36B9F
:101A100003400B43E363E06B8C490840B1698902E2
:101A20000143E16324A819990170E06B88490840DB
:101A3000716949050818E0638648824200D300BEF8
:101A400079498868C96800235BF762FC0903000DC7
:101A5000411870488069821C8A42139E00D0481E3B
:101A6000AC4988636F4909794A1E914147F7A4FE42
:101A70007948C06A8047206B3842FCD0684A1068B9
:101A80003042FCD010681299884310605E4800898B
:101A9000452805D846215C4A1181081AEE49C863D9
:101AA00040F713FC5E4A9068EB49486311460868AA
:101AB0000006FCD528891299884328815B48007864
:101AC0000128149800D0119824A90978042900D07D
:101AD0000846811E02292DD2298A199A114329828A
:101AE00002282BD003284DD152490868199A104377
:101AF000086046490889179FB8430881688A0D9E87
:101B000030436882688A10436882FFF771FA688AF6
:101B1000304368820B9851490860EFF3108087F3D7
:101B200010882988129A91432980002815D087F3BC
:101B3000108815E001285FD130BF5DE03D4A106894
:101B400019990843106031490889179A9043088110
:101B5000688A0D998843688212E0002080F310881B
:101B6000139E0A9F688D30420AD00020ED49C8704C
:101B70000B205DF753FE2649C88D179A1043C88580
:101B800000202883688D304208D1214A9088179917
:101B9000084390801088602188431080A88C179E8D
:101BA000B043A8840D205DF7E1FD68893043022130
:101BB0008843688168894006FCD532206880A88AFD
:101BC000C00603D51048801E1099018030BFA88A36
:101BD000C006139E02D50C48109901800C49088854
:101BE0000F9A10430E9A9043088000F0E3F8114AD0
:101BF000106819998843106062B6024815990180EF
:101C000077E5C04600310050023300500403005015
:101C1000520000504033FC0700E0FC0758F9FC0775
:101C20000002004018FAFC0768CDFC0778FAFC07B0
:101C30000015005010ED00E082FBFFFFFC080000E3
:101C40009909FC0700FEFC07C8FEFFFFFF03E0FF49
:101C5000FFFF1F0040420F00E4FEFC072000F407D6
:101C6000B048014658318A88521C0A71130A4B71D8
:101C700091B2034A914202D15C2100224252704744
:101C8000FFFF000010B5D94C2078401C20700D4992
:101C90000968C3B2464800225DF73AFD2078401E2D
:101CA000207010BD10B5D14C2078401C2070C3B2FC
:101CB0003F48044900225DF7F7FC2078401E207061
:101CC00010BDC0467433FC07B0B5964CE17A0029CC
:101CD00000D000BE88002518686C4435002813D158
:101CE00009020A310C4804220E2359F705F809218C
:101CF00001702860102181800021818141817D2235
:101D00000281C1800821418059F711F80020E0715B
:101D10002860B0BDF0CCFC070E0E000070B50C467C
:101D20001D4811188925224E705DC00030183030D2
:101D3000A2005BF73DFB705D00197055C0B20D2825
:101D400000D300BE70BDC0461348115809234B4351
:101D50001058000C1A1A1204D214154B60331A844E
:101D600089B2401A0104890C0818401CD8837047B6
:101D700070B50C460848111888250D4E705DC000DE
:101D80003018A2005BF714FB705D00197055C0B2EB
:101D90000D2800D300BE70BDD42EF807880010189F
:101DA000024940587C21024A50527047D02EF80711
:101DB000C0CBFC07F8B55B48C2781B2027495DF70C
:101DC00085FD2748002505601D210124254F20465B
:101DD0002246B847092029462A46B84722480188A2
:101DE00021430180214E30465EF71EFC20480188C9
:101DF000B18980221143B1811E490B230B80082138
:101E00003180B580B1899143B1810321B18184834F
:101E1000058485840520042631462A46B84716489D
:101E20000168A1430160FF21090642680A40134B83
:101E3000D218426082680A408260016802220A4326
:101E400002600168B14301600D49364A11630168BF
:101E500021430160F8BDC046F0CCFC077033FC079D
:101E6000000008404B02FC070C030050001100501A
:101E70007C110050C011005010E000E03F0D030045
:101E80003923FC070549884200D000BE0448018878
:101E9000044A11408918091D018070471111111160
:101EA00012000050FC7F0000FEB5044640093027B8
:101EB00037210528384600D30846019121094018EA
:101EC00002AD287001262846314600F097FA0F200F
:101ED00020400A2800D3019F381828702846314630
:101EE00000F08CFAFEBD10B50446FEF746F981B24B
:101EF000204600F083FA10BD80B50A490A78012A0D
:101F00000ED1094A002803D010884007FCD402E013
:101F10001088400704D40020087004485DF73AF99F
:101F200080BDC046F0CCFC070016005068CDFC0711
:101F300070470000F0B58BB03022002181541F2281
:101F40001204204B1C6894430122550464191C6040
:101F50001E4C1F4D45611F4D1F4E204F204BC3612E
:101F600006624462184B8362C5621E4B0760436081
:101F7000D004544A136883431360282903D001A86E
:101F80004154491CF9E718480068403001A928224B
:101F90005BF70EFAC048082101705FF71BFBFFF7E3
:101FA00081FEFFF76FFE00F091F85FF751FB5FF7DE
:101FB00063FB5FF7D5FA24485FF79CFB5FF720FBD4
:101FC0000BB0F0BD74000040F51FFC07F11FFC07CB
:101FD0007520FC073516F207DD03FC074D20FC07D2
:101FE0004F20FC07311FFC074CF9FC074CCCFC07C9
:101FF000002070477047000080B51F2000040121B9
:102000008A07536F834348041818506710680721E4
:10201000884310600B48018808220A4302805FF75A
:10202000D9FAFFF73FFEFFF72DFE00F04FF85FF7FC
:102030000FFB5FF721FB04485FF74CFB5FF7E0FA0B
:1020400080BDC0460800005070E0FC07704780B5B6
:10205000E62800D3E620282800D82820FF22EC32EA
:1020600042437D20C10010465BF728F97E38C0B29C
:1020700080BD0000022902D0012900D000BE002846
:1020800002D0FF2804D000BE022901D10C207047E5
:10209000814800787047C04680B50A480168C90782
:1020A00003D0016802220A4302600168490204D594
:1020B0000121890502680A43026003485FF758F866
:1020C00080BDC046000200404828FC07FCB57F20C8
:1020D00000025E494A6982430B20000210184861E1
:1020E000086880B25A4A801808608869594A0240D4
:1020F0008A610320019000020A6B02430A63888F01
:10210000102202438A878888012200921043888027
:102110005148524901605249088810430880514E85
:1021200030461038504DA98B014015204401081944
:102130005030A88368694D4901404D4808186861CE
:10214000A8694C490140092040020818A861286884
:1021500049490140494808182860686848490140D1
:10216000484808186860A868474901404748081867
:10217000A860E8684649014046480818E860C12060
:1021800040014549097809060818444908600520B6
:102190008102434A11804F1D9780178C5520384388
:1021A000AA27B8431084FF276C373846C9301085FA
:1021B0003C4B18460E3090853B4810869386C01DD8
:1021C00010870A312985A86B38490140384808181A
:1021D000A86338480780028F3240214620315218C8
:1021E0000287354D2A883240D219D5322A80AA88F2
:1021F00032401219AA802A89324051182981394661
:10220000213181802D4801883140091960310180D8
:10221000818A19220A4306218A43828207841F4A3F
:10222000908F2749014000984003081890870C4A76
:10223000106C01990843042188431064506A2149B5
:102240000140214808185062FCBDC04620300040C3
:1022500000006666FF00FEFF8000004059055C0735
:10226000401000401FFCFFFF042000400000E0FF82
:1022700009601A00FEE1FFFFE0E0000008092949BB
:1022800000000303696A686C031FFFFF70600000B1
:10229000E0E0E0E00B0A0A084CCCFC07001000402C
:1022A00028130040260A0000510800002304E0FE25
:1022B000181A060100120040441200408812004023
:1022C000FF9F000000FE00FE50015001F8B5842081
:1022D00014490E5A78480768304678431249401826
:1022E000124D29465AF7EAFF0446F44884833C36E7
:1022F0007E430D48301829465AF7E0FF001D334948
:1023000008612018C01D8861094A1278022A01D18B
:1023100011308861FEF7B2FE0649401880B259F7C5
:1023200059FAF8BDC0CBFC0720A1070040420F00BE
:1023300078FAFC07E2040000F8B5244CE0690028B4
:1023400003D0FDF78FFF002002E0FDF786FF01209C
:10235000E06120780A2835D1002020701C4D1D4FE7
:102360002846B8471C4C2046B8471C48B847284662
:10237000B8472046B8472046B847E64E52367079EF
:10238000174CA047174D2846B8473079A047284634
:10239000B847F078A0472846B847B078A047284605
:1023A000B8477078A0472846B8475220D949085CFA
:1023B000A047064C084D2846B8472846B847284647
:1023C000B8472078401C2070F8BDC0464033FC0759
:1023D0005531FC07E71EFC075231FC07F830FC07BB
:1023E000A91EFC072032FC07704700000248018844
:1023F00001229143018070470411005080B50A46C4
:102400000146C44882820023038302485EF762F9D2
:1024100080BDC04600110050F8B525482549FEF79B
:1024200003FABC4EB072FEF7C9F90446C57A162D00
:102430000AD860190C303146583106225AF7B8FFD5
:10244000AA1DE272357317E02B20275C192F11D8D3
:1024500020462B300090E0192C30314658310622AE
:102460005AF7A6FFB81D00990870802038433073D2
:102470002A4601E000BEE27A32720F4D2846103043
:1024800021460C315AF794FF2B20225C72722F35B3
:102490002C34284621465AF78BFFFEF78FF958F760
:1024A00046FC002030640420022158F756FEF8BD97
:1024B000B80B0000D104FC0768CDFC0780B54428A8
:1024C00001D1FFF7A9FF80BDF8B504460C20604399
:1024D000904F3E186A20305C6A36FF2816D00D46B1
:1024E000FC72B87AFEF7EEF96888082807D310283E
:1024F00005D8A888002802D1E8887D2808D07D204A
:10250000C0000E49FEF790F9F87101E0FFF784FF73
:102510003078FF280ED00025094E1C206843315C1E
:10252000FF2909D030180169002901D020468847C9
:102530006D1CF2E7FFF770FFF8BDC046C91CFC0731
:10254000A028FC0710B5734CE079002803D0FEF7F3
:10255000B9F90020E071FFF783FBFFF75DFF10BDC5
:102560007CB50C465049884222D05049884228D038
:102570004F49884248D04F49884272D16088182814
:1025800070D0052873D014286CD0022869D16E460B
:1025900000253570A288A11D30465AF709FF307812
:1025A000002874D064204849FEF73EF9054675E0DE
:1025B0004448022519462B4658F79EFBA188018006
:1025C0004DE060883E4D2E2835D1524EB08C401CD7
:1025D000B084FD2040F7F7F8014604220A2328467C
:1025E00058F78AFB21780C224A43B1186A22895C89
:1025F0000170618841800221818000218171B18C4C
:10260000C171090A01722AE066882B48082519461B
:102610002B4658F771FB0021818062884280227826
:102620000C2353433B4AD2186A23D25C0270172E04
:1026300014D0032112E0082628461946334658F7DD
:102640005BFB21780C224A43324989186A22895C53
:10265000017061884180002181808021817158F75B
:1026600066FB7CBDA079194600F030F87CBD01AD59
:1026700000202870A288A11D28465AF799FE2878C4
:1026800000280ED00128ECD1FDF7E7FD7CBD2148E4
:10269000C08B0028E5D0C0B2FEF714F91D48C583F1
:1026A0007CBDFDF7DFFD7CBD0D0C000004FD0000CE
:1026B0000DFD00000AFD00000EFD0000F0CCFC073F
:1026C00005FD00000E0C00002505FC0710B50006F6
:1026D0001CD00C46FD2040F776F801460C48042239
:1026E000082358F709FB0221818013214180210A28
:1026F0000C224A4307498A186A23D25C02700A8C6A
:1027000053BAC380521C0A8458F711FB10BDC0464F
:1027100008FD0000F0CCFC0702E008C8121F08C149
:10272000002AFAD170477047002001E001C1121F52
:10273000002AFBD17047000080B502485CF7CCF955
:1027400080BDC046A000FC0717B967984C664C01D5
:10275000963331B1915900152368EC521E624474CE
:102760009A1BD18BAB75B66E9EE7BA08B9A948AB78
:10277000A1AC031C2E0D296C20EE8D0CE1F04A0C4F
:10278000B325DC536A68862D28D5E1C1E1C5472908
:10279000B55765C3BA47159E4F43313C939242E605
:1027A000A876FA3BEFB4875A8C09E0D181544240B5
:1027B0008E4FD2B377E32A7720EE8D0CE1F04A0CEE
:1027C000B325DC536A68862C4F43313C939242E632
:1027D000A876FA3BEFB4875917B967984C664C0155
:1027E000963331B1915900142368EC521E6244743F
:1027F0009A1BD18BAB75B66D28D5E1C1E1C54729D0
:10280000B55765C3BA47159DF3D81C4511964D12AF
:1028100013FED63BCC316C6E00000000983BF207F3
:1028200080CCFC070400010002140000AD0DFC0781
:10283000FD31F2075D06FC07AD05FC07F80000005E
:10284000032800280229012980000000CB0EFC0784
:1028500002000000D70EFC0708000000AD0EFC07C8
:1028600000010000C10EFC070002000075C1F00766
:10287000400000003794F00710000000C97BF0070B
:1028800004000000E10EFC0701000000950EFC07AB
:1028900020000000A90EFC0700000000000000005E
:1028A000FD000000D828FC07300000007905FC0777
:1028B000000000000000000000000000FF00000019
:1028C0000000000000000000000000000000000008
:1028D00000000000000000004228FC07100000007B
:1028E00001000000100010009D2CFC074028FC0790
:1028F00002000000010000000000000000000000D5
:102900007827FC071000000008000200010000000A
:10291000000000004628FC07020000000100000043
:102920000D000D006232FC074028FC070200000089
:102930000100000000000000000000009827FC07D4
:10294000100000000880000001800000000000006E
:102950004628FC07020000000100000009000900F1
:102960004032FC074028FC07020000000100000084
:1029700000000000000000004827FC0710000000D5
:102980000102000002000000000000004428FC07D3
:102990000200000009000200020000000000000028
:1029A0004628FC0702000000010000000B000B009D
:1029B000F231FC074028FC07020000000100000083
:1029C00000000000000000005827FC071000000075
:1029D0000100000002000000000000004628FC0783
:1029E00002000000010000000B000B00FE31FC079C
:1029F0004028FC0702000000010000000000000069
:102A0000000000006827FC07100000000102000021
:102A100001000000000000004428FC070200000044
:102A20000900020002000000000000004628FC0728
:102A300002000000010000000C000C004A32FC07FC
:102A40004028FC0702000000010000000000000018
:102A5000000000008827FC07100000004100000073
:102A600014000000000000004428FC0702000000E1
:102A70000900020002000000000000004628FC07D8
:102A800002000000010000000C000C002232FC07D4
:102A90004028FC07020000000100000000000000C8
:102AA00000000000A827FC07100000000902020037
:102AB00032000000000000004428FC070200000073
:102AC0000900020002000000000000004628FC0788
:102AD00002000000010000000A000A005732FC0753
:102AE0004228FC0710000000010000001000100048
:102AF000AD2CFC074028FC0702000000010000008C
:102B00000000000000000000B827FC0710000000D3
:102B10000800020001800000000000004628FC07B9
:102B20000200000001000000080008003732FC0726
:102B30004028FC0702000000010000000000000027
:102B400000000000C827FC071000000008800000FB
:102B500001000000000000004628FC070200000001
:102B60000100000011001100CF31FC074228FC07D2
:102B7000100000000100000010001000BD2CFC0738
:102B80004028FC07020000000100000000000000D7
:102B900000000000D827FC07100000000102000020
:102BA00002000000000000004428FC0702000000B2
:102BB0000900020002000000000000004628FC0797
:102BC000020000000100000010001000E131FC07CD
:102BD0004028FC0702000000010000000000000087
:102BE00000000000E827FC071000000001000000C2
:102BF00002000000000000004628FC070200000060
:102C000001000000070007002F32FC074028FC07E6
:102C100002000000010000000000000000000000B1
:102C2000F827FC071000000041000000020000002F
:102C3000000000004428FC07020000000900020018
:102C400002000000000000004628FC07020000000F
:102C50000100000012001200BC31FC074028FC07F4
:102C60000200000001000000000000000000000061
:102C70000828FC071000000001000000028000008E
:102C8000000000004628FC070200000001000000D0
:102C90000C000C00AF31FC07001A213003595A0810
:102CA000E4862A9E8FE911BC7C98434218595A0841
:102CB000E4862A9E8FE911BC7C7C464218595A084A
:102CC000E4862A9E08E911BC7CD047421800000027
:102CD00000280000010000000000000003280000A0
:102CE0000100000002000000292A0000010000008D
:102CF00080800000032800000100000004000000A4
:102D0000242A000001000000808000000328000049
:102D10000100000006000000252A0000010000005C
:102D2000808000000328000001000000080000006F
:102D3000272A000001000000808000000328000016
:102D4000010000000A000000262A00000100000027
:102D50008080000003280000010000000C0000003B
:102D6000282A0000010000008080000003280000E5
:102D7000010000000E000000232A000001000000F6
:102D8000088000000328000001000000100000007F
:102D90002A2A00000100000008800000032800002B
:102DA0000100000012000000502A00000100000095
:102DB00007800000BC2DFC07030000000014000089
:102DC000510CFC07130C0000050FFC070314000056
:102DD000150DFC07710BFC07230BFC07210BFC07EF
:102DE0001F0BFC070000000000000000F4010B00B6
:102DF000F4352348D0070640643200001400000078
:102E00002506FC0700000000FF0000000000000095
:102E10000000000014000000490CFC07FD00000049
:102E20003D1EF207FF000000000000007D06FC07C9
:102E3000C905FC079C32FC076125FC073028FC070C
:102E400058CDFC070000000081CCFC070500000005
:102E5000783AFC0700040000E8D1FC07B00200004B
:102E6000DCCDFC0700040000A4D4FC0770050000C2
:102E70002003000000A60E0004000000D2000000A5
:102E8000320000003C0000000100000001000000D2
:102E90000200000002000000040000000300000027
:102EA0000600000000000000020000000200000018
:102EB000000000000000000003000000030000000C
:102EC0000500000005000000060000000A000000E8
:102ED0000A000000C8000000B80B0000020000005B
:102EE000B80B0000B80B000010000000D401000077
:102EF000CC010000700200006A0000000400000025
:102F000001000000200000000C0000000100000093
:102F1000E20400008A020000DC050000AF000000AF
:102F2000E430FC07442FFC07542FFC07EC30FC076F
:102F30002C2EFC0700000000000000000000000034
:102F40005E010000A8F8FC07A0F8FC07B8F8FC0731
:102F5000F8F8FC07982CFC079C2CFC07D828FC07E9
:102F6000B509FC07351FFC07F91FFC07A7C6F007CA
:102F700003C7F0070BC7F0075FC7F00777C7F00775
:102F80008DC7F007AFC7F00731CBF007D5CDF007FD
:102F900015CCF00735CCF00755CCF00793CCF007F3
:102FA000A3CCF0070DE2F007C9DFF007E7DFF00779
:102FB00003E0F0071DE0F00731E0F007AFE0F007B5
:102FC000C7E0F007E3B0F1076BB3F10707A9F0071B
:102FD000B5EFF10799F0F10795F0F10791F0F107DE
:102FE0008D21F007851EFC070510FC075910FC0712
:102FF000AD10FC07A510FC07057DF007D37BF0079B
:10300000737CF007AD82F1074134F1075D19F207D7
:10301000DD19F207811AF207BD1AF2074D1BF207FC
:10302000851BF20700000000C509FC07C709FC0763
:103030007DB3F007D976F107617DF107B181F10722
:103040009780F107C549F1079759F107F10AF10790
:10305000A1ECF007B109FC07ED9CF007DDBAF00721
:10306000CD10FC0799AAF00749ABF007E72DF00750
:10307000A32EF007657FF0072F7EF0070136F007DB
:1030800000000000FD0AFC07050BFC071D09FC07FA
:1030900001A7F10783A7F10707A8F1073509FC0786
:1030A000B5B7F007000000000000000000000000BD
:1030B0000000000000000000000000000000000010
:1030C0000000000000000000000000000000000000
:1030D00000000000000000000000000000000000F0
:1030E00000000000EC2DFC073CCDFC07142EFC0773
:1030F00050CCFC07020000002054686973206973FB
:1031000020796F757220556E6971756520537461F1
:103110007469632052616E646F6D204164647265EE
:10312000737320466F7220796F75722044657669DB
:10313000636520656D62656420696E207468652032
:103140004441313435333520555342204B495420C6
:103150003A200A0D0023232323232323232323237D
:10316000232323232323232323232323232323232F
:10317000232323232323232323232323232323231F
:10318000232323232323232323232323232323230F
:1031900023232323232323232323232323232323FF
:1031A00023232323232323232323232323230052E3
:1031B000656164206D65202852492900526561646B
:1031C000206D652028696E64696361746529005704
:1031D00072697465206D6520286E6F207273702986
:1031E0000052656164206D6520286E6F7469667990
:1031F00029004144432056616C75652031004144EB
:10320000432056616C7565203200444131343533BA
:103210003500765F362E302E32302E313333380083
:103220003A00496E64696361746561626C6500525D
:10323000656164206D65005772697465206D650075
:103240004C454420537461746500427574746F6E0C
:10325000205374617465004C6F6E672056616C7505
:103260006500436F6E74726F6C20506F696E7400EE
:1032700003030A181107595A08E4862A9E8FE91198
:10328000BC7C98434218000052656E657361732DD3
:103290005553422D5052504800000000C924FC07ED
:1032A0004525FC070000000000000000A30AFC0701
:1032B00000000000BD24FC0700000000690AFC07B4
:1032C0000000000000000000000000007D0AFC0774
:1032D000710AFC07910AFC07B50AFC070000000010
:1032E000F10AFC07C909FC0700000000000000000B
:1032F0000A0017000100000000000000983A0001D9
:1033000002030405060708090A0B0C0D0E0F200026
:10331000000000000000FB00480800004033FC07EC
:103320004033FC07380700002827FC07C0CBFC0708
:10333000C0CBFC071C0200002827FC07E0010000AE
:0400000507FC0111E2
:00000001FF
