:0200000407FCF7
:10000000703BFC072501FC072D01FC074501FC079F
:1000100000000000000000000000000000000000E0
:100020000000000000000000000000005D01FC076F
:1000300000000000000000005F01FC073105FC0724
:100040000903FC07B121FC07A526F0074105FC07C1
:100050005D04FC076301FC07FD02FC076301FC076C
:100060006301FC076301FC076903FC077303FC07DA
:100070007D03FC078703FC079103FC076301FC0772
:10008000A905FC076301FC076301FC076301FC078A
:100090006301FC076301FC076301FC076301FC07C4
:0800A0000000000090070E00B3
:0200000407FCF7
:100110000348854600F0DAF8004800473112FC0732
:10012000703BFC070F4880470F480047042071468A
:10013000084203D0EFF309800C490847EFF3088029
:100140000A49084704207146084203D0EFF30980AA
:1001500007490847EFF3088005490847FEE7FEE72F
:10016000FEE7FEE72D28FC071101FC076D04FC07E4
:10017000D503FC07F0B50546007985B007073F0FAA
:10018000284642F76AFC029028794006C00F039087
:10019000284642F762FC4448806A8079012825D0CD
:1001A0000126414840300079800775D5002E73D074
:1001B00000222B2311463D485AF79EFD0227077067
:1001C00001263B4946700446C969A87988472A2117
:1001D0000855287900210007000FA07003005DF783
:1001E0003BF90737393B423F423D420002980190BC
:1001F0002D4814300090002604680BE0611D019822
:1002000042F741FD002804D02079B84201D10126EF
:100210001BE02468002CF1D1009842F72AFD254903
:100220000978884202D1244806780EE000210C208B
:100230005AF754FC04460622401D01995DF7B8F8B0
:1002400027712146009842F745FC01204640A8E767
:10025000A1700AE0A67021E0032002E0A77004E08C
:100260000420A07001E0012818D0A888000A801F8F
:10027000A072284642F7F1FB811D2046A27A0B307E
:100280005DF796F80622201D02995DF791F8039814
:10029000E07020464DF7B2FD05B0F0BDA172F1E768
:1002A000704770477047000074FBFC0704080000AB
:1002B000E4FEFC07A1F9FC07A2F9FC07421C017847
:1002C000401C0029FBD1801A704700001CB509486A
:1002D00000900948019005460126009C05E0E3686E
:1002E00007CC33430C3C98471034AC42F7D3FFF7AC
:1002F00013FF00001034FC073034FC0701480121D3
:10030000018070470E15005010B5EE4CA18A608A2E
:1003100060F704FF5FF745FA10484188890703D06A
:100320004188032291434180018880220A43028050
:10033000018904229143018181898907FCD541F714
:10034000F0FFE06A0649086006480168490700D5E1
:1003500000BE01684907FCD510BDC046080000502A
:10036000080200401000004080B50A2000F028F884
:1003700080BD80B50B2000F023F880BD80B50C2037
:1003800000F01EF880BD80B50D2000F019F880BD8A
:1003900080B50E2000F014F880BD80B513460A46E3
:1003A000032109025FF7F8FA80BD80B509205FF7E5
:1003B000EBFA80BD80B509205FF7DEFA80BD000052
:1003C00010B504465FF7F4FBE0B2012181405048CC
:1003D000016010BDF8B5044601273E02052005075F
:1003E000688DC00506D51B205FF718FA4A480188BA
:1003F000394301808036288840013040698A474A65
:100400000A4002436A8221681348016061684160C2
:10041000A1688160E168C160216901616169416130
:10042000A1698161E169C16104623E490A68426271
:100430004A6882628A68C2624A690263CA68426321
:1004400009698163334808210180A88AC00600D465
:10045000FEE700BEF8BDC04600F8FC070248008871
:100460002B481021016070472C130050F8B504464A
:1004700005200507288A0421014329822889402173
:100480000143298122480127076022480821018071
:100490003E02688DC00506D51B205FF7BFF91E48D8
:1004A0000188394301808036288840013040698ABC
:1004B0001A4A0A4002436A82216819480160616849
:1004C0004160A1688160E168C16021690161616981
:1004D0004161A1698161E169C161046211490A68F0
:1004E00042624A6882628A68C2624A690263CA6872
:1004F000426309698163A88AC00600D4FEE700BE92
:10050000688A094908404018001D6882F8BDC04645
:1005100080E200E000330050800000507FFE0000C9
:1005200050F8FC0728ED00E0FC7F00007047000059
:1005300080B5EA48806A002801D001F089FF80BDBB
:1005400070B5164C164D174EA1880F200840022892
:1005500006D004280ED00C280FD00128F4D11CE0BE
:10056000288800280ED0A088C0210140C02912D1BF
:100570003088E9E701F0C6FFE6E701F0C3FF208815
:10058000012105E0208802218843208020888021E5
:1005900088432080D8E7208AD6E770BD0411005038
:1005A0004CCCFC077C11005080B55FF7FAF8194875
:1005B000018809050CD518490A8805231340052B25
:1005C00006D10888042202430A80088801221EE01E
:1005D0000188C90606D511498A88D20702D00A883F
:1005E000120610D40088C0060CD50C4881888907F3
:1005F00008D50188C90505D5022181800188084AEE
:100600000A40028080BD01208880088880229043B3
:10061000088080BD0400005000020050000100501E
:10062000FFFE0000F8B50C20CF4F38560F4C254682
:1006300010352F340028294600DA21467F22104049
:100640000E1801F099FB39464C31062230465CF712
:10065000AFFE7B7A397A2846224662F7A7FA044829
:10066000044900F08BF9B872F8BDC04660CDFC07B4
:10067000B80B00002506FC0770B5FD2042F7A3F873
:1006800001460F480424082522462B465AF734FB1E
:10069000B54E718B491C7183012242700222828007
:1006A000C18045805AF743FB20465AF76BFD03286B
:1006B00004D16420044900F061F9F08270BDC046A5
:1006C00006FD0000F0CCFC077906FC0770B5374842
:1006D00009210424182322465AF70EFB05461B2045
:1006E0002870FD26304662F70FFB0021A982E960E1
:1006F00029616C606E80687028465AF718FB70BDDF
:100700001FB51446002202920192069A00921A46E0
:10071000234662F7A5FD04B010BD0000B0B5F8484F
:1007200042791449D4B20C236343CD5CFF2D0AD027
:10073000012C02D102224271F4E7521C4271C81806
:10074000406880470EE08179F24ACCB21C236343B3
:10075000D45CFF2C08D0491C8171D318DB68002BB6
:10076000F3D098470020B0BD002141718171012074
:10077000B0BDC046F02EFC0770B50C48092104241A
:100780000A2322465AF7B8FA05461B202870142679
:10079000304662F7B9FAFF21743129816C606E80AE
:1007A000687028465AF7C3FA70BDC0461B0D00009A
:1007B0001FB5144601220292044A0192069A009241
:1007C0001A46234662F74CFD04B010BD1C29FC07F5
:1007D000F8B5CB4DE86B00287BD1414809210422B4
:1007E0002C235AF789FA0446E863172020843D48F1
:1007F00020800120A0760027678020460A30102143
:100800005CF7EFFD251D3848461D38490622304665
:100810005CF7F2FD002806D000BE062228463146CD
:100820005CF7C6FD40E0B64E4636304600F076F93D
:100830000622284631465CF7BBFD2D482D4DA847C2
:100840002D48A8472D48A8472948A8472A4D28469B
:10085000284988472846274988477079284DA8475E
:100860002848244988473079A8472648214DA84779
:10087000F078234988472348A847B078204DA847F7
:1008800020481C4988477078A8472E461D48194DB6
:10089000A84746209A49085CB047174E3046A847FB
:1008A0003046A8473046A847954D6784E783A7831D
:1008B0002020E0767E211448415AFB2900D3FB21F9
:1008C000E1848021405A1149884200D3084620859E
:1008D000E86B5AF72CFA0020E863F8BDF0CCFC076F
:1008E000040D0000030A0000E433FC0794D4F10770
:1008F0004932FC07FF1FFC074632FC07EC31FC07BE
:10090000C11FFC071433FC0774FBFC0748080000F8
:1009100070B57B4D686B002800D070BD134809216D
:10092000042252235AF7E8F904466863072020722C
:100930000F48E080A0800D2020800026A67216229D
:10094000E2720120607220460C300A495CF730FDEB
:100950002B20265420462B302C341021064B2246C7
:1009600062F712F9686B70BDF0CCFC070D0D00004A
:100970004C0400006433FC077C33FC0770B504466C
:10098000002538482A460A2A39D00368002B02D0AD
:10099000001D521CF7E70160551C1A490888000623
:1009A00019480FD5194B1B681B040BD4184B1B8817
:1009B000DB0707D1D1B24018C01C042122465AF7E8
:1009C000DAFC1CE0EFF31083012282F3108809881F
:1009D000090603D40F490E8816430E80002B02D05F
:1009E00082F3108802E0002181F31088042108239B
:1009F0000A465AF781F9446005705AF798F9E8B247
:100A000070BDC046080000500104000030000040E6
:100A100018FAFC0708330050F8B50446401E0928B0
:100A20001BD8A0000F494018071F3868002816D0AF
:100A30000D4DA84213D00D482018401C0426314605
:100A40005AF7E3FC3D6008230848314632465AF71E
:100A500053F904705AF76BF9F8BD00BEF8BD00BE3B
:100A6000F8BDC04698CCFC070125FC070204000035
:100A7000B0B50C460025202D04D041F740FF60554D
:100A80006D1CF8E70020B0BDB0B5044609480A4D1A
:100A9000402229465CF78CFC48350848302229461C
:100AA0005CF786FC0648001B064908801430488025
:100AB000B0BDC04670E0FC077C37F207B0E0FC0731
:100AC000B8E0FFFF78E0FC0707481E21418001885D
:100AD00003220A430280018804220A430280084854
:100AE000012101707047C0460016005080B50348D0
:100AF00001680348401C5EF78BFB80BD3034FC0767
:100B0000F0CCFC0770470000FD2801D000207047A2
:100B1000004870479429FC0770477047FEB5019064
:100B200000F010FB02205FF7C9FF174841680291EF
:100B3000046800F0FFFA00252F462E462E2D0FD018
:100B4000029821462A4662F793FD012108400FA131
:100B50004A5D00215CF770FC0E4307436D1CEDE716
:100B60000024019D302C08D038463146224662F7D9
:100B70007FFD28706D1C0834F4E7019A5079C0217C
:100B800001435171FEBDC046E42FF8071F171C0931
:100B9000080E11161407181D1E271B150601040048
:100BA000232A290A12250B22281A2D0F2C20210274
:100BB00013242B030D051926100C000080B501F03D
:100BC000B7FC80BD70211E4A515A01807047C04653
:100BD00080B54E221A498A5C0270401C4F315CF786
:100BE000E7FB80BD7D21C1800021818010214180F3
:100BF00008210180704780B561F79CFF002801D073
:100C000001F096FC80BD000010B50C46017801296A
:100C10000CD0002910D142884E21094B5A544F3331
:100C2000011DD2B218465CF7C3FB03E04088702177
:100C3000034A5052002000E04820207010BDC046FA
:100C400060CDFC0700208880488001200870704734
:100C500080B55EF781FB80BDF8B56946C870020AB1
:100C60008A70020C4A70000E087008465EF75CFB42
:100C70008FBD7047704770B505460469261D306802
:100C8000002805D0304641F709FF59F7A2FFF6E7E3
:100C900000202861204659F79CFF70BD10B589B22D
:100CA000431C002009280AD00C46C440E40704D0A5
:100CB0009CB2641C944203D09B1C401CF2E70920A8
:100CC000C0B210BDF0B58BB01E4607920F46044669
:100CD00010980690008808900021012002460929FA
:100CE00013D003258540099020463446089ECE4007
:100CF0003B46012737407E421F462E403243264660
:100D000004460998801C491CE9E70A928020304378
:100D10009E210140A08A03911D490291019000206B
:100D200000901C490AAA132338464EF7FBFD0546DE
:100D3000002829D10897202701210591384659F725
:100D4000CDFE0996064639465CF74BFB26613046D8
:100D50001E3011496160A0600898008830830598B2
:100D6000E0811420E082A08A70800998C00307996E
:100D700008433080069800887083301D41F786FE56
:100D8000A08A00215AF7E9F928460BB0F0BDC04609
:100D9000C42DFC070A180000A82EFC070048704765
:100DA000C82EFC07FEB5019302920C46142060F792
:100DB000A5FE0546002800D100BE2778082F13D8CD
:100DC000698B288B3A4600F0F7F800280ED060783F
:100DD0008D26802839D8082F0AD0072F0BD0062F50
:100DE0000BD1082809D030E081262EE082262CE0A5
:100DF000072802D029E0062827D32E1D35462D6866
:100E0000002D0BD02979B942F9D10022304629466C
:100E100041F7B4FE284659F7DCFE6078083001211E
:100E200059F75CFE0546617808315CF7DAFA2078FC
:100E3000287160786871A81D6278A11C5CF7B8FA07
:100E40003046294641F746FE00260648022301990E
:100E5000029A59F751FF21780170467059F767FFE0
:100E60000020FEBD01140000F8B514460D461046E2
:100E70005AF788F9012840D1142060F73FFE074651
:100E8000002803D0798B388B3E7F06E000BE1A2005
:100E90000188182000881C221678324600F08CF851
:100EA0000246787F0002083029788E4213D1174617
:100EB0006A7881B2931D9D48224659F71DFF064668
:100EC00000203071378068787080701D6A78A91CA6
:100ED0005CF76EFA0AE081B2944806231546224672
:100EE00059F70AFF0646802030713580304659F7A1
:100EF0001EFF002120465AF730F90020F8BDC046F9
:100F0000F8B51F460C460878082811D80725002197
:100F100000911AA6784400794000874419040F0410
:100F20000606121518001A4E12E00D25174E0FE096
:100F300000BE002601200090354609E00A2515A6CE
:100F400006E0082518A603E006250EA600E014A674
:100F5000AB1C1848394659F7CFFE07462078387041
:100F60007D700098002804D1B81C31462A465CF7F1
:100F70001FFA384659F7DBFE0020F8BD52656E6552
:100F800073617300FFEEDDCCBBAA0000F232FC07F8
:100F90000C33FC07312E302E302E302D4C45000006
:100FA00001D2008005000100123456FFFE9ABCDE1B
:100FB0000000000003140000B0B58BB2411C0020FB
:100FC0000446092C0DD01D46E540ED0702D0A24293
:100FD00002D0891C641CF4E7092A01D0481C00E0F7
:100FE000002080B2B0BD000080B55AF7E5FB4BF79A
:100FF00058F867480121017180BDC04600BE7047A6
:1010000080B5002048F71CFA61480421017160F79F
:10101000F7FA80BD80B5012048F712FA80BD80B58F
:101020004BF73FF8FFF750FD80BD80B548F754FA05
:1010300080BD000080B507480188012291430180EE
:101040005AF79EFB41F7FCFAFFF73EFD504800219E
:10105000017180BD08330050FEB51F4615460E468F
:1010600010465AF78FF801280DD0002400285AD1D5
:101070000297142060F742FD07460028019604D02D
:10108000798B388B06E002244DE000BE1A200188DF
:10109000182000883288FFF701FE064608281ED86F
:1010A00000943C1D2468002C27D02079B042F9D14F
:1010B0006079831D1D4802992A4659F71DFE054691
:1010C00001980088288000232B7160796880681D52
:1010D0006279A11D1C465CF76BF928460AE01348AB
:1010E000062302992A4659F707FE019909880180CB
:1010F0008021017159F71BFE15E03E770298010A25
:101100007977384660F718FD0146094801272A46D5
:101110003B4659F7F1FD067059F709FE2846394656
:101120005AF71BF8009C2046FEBDC046140C000078
:101130000214000080B51648C01C06495FF7A2FDE6
:1011400080BDC04680B51248C01C02495FF7EEFC66
:1011500080BDC0466834FC0770B5184EB06800F01A
:101160002FF80B490A6B00230B631518094C28460E
:1011700021465CF7A3F8706107494143481901D043
:10118000201A80B23061306808210143316070BD9F
:10119000F0CCFC07710200008FFDFFFF80B5064810
:1011A0000021016001F01EF90120C00703490A680F
:1011B00082430A6080BDC0469CF9FC0730000040B5
:1011C00080B50246C00B09D00E48406800210B468E
:1011D0005CF79EF88905800A401880BD0948406880
:1011E0004243900A80BDC04680B5FFF7E9FF80BD4D
:1011F00080B50449096841430348081803495CF76E
:101200005DF880BD60CDFC0720A1070040420F00C3
:1012100010B5064800243E224223214659F76CFDB2
:101220004470082101704CF7E9FD10BD040800006E
:1012300000B5A5B0CD48C821129101800026468096
:10124000CB48082303801996CA4C1998002812DC51
:1012500000202290229A19990B2A09DC30224A4355
:10126000A118229A920088502299491C2291F1E7F4
:10127000481C1990E9E70D93636AF1430122002BA2
:10128000159200D00A465502BB48876D2F43084689
:10129000B949CD6D16950D468F6501461792D70D4C
:1012A000002B024600D11A465202D219169B1A434D
:1012B0002F46EA656368002B159800D00846C50FD5
:1012C000002B00D1194649004919FA6D0A43B96D3E
:1012D000FA6542000A43BA65FE65BE651799616208
:1012E000606019960D9D1998002835DC0020229029
:1012F00022980B282CDC229819990B2828D830200A
:10130000199941436118229A92008958491C00D1C9
:1013100000BE199941436118229A92008958002908
:1013200013D0199948432018229989004058C117B1
:10133000229A5CF781F8199A12015CF77DF8FA6D30
:101340000A43B96DFA650143B9652298401CCEE79E
:101350001998401C1990C6E72F46884D288822AC62
:1013600020802088C046C046208804211591C943AA
:10137000084201D02E8003E0A88901218843A8817A
:101380007F4C208838432080012014900702384683
:101390002C305EF7EBF9608880210F910843608064
:1013A0000F208102AA8B0A43AA83E18D0623994369
:1013B000E18514998903AA8B0A43AA832188714A7B
:1013C0000A40228061880A9319430D9A91436180F3
:1013D00005210991090717914A8D6B4BFF33E18D68
:1013E00019407D23DB0000031690D005079323D41A
:1013F000032042021143E185E18D169A1143E185F4
:10140000A98B0D9A9143A983A98B04229143A983A7
:1014100061885E4A0A40628061885D4A0A40C00273
:1014200010186080E08D14990843E085179A159D87
:10143000508D4007FCD51BE0184618300143E1856C
:10144000E08D54490140149BD8030818E085A88B0F
:101450000D990843A883A88B159A9043A883E08D23
:101460009843E085A88B40210143A9831546179A2C
:101470004249888B03230E931843888320882021B8
:101480000C910843402188432080108F0224204380
:101490001087414805809088404901409180364D31
:1014A0001498687000043E4908601546FFF74AFE2C
:1014B000119420465FF702FB3A480068C1B20C2045
:1014C000AA29014600D015992A88824388182880C5
:1014D000C046C046284A10464030334909888180BA
:1014E0003248006810641498C046C04688253048C9
:1014F000465319AC2FA1242220465BF759FF3649E9
:101500002B48324623465DF7B1FF294B585DC10792
:1015100001D000BE585D400858558920195CCA07A3
:10152000079A01D000BE195C490819548420195A41
:1015300000291C4D00D11A528621585A00284ED13C
:10154000FF2002022868104035221202904209D082
:101550000D229202904203D03322120290423DD1DA
:10156000942000E09020585239E0C04600310050ED
:1015700002330050C0CCFC07F0CCFC070403005041
:1015800052000050FFBF000000F0FFFFFFF9000015
:10159000FFC70000FF0F000000020050FFF700002F
:1015A00080E200E0D02FF807D82FF807D42FF807F3
:1015B000C0CBFC07B51EFC07891EFC07351EFC07C7
:1015C00000000000611EFC07000000000000000099
:1015D000D02EF807C02FF807A000FC070020D64C3B
:1015E00060825DF72DFE7F20A070A869D3498860D6
:1015F000FFF7A0FDD2480068D2498842099D00D07B
:101600008DE0D148D1495BF7ECFE07242102D04898
:101610005BF7E7FEFEF746FECE48CF490160CF48B4
:10162000CF4930225BF7C4FECE480026C6718671D2
:1016300046710671C670867046703F211591017023
:10164000C948CAA140220B925BF7B2FED748C671C7
:1016500086710E994171FF210171C17081704170D5
:101660000170D3480670D348D3490160D348D449A8
:101670000160D449D4480860D4480A210170D44894
:101680000670D4480560D44814990160D3480560B9
:10169000D3480A990160D3480460D3480D9901608A
:1016A000B81DD2490860D2490860D24DA6482860CA
:1016B00000F00CFC5DF7F2FC5DF736FD1699FF318A
:1016C000179AD08C0840610234460143D1845DF7FB
:1016D00047FD9B480068C84E9A49884213943AD007
:1016E0002868B060954A90681071010ED171010CA4
:1016F0009171000A50713846C030C04A002818D095
:10170000401EBE49435C15782C460E990C408B490F
:101710000C1924795C406C401470521CEEE7B848F8
:10172000B6496A02964200D96BE732587250361DAC
:10173000F7E7824C2034B1491C2220465EF7B4FB07
:10174000002800D000BE20465DF7EEFD7C487D49B4
:101750000160139CA74D286840F77CFDA9480471DF
:10176000C470149DAC07206838432060FFF7ACF9C3
:10177000284600F04DFC4E20A34B10221A5413981B
:10178000A049C870A14908706B4D28666866A866B4
:10179000054618464F309E490A925BF709FE9A4863
:1017A0004E30458404259B49284659F7A4FC1695DC
:1017B0002846139D294659F7D0FC5F4908464C300E
:1017C00085809548C864CD718F481030934916259F
:1017D0002A465BF7EDFD5848058161F7C1FA894853
:1017E0001399C17089480170FFF7D8FC8C48129991
:1017F00001808C480D990180149948020190159838
:1018000080020090CD034D480C30159086488749E2
:101810000818874940188008401E08901097179BA9
:101820001889000600D44AE1206B284200D046E126
:1018300074480088C00700D041E159F73AFF002002
:10184000099000F0E5FB3C480079042800D036E11F
:10185000149800F0DDFB0998189018A804214AF7A5
:1018600077FD002800D12AE11498724908600868C1
:101870000028FCD1E0693049096A884203D22E4928
:10188000099A0A621146411AC909192900D216E1BA
:101890002949086268490888069048880590888820
:1018A0000490C8880390099823906448229019A84E
:1018B0000290099062A1099F0DC90DC77C20634A5F
:1018C000105A0009029B18711C4FB91C22A85FF71F
:1018D000DBFA07981730584A11890140164BD98115
:1018E0005189014019821089009F384001990843AD
:1018F000108150893840084350815FF7B9FB099047
:101900000E4949880C4AD2894B4803893B4013430E
:101910000381094A128A43893B4013434381079A52
:101920000998401A11464143002800DD92E0484AD8
:101930008918C01708408FE0F0CCFC073834FC074A
:101940009CF8FC076587341200E0FC07AC1400002B
:1019500000F9FC0724FAFC07D82EFC07C8F9FC079D
:101960005CDEF107A4F9FC073CFCFC0720008000CA
:1019700000C0000000000400000028220000000059
:101980000000040000F7FFFF7F00000030F00708B0
:101990000000000000040000000000000000000043
:1019A000000000000000000000000000ACF9FC078F
:1019B000C5F9FC0750F9FC07E036F20754F9FC07BB
:1019C0005830FC0758F9FC07402FFC07A1F9FC0729
:1019D000A2F9FC075CF9FC0760F9FC0764F9FC0755
:1019E00068F9FC076CF9FC0770F9FC0748F9FC077B
:1019F00044F9FC074CF9FC0700020040D4CDFC0779
:101A000000F0FC0718FAFC0760CDFC0778FAFC0729
:101A10007C33FC070C29FC0705FFCDAB6433FC07C6
:101A20000031005002330050243300001001FC0745
:101A3000030004F8FC000040001500500104000001
:101A40005BB005020000000032000000C0CBFC07C4
:101A500082FBFFFF50189630109FBE495BF744FC95
:101A600082091932F14988787F281ED0101A41B2B4
:101A7000C9114840401A40B2082817DBEB49486AB0
:101A8000401C486209925FF7A5FD00F087F900F05D
:101A9000A9FB5FF7DDFD5FF763FDA54870305FF7D9
:101AA00009FE5FF7ADFDE149099A8A70A6480599DC
:101AB0004180049981800399C1800699018072B6A2
:101AC00022A9139A0A709D4800790228104602D074
:101AD00098480068806A199015989F4A5FF760FBE4
:101AE000002878D19D48806A002803D0914800687A
:101AF000806A199000F076FC19A915985FF786FBAB
:101B0000002868D101205DF757FE199A002A07D0F6
:101B1000206A93494018DA2803D8521E199200E02F
:101B20000022C248808A814F396908187861884844
:101B30007E30E36B03400B43E363E06B894908406D
:101B4000B96989020143E16322A816990170E06B2B
:101B500085490840796949050818E063834882424D
:101B600000D300BE76498868C96800235BF7D0FBC4
:101B70000903000D4118B869821C8A4200D0481E32
:101B80006E4909794A1E914147F716FE7848C06AA6
:101B90008047109F206B2842FCD030683842FCD030
:101BA00030680F99884330605D480089452805D822
:101BB00046215B4A1181081AED49086340F785FB0D
:101BC000B068EB49C86230680006FCD5179A1089E6
:101BD0000F99884310815B4800780128119800D044
:101BE0000E9822A90978042900D00846811E0229EE
:101BF000179B2ED2198A169A1143198202282CD0CB
:101C000003284FD151490868169A10430860454986
:101C10000889149FB8430881588A0A9E3043588225
:101C2000588A10435882FFF78DFA179B588A304321
:101C3000588208984F490860EFF3108087F31088A6
:101C400019880F9A91431980002815D087F31088BE
:101C500015E001285DD130BF5BE03C4A1068169961
:101C6000084310602F490889149A90430881588AC4
:101C70000A998843588213E0002080F31088109F4F
:101C80002D4E588D38420BD00020EC49C8700B20E7
:101C90005DF7C4FD179B2449C88D149A1043C8856D
:101CA00000201883588D384208D11F4A9088149913
:101CB000084390801088602188431080988C149F7E
:101CC000B84398840D205DF751FD179A5089384329
:101CD000022188435081908AC00603D51048801E97
:101CE0000D99018030BF908AC00602D50C480D992D
:101CF00001800D4908880C9A10430B9A9043088084
:101D000000F0E4F8114A1068169988431060109F9B
:101D1000179B62B601481299018081E5003100509D
:101D20000233005004030050520000503834FC07C6
:101D300000E0FC0758F9FC070002004018FAFC0715
:101D400060CDFC0778FAFC070015005010ED00E0AC
:101D500082FBFFFFFC080000ED0AFC0700FEFC0709
:101D6000C8FEFFFFFF03E0FFFFFF1F0040420F0020
:101D7000E4FEFC072000F407B04801464C318A8895
:101D8000521C0A71130A4B7191B2034A914202D15B
:101D90005021002242527047FFFF000010B5D94C7D
:101DA0002078401C20700D490968C3B246480022C3
:101DB0005DF7AEFC2078401E207010BD10B5D14CF0
:101DC0002078401C2070C3B23F48044900225DF7D0
:101DD0006BFC2078401E207010BDC0466C34FC07A0
:101DE000B0B5964CE17A002900D000BE88002518D5
:101DF000A86B3835002813D109020A310C48042297
:101E00000E2358F779FF0921017028601021818085
:101E10000021818141817D220281C1800821418090
:101E200058F785FF0020E0712860B0BDF0CCFC07BA
:101E30000E0E000070B50C461D4811188925224E63
:101E4000705DC00030183030A2005BF7B1FA705DF1
:101E500000197055C0B20D2800D300BE70BDC04639
:101E60001348115809234B431058000C1A1A120436
:101E7000D214154B60331A8489B2401A0104890CBC
:101E80000818401CD883704770B50C4608481118D4
:101E900088250D4E705DC0003018A2005BF788FAEF
:101EA000705D00197055C0B20D2800D300BE70BD22
:101EB000D42EF80788001018024940587C21024AA5
:101EC00050527047D02EF807C0CBFC07F8B55B48DE
:101ED000C2781B2027495DF7F9FC274800250560DB
:101EE0001D210124254F20462246B84709202946B6
:101EF0002A46B8472248018821430180214E3046B6
:101F00005EF792FB20480188B18980221143B1819C
:101F10001E490B230B8008213180B580B189914384
:101F2000B1810321B1818483058485840520042641
:101F300031462A46B84716480168A1430160FF218F
:101F4000090642680A40134BD218426082680A4070
:101F50008260016802220A4302600168B1430160A5
:101F60000D49364A9162016821430160F8BDC046BF
:101F7000F0CCFC076834FC07000008409B03FC071A
:101F80000C030050001100507C110050C011005093
:101F900010E000E03F0D03005124FC070549884292
:101FA00000D000BE04480188044A11408918091D68
:101FB000018070471111111112000050FC7F0000C8
:101FC000FEB504464009302737210528384600D39E
:101FD000084601912109401802AD287001262846C3
:101FE000314600F097FA0F2020400A2800D3019FC5
:101FF000381828702846314600F08CFAFEBD10B51E
:102000000446FEF75BF981B2204600F083FA10BD6A
:1020100080B50A490A78012A0ED1094A002803D05E
:1020200010884007FCD402E01088400704D4002048
:10203000087004485DF7AEF880BDC046F0CCFC07E0
:102040000016005060CDFC0770470000F0B58BB063
:102050003022002181541F221204204B1C6894431B
:102060000122550464191C601E4C1F4D45611F4D13
:102070001F4E204F204BC36106624462184B83629F
:10208000C5621E4B07604360D004544A1368834303
:102090001360282903D001A84154491CF9E71848C6
:1020A0000068403001A928225BF782F9C048082166
:1020B00001705FF78FFAFFF781FEFFF76FFE00F008
:1020C00091F85FF7C5FA5FF7D7FA5FF749FA244846
:1020D0005FF710FB5FF794FA0BB0F0BD740000409F
:1020E0000D21FC070921FC078D21FC073516F2079D
:1020F0002D05FC076521FC076721FC074920FC072B
:102100004CF9FC074ECCFC070020704770470000DC
:1021100080B51F20000401218A07536F83434804C0
:102120001818506710680721884310600B48018811
:1021300008220A4302805FF74DFAFFF73FFEFFF7E0
:102140002DFE00F04FF85FF783FA5FF795FA044829
:102150005FF7C0FA5FF754FA80BDC0460800005030
:1021600070E0FC07704780B5E62800D3E6202828F9
:1021700000D82820FF22EC3242437D20C1001046C7
:102180005BF79CF87E38C0B280BD0000022902D007
:10219000012900D000BE002802D0FF2804D000BED4
:1021A000022901D10C207047814800787047C04651
:1021B00080B50A480168C90703D0016802220A43B2
:1021C00002600168490204D50121890502680A43B9
:1021D000026003485EF7CCFF80BDC04600020040AD
:1021E0003C29FC07FCB57F2000025E494A69824316
:1021F0000B20000210184861086880B25A4A801803
:1022000008608869594A02408A61032001900002EF
:102210000A6B02430A63888F102202438A878888E8
:10222000012200921043888051485249016052496E
:10223000088810430880514E30461038504DA98B05
:1022400001401520440108195030A88368694D49A0
:1022500001404D4808186861A8694C4901400920AF
:1022600040020818A86128684949014049480818EF
:102270002860686848490140484808186860A868AC
:102280004749014047480818A860E86846490140A6
:1022900046480818E860C120400145490978090608
:1022A00008184449086005208102434A11804F1DE7
:1022B0009780178C55203843AA27B8431084FF27EE
:1022C0006C373846C93010853C4B18460E30908527
:1022D0003B4810869386C01D10870A312985A86B5C
:1022E0003849014038480818A86338480780028FE9
:1022F00032402146203152180287354D2A8832401B
:10230000D219D5322A80AA8832401219AA802A8985
:102310003240511829813946213181802D48018868
:102320003140091960310180818A19220A4306214E
:102330008A43828207841F4A908F27490140009870
:102340004003081890870C4A106C01990843042137
:1023500088431064506A214901402148081850629E
:10236000FCBDC0462030004000006666FF00FEFF56
:102370008000004059055C07401000401FFCFFFF33
:10238000042000400000E0FF09601A00FEE1FFFFAA
:10239000E0E000000809294900000303696A686C4D
:1023A000031FFFFF70600000E0E0E0E00B0A0A0896
:1023B0004ECCFC070010004028130040260A000005
:1023C000510800002304E0FE181A06010012004024
:1023D0004412004088120040FF9F000000FE00FEF3
:1023E00050015001F8B5842014490E5A7848076806
:1023F0003046784312494018124D29465AF75EFF7D
:102400000446EB4884823C367E430D48301829460A
:102410005AF754FF001D334908612018C01D886118
:10242000094A1278022A01D111308861FEF7C8FEEC
:102430000649401880B259F7CDF9F8BDC0CBFC076A
:1024400020A1070040420F0078FAFC07E2040000D8
:10245000F8B5244CE069002803D0FDF7ABFF00205D
:1024600002E0FDF7A2FF0120E06120780A2835D1C3
:10247000002020701C4D1D4F2846B8471C4C20469C
:10248000B8471C48B8472846B8472046B8472046B2
:10249000B847DD4E46367079174CA047174D284691
:1024A000B8473079A0472846B847F078A047284673
:1024B000B847B078A0472846B8477078A047284664
:1024C000B8474620D049085CA047064C084D28462E
:1024D000B8472846B8472846B8472078401C20709F
:1024E000F8BDC0463834FC074932FC07FF1FFC0723
:1024F0004632FC07EC31FC07C11FFC071433FC0714
:102500007047000002480188012291430180704712
:102510000411005080B50A46014603480280034872
:102520005EF7D8F880BDC0464CCCFC0700110050C7
:10253000F8B525482549FEF721FAB34EB072FEF7EB
:10254000E7F90446C57A162D0AD860190C303146D1
:102550004C3106225AF72CFFAA1DE272357317E0A0
:102560002B20275C192F11D820462B300090E01922
:102570002C3031464C3106225AF71AFFB81D00990B
:1025800008708020384330732A4601E000BEE27AAA
:1025900032720F4D2846103021460C315AF708FF91
:1025A0002B20225C72722F352C34284621465AF794
:1025B000FFFEFEF7ADF958F7BAFB00207063042068
:1025C000022158F7CAFDF8BDB80B00002506FC072C
:1025D00060CDFC0780B5442801D1FFF7A9FF80BD7D
:1025E00070B50C460C214143874E75186221695C19
:1025F0006235FF2915D0F072B07AFEF70DFA6088C7
:10260000082807D3102805D8A088002802D1E08820
:102610007D2808D07D20C0000649FEF7AFF9F07193
:1026200001E0FFF785FF2878FF2800D070BDFFF795
:102630007FFF70BDE11DFC0710B5734CE0790028E9
:1026400003D0FEF7E9F90020E071FFF795FBFFF7F3
:102650006FFF10BD7CB50C465049884222D05049CE
:10266000884228D04F49884248D04F49884272D189
:102670006088182870D0052873D014286CD00228E0
:1026800069D16E4600253570A288A11D30465AF7E3
:102690008FFE3078002874D064204849FEF76EF928
:1026A000054675E04448022519462B4658F724FB99
:1026B000A18801804DE060883E4D2E2835D1524ED4
:1026C000B08B401CB083FD2040F77DF8014604220A
:1026D0000A23284658F710FB21780C224A43B118E8
:1026E0006222895C01706188418002218180002121
:1026F0008171B18BC171090A01722AE066882B4889
:10270000082519462B4658F7F7FA00218180628880
:10271000428022780C2353433B4AD2186223D25C76
:102720000270172E14D0032112E0082628461946FD
:10273000334658F7E1FA21780C224A433249891886
:102740006222895C01706188418000218180802142
:10275000817158F7ECFA7CBDA079194600F030F889
:102760007CBD01AD00202870A288A11D28465AF723
:102770001FFE287800280ED00128ECD1FDF715FEA9
:102780007CBD2148C08A0028E5D0C0B2FEF744F9DC
:102790001D48C5827CBDFDF70DFE7CBD0D0C000003
:1027A00004FD00000DFD00000AFD00000EFD00000C
:1027B000F0CCFC0705FD00000E0C00007906FC07BC
:1027C00010B500061CD00C46FD203FF7FCFF01466B
:1027D0000C480422082358F78FFA02218180132124
:1027E0004180210A0C224A4307498A186223D25C9D
:1027F00002700A8B53BAC380521C0A8358F797FAA7
:1028000010BDC04608FD0000F0CCFC0702E008C87F
:10281000121F08C1002AFAD170477047002001E05A
:1028200001C1121F002AFBD17047000080B5024889
:102830005CF752F980BDC046A000FC0717B9679845
:102840004C664C01963331B1915900152368EC5216
:102850001E6244749A1BD18BAB75B66E9EE7BA08A4
:10286000B9A948ABA1AC031C2E0D296C20EE8D0C30
:10287000E1F04A0CB325DC536A68862D28D5E1C106
:10288000E1C54729B55765C3BA47159E4F43313C4B
:10289000939242E6A876FA3BEFB4875A8C09E0D1CE
:1028A000815442408E4FD2B377E32A7720EE8D0CCD
:1028B000E1F04A0CB325DC536A68862C4F43313C67
:1028C000939242E6A876FA3BEFB4875917B9679816
:1028D0004C664C01963331B1915900142368EC5287
:1028E0001E6244749A1BD18BAB75B66D28D5E1C1BD
:1028F000E1C54729B55765C3BA47159DF3D81C45AF
:1029000011964D1213FED63BCC316C6E00000000C8
:10291000983BF20780CCFC07040001000214000081
:10292000010FFC07FD31F207B107FC070107FC07A7
:10293000F800000003280028022901298000000077
:102940001F10FC07020000002B10FC07080000000D
:102950000110FC07000100001510FC070002000038
:1029600075C1F007400000003794F0071000000028
:10297000C97BF007040000003510FC0701000000CF
:10298000E90FFC0720000000FD0FFC07000000001D
:1029900000000000FD000000CC29FC073000000012
:1029A000CD06FC0700000000000000000000000051
:1029B000FF00000000000000000000000000000018
:1029C0000000000000000000000000003629FC07A5
:1029D000100000000100000010001000912DFC0705
:1029E0003429FC0702000000010000000000000084
:1029F000000000006C28FC07100000000800020026
:102A000001000000000000003A29FC07020000005D
:102A1000010000000D000D005633FC073429FC07AF
:102A200002000000010000000000000000000000A3
:102A30008C28FC07100000000880000001800000C6
:102A4000000000003A29FC0702000000010000001D
:102A5000090009003433FC073429FC070200000098
:102A60000100000000000000000000003C28FC07FE
:102A70001000000001020000020000000000000041
:102A80003829FC07020000000900020002000000D3
:102A9000000000003A29FC070200000001000000CD
:102AA0000B000B00E632FC073429FC070200000093
:102AB0000100000000000000000000004C28FC079E
:102AC00010000000010000000200000000000000F3
:102AD0003A29FC0702000000010000000B000B0077
:102AE0000033FC073429FC0702000000010000004D
:102AF00000000000000000005C28FC07100000003F
:102B00000102000001000000000000003829FC075D
:102B100002000000090002000200000000000000A6
:102B20003A29FC0702000000010000000C000C0024
:102B30003E33FC073429FC070200000001000000BE
:102B400000000000000000007C28FC0710000000CE
:102B50004100000014000000000000003829FC07BC
:102B60000200000009000200020000000000000056
:102B70003A29FC0702000000010000000C000C00D4
:102B80001633FC073429FC07020000000100000096
:102B900000000000000000009C28FC07100000005E
:102BA0000902020032000000000000003829FC0782
:102BB0000200000009000200020000000000000006
:102BC0003A29FC0702000000010000000A000A0088
:102BD0004B33FC073629FC07100000000100000001
:102BE00010001000A12DFC073429FC070200000092
:102BF000010000000000000000000000AC28FC07FD
:102C00001000000008000200018000000000000029
:102C10003A29FC070200000001000000080008003B
:102C20002B33FC073429FC070200000001000000E0
:102C30000000000000000000BC28FC07100000009D
:102C40000880000001000000000000003A29FC0795
:102C5000020000000100000011001100C332FC0757
:102C60003629FC07100000000100000010001000D1
:102C7000B12DFC073429FC07020000000100000010
:102C80000000000000000000CC28FC07100000003D
:102C90000102000002000000000000003829FC07CB
:102CA0000200000009000200020000000000000015
:102CB0003A29FC070200000001000000100010008B
:102CC000D532FC073429FC07020000000100000097
:102CD0000000000000000000DC28FC0710000000DD
:102CE0000100000002000000000000003A29FC077B
:102CF0000200000001000000070007002333FC076A
:102D00003429FC0702000000010000000000000060
:102D100000000000EC28FC0710000000410000004B
:102D200002000000000000003829FC07020000003B
:102D30000900020002000000000000003A29FC0720
:102D4000020000000100000012001200B032FC0777
:102D50003429FC0702000000010000000000000010
:102D600000000000FC28FC0710000000010000002B
:102D700002800000000000003A29FC070200000069
:102D8000010000000C000C00A332FC07001A2130E7
:102D900003595A08E4862A9E8FE911BC7C98434265
:102DA00018595A08E4862A9E8FE911BC7C7C464259
:102DB00018595A08E4862A9E08E911BC7CD047427B
:102DC00018000000002800000100000000000000C2
:102DD000032800000100000002000000292A000072
:102DE00001000000808000000328000001000000B6
:102DF00004000000242A0000010000008080000080
:102E0000032800000100000006000000252A000041
:102E10000100000080800000032800000100000085
:102E200008000000272A0000010000008080000048
:102E300003280000010000000A000000262A00000C
:102E40000100000080800000032800000100000055
:102E50000C000000282A0000010000008080000013
:102E600003280000010000000E000000232A0000DB
:102E7000010000000880000003280000010000009D
:102E8000100000002A2A0000010000000880000055
:102E9000032800000100000012000000502A00007A
:102EA0000100000007800000B02EFC0703000000B6
:102EB00000140000A50DFC07130C00005910FC07BE
:102EC00003140000690EFC07C50CFC07770CFC0717
:102ED000750CFC07730CFC070000000000000000EC
:102EE000F4010B00F4352348D0070640643200009B
:102EF000140000007907FC0700000000FF0000003C
:102F00000000000000000000140000009D0DFC0700
:102F1000FD0000003D1EF207FF0000000000000061
:102F2000D107FC071D07FC079033FC075526FC075B
:102F30002429FC0750CDFC070000000081CCFC07D1
:102F400005000000703BFC0700040000E0D1FC0716
:102F5000B0020000D4CDFC07000400009CD4FC07A4
:102F6000700500002003000000A60E000400000011
:102F7000D2000000320000003C0000000100000010
:102F80000100000002000000020000000400000038
:102F90000300000006000000000000000200000026
:102FA000020000000000000000000000030000001C
:102FB00003000000050000000500000006000000FE
:102FC0000A0000000A000000C8000000B80B000062
:102FD00002000000B80B0000B80B00001000000059
:102FE000D4010000CC010000700200006A00000063
:102FF0000400000001000000200000000C000000A0
:1030000001000000E20400008A020000DC0500006C
:10301000AF000000D831FC073830FC074830FC070F
:10302000E031FC07202FFC0700000000000000003A
:10303000000000005E010000A8F8FC07A0F8FC07F3
:10304000B8F8FC07F8F8FC078C2DFC07902DFC075E
:10305000CC29FC07090BFC074D20FC071121FC07BC
:10306000A7C6F00703C7F0070BC7F0075FC7F00755
:1030700077C7F0078DC7F007AFC7F00731CBF00770
:10308000D5CDF00715CCF00735CCF00755CCF007BF
:1030900093CCF007A3CCF0070DE2F007C9DFF007EF
:1030A000E7DFF00703E0F0071DE0F00731E0F0078D
:1030B000AFE0F007C7E0F007E3B0F1076BB3F1074B
:1030C00007A9F007B5EFF10799F0F10795F0F107BF
:1030D00091F0F1078D21F0079D1FFC075911FC07A6
:1030E0009D11FC07F111FC07E911FC07057DF007B4
:1030F000D37BF007737CF007AD82F1074134F10711
:103100005D19F207DD19F207811AF207BD1AF207FD
:103110004D1BF207851BF20700000000190BFC078E
:103120001B0BFC077DB3F007D976F107617DF10732
:10313000B181F1079780F107C549F1079759F10768
:10314000F10AF107A1ECF007050BFC077501FC077C
:10315000DDBAF0071112FC0799AAF00749ABF00796
:10316000E72DF007A32EF007657FF0072F7EF0070D
:103170000136F00700000000510CFC07590CFC0759
:10318000710AFC0701A7F10783A7F10707A8F10758
:10319000890AFC07B5B7F007000000000000000036
:1031A000000000000000000000000000000000001F
:1031B000000000000000000000000000000000000F
:1031C00000000000000000000000000000000000FF
:1031D0000000000000000000E02EFC0730CDFC07DE
:1031E000082FFC0750CCFC0702000000205468693F
:1031F0007320697320796F757220556E69717565DA
:10320000205374617469632052616E646F6D204154
:1032100064647265737320466F7220796F757220D3
:1032200044657669636520656D62656420696E201A
:10323000746865204441313435333520555342207C
:103240004B4954203A200A0D002323232323232310
:10325000232323232323232323232323232323233E
:10326000232323232323232323232323232323232E
:10327000232323232323232323232323232323231E
:10328000232323232323232323232323232323230E
:1032900023232323232323232323232323232323FE
:1032A00023230052656164206D652028524929005E
:1032B00052656164206D652028696E64696361747C
:1032C0006529005772697465206D6520286E6F202E
:1032D000727370290052656164206D6520286E6FDD
:1032E0007469667929004144432056616C756520F4
:1032F0003100765F362E302E32322E3134303100AE
:103300004144432056616C7565203200444131349C
:10331000353335003A00496E6469636174656162F2
:103320006C650052656164206D6500577269746553
:10333000206D65004C4544205374617465004275EE
:1033400074746F6E205374617465004C6F6E6720E7
:1033500056616C756500436F6E74726F6C20506FB0
:10336000696E740003030A181107595A08E4862A83
:103370009E8FE911BC7C98434218000052656E652F
:103380007361732D5553422D505250480000000078
:10339000E125FC073926FC070000000000000000C2
:1033A000F70BFC0700000000D525FC07000000001B
:1033B000BD0BFC0700000000000000000000000042
:1033C000D10BFC07C50BFC07E50BFC07090CFC0740
:1033D00000000000450CFC071D0BFC07000000006E
:1033E000000000000A0017000100000000000000BB
:1033F000983A000102030405060708090A0B0C0DA0
:103400000E0F2000000000000000FB004808000034
:103410003434FC073834FC07380700001C28FC074C
:10342000C0CBFC07C0CBFC07140200001C28FC0723
:04343000E0010000B7
:0400000507FC0111E2
:00000001FF
