:0200000407FCF7
:1000000030A3FC070501FC070D01FC072501FC07D7
:1000100000000000000000000000000000000000E0
:100020000000000000000000000000003D01FC078F
:1000300000000000000000003F01FC07498DFC07A4
:100040004301FC074301FC07D18CFC07D58CFC075E
:10005000B58BFC074301FC07A98FFC074301FC0794
:100060004301FC074301FC074301FC074301FC0774
:100070004301FC074301FC074301FC074301FC0764
:100080004301FC074301FC074301FC074301FC0754
:100090004301FC074301FC074301FC074301FC0744
:1000A0000348854600F056F800480047CB84FC071B
:1000B00030A3FC0710B51149062008800F2000F07E
:1000C00010F8012000F00DF8002000F00AF80520DB
:1000D000000741890422914341810021018062B6D9
:1000E00010BD002809DBC106C90E01208840044963
:1000F0000860BFF34F8FBFF36F8F7047003400501D
:1001000080E100E00F4880470F4800470420714617
:10011000084203D0EFF309800C490847EFF3088049
:100120000A49084704207146084203D0EFF30980CA
:1001300007490847EFF3088005490847FEE7FEE74F
:10014000FEE7FEE7B500FC07A100FC070580FC0701
:100150000180FC07064C0125064E05E0E36807CC4C
:100160002B430C3C98471034B442F7D3FFF79CFF65
:100170009801FC07C801FC0702E008C8121F08C16B
:10018000002AFAD170477047002001E001C1121F18
:10019000002AFBD170470000C801FC070080FC0763
:1001A000F01A00007801FC07B81CFC07F09AFC0765
:1001B0000C0000007801FC07C41CFC07FC9AFC073B
:1001C000EC0800008801FC07FEE70000052000079E
:1001D000018A0422114301820189402211430181D5
:1001E000054A01211160418A012289088900D20350
:1001F000114341827047000080E200E0F0B500202A
:1002000099B0149004461390169015900746064630
:1002100005461790072168460C22C90300F0BFF875
:1002200068460078702878D168464078522874D1A2
:1002300001981190029810906846402212901199EE
:1002400000F0ADF868468078AA2811D16846007899
:1002500070280DD168464078512809D10198149032
:100260006846C07816900298179008A8067801246E
:1002700040221099129800F092F868468078AA28D7
:1002800010D16846007870280CD168464078512813
:1002900008D16846C07815900198139008A8057891
:1002A000029FA41C032C04D0012C0ED0022C35D0AC
:1002B0005FE016991598FF2901D100282ED0FF285C
:1002C00001D1002901D0814228D311990020403169
:1002D000149A00F064F8002E02D0149800F03AFC52
:1002E00000210846149A00F0F5F91799884240D089
:1002F000032C3ED1109900204031139A00F04FF8A2
:10030000002D02D0139800F025FC00210846139A16
:1003100000F0E0F9B84228D12BE026E01099002047
:100320004031139A00F03BF8002D02D0139800F0F2
:1003300011FC00210846139A00F0CCF9B84218D0FD
:10034000032C16D1119900204031149A00F027F89F
:10035000002E02D0149800F0FDFB00210846149AEC
:1003600000F0B8F91799884203D00020C04319B0B3
:10037000F0BD0020FBE710B586B0694603A800F089
:1003800015F803A86C4605A900F0D6F80A3002D18A
:10039000204600F068F8FFF731FF06B010BD08B541
:1003A00092B26B4600F0D2F8002008BDF8B50127E4
:1003B0000E46044603221D231202394600200097F0
:1003C00000F010F9002503221C2312020421284604
:1003D000009500F007F9032200211B2312020846B2
:1003E000009500F0FFF800221A2303211046009523
:1003F00000F0F8F82078F121B843084020707D2003
:10040000800160802079C721C008C0000840083002
:1004100020716571A7710120E0718004B0603146E0
:10042000204600F024F8F8BD10B5012000F0D5FBFF
:100430000520000200F092FC80B210BD10B5FFF75D
:10044000F3FFC00701D00D20C04310BD10B500F070
:100450003AFC00F044FC002000F0BFFBAB2000F0B1
:100460007DFC002010BD0DC850490DC1704710B56E
:100470000C4600F0D6FB002C06D02046FFF7F3FF19
:10048000FFF7E4FF002010BD0620C04310BD10B5EB
:100490000446FFF7D3FF00281ED100F09EFB00F0BA
:1004A00012FC9F2000F026FC002000F023FC000638
:1004B000000A2060002000F01DFC00062168000CEE
:1004C00008432060002000F015FC2168C0B20843FA
:1004D000206000F004FC002010BD70B59AB0064604
:1004E00060223349684601F069F818A8FFF7CFFF8A
:1004F000002815D11898002814D0411C12D00821CA
:1005000000246D460C2262435219526882420CD17B
:100510000C2044436019FFF7A6FF285D30700020CF
:100520001AB070BD0A20C043FAE7641CE4B28C42E2
:10053000E8D30920C043F3E710B50C4600F071FB87
:10054000FFF784FF2046FFF7C8FF10BDF8B51D4632
:1005500017460C460646FFF771FF002825D11348C1
:1005600039198068814202D9001B288000E02F8061
:10057000022000F032FB00F0A6FB03212046090612
:10058000084300F0B7FB002000F027FB002406E042
:10059000002000F0AFFB641C3070A4B2761C2888E9
:1005A000A042F5D800F09BFB0020F8BDFC9AFC07A8
:1005B0003494FC07704710B5144C400100194900F1
:1005C00008181A43C28010BD104A40018018012249
:1005D0008A40828070470D4A4001801801228A407B
:1005E0004280704770B506460498144600280D46B0
:1005F000304602D0FFF7EFFF01E0FFF7E5FF2246AC
:1006000029463046FFF7D7FF70BD0000003000508C
:1006100038B500F0C9FA012000230202014600901B
:100620001846FFF7DFFF002401256D0223462A4606
:10063000042120460094FFF7D5FF00232A461946DF
:1006400018460094FFF7CEFF00232A4603211846E0
:100650000094FFF7C7FF1A4800681B494001C20D0C
:1006600018480DD0438A6A461380128893089B006D
:100670006A469B1C138013880B43138012884282A6
:10068000438A6A46138013880B4313801188418282
:1006900038BD0E4C6088012108436080FF20208017
:1006A0000B4E0825758000F069FEC827FFF763FE32
:1006B0000028FBD127807580FFF7AAFFF6E700002E
:1006C0000000FC07000000500080000000310050D6
:1006D0000033005010B5C043064B07E00C7844408F
:1006E0002406A40D1C59000A6040491C521EF5D274
:1006F000C04310BD9494FC07FFB583B0002B4AD0D3
:10070000012B7DD10E200825039A10800398458087
:10071000039F00203F1D002D27DD0B7884001A4623
:100720004B78801C1B021A438B781B041A43CB782E
:100730001B061A4312BA120ACB7812021A433A5114
:100740000B791A464B791B021A438B791B041A4307
:10075000CB791B061A4312BA120ACB7912021A433A
:10076000E31908315A60A842D7DBF4480090039897
:100770002E4600888000001D0190854247DAB000B7
:100780000290C0198038C46F2946304600F002FF3D
:100790000B0003D01AE00A200425B5E7E848E1B2CF
:1007A000415C0A022104090E415C09041143220242
:1007B000120E825C12060A43210E405C009910431F
:1007C00009780C0644400098401C0090082D12D176
:1007D000042B10D1DA48E1B2425C2104090E415CDD
:1007E000090211432202120E825C12040A43210EF6
:1007F000405C04061443701B80003858604000E0E1
:100800000CE00299761C785001988642B7DB039879
:100810001022FF30E530059900F0D0FE07B0F0BDA2
:10082000F0B40446008814348500281F002833DD06
:100830002D1F2068C349C44B02460A40C609DF4346
:100840003E40921BC14E4100194032405140FA01D6
:100850000E461640F709F61BBC4F4A001A403E40B0
:100860007240B84E570016401F40F309F31AB74EB6
:1008700033405F400B4678405340414018267B4050
:10088000F141594042401023DA414A400821C84111
:10089000424004C46D1ECCD1F0BC7047F0B597B097
:1008A000028807921201101814308446084610304E
:1008B0000023022408909D00674602467D1B803A73
:1008C000803DD66FEF6F08387E40D667966FAD6F6C
:1008D0009B1C6E409667641EEDD1604610381390E5
:1008E00000200490079800287EDD401E119010A87B
:1008F00014900422941CA407240F0C59944B240236
:10090000240E1D5D541CD01CA4078007240F000F6B
:100910000C5B085896072404360F000E240E8E5DDB
:10092000185C1C5D9B5D119F049EBE4279DA0646F1
:100930006E400396370603D576001B277E4000E005
:100940007600F6B2654009962F462E0603D57D0047
:100950001B26754000E07D00EDB2059525465D4003
:100960002E0603D56D001B26754000E06D00EDB22C
:100970000A951D4645402E0603D56D001B26754081
:1009800000E06D00EDB21595059E099D75402E069F
:1009900003D56D001B26754000E06D00EDB2AC463E
:1009A0000A9E059D75402E0603D56D001B267540D9
:1009B00000E06D00EDB26646AE466E40350603D5EA
:1009C00075001B26754000E07500EEB23D465D40A7
:1009D00067467D40099F75407D406040584077469E
:1009E00078407040059F00E04CE07840039F000491
:1009F0005F4063465F400A9B77405F40039B6340D4
:100A000074466340159C734063402C0604433802CF
:100A100004431C4393000CA818188038C4670BE0EB
:100A2000FFE700062D0428432402204318439400C6
:100A30000CABE318803BD867521E00D05AE7002465
:100A4000149B089A022518468038C66F1398A70091
:100A5000C01B8038C76F083B7E401746803FFE674B
:100A60001E68806F083A4640A41C16606D1EEAD1CD
:100A70001398079A103813900498401C04909042E1
:100A800000DA36E717B0F0BDFFB59BB01B98FF301A
:100A900081300090446E826EC16E006F25BA00BA3C
:100AA0001C4616BA0FBA0390103C3BD4102212A871
:100AB0001C9900F083FD1C9810301C90129800BA0D
:100AC00016900A90139801BA149802910B9101BAEA
:100AD0001598189100BA0C9104900D900AA91B98D2
:100AE000FFF7DCFE0A980D99684000BA0E900B984B
:100AF000169D704000BA0F900C98029E784000BA84
:100B000010900398189F41400498039008BA1190E0
:100B100010220EA91D9800F051FD1D9810301D9057
:100B2000103CC3D5039A009C3BBA12BAE36631BAB3
:100B3000226728BAA16660661FB0F0BD949AFC07D0
:100B40009498FC0780808080FEFEFEFE1B1B1B1B12
:100B50009499FC0710B5094A044611460023103940
:100B60000748FFF7C9FD0648FFF75AFE0022234653
:100B700011460348FFF788FF10BD0000C29AFC072A
:100B8000089BFC07EFF31080012181F310880521F9
:100B900009078A8801239B021A438A80002800D013
:100BA000012080F310887047EFF31080012181F35A
:100BB0001088052109078A8801239B029A438A80AD
:100BC000002800D0012080F31088704769498A8886
:100BD0009208920002438A80704730B5012465492B
:100BE0007C23654A002803D0012807D002280BD0B7
:100BF0008D889D431C358D8014740AE08C889C433D
:100C00003C348C80022103E08C881C438C800421BE
:100C100011741178E12300071940C00E01431170CF
:100C200030BD70B50546FFF7ADFF524C2020208047
:100C300028794007400FFFF7D0FF28780007400FC2
:100C4000FFF7C4FF2878C107A08880229043090ECF
:100C50000843A08048492B780878DB07400840000B
:100C6000DB0F184308700023A381238913432381DA
:100C70002A78D20721D12A79C0069206520FC00ED7
:100C800052011043087068887D221202904201D1FF
:100C90007F2005E04100104600F066FC401EC0B217
:100CA0002189C909C90101432181E879C107208847
:100CB00040229043490E0843208020882021884309
:100CC0002080002070BD2B49088820229043088096
:100CD00029482849007840092031888070472549F3
:100CE0000020203188802349088820229043104327
:100CF0000880704770B51F4900230A8852095201C5
:100D00000A800A880224A24322430A800A88042413
:100D1000A24322430A800C880122944314430C808E
:100D2000154A1278D506134A2C0F2032022C01D313
:100D3000060C16811080088B000BC007C00FFAD17B
:100D4000012C01D910890304280F888B04D0C01806
:100D50000A8BD20BFCD170BDC0B2F9E700B50346D7
:100D6000FFF7B1FF1846FFF7C5FF0346FFF7B7FFD0
:100D7000184600BD0012005030A3FC0710B50A4809
:100D800080890A49C96A002901D0884710BD04201A
:100D900000F001F810BD002805DBC106C90E0120D6
:100DA000884003490860704720130050FC9CFC07F2
:100DB00080E200E0534930B4884201D0012100E0D4
:100DC0000021514A4901891808E0838ADB07DB0FBB
:100DD00012D00388541C8D68CC81AB54CA898B898E
:100DE0009A42F2D382885208520082808A69002A8D
:100DF00002D0C88930BC104730BC7047F8B5414DAF
:100E0000414E044620890007000F062826D009DC41
:100E1000012840D002281DD00428F3D12046FFF736
:100E2000C9FFEFE7072828D00C28EBD1AC4201D04E
:100E3000012000E00020400187192046FFF7BAFF9B
:100E4000A18849084900A180B9690029DAD0F88948
:100E50008847D7E7204600F023F8D3E72046AC4286
:100E600001D0012100E00021490189190A69002A05
:100E7000C8D0818A9E2319400BE02046AC4201D0A5
:100E8000012100E00021490189190A69002AB9D02D
:100E900001219047B6E7F8BD1A48AFE71B48ADE718
:100EA000184930B4884201D0012100E00021164ADF
:100EB000490189180EE003891B069B0F032B1BD0E9
:100EC000838A9B06DB0F002B96D0531C0C68CB80CB
:100ED000A25C0280CA888B889A42ECD38288022363
:100EE0009A438280828880239A4382804A69002ABA
:100EF00082D0888830BC10477C231B5A9B07DB0FAD
:100F0000E1E779E70010005044A3FC07001100500E
:100F100002480068002800D00047704784A3FC07FF
:100F200031498A8A03235B029A43C3085B021A434E
:100F30008A828A8A0723DB0240079A43800C024395
:100F40008A822948403001880122114301802648C5
:100F5000203841894907FCD570472348818A808A17
:100F60004905890FC9008004400F081870471E49C1
:100F70008A8A03235B029A43C3085B021A438A826C
:100F80008A8A0723DB0240079A43800C02438A8245
:100F9000704710B50446144820384089C00502D473
:100FA0000120C04310BD00F062F8002806D0FFF712
:100FB000D4FFA04202D90020C04310BD0A48408A95
:100FC000C00408D409480088000704D4082C02D2C1
:100FD0000420C04310BD0648012104704170204622
:100FE000FFF79EFF002010BD40000050200300507E
:100FF000F09AFC0710B50446FFF7AFFFA04202D2FB
:101000002046FFF7B4FF53480188C90708D101887B
:101010000122114301804F48603841894907FCD5BE
:1010200010BD38B54C4C054620684107490F68464D
:1010300001700078854219D0464860384089C00563
:101040000CD5A81E030000F0CBFA05040604040426
:1010500009000B2000E01320FFF7CCFF2068C00838
:10106000C0002843206060684007FCD538BD3B487D
:10107000007870473A49800009583748016139497A
:101080004161704710B5EFF31084012080F31088A0
:10109000304860384089C0050BD5304901200870C0
:1010A000FFF75BFF304908702A480088C007C00F6F
:1010B00048700520000701888022114301802648DE
:1010C0000168C908C900016041684907FCD50320CF
:1010D000FFF7D0FF002C03D0012080F3108810BD53
:1010E0000020FAE770B5EFF31084012080F3108838
:1010F00005210907088880221043088016480368E4
:10110000DB08DB00036043685B07FCD5174B03611A
:10111000144B43610888904308800E48603840892A
:10112000C0050ED50D4900200F4D08702878FFF737
:101130001EFF6878002804D1064801884908490044
:101140000180002C03D0012080F3108870BD0020A6
:10115000FAE70000800000500000F407F29AFC0754
:10116000D49AFC07090404A4F09AFC070F0099091B
:1011700004490120C88104480068002800D00047C5
:10118000704700000015005088A3FC07F0B56F4CB5
:1011900089B000202076607603906D4800696D4923
:1011A000884202D0C81709B0F0BD694F0425403FFE
:1011B000E819016D0191090F09290FD00122019849
:1011C000920790427FD3644A90427CD863490835A5
:1011D000884202D16249012008707EE0019A01999B
:1011E0001204C9B2160E11292FD007DC0B0000F033
:1011F000F7F9086767676767670D1C6712390B00A7
:1012000000F0EEF9063445545E575C5E207EB20075
:10121000C1004E48403808184D491431691800F093
:10122000CDF9207E801920764AE0607EB200C100B0
:10123000464840380818464910301431691800F003
:10124000BDF9607E801960763AE0416D89B2049103
:10125000406D000C01460290049800F068F8A080F0
:101260000299049800F06BF8E08029E0416D89B2A2
:101270000491406D000C01460290049800F057F86C
:1012800020810299049800F05AF8608118E00398D0
:1012900006A9800040182E49B2001431691800F0E8
:1012A0008DF90398801903900AE00CE0406D60828C
:1012B00006E0416D25484038016401E0406DA082A0
:1012C000B000451929E0072927D0082925D00A2987
:1012D00023D0062921D0401C06D01D4810302918E3
:1012E0002048814200D263E70698A0810798050C48
:1012F00086B22946304600F01AF8E0812946304689
:1013000000F01DF82082207E40082076607E400894
:101310006076A08A002802D004E02D1DDDE77D2044
:10132000C000A08200203EE70848808A7047081A63
:101330000104890C40180C49401800B27047C200E3
:101340008018401A0004C01470470000CCA3FC07AA
:10135000C07EF807A5A5A5A54C420050020000508C
:10136000F49AFC07C07FF8070100FFFF01480078EE
:1013700070470000F49AFC0770477047F8B5594869
:1013800008240480FFF716F9574DA98868460180A4
:101390000088FFF7F2FF684600880426B0433AD081
:1013A0000020A8805048203001880F22920211436B
:1013B00001804E4A518A214351824C4940310B8869
:1013C0000625AB430B800588CB011D430580558A5C
:1013D0009D435582938A0E25AB439B1D9382434BBD
:1013E000203B5D89EF05424D0F8819D5AF431501AC
:1013F0007D190D800D880F022D052D0DED190D8025
:101400000588254305800488B44304800C8864085B
:1014100064000C8020E0288A400840002882C1E750
:10142000AF4303256D027D190D800D880F273F0303
:101430003D430D800588A54305800488B44304809E
:10144000958A03246402A54395820C8801252C43C8
:101450000C8059894907FCD5018803242143018068
:10146000548A60218C432034548282888A432032FB
:10147000828005242407E08AC02188438030E082EE
:10148000188A000A00021882188B1C218843083031
:101490001883FFF7F7FD0220FFF7C3FD154D2869FC
:1014A000C0B2AA2814D0012021880C2291438000C8
:1014B00001432180FFF76AFEFFF758FF002809D09B
:1014C000608800F019F8FFF70DFE00F03FF8F8BD56
:1014D0000320E9E72869C0B2AA2801D06E20F0E70E
:1014E0008020EEE700330050000300504000005021
:1014F000000F0000C07FF80708B513498A8852081A
:1015000052008A80002200920099491C00911429FF
:10151000FADB052109074B899B089B005B1C4B816B
:101520004B895B06FCD54880E120C0000092521C2C
:1015300000928242FBDB488980088000488148890C
:101540000006FCD508BD00002000005070B5054C19
:10155000012525801B20FFF71CFDA089A8432843F7
:10156000A08170BD0003005030B50B46014600203D
:101570002022012409E00D46D5409D4205D31D4699
:101580009540491B2546954040191546521E002D91
:10159000F1DC30BD70B500242546002801DA0124B5
:1015A0004042002901DA01254942FFF7DDFFAC4244
:1015B00000D04042002C00D0494270BD03460B438E
:1015C0009B0703D009E008C9121F08C0042AFAD2F9
:1015D00003E00B780370401C491C521EF9D270477F
:1015E00030B47446641E2578641CAB4200D21D469C
:1015F000635D5B00E31830BC184700000100000089
:101600001130EF0000000200020000001230EF0075
:10161000000004000300000000421F000000020060
:10162000040000001120C2000000020005000000BC
:101630001128C20000000200060000001228C200AB
:10164000000004000F00000011608500000002008F
:10165000120000001264C800000004000000000036
:10166000963007772C610EEEBA51099919C46D07AF
:101670008FF46A7035A563E9A395649E3288DB0E0A
:10168000A4B8DC791EE9D5E088D9D2972B4CB609ED
:10169000BD7CB17E072DB8E7911DBF906410B71DCA
:1016A000F220B06A4871B9F3DE41BE847DD4DA1A03
:1016B000EBE4DD6D51B5D4F4C785D38356986C1334
:1016C000C0A86B647AF962FDECC9658A4F5C0114AD
:1016D000D96C0663633D0FFAF50D088DC8206E3B8B
:1016E0005E10694CE44160D5727167A2D1E4033C9D
:1016F00047D4044BFD850DD26BB50AA5FAA8B535C4
:101700006C98B242D6C9BBDB40F9BCACE36CD832B2
:10171000755CDF45CF0DD6DC593DD1ABAC30D92659
:101720003A00DE518051D7C81661D0BFB5F4B4215C
:1017300023C4B3569995BACF0FA5BDB89EB8022859
:101740000888055FB2D90CC624E90BB1877C6F2FDE
:10175000114C6858AB1D61C13D2D66B69041DC76D9
:101760000671DB01BC20D2982A10D5EF8985B171B2
:101770001FB5B606A5E4BF9F33D4B8E8A2C9077861
:1017800034F9000F8EA8099618980EE1BB0D6A7FF8
:101790002D3D6D08976C6491015C63E6F4516B6BB1
:1017A00062616C1CD83065854E0062F2ED95066C66
:1017B0007BA5011BC1F4088257C40FF5C6D9B065DB
:1017C00050E9B712EAB8BE8B7C88B9FCDF1DDD6238
:1017D000492DDA15F37CD38C654CD4FB5861B24D9E
:1017E000CE51B53A7400BCA3E230BBD441A5DF4A68
:1017F000D795D83D6DC4D1A4FBF4D6D36AE969432B
:10180000FCD96E34468867ADD0B860DA732D0444D5
:10181000E51D03335F4C0AAAC97C0DDD3C71055000
:10182000AA41022710100BBE86200CC925B56857A7
:10183000B3856F2009D466B99FE461CE0EF9DE5EF0
:1018400098C9D9292298D0B0B4A8D7C7173DB359A1
:10185000810DB42E3B5CBDB7AD6CBAC02083B8ED32
:10186000B6B3BF9A0CE2B6039AD2B1743947D5EA3F
:10187000AF77D29D1526DB048316DC73120B63E36E
:10188000843B64943E6A6D0DA85A6A7A0BCF0EE4CD
:101890009DFF099327AE000AB19E077D44930FF088
:1018A000D2A3088768F2011EFEC206695D5762F77F
:1018B000CB67658071366C19E7066B6E761BD4FEBC
:1018C000E02BD3895A7ADA10CC4ADD676FDFB9F999
:1018D000F9EFBE8E43BEB717D58EB060E8A3D6D65B
:1018E0007E93D1A1C4C2D83852F2DF4FF167BBD189
:1018F0006757BCA6DD06B53F4B36B248DA2B0DD88C
:101900004C1B0AAFF64A0336607A0441C3EF60DF2E
:1019100055DF67A8EF8E6E3179BE69468CB361CB17
:101920001A8366BCA0D26F2536E2685295770CCC3C
:1019300003470BBBB91602222F260555BE3BBAC57D
:10194000280BBDB2925AB42B046AB35CA7FFD7C26E
:1019500031CFD0B58B9ED92C1DAEDE5BB0C2649B5F
:1019600026F263EC9CA36A750A936D02A906099C92
:101970003F360EEB8567077213570005824ABF9505
:10198000147AB8E2AE2BB17B381BB60C9B8ED29288
:101990000DBED5E5B7EFDC7C21DFDB0BD4D2D386DF
:1019A00042E2D4F1F8B3DD686E83DA1FCD16BE8152
:1019B0005B26B9F6E177B06F7747B718E65A088823
:1019C000706A0FFFCA3B06665C0B0111FF9E658FB4
:1019D00069AE62F8D3FF6B6145CF6C1678E20AA05E
:1019E000EED20DD75483044EC2B30339612667A7E4
:1019F000F71660D04D476949DB776E3E4A6AD1AE33
:101A0000DC5AD6D9660BDF40F03BD83753AEBCA9C1
:101A1000C59EBBDE7FCFB247E9FFB5301CF2BDBD2E
:101A20008AC2BACA3093B353A6A3B4240536D0BA37
:101A30009306D7CD2957DE54BF67D9232E7A66B3D4
:101A4000B84A61C4021B685D942B6F2A37BE0BB481
:101A5000A18E0CC31BDF055A8DEF022D637C777BB3
:101A6000F26B6FC53001672BFED7AB76CA82C97D9A
:101A7000FA5947F0ADD4A2AF9CA472C0B7FD93262B
:101A8000363FF7CC34A5E5F171D8311504C723C32F
:101A90001896059A071280E2EB27B27509832C1A73
:101AA0001B6E5AA0523BD6B329E32F8453D100EDCD
:101AB00020FCB15B6ACBBE394A4C58CFD0EFAAFBB1
:101AC000434D338545F9027F503C9FA851A3408F79
:101AD000929D38F5BCB6DA2110FFF3D2CD0C13EC91
:101AE0005F974417C4A77E3D645D197360814FDC26
:101AF000222A908846EEB814DE5E0BDBE0323A0A0A
:101B00004906245CC2D3AC629195E479E7C8376D8D
:101B10008DD54EA96C56F4EA657AAE08BA78252EB2
:101B20001CA6B4C6E8DD741F4BBD8B8A703EB5663B
:101B30004803F60E613557B986C11D9EE1F898112C
:101B400069D98E949B1E87E9CE5528DF8CA1890D1B
:101B5000BFE6426841992D0FB054BB1652096AD5B1
:101B60003036A538BF40A39E81F3D7FB7CE3398292
:101B70009B2FFF87348E4344C4DEE9CB547B9432E1
:101B8000A6C2233DEE4C950B42FAC34E082EA16629
:101B900028D924B2765BA2496D8BD12572F8F66400
:101BA00086689816D4A45CCC5D65B6926C7048507B
:101BB000FDEDB9DA5E154657A78D9D8490D8AB0030
:101BC0008CBCD30AF7E45805B8B34506D02C1E8F59
:101BD000CA3F0F02C1AFBD0301138A6B3A91114195
:101BE0004F67DCEA97F2CFCEF0B4E67396AC74227E
:101BF000E7AD3585E2F937E81C75DF6E47F11A71FC
:101C00001D29C5896FB7620EAA18BE1BFC563E4B34
:101C1000C6D279209ADBC0FE78CD5AF41FDDA833F6
:101C20008807C731B11210592780EC5F60517FA936
:101C300019B54A0D2DE57A9F93C99CEFA0E03B4D65
:101C4000AE2AF5B0C8EBBB3C83539961172B047ED9
:101C5000BA77D626E169146355210C7D0102040888
:101C6000102040801B366CD8AB4D9A2F5EBC63C6EB
:101C700097356AD4B37DFAEFC59106A9214036B8ED
:101C8000A15B512E03D5341200063DAFBA429D9E92
:101C9000B430B422DA802C9FAC41000001009909D5
:101CA00003009909070099090F0099091F10990964
:101CB0002F2099095F5199090000000000000000E1
:041CC0000000000020
:0400000507FC00A153
:00000001FF
