:0200000407FCF7
:100000009086FC072501FC072D01FC074501FC0734
:1000100000000000000000000000000000000000E0
:100020000000000000000000000000005D01FC076F
:1000300000000000000000005F01FC073513FC0712
:10004000AD10FC07AD4FFC07A526F0075113FC07C8
:10005000D512FC076301FC071D10FC076301FC07B8
:100060002D10FC076301FC072D11FC073711FC075D
:100070004111FC074B11FC075511FC076301FC07FC
:100080005913FC076301FC076301FC076301FC07CC
:100090006301FC076301FC076301FC076301FC07C4
:0800A00000008E070E000000B5
:0200000407FCF7
:100110000348854600F070FF004800473141FC0766
:100120009086FC070F4880470F480047042071461F
:10013000084203D0EFF309800C490847EFF3088029
:100140000A49084704207146084203D0EFF30980AA
:1001500007490847EFF3088005490847FEE7FEE72F
:10016000FEE7FEE7BD6CFC071101FC07F112FC077E
:10017000C312FC07F8B50746012000230246009091
:100180001946032049F73EF90446022180300170E8
:10019000FF4DFE482A6843881146FF31F7310B8630
:1001A00080884886FB48066A0123DB069E431E437F
:1001B0000662FF320020FF32383250829082D082B5
:1001C0001D200882F4484884F448C882F448088313
:1001D00000204882384649F755FC01462868FF3020
:1001E000F730C28B920992010A43C283ED484168FD
:1001F00000208847002C02D0204648F7ECFC20461F
:10020000F8BDFFB58BB0064616980027022821D00E
:100210000D9801881498814278D371880846403837
:100220003F2802D8159855F7E9FC0C98361D008830
:10023000149A80190E995EF75FFF0C980188149844
:1002400008180C9908800D9801881498081A0D99BF
:1002500008805CE100200E9D079069782C780902E7
:1002600021433180E978AC780902214371808C46C2
:10027000403904242D1D024603468E46402900D3F2
:100280002878614604291FD0052914D0062918D0E2
:1002900070463F283DD8159855F7B0FC0006000E73
:1002A00004D0C148008D0006C00F30D002230120C9
:1002B000BE4A002712E0697800290FD0BC4A1723F4
:1002C0000CE0BC4A0F2309E0522802D0D22802D009
:1002D00002E0142000E01520B74A1F23002A1AD09C
:1002E000984218D2800010580490002813D00020A3
:1002F0000890059070884038402803D3287805245A
:1003000030716D1C701D00900498B5E0FEE0302740
:10031000F0E03327EEE07088042872D10627E9E088
:10032000522862D00CDC4B283FD004DC41286AD034
:10033000422858D111E04C2820D0502853D140E019
:10034000632830D004DC572818D061284BD19BE0BB
:100350006C2864D0772846D109E00098297801708C
:100360000098641C401CA4B26D1C009081E00498AD
:10037000401C04900178089881427AD10098A41C0E
:10038000401C41084900881C009068782A780002C7
:10039000104308800599AD1CA4B2002969D00890CB
:1003A0000020059065E00120FBE710222946009817
:1003B0005EF7A2FE009810341030A4B21035009001
:1003C00057E0204640301499039088420BD84022D1
:1003D000294600985EF790FE009840300090039800
:1003E000403584B245E0342743E00822294600988E
:1003F0005EF782FE009808340830A4B208350090F9
:1004000037E068E0FFE70622294600985EF774FEB1
:100410000098A41D801DA4B2AD1D009029E0149881
:10042000001B80B203903088001B001D81B20120A8
:1004300007900498401C04900098401C400840001D
:1004400000900498007857281CD04228CBD10098FF
:100450000170090A417000982946801C0090039A97
:100460005EF74AFE03980399201884B2009840185A
:1004700000900498401C0490007800281ED0002FA3
:1004800017D01BE04908E2E71498001B81B20098DE
:100490000391401C40084000009001200A4607904C
:1004A000294600985EF728FE0399601884B20098E8
:1004B000DDE70D990988A14200D331E70D98008846
:1004C000A04208D304990978002904D1079900298A
:1004D00003D1A04201D034270CE00D99001B088005
:1004E0000C9801880098801B001F08180C99002F99
:1004F00008800CD07088042809D0062807D040381E
:10050000402804D30E984079707100E034273846B3
:100510000FB0F0BDFFB581B01F4616460C46104621
:100520005CF7AEFC00257F2802D02189062909D07E
:100530003B4632462146019855F7F3FE05462846CC
:1005400005B0F0BDC00601D50225F8E720780028E7
:10055000F5D1300AA11D42F77CF8F0E7F1B598B06B
:10056000189842F774FA0446189805210079134A3E
:100570004006C00F099068460184618B08460A381E
:10058000904276D2E08A062873D319E030BCFC078B
:100590004CB9FC07C0000040108000002941000059
:1005A0007671000058BFFC0748BEFC073803F2070D
:1005B0004003F2079C03F207D803F207770C000010
:1005C0001922D201904254D8228BFF23F5339A424C
:1005D0004FD8521C9300D2184243521C0A23521087
:1005E00059438A4245DC217F00290CD1617F0029D3
:1005F00009D1A17F002906D1E17F002903D1202163
:10060000095DC90635D0274620377978C906C90E55
:10061000491F0C292DD2A18A81422AD8E17C0029C8
:1006200027D0421E082A01D9082000E0401E81423E
:100630001FD8684646F7CCFA00281AD1FE4D06228C
:10064000286221460AA85EF757FDA8792E46803E0B
:1006500000287DD06079800901280BD00AA809996B
:100660004CF785FD010003D03820405C002870D095
:100670009BE008E1F06A807A012808D0042806D0BF
:100680000AA84CF7E1FD286200284ED054E0686AC1
:1006900006220AA932305EF753FD002806D00AA8C8
:1006A0004CF7D2FD2862002802D012E0686AF9E710
:1006B00000210AA84CF7DEFD2862F16A897A012937
:1006C00005D18B071A6849068A430A431A60002835
:1006D00011D0F16A286A0622253010315EF730FD0C
:1006E000002808D1286AF16A2030C07AC97B884284
:1006F00001D1286A1EE0D148D1490088C96880B27A
:1007000006225043081842F7A7F9014614A806220A
:1007100002305EF7F1FC13AA00213C2042F769FC8D
:100720000121B06D47F790FEA9E011A90AA84CF786
:10073000A1FD2862002838D00146253106220FA8E5
:100740005EF7DAFC286A08AA2030C17A0FA801E017
:1007500041E024E04CF7EEFB002812D0286A20305C
:10076000C07A002809D16846B649008C4BF755FB82
:1007700008AA0121B3484CF7DDFB68460AA9008CA2
:100780000AE008AA012111A84CF7D4FB00280CD0DC
:10079000296A6846008C32314BF755FB05E00A1890
:1007A000527D002A08D010286DDBF06A407A0228BA
:1007B00006D0032804D00EE0401C1028EFDBF4E73D
:1007C0006846008C052806D308AA0AA809994CF7A0
:1007D000B1FB002857D00022694620464CF753FC55
:1007E000002850D1F06A407A02280BD0032809D0A3
:1007F0000023684602880AA809994CF765FC00287E
:1008000002D02FE00123F4E7E18A68460181218BC1
:100810004181618B81817878062241096846817522
:100820007878C106C90E6846417521460E305EF7DC
:1008300063FC189800794006C10F6846017503886B
:10084000214602A8B26D47F7A5F90146B06502A896
:1008500042F71DFC0020B065214668461C31008827
:1008600046F709FA49F788FA734C2034207A0028B1
:1008700005D0002109205CF746FC002020720021F1
:1008800008465CF7E8FA19B0F0BDF8B56E4C0646BC
:1008900085000F4660594C21095C24290ED140691E
:1008A0001022791D2E305EF727FC6159252040313A
:1008B000087300221146304654F7F3FA60594C2170
:1008C000095C0C291FD140691022791D2E305EF77A
:1008D00013FC60595F214069095C09072DD401466A
:1008E0002E3110221E305EF72BFC00280CD06059F0
:1008F000092140300173304654F7F0FF01460022D1
:10090000304653F74DFEF8BD0421684601706A4633
:100910000521304653F7EEFF684601786020014319
:1009200068460170304654F7D9FF014668460278A0
:100930000123304653F749FFF8BD304654F7CEFF48
:10094000012809D060590721403001730022114667
:10095000304654F7A6FAF8BD615900204969C03104
:10096000887160590421426930461E3253F7C2FF34
:10097000605941694031897F002907D01A214030F0
:1009800001730021304654F716FBF8BD1B2140309F
:100990000173304654F764FBF8BDF8B52A4C0546A0
:1009A0008600A0594C22125C192A11D140224D30E8
:1009B000491D5EF7A1FBA059402224494D305EF746
:1009C000BFFB002805D02149284620395BF723FDCD
:1009D000F8BD0B21684601706A460521284653F789
:1009E00089FF684601786020014368460170284607
:1009F00054F774FF0146684602780123284653F7EE
:100A0000E4FEF8BDFFB581B003980C46060A002548
:100A10005CF736FA002827D0132825D0142823D0D5
:100A20000B48B700C0592030407BC00637D503982B
:100A30005CF726FA15280DE030BCFC0768B9FC0706
:100A400060BBFC0750F5F1073CBEFC07FCBDFC0792
:100A500078BBFC070CD0A07941F7ECFF304647F794
:100A600087F8032806D015E0A07941F7E3FF1FE0DF
:100A700002251DE03248C0592030407B400704D594
:100A80003D21304642F7D4FC04E03D2200213046AF
:100A900042F7DDFC3D21304646F7B2F808E020463B
:100AA000103828490181468120464EF79BFD0125DB
:100AB000284645E524485222006864308188C37E78
:100AC0005143224A12688918FF225F32525AFF317D
:100AD000120AD21A01310B8CD2B2DB0B09D00B8C6B
:100AE0005B045B0C0B84002A03D18088184A012127
:100AF00011547047FFB51746140A81B0104A029886
:100B0000A100515840780026114D002907D0295DD9
:100B1000002905D0002803D1204643F7EDFE2E55CD
:100B20003A46049B0299019844F777FE08E50A4883
:100B300008490160094941607047704770470000EB
:100B400078BBFC070608000084BBFC074CB9FC0717
:100B5000D38BFC070459F007C0000840490C00BFC4
:100B60007FB5E4486B460188428889186A4611803F
:100B700001214C0022181546403DED8F065B52883E
:100B8000AD19AA18491CC9B21A530729F1D3818992
:100B9000C089081881B2D981D888002821D0188945
:100BA000002820D0988800281FD0588900281ED0FF
:100BB000988900281DD0588800281CD000291CD0F6
:100BC000188800280BD00720062254001C5B8C429A
:100BD00001D22146D0B2521E52B2002AF5DA04B038
:100BE00070BD0320FBE70420F9E70220F7E70520AA
:100BF000F5E70620F3E70120F1E70720EFE7F0B57E
:100C000095B0EFF310801090012080F31088BA485F
:100C1000816B4A07520F69460A800A92816B012252
:100C2000C908C9008163B5498B8869464B80022495
:100C3000B24B00219980C16A09078B0F69468B80EE
:100C40000F93C16A0C2399430831C162052109073A
:100C500009880906CB0F6946CB800521090709934E
:100C600009888023194305231B071980A449898A11
:100C70004906CB0F69460B81A1490893898A402315
:100C800019439F4B9982016A09074B0F69464B81B3
:100C90000C93036A0E218B4303629B4D9948686055
:100CA000FF204030A8602888A043288097484168EA
:100CB0000B071B0F69468B810B93416809090901DA
:100CC00008314160416849064B0F6946CB810D935D
:100CD000416870239943603141608748403801681A
:100CE0008904CB0F69460B820293036841140B43BE
:100CF00003600168CB07DB0F69464B820E930168E6
:100D00001143016041688903CA0D69468A820392D2
:100D10004168CA05D20D6946CA8204928168890376
:100D2000CA0D69460A8301928168CA05D20D6946D7
:100D30004A8305924168764A11400322D2038918FA
:100D400041604168490A4902FF314131416081688F
:100D50006F4A11400322D203891881608168490AD1
:100D60004902FF3141318160642000F02DF9A889EA
:100D700069468007C00F8883A8892043A881002482
:100D8000604F288800260121084328800A2000F0AF
:100D90001BF9FF205F4941303A680A4200D0761CB7
:100DA000401E3F1D0004000CF6D1A88A8004FCD12F
:100DB0005149886B671CC208D2007807400F024374
:100DC0008A630A2000F000F960004A49FCB20E5222
:100DD000082CD5D348480A99826BD208D2000A431E
:100DE00082636946454A498891800F998A00C16AA1
:100DF0000C2399431143C1620999CA0105210907CE
:100E0000098880239943114305221207118008990C
:100E10008A013B49898A402399431143384A918288
:100E20000C994A00016A0E23994311430162374825
:100E30000B994268120912010A4342600D994268F7
:100E4000090170239A430A434260029841032A48E9
:100E50004038006801225203904308432649403934
:100E600008600E9809684908490001432248403843
:100E700001600398420220484038406824490840F5
:100E800010431D4A403A506004985268520A520278
:100E900002431948403842600198174A4002403ADC
:100EA00092680A400243144840388260124905980B
:100EB00040398968490A490201430F484038816036
:100EC0001098002800D0012080F3108815B0F0BDE4
:100ED00010B5114C2078002808D0FFF790FEFFF7DE
:100EE0003FFE0E4908700020207010BD03F0BEFECA
:100EF0000120F9E7207FFC0780100040001200402D
:100F000020300050207AFC0700350050402000407F
:100F1000FF01FCFFC0C0C0C0B88CFC07928CFC076E
:100F200010B5FF22154901320A60BFF34F8FBFF39E
:100F30006F8F13490A6013490B6840241B0A1B0278
:100F400023430B601049898A0021C30700D0352153
:100F5000830702D57D231B021943430702D575235E
:100F60001B041943000702D53D2000060143064833
:100F70002038016301488038026010BD80E100E044
:100F800080E200E008E400E0A010004010B5062078
:100F900000F01AF810BD10B5092000F015F810BDCA
:100FA00010B5812000F010F810BD10B5044800F015
:100FB0000BF810BD10B5034800F006F810BD000096
:100FC000010200000108000000280CD000BF00BF93
:100FD00000BF00BF00BF00BF00BF00BF00BF00BF19
:100FE00000BF401EF0D17047421C0178401C002910
:100FF000FBD1801A70470000064C0125064E05E023
:10100000E36807CC2B430C3C98471034B442F7D329
:10101000FFF782F8F879FC07187AFC0702480121EB
:101020000180FFE77047C0460E15005080B582B0C2
:101030001A48008801A9088008880007002803D5FD
:10104000FFE7C046C046FFE701A8008880070028E8
:1010500001D5FFE7FFE701A80088C00700280BD0F3
:10106000FFE70F480188072291430E4A1278114387
:101070000180C046C046FFE701A80088400700285D
:1010800009D5FFE70648018807229143064A1278EE
:1010900011430180FFE702B080BDC046B41000409C
:1010A000B8100040928CFC07B98CFC0780B504F0A6
:1010B0003CFDFFE7164800884007002801D5FFE700
:1010C000F8E704F027FD1348008813490880134807
:1010D0000088801E1249088012480178AA20002941
:1010E00000D10846AA2801D1FFE7FFE7FFE70E4835
:1010F00007210180FFE704F018FDFFE70A48008898
:101100004007002801D5FFE7F8E703F0BBFB80BDEF
:1011100008330050908CFC0702000050988CFC07AC
:1011200002160050BC8CFC070016005080B50A2047
:1011300000F0A2F880BD80B50B2000F09DF880BDC6
:1011400080B50C2000F098F880BD80B50D2000F02F
:1011500093F880BD80B50E2000F08EF880BD10B5EC
:1011600086B005AB00241C7004AB1870032000028D
:1011700003AB188002A8017001A802700078C007B4
:10118000002807D0FFE705A8007804A9097800F037
:101190002DF806E005A8007804A9097800F03AF8CF
:1011A000FFE705A8007804A9097803AA128802AB12
:1011B0001B7800F043F806B010BD000070B582B097
:1011C00001A90870084C2588002008560A38012615
:1011D0003146814088B28D4302F0A0FB8640354302
:1011E000258002B070BDC0460E14005084B003AA22
:1011F000107002A80170117849011E4A89180191E6
:101200000199891C0091007801218140009801809A
:1012100004B0704784B003AA107002A8017011785E
:101220004901144A891801910199091D009100781A
:10123000012181400098018004B0704710B586B04C
:1012400005AC207004A8017003A90A8002A90B70E4
:1012500022785201074BD2180192019A007840007F
:101260001018801D009003980978084300990880A1
:1012700006B010BD0030005010B582B001A9087052
:10128000002008560E281ADCFFE7002001A90856A6
:101290000A2814DBFFE7002401A80057FFF78EFFA0
:1012A00000940098002803D0FFE70098804705E0ED
:1012B000002001A9085600F0E7F8FFE7FFE702B0B9
:1012C00010BD80B582B0019005F056FC05F0AEFC73
:1012D000FFE7FEE780B582B00448008801A90880D6
:1012E000088802F03DFD02B080BDC0462C130050BE
:1012F00080B582B001900B4801880422114301801F
:101300000948018840221143018000F095F8074800
:1013100001880122D203114303229143018002B0CC
:1013200080BDC04610000050080000501200005060
:101330007047000080B505480068002804D0FFE72A
:10134000024800688047FFE780BDC0468C8CFC07E0
:1013500080B504F0F5FE80BD80B582B004F0DAFB04
:10136000304800880121C9020840C00A002812D074
:10137000FFE72D4800880521084005280BD1FFE72D
:1013800029480188042211430180018801229143E8
:101390000180FFE744E0234800881021084000094D
:1013A000002817D0FFE721480088C007002811D087
:1013B000FFE71F480088C0B2C00900280AD0FFE735
:1013C0001A48012101801A48018880229143018036
:1013D000FFE724E013480088102108400009002896
:1013E0001BD0FFE711480088022108404008002870
:1013F00013D0FFE70E480088012109020840000AC7
:1014000000280AD0FFE70948022101800848018826
:10141000084A11400180FFE700E0FFE7FFE7FFE730
:1014200002B080BD040000500002005004010050D2
:1014300000010050FFFE000081B0684600210170ED
:101440004056002809D4FFE7684600781F2108406D
:101450000121814020480160FFE701B07047C0468C
:1014600081B068461021017000214056002809D43F
:10147000FFE7684600781F21084001218140164897
:101480000160FFE701B0704781B069460870002035
:101490000856002809D4FFE7684600781F21084055
:1014A000012181400C480160FFE701B07047C04650
:1014B00081B068460421017000214056002809D4FB
:1014C000FFE7684600781F2108400121814002485B
:1014D0000160FFE701B0704780E200E081B069463B
:1014E00008700020085600280DD4FFE768460078F1
:1014F0001F210840012181401C480160BFF34F8F2C
:10150000BFF36F8FFFE701B07047C04681B06846F8
:10151000062101700021405600280DD4FFE76846DF
:1015200000781F2108400121814010480160BFF36D
:101530004F8FBFF36F8FFFE701B0704781B06946EF
:1015400008700020085600280DD4FFE76846007890
:101550001F2108400121814004480160BFF34F8FE3
:10156000BFF36F8FFFE701B07047C04680E100E036
:1015700081B06946087000200856002809D4FFE7AA
:10158000684600781F21084001218140024801601F
:10159000FFE701B07047C04600E100E070B582B0DF
:1015A00001AA1070009100201056002816D4FFE701
:1015B000002301ACE2560320C043024017495258B1
:1015C000E3569C07E40EFF25A540AA43009DAD010C
:1015D000EDB2A5402A4303405A501AE001AC2378EB
:1015E0000F200340083B0321C9430B400A4A9B5884
:1015F00000256457A507ED0EFF26AE40B343009EBD
:10160000B601F6B2AE4033430440083C0C40A35050
:10161000FFE702B070BDC0461CED00E000E400E052
:10162000B0B58AB000900098002800D1C5E00098BD
:10163000007806A90870BB48028840239A430978BD
:1016400089010A4302800098407800F055F900981B
:101650000078002806D1FFE700984078000900F0E4
:101660003FF9FFE70098C078C007002806D0FFE7E1
:10167000AC48018804221143018005E0A948018893
:10168000042291430180FFE70098007907A90870C0
:1016900077480188C9B2079A1202891801809D48CB
:1016A000008870210840000904284AD1FFE77148EA
:1016B0006221405A464908800888002804D1FFE783
:1016C000434844490180FFE7964C208801252903BF
:1016D000084320801920FFF777FC2088690208431F
:1016E000208005A805702188402291430078800160
:1016F000014321805D480188042211430180018853
:10170000354A1140018002A90F220A7001882D4A32
:101710001140029A52021143018004A906220A7064
:1017200002882A4B1A40097889010A43028009A9D4
:1017300000220A70028803239A4309780A43028030
:101740003AE0784801881E4A11400180009880786C
:1017500001A90870454801881A4A1140019A5202AD
:10176000114301800099497908AA11700188032367
:10177000994312781143018000988079C0070028AE
:1017800007D0FFE767480188012252021143018018
:1017900005E0644801880C4A11400180FFE7009889
:1017A000C07903A9087031480288084B1A400978AB
:1017B00089010A430280FFE7FFE70AB0B0BDC046D7
:1017C000FFEF0000FFE10000FFFD00003FFE000012
:1017D000307FFC0740760000FF1F00005148018861
:1017E000012211430180704780B582B000F094F867
:1017F000FFE74C480088022108404008002801D03B
:10180000FFE7F6E70748012101800748008801A9A2
:101810000880088804F038FB6946087000200856E4
:1018200002B080BD0E1500501015005080B582B07A
:1018300001903C4800210180212000010B490880D3
:101840000B48402101800B485C22805A0A4A1080D4
:1018500010880843302188431080FFF757FE019815
:10186000FFF7DEFEFFF7BAFF02B080BD02150050A1
:1018700004150050DC8BFC070C15005082B0324878
:101880000088694608802E4801883F229202114054
:10189000009B194301802E48008801A908802B482D
:1018A00001881140019A1143018002B07047C0467F
:1018B00010B582B0012040026946088020490A889C
:1018C0003F239B021A40009C22430A8001A9088002
:1018D0001E4801881940019A1143018002B010BDD1
:1018E00081B0694608700B48028807239A4309783B
:1018F0000A43028001B0704781B06946087005480C
:10190000028870239A43097809010A43028001B0D2
:101910007047C04606150050024801880222114354
:1019200001807047001500500548008805490840AF
:10193000054A10800548008808400549088070471E
:1019400008150050FF030000D68BFC070A15005055
:10195000D88BFC0770B582B06A4E307800066D4CAB
:101960006A4D0028204600D42846019002F038FC39
:10197000019831787F2211404018614906225DF7B5
:10198000BBFB61480178624803782846224661F72C
:10199000D3FD0449044800F0BFFB0449087002B0BD
:1019A00070BDC0465519FC07B80B0000B38DFC078D
:1019B00080B582B0FD2040F706FF0146154804229D
:1019C00008235BF717F80190FFE713480088401CD5
:1019D000FFE71149088001980822428001980222FD
:1019E000828001980122427001980988C180019883
:1019F0005BF71BF804205BF743FA032807D1FFE7E6
:101A00000649642000F088FB05490880FFE702B022
:101A100080BDC04606FD00006E8DFC07B119FC07B5
:101A20006A8DFC0710B586B005903548049003A870
:101A30000621017002A901220A700B781C211F22C5
:101A4000002B00D1114601AA11701178059AD27AA3
:101A5000891A0078814214DBFFE70598C17A4018A3
:101A60000C30049903AA12785DF746FB0398059998
:101A7000CA7A1018C8720598C07A801F2149087068
:101A800026E005982B21405C1F21081A03A909783C
:101A9000884219DBFFE705982B24015D40182C30A4
:101AA000049903AA12785DF727FB039805990A5D4C
:101AB000101808550598005D801F124908700878B5
:101AC00080221043087002E0FFE7FFE7FFE7FFE72F
:101AD0000598C07A0C4A107005990C3112780B48A1
:101AE0005DF70AFB05982B21405C094A10700599A7
:101AF0002C31127807485DF7FFFA06B010BDC046DA
:101B0000B48DFC07C78DFC07928DFC07738DFC0715
:101B1000B28DFC07938DFC0781B0FFE7684600217A
:101B20000170FFE76846007801B07047FFE7704733
:101B300081B0FFE7684600210170FFE76846007842
:101B400001B0704780B50D480088C0B2C1090020BF
:101B500001290FD1FFE70A48006880B2C10B0020BD
:101B6000002907D1FFE703F003FB012108404142B0
:101B70004841FFE70121084080BDC04608000050F1
:101B800030000040B0B582B06B480921042418230E
:101B900022465AF72FFF009000981B210170FD2567
:101BA000284661F779FD00994870009845800098B3
:101BB000848000980021C18000980830019001982D
:101BC0004160019881600198818100985AF72DFF4A
:101BD00002B0B0BDB0B588B00C9C07AC20800691B7
:101BE00005AD2A8004AA13802088069912882B88C4
:101BF0000C9C002502950195009461F779FB08B0D3
:101C0000B0BD000080B582B0FFE7FFE7FFE73348D3
:101C100000780C2141433248405CFF2829D0FFE77F
:101C20002E4800780C2141432D4840184068002878
:101C300019D0FFE7294800780C2141432848405C2F
:101C400000F0F0FB00280ED1FFE7244801784A1C81
:101C500002700C204843224908184068804701A8B8
:101C60000021017036E01D480178491C0170FFE732
:101C7000CDE7FFE71B4800781C2141431A48405C30
:101C8000FF281ED0FFE7174800781C214143164863
:101C90004018C06800280ED0FFE7124801784A1C9F
:101CA00002701C20484310490818C068804701A8EA
:101CB000002101700EE00B480178491C0170FFE71C
:101CC000D8E70848002101700448017001A80121EB
:101CD0000170FFE701A8007802B080BDF08CFC071E
:101CE000A474FC07F18CFC07D86FFC07B0B582B078
:101CF0001148092104240A2322465AF77BFE00904A
:101D000000981B2101701425284661F7C5FC009935
:101D10004870009845800098848000980021C18018
:101D20000098083001900198FF21743101800098DB
:101D30005AF77BFE02B0B0BD1B0D0000B0B588B0F5
:101D40000C9C07AC2080069105AD2A8004AA138064
:101D50002088069912882B880C9C01250295034D3A
:101D60000195009461F7C4FA08B0B0BDB86EFC07E5
:101D700070B588B078480068002800D0C3E0644897
:101D8000092104222C235AF735FE039003980321DE
:101D900001700398029002986F49086002980A2126
:101DA00041700298172101840298012181760298DE
:101DB0000021418002980183C18281824182018297
:101DC000C181818141816846FF220271C843009030
:101DD0005048401D504906225DF7B2F900284CD109
:101DE000FFE7FFE74D4801F06DF8FFE70298001D9F
:101DF0004A4C062221465DF77FF9494E304602F0F3
:101E0000ABFE484D284602F0A7FE474802F0A4FE6C
:101E1000304602F0A1FE284602F09EFE284602F05F
:101E20009BFE607902F06CFE404E304602F094FE5C
:101E3000207902F065FE304602F08EFEE07802F076
:101E40005FFE304602F088FEA07802F059FE304670
:101E500002F082FE607802F053FE304602F07CFE13
:101E6000207802F04DFE284602F076FE284602F069
:101E700073FE284602F070FE18E0FFE72548401D7B
:101E8000694605225DF75CF9002806D1FFE704F0FA
:101E900093FE04F0DFFEFFE7FEE7FFE7FFE7FFE763
:101EA00004F08AFE04F0D6FEFFE7FEE70298202148
:101EB000C1760298002181830298C18302984184EF
:101EC0001B487E21405AFB210791069007980699EE
:101ED000884202D2FFE7079801E00698FFE70299DF
:101EE000C88413488021405A1249059104900598EE
:101EF0000499884202D2FFE7059801E00498FFE7C1
:101F000002990885FFE71448006808B070BDC04614
:101F1000040D0000C079FC07DCF1F107648DFC07BB
:101F20000478FC07EA77FC079077FC07CF78FC077A
:101F3000B0BBFC074808000080B582B0FFF718FF6F
:101F400000900098019001985AF76FFD0248002117
:101F5000016002B080BDC046208DFC0780B584B012
:101F600001A90870FFE7FFE701A800788000254974
:101F70000858002828D1FFE7019803A908700878BD
:101F800001020A31144804220E235AF733FD02904D
:101F900002980921017002980090009801A909781F
:101FA0008900184A5050009810218180009808211B
:101FB000418000980021C18000987D220281009814
:101FC000418100988181FFE701A8007880000D49D8
:101FD000085804B080BDC0460E0E000010B584B095
:101FE00002AC20702078FFF7B9FF019001980390B0
:101FF00003985AF71AFD20788000024900220A50FF
:1020000004B010BD1C8DFC0780B500F015F880BD34
:1020100080B582B000F010F800900098019001980F
:102020005AF703FD384800210160042002215AF7C5
:1020300012FF02B080BDC04610B584B032480068BF
:1020400000285CD1FFE7FFE7FFE7FFE7FFE72F4846
:102050000921042252235AF7CDFC039003980290E1
:1020600002982949086002980D2101700298002108
:1020700041700298264A82800298C2800298072204
:10208000027202988172FFE7029801214172FFE714
:102090001D4C20681622C27202980C301D495DF753
:1020A0002BF820682B21002242542068C07A15307A
:1020B00001AA10802068405C1230694608801088B0
:1020C0001F280ADCFFE70298C17A42180B300C3255
:1020D000804B102161F71EFA10E0684600881F2827
:1020E0000BDCFFE702982B21415C42182B302C328D
:1020F000784B102161F70EFAFFE7FFE7FFE7024890
:10210000006804B010BDC046188DFC070D0D00001E
:102110004C040000ED77FC0780B584B0029001917B
:10212000FFE70298002806D1FFE704F05DFD04F008
:102130009DFDFFE7FEE7FFE7FFE7029812498842AF
:1021400006D3FFE704F050FD04F090FDFFE7FEE743
:10215000FFE7019803F002FA694608700878002842
:1021600004D1FFE703A80021017008E06846007869
:10217000029900F0E7FD009803A90870FFE703A8A3
:10218000007804B080BDC046FDFF3F00B0B582B00E
:1021900001A90870087801283BDBFFE701A8007857
:1021A0000A2836DCFFE701A8007880001B494018A8
:1021B000001F0068002828D0FFE701A800788000F1
:1021C00016494018001F0068154988421DD0FFE7D6
:1021D00001AD287813494018042421465AF793FF8B
:1021E000287880000D494018001F0D4901600E48F5
:1021F0000823214622465AF7FDFB009001980099DA
:10220000087000985AF711FC02E0FFE7FFE7FFE7CC
:1022100002E0FFE7FFE7FFE702B0B0BD3C8DFC073F
:10222000ED5EFC070304000002040000B0B588B0B6
:102230000C9C07AC2080069105AD2A8004AA13806F
:102240002088069912882B880C9C0D250295034D39
:102250000195009461F74CF808B0B0BDC06EFC0762
:10226000B0B584B000200390FFE7039800281ADC83
:10227000FFE703980C22114641431848401869466D
:1022800000230B808B70CB700B718B724B720B72B7
:10229000CB718B714B71CB725CF72EFFFFE703980C
:1022A000401C0390E1E70A4D102028702A78681C32
:1022B00008495CF721FF00246C840749042528465F
:1022C0005AF797FD284621465AF7C5FD04B0B0BD20
:1022D000F28CFC07DC78FC07A86EFC07BA8DFC07C3
:1022E00080B582B001A90870684600210170FFE73F
:1022F000684600780C2141436048405CFF281DD0AF
:10230000FFE7684600780C2141435C48401880682C
:1023100000280DD0FFE7684601784A1C02700C20A7
:10232000484356490818816801A80078884704E0A6
:102330000098401C69460870FFE7D9E7684600210D
:102340000170FFE7684600780C2141432C48405C4F
:10235000FF2828D0FFE7684600780C214143284831
:1023600040188068002818D0FFE7684600780C21E4
:1023700041432348405C00F055F800280DD1FFE7A9
:10238000684601784A1C02700C2048431C49081812
:10239000816801A80078884704E00098401C6946DD
:1023A0000870FFE7CEE7684600210170FFE7684646
:1023B00000781C2141431348405CFF281DD0FFE7F3
:1023C000684600781C2141430E48401800690028E7
:1023D0000DD0FFE7684601784A1C02701C20484374
:1023E00008490818016901A80078884704E00098A6
:1023F000401C69460870FFE7D9E702B080BDC046BF
:10240000A474FC07D86FFC0781B069460870FFE729
:1024100001B07047FFE7704781B00090FFE701B05F
:102420007047000083B001A9087068460021017060
:10243000FFE7684600780C2141431048405CFF28C4
:1024400014D0FFE7684600780C2141430B48405CFC
:1024500001A90978884204D1FFE702A8012101708F
:1024600008E00098401C69460870E2E702A80021D5
:102470000170FFE702A8007803B07047EC79FC0711
:1024800086B001A800210170FFE7EFF310800290F1
:102490000298009001200590059880F3108811485B
:1024A0000088C0B2C009002808D1FFE70E480188A3
:1024B00001221143018001A80270FFE70098002863
:1024C00006D1FFE700200490049880F3108805E00F
:1024D00001200390039880F31088FFE7FFE706B020
:1024E0007047C0460800005008330050FFE7B4486A
:1024F00000210170B348C170FFE7704710B582B08A
:1025000001A9087001986C46207000F069FA204615
:10251000FFF782FF207800F0B9F92078FFF774FF09
:102520000E480088012109020840000A002808D14D
:10253000FFE7D548018840221143202291430180C2
:10254000FFE7134801884022114320229143018074
:102550006846007800F056F902B010BD2A0000501D
:1025600080B5C9480188202211434023DB4319402C
:1025700001800748018811431940018002F04AF99F
:10258000FFF748FFDF48016804229143016080BDE6
:102590002403005070B594B05C4800685C498842E0
:1025A00015D0FFE700201390FFE71398052149029B
:1025B00088420BDCFFE71398754940581399754A18
:1025C0005050FFE71398001D1390EEE7FFE75148C6
:1025D0001290129850495CF7A8FD5048129012983A
:1025E000072109025CF7A1FDFEF7A8FA4C484D4906
:1025F00001604D484D4930225CF77EFD0026119662
:102600003F2010904A4810A908225CF775FD4949FF
:102610006C46402520462A465CF76EFD464821461A
:102620002A465CF769FD4548067045484549016002
:1026300045484649016046484649016046480A21E6
:102640000170464806704648322101704548052110
:102650000160454801220260444801600068401C56
:10266000434908600868401C424908600868401CEB
:1026700041490860414883214900016040480160A8
:10268000FFE738480068052834D1FFE7364800687E
:1026900001282FD1FFE73348006833490968401803
:1026A000C01C3749096841433648814222D1FFE7BF
:1026B0002C4800682C4909684018C01C304909683A
:1026C00041432E480068C00008182F49884211D1A4
:1026D000FFE724480068244909684018C01C2849BD
:1026E0000968414325480068C00008182649884207
:1026F00006D0FFE704F090FA04F0C0FAFFE7FEE727
:10270000FFE722480349016014B070BD9CB8FC0784
:102710006587341200A0FC07AC14000000B9FC0768
:1027200060BAFC075874FC0700BAFC077CFCF10790
:10273000DAB9FC07686DFC07B0BCFC07FDB9FC0703
:1027400050B9FC07603FF20754B9FC070076FC075C
:1027500058B9FC07F474FC07B0B9FC07B1B9FC0721
:10276000D9B9FC075CB9FC0760B9FC0764B9FC0780
:1027700068B9FC076CB9FC0770B9FC0748B9FC07DD
:1027800044B9FC0736090000661100004CB9FC078B
:1027900000B0FC07C88DFC0781B069460870FFE7F0
:1027A00068460078C20702210120002A00D10146B4
:1027B000034A11700349C870FFE701B07047C04673
:1027C000B4BAFC0754BAFC0780B582B001A8002156
:1027D00001700078002806D0FFE7012806D0FFE747
:1027E000022807D00AE0FFF781FE08E00020FFF78B
:1027F000D3FF04E00120FFF7CFFF00E0FFE702B0C6
:1028000080BD000010B582B001A9087008780228C8
:1028100005D0FFE701A8007803281AD1FFE70E488A
:1028200001880124A14301800D20FEF7CDFB0B4858
:1028300001882143022291430180FFE70748008875
:102840004006002801D4FFE7F8E70548322101805F
:10285000FFE702B010BDC046240000500A0000503F
:102860000200005006480188064A11400722D202A1
:1028700089180180044801880822114301807047AB
:1028800020030050FFC300005200005080B584B008
:1028900002A908700878022805D0FFE702A800788E
:1028A00003282DD1FFE71748016804221143016076
:1028B0001548018801229143018002A8007802286E
:1028C00006D1FFE71148018810229143018010E0F2
:1028D0000E4801880422914301800D480D490818D3
:1028E0000D49401801900198C01C800801F0D2FEEB
:1028F000FFE703A800210170007808490880FFE77E
:1029000004B080BD10ED00E00C0300501200005038
:102910000C7900001001FC07000004F818000050BA
:1029200080B584B003900291019268460021017045
:10293000FFE7684600781F280CDCFFE73FF7DFFF62
:1029400002996A4612788854FFE70098401C69464D
:102950000870EEE7002004B080BD000080B582B0B2
:102960000190FFE7FFE70849084870225CF7C4FBC5
:1029700001980749081A0749088001980649081A6A
:102980000649088002B080BD386FFC0770A0FC07C4
:10299000B8A0FC0778A0FC07CCA0FC077AA0FC0735
:1029A00080B50D480088C0B2C109002001290FD1AF
:1029B000FFE70A48006880B2C10B0020002907D158
:1029C000FFE702F0CDFB0121084041424841FFE70B
:1029D0000121084080BDC046080000503000004082
:1029E0000248018804221143018070471000005002
:1029F00080B500F03BF800F051F812480188124A07
:102A00001368304803405918116010490988104A6A
:102A100013680340591811600E4909880E4A13685B
:102A20000340591811600D4909880D4A1368034085
:102A3000591811600B4909880B4A1368034058184C
:102A4000106080BD1030004088A0FC07643000405A
:102A5000A0A0FC0766300040A4A0FC072230004084
:102A6000A8A0FC0724300040ACA0FC070748008861
:102A700007490A68134B1A40101808600548008877
:102A800005490A681A40101808607047183000405D
:102A90008CA0FC071A30004090A0FC070748008873
:102AA00007490A68074B1A40101808600648008852
:102AB00006490A681A40101808607047383000400C
:102AC00098A0FC070000FFFF3A3000409CA0FC07E4
:102AD00082B001AA10806846018000881188401ADF
:102AE00081B289084018401C00B202B0704782B021
:102AF00001AA10806846018001980921414300988D
:102B0000081A00B2C01002B07047000081B06846D9
:102B10001E21018000980849088008480188032286
:102B200011430180018804221143018004480121DE
:102B3000017001B07047C0460216005000160050E8
:102B4000C08BFC0710B58AB001200990099847494D
:102B50000860FFE745480068002801D0FFE7F9E773
:102B6000434800680890089842490968884204D29E
:102B7000FFE7404800210160FFE708983D490968E8
:102B8000401AC009182806D8FFE73B480078C0075C
:102B9000002869D0FFE738480078C007002807D030
:102BA000FFE73B480168491C016002F005F95AE063
:102BB0000898304908603148008807A908803048E3
:102BC000008806A908802F48008805A908802E489B
:102BD000008804A90880002403946E48029002A88B
:102BE000FEF724FEFEF7A0FEFEF762FEFEF7FCFDF8
:102BF00001A90870FEF742FE244800577F2804D13F
:102C0000FFE701982149087020E001981F490978E1
:102C1000401A6946087000200856002805D5FFE7CD
:102C20000098404269460870FFE700206946085650
:102C300008280ADBFFE716480168491C016002F01A
:102C4000BBF8019811490870FFE7FFE706980C49A7
:102C5000088005980B49088004980B49088007985C
:102C600006490880FFE7FFE70AB010BDFC000040FE
:102C70001C000040C48BFC07B88CFC0700150050FA
:102C8000021500500415005006150050D28BFC07A9
:102C9000C88BFC0710B598B017901691159228496B
:102CA00009A82E225CF728FA169817990790069122
:102CB00000200590049003900121029101A9087061
:102CC000FFE701A800782D281BD8FFE70698079991
:102CD00001AA1478224660F7B2FB039A029B1840BF
:102CE000114009AA125D5CF74BFA059A049B034355
:102CF0000A4305920493FFE70198401C01A908705C
:102D0000DFE7684600210170FFE768460078052884
:102D10000FD8FFE7049805996A461478E20060F737
:102D20008EFB15990855FFE70098401C694608700E
:102D3000EBE715984179C0221143417118B010BDDD
:102D4000A86DFC0780B584B003AA10700291FEF74D
:102D5000F9FE002809D0FFE703A800780E494018C3
:102D6000029A04215AF785F912E0FFF789FB094816
:102D7000042108230A4659F73DFE01900298019963
:102D80004860039801990870019859F74EFEFFE7D3
:102D900004B080BD0104000003040000704700007F
:102DA00010B588B007AC2080069105A8028004A960
:102DB0000B8000885AF764F803A908700878012886
:102DC00049D1FFE706988079002825D1FFE70698CA
:102DD00001780902083105AA12888088801D83B213
:102DE0001E4859F707FE0290069880785FF71EFB91
:102DF0000299088002980021017106988088029942
:102E000048800298401D069AD11D92885CF774F99B
:102E1000029859F70AFE18E0069800780102083176
:102E200005A802880D48062359F7E4FD019006988D
:102E300080785FF7FBFA01990880069880790199FC
:102E40000871019859F7F1FDFFE705A800880021F6
:102E50005AF701F8FFE7002008B010BD140C00007D
:102E600083B001A9087000200090FFE700981C21A2
:102E700041431048405CFF2816D0FFE700981C2112
:102E800041430C48405C01A90978884207D1FFE71B
:102E900000981C21414307484018029007E0009821
:102EA000401C0090FFE7E1E700200290FFE7029856
:102EB00003B07047D86FFC07704781B0009001B035
:102EC0007047000080B584B0039000F0FDFD00F075
:102ED000B3FD07480068029006480068019000F0C2
:102EE0004BFD02980199039AFFF7D4FE04B080BD10
:102EF000E87FF807E47FF80780B582B001AA107078
:102F0000009110780C214143094840188078FF282F
:102F100006D0FFE7FFE701A80078FFF7E1F904E03A
:102F2000FFE703F001FBFFE7FFE702B080BDC0460B
:102F3000BA8DFC0780B5FFE703F0F6FAFFE780BD26
:102F400081B000903048408C0099088001B07047F3
:102F500080B582B001902C490878019A1070019ACE
:102F6000501C1278491C5CF7C7F802B080BDC046FF
:102F700081B00090009808210180009810214180C4
:102F800000980021818000987D21C18001B07047A8
:102F900080B5C046C04660F7ABFBFFF715FC80BDAF
:102FA00080B560F78DFA002805D0FFE7FFE703F052
:102FB000BBFAFFE7FFE780BD80B582B001900091CA
:102FC00001980078002803D0FFE701280ED015E013
:102FD000019880780C4B18700198011D1A78581CC4
:102FE0005CF78AF80098002101700BE00198408896
:102FF0000549488400980021017003E000984821A9
:103000000170FFE702B080BDF28CFC0782B0019036
:1030100000910098012101700098002141800098E2
:10302000818002B0704780B502F0F2FE02F0FCFE33
:1030300080BD80B55DF7A0FF80BD80B586B00590EE
:1030400005A9CA7801A80270498841700599090A42
:1030500081700599C1705DF777FF06B080BD0000F3
:1030600080B5964800210160FDF79AFF91480078ED
:103070008F490A68C006800D1F235B019A43101810
:10308000086080BD80B58C4802210170FDF77EFF8D
:1030900080BDC04695480168012291430160704798
:1030A00010B588B007AC2080069105A8028004A85E
:1030B000038003A800210170029106980078082877
:1030C0003FD8C0467844007940008744040A1C2257
:1030D000282E1034160003A80721017034480290EE
:1030E00036E003A8072101702D48029030E003A8C4
:1030F000082101702D4802902AE003A807210170E1
:103100002948029024E003A80A2101702548029072
:103110001EE003A8072101702148029018E003A8CF
:103120000D2101701D48029012E003A80D210170CD
:103130001A4802900CE003A806210170164802907C
:1031400006E0FFE703F048FD03F08CFDFFE7FEE734
:1031500004A8018805A8028803AC2078831C1548C0
:1031600059F748FC01900698007801990870039877
:10317000019948702078002808D0FFE70198801C4A
:10318000029903AA12785BF7B7FFFFE7019859F796
:103190004CFC002008B010BD4379FC07C178FC0747
:1031A000AD78FC07D178FC07D06FFC074A79FC07A3
:1031B0002D79FC070314000080B544F7DDFD80BDC8
:1031C00080B55AF79DF94AF762FB2A480121017040
:1031D00080BDC046FFE7FFE77047000080B5FDF700
:1031E00069FC002046F70AFA22480421017001F028
:1031F00031FD80BD80B5012046F700FA80BD00009A
:1032000080B54AF744FB1A480178AA20002900D16A
:103210000846AA2801D1FFE7FFE7FFE7FFF776FCA2
:10322000FFE780BD80B546F7E4F980BD80B546F77D
:103230002CFA80BD80B50D480188012291430180A0
:103240005AF742F93FF7FCF909480178AA2000290A
:1032500000D10846AA2801D1FFE7FFE7FFE7FFF703
:1032600055FCFFE703480021017080BD0833005082
:10327000BC8CFC07938CFC0780B54AF771FB80BDC2
:1032800080B50B4801688905C90E0A4A11700168AA
:103290001F22520191430160074801210170074834
:1032A0000168032211430160FDF77AFE80BDC0462C
:1032B0004C120040187AFC0706100040AC10004089
:1032C0000148032101707047051000400748412163
:1032D000017001680322520291430122920289186F
:1032E0000160704701484321017070471C30004065
:1032F00080B502485DF728FE80BDC046707FFC07A0
:1033000010B584B003AC2080029101A80280684609
:1033100003800298007809280AD1FFE702984078D4
:10332000002802D0FFE7FFE701E0FFE7FFE723E027
:1033300002980078012806D1FFE7029840784328D8
:1033400001D1FFE70CE002984078002807D0FFE7A2
:10335000FFE703F039FC03F081FCFFE7FEE7FFE73E
:10336000FFE703A80088029901AA12886B461B8810
:1033700003F074F9FFE7FFE7002004B010BD000080
:10338000F0B585B004AC2080039102A8028001A9A9
:103390000B80008859F774FD022842D1FFE701A88D
:1033A000407869460870FFE7FFE7684601780C221D
:1033B0004A433B4B9A1891700078FF2829D0FFE7C9
:1033C0006D4628780C2631464143354F7818012444
:1033D000C4700420032159F73EFD03980088297822
:1033E00032464A43B8520398407A297832464A43D3
:1033F000B918087128784643B819401D03990A3155
:1034000006225BF779FE28780021224660F76CF8E7
:10341000FFE7FFE768460078039903F0A9F8FFE7A4
:1034200006E0FFE703F0D0FB03F018FCFFE7FEE740
:10343000002005B0F0BDC04610B586B005AC2080B8
:10344000049103A8028002AC2380008859F718FD7C
:1034500001A9087060786A4610700878032814D1B2
:10346000FFE7684601780C2213464B430C49CB1802
:10347000FF249C700078424388180021C170FFE748
:10348000049803F0B7F8FFE706E0FFE703F09CFBC2
:1034900003F0E4FBFFE7FEE7002006B010BDC046E6
:1034A000BA8DFC0710B594B013AC2080129111A80E
:1034B000028010A8038012980078002806D0FFE749
:1034C000012829D0FFE7022841D065E0FFE7FFE7A8
:1034D00007A821215BF729FEFFE707A8FFF738FDC2
:1034E000FFE710A8018811A8028807AC23780A33E7
:1034F0002B4859F77FFA0690069800210170207832
:1035000006994880069A101D611C52885BF7F4FDED
:10351000069859F78AFA40E005A800210180FFE7E4
:1035200005A8FFF70DFDFFE710A8018811A8028884
:103530001B480A2359F75EFA049004980121017090
:10354000059804994880049859F76FFA25E00020FF
:103550000390029010A8018811A8028810480A233D
:1035600059F748FA0190FFE702A8FFF701FDFFE7CE
:1035700001980221017002980199488002A84188AF
:10358000019A91800399019AD180C088019908819C
:10359000019859F74AFA00E0FFE7002014B010BD87
:1035A0000B0E000010B584B003AC2080029101A87E
:1035B00002806846038002980078401E122845D891
:1035C0007844007940008744094019414141414114
:1035D0004141412B2D343441363638000298407831
:1035E000002807D0FFE7FFE703F0EEFA03F036FB11
:1035F000FFE7FEE7FEF7A0FCFFE733E00298407824
:10360000002807D0FFE7FFE703F0DEFA03F026FB10
:10361000FFE7FEE7FFE7FFF7C3FCFFE7FFE721E077
:10362000FFE71FE0FFE70298407802F093FFFFE713
:1036300018E0FFE716E0FFE714E00298407844281E
:1036400002D1FFE7FFE7FFE70CE0FFE7FFE703A892
:103650000088029901AA12886B461B8802F0FEFFBF
:10366000FFE7FFE7002004B010BD000010B588B0F0
:1036700004AC2080039102A8028001A90B8000887D
:1036800059F7FEFB002812D1FFE70E48092104225A
:103690000124234659F7AEF906900698047006985F
:1036A000059005980790079859F7BFF906E0FFE7DE
:1036B00003F08AFA03F0D2FAFFE7FEE7002008B031
:1036C00010BDC046020D000010B592B011AC2080B4
:1036D00010910FA802800EA80380FD205DF788FDE1
:1036E0000D90FFE70D98002806D1FFE703F05CFA84
:1036F00003F0ACFAFFE7FEE7FFE70BA90020087034
:103700000EA840780AAA1070109800885EF79CFEF8
:1037100009A90870FFE710984088002806D0FFE745
:1037200003F042FA03F092FAFFE7FEE7FFE709A889
:103730000078002800D0BAE0FD20FFF791FB079049
:10374000FFE70798002806D1FFE703F02DFA03F002
:103750007DFAFFE7FEE7FFE7079840680BA90978C5
:1037600014224A4380180079022841D1FFE70798C4
:1037700040680BA9097814224A43805800885749A9
:10378000884235D1FFE70020069005901098008808
:103790005EF7F5FD04A90880FFE704A8008800286B
:1037A00006D1FFE703F000FA03F050FAFFE7FEE767
:1037B000FFE704A8008808A9002205AB4DF7D4FB59
:1037C0000898012149020840400A10995EF7C2FD9D
:1037D00009A908700878002809D1FFE70AA800782D
:1037E0000BA90978109AD2885EF78FFFFFE732E0C5
:1037F0000798002811D0FFE70798806900280CD0AF
:10380000FFE7079884690BA80078109B59889A886D
:103810009B1DA04709A90870FFE7002003900290B4
:103820001098008802A94DF71AF909A80078002815
:1038300010D1FFE702980089C00B00280AD1FFE7EA
:10384000109B188899885A889B1D4DF772F909A911
:103850000870FFE7FFE709A80078002826D1FFE7F6
:103860000D980EA949785DF7E1FC01460FA8028882
:1038700010988088801D83B2194859F7BBF80190D1
:103880000198801D109A911D92885BF735FC0BA85A
:1038900000780199488010988088019988800A985A
:1038A00001990870019859F7C0F8FFE7FFE70EA8E3
:1038B00001880FA802880B48042359F79BF80C9045
:1038C000109800880C99088009980C9988700C98B9
:1038D00059F7ABF8002012B010BDC0460229000015
:1038E0000AFD0000160C000005480168054A117029
:1038F0000168090A517041889170C078D070704792
:10390000647FFC075C7FFC0781B003480068806A25
:103910000090009801B0704758B9FC0782B001A927
:103920000880088800281AD0FFE701A801884A1EED
:10393000514049080180684600210180FFE701A845
:10394000008800280AD0FFE701A801884908018003
:10395000FFE70098401C69460880F0E703E06846EE
:1039600010210180FFE76846008802B07047000020
:10397000834800210170704780B586B0FFE7EFF300
:10398000108002900298019001200590059880F324
:1039900010880520000701888022114301807448A7
:1039A0000168072291430160FFE772480068042123
:1039B00008408008002801D1FFE7F6E77B481D4951
:1039C00001607B487B490160052000070188802257
:1039D0009143018062480088012109020840000AE1
:1039E000002814D0FFE76648002101705D48007888
:1039F00002F024F85D480078C007002806D1FFE7F0
:103A000059480188012291430180FFE7FFE70198AF
:103A1000002806D1FFE700200490049880F3108866
:103A200005E001200390039880F31088FFE7FFE78B
:103A300006B080BD0F00990980B582B001A80221AF
:103A400001704B490968072211406A4611700078DD
:103A50001178884236D0FFE74148008801210902E9
:103A60000840000A00281AD0FFE701A80078801E4D
:103A7000042812D87844007940008744020A0606D8
:103A800002000B2000F04CFE08E00B2000F048FE86
:103A900004E0132000F044FE00E0FFE7FFE73448B5
:103AA00001680722914301AA127811430160FFE7E0
:103AB00030480068042108408008002801D1FFE751
:103AC000F6E7FFE702B080BD10B586B0FFE7EFF381
:103AD000108002900298019001200590059981F3D1
:103AE00010881F49098800020140080A00280DD0EB
:103AF000FFE723480124047001F088FF194908708A
:103B000019480088204019490870FFE70520000780
:103B100001888022114301801548016807229143E2
:103B20000160FFE71348006804210840800800286E
:103B300001D1FFE7F6E700F025F80198002806D14B
:103B4000FFE700200490049880F3108805E001202E
:103B50000390039880F31088FFE7FFE706B010BDDD
:103B60002A000050697FFC07800000506A7FFC0734
:103B70000000F4070400F407014800787047C046CD
:103B8000488CFC0781B0684603210170FFE7FFE71E
:103B900068460078800004490858044908600448D1
:103BA0000449016001B07047B06FFC071000F407D2
:103BB0001400F407090404A480B5384801883022B1
:103BC00091430180018880221143018001880822ED
:103BD0001143018032490A8801239A430A803149FE
:103BE0000A8818239A430A800188402211430180E1
:103BF0002D480188042291430180FFE72B4800886B
:103C00008007002801D4FFE7F8E701F0A1FC28486D
:103C10000178AA20002900D10846002801D1FFE739
:103C2000FFE7FFE722480178AA20002900D10846D3
:103C3000AA2801D1FFE7FFE7FFE71E4801881E4AD7
:103C400011400B22120289180180018801221143C0
:103C500001801448018808231943102399430180E7
:103C60001648018891430180FFE7FFE70B48018870
:103C7000402291430180012081070A6803029A4390
:103C80000A600F490A683F235B029A434303D21834
:103C90000A600A68400502430A6080BD08000050BF
:103CA000200000500A000050100000501400005086
:103CB000BC8CFC0726000050FFF0000022000050E2
:103CC00000020040B0B584B01E4800681E4988421A
:103CD00035D0FFE703A8002404701C4802901C485C
:103CE00000681C490860FFF7FFFD0194FFE7019899
:103CF0008009062814D8FFE702980199421AFF2389
:103D0000C033D25C435C03241D462540134C645DE4
:103D1000624053404354FFE70198401C0190E6E79E
:103D200002990D481C225DF77BF903A90870FFE793
:103D3000FFE7FFF7DDFA034803490160FFE704B03E
:103D4000B0BDC0469CB8FC0765873412C88DFC071F
:103D50004CB9FC0708020040707FFC075C7FFC0741
:103D600080B582B001A908800120002800D1FFE7BA
:103D7000FDF79EFBFFE702B080BD00002E48006803
:103D80002C4908606E4801681C221143232291438C
:103D9000016001680122D203914301602848016853
:103DA0003F221306994307239B06C9180160016847
:103DB000920191430F22D2018918016001681E22ED
:103DC00011432122914301607047C04610B5194844
:103DD0000168194A11600021C943016058490A6805
:103DE0003F2082430A600A680123DC03A2430A6081
:103DF000124A1468032149028C439B02E3181360A2
:103E00001368402423433024A34313600C4A1368EF
:103E10000406A3430B2464061B1913601368800176
:103E200083435818106010681821084327218843DD
:103E3000106010BD40300040607FFC071C30004027
:103E400030300040F0B581B0FFF73AFA39480168E8
:103E5000142211436B2291430160FFF7B7FFFFF774
:103E600041FAFFF70FF9FFF70BFAFDF79EF8FFF79E
:103E700027FA31480068314F38400090FFF7F0F8DA
:103E8000FDF789F800982E4C2168C0052D4D29407A
:103E90000818206000982168C005400C2A4E314067
:103EA00008182060FFF712FAFFF7ECF8FFF7E8F9BF
:103EB000FDF77BF8FFF704FA1F48006838400090D0
:103EC000FFF7CEF8FDF767F800982168C005294094
:103ED0000818206000982168C005400C314008187F
:103EE0002060FFF7F3F9FFF7CDF8FFF7C9F9FDF709
:103EF0005CF8FFF7E5F9104800683840009000983A
:103F00002168C00529400818206000982168C00574
:103F1000400C314008182060FFF7BCF8FFF72EFF77
:103F2000FFF79EF8FDF737F800980849488101B07F
:103F3000F0BDC0460430004088300040FF01000062
:103F400018300040FFFF7F003F80FFFF327FFC07FB
:103F500010B588B004901A480168049A5118049169
:103F6000002101600498174C21465BF74BF8029042
:103F700002980590059814490860049802994C43EA
:103F8000001B01900198002802D1FFE7002003E008
:103F900001980C49081AFFE7039003A800880690CF
:103FA00006980A49086007A8012101701B490A68A0
:103FB00008239A430078C00002430A6008B010BD8D
:103FC0009C8CFC077102000044000040400000404F
:103FD00080B582B0054800680090009800F046F86F
:103FE00001900198FFF7B4FF02B080BD3800004097
:103FF00010B582B008480024046001F02FFC01A82D
:104000000470064801680122D2079143019AD20741
:104010008918016002B010BDA8B9FC07300000404B
:1040200080B584B00390002002900398C00B002854
:1040300010D0FFE703980C490A6800210B465BF794
:104040000BF801910090009801998905800A4018A9
:10405000029006E00398044909684143880A0290E7
:10406000FFE7029804B080BDA88CFC0780B582B041
:104070000190002000902D480178AA20002900D14D
:104080000846002801D1FFE7FFE7FFE7274801784E
:10409000AA20002900D10846AA2801D1FFE7FFE79E
:1040A000FFE70198FFF7BCFF0090FFE7FFE70098EC
:1040B00002B080BD80B582B00190002000900198D0
:1040C0000549096841430548081805495AF79AFF08
:1040D0000090009802B080BDA08CFC0720A10700D2
:1040E00040420F0080B582B00190002000900F4840
:1040F0000178AA20002900D10846002801D1FFE755
:10410000FFE7FFE709480178AA20002900D1084607
:10411000AA2801D1FFE7FFE7FFE70198FFF7CAFFF1
:104120000090FFE7FFE7009802B080BDBC8CFC0761
:1041300080B582B000200190C046C04601F000FD6D
:10414000FFE7FFE701F0B2F9FFE7FDF7E5FC002824
:10415000F8D1FFE772B6FDF7E9FC00F0E3FF69462E
:1041600008700878022805D0FFE768460078032821
:104170001AD1FFE768460078FEF7C0F910480088BA
:10418000C006002803D5FFE702F0DEFCFFE730BFE2
:104190000B480088C006002803D5FFE702F04AFD5F
:1041A000FFE7FEF7DDF907E068460078012802D155
:1041B000FFE730BFFFE7FFE762B602F01DFDC0E793
:1041C00014000050144805210170FF214170CD21D9
:1041D0008170AB21C1700021017141717047C046EF
:1041E00081B00D4801794279120289186A4611801E
:1041F0000099491C11800099017151784171108812
:104200000649884205D1FFE7034800210171417149
:10421000FFE701B07047C046B48DFC07FFFF000008
:1042200080B582B000200190FFE701983D496922E6
:10423000895C884228DAFFE70198C00039490818EC
:1042400000691249884213D1FFE700F0A5FD0A2852
:104250000EDBFFE70198C000F849081841690C4AD5
:104260001140334A1268520411430069016007E0AB
:104270000198C000F1490818416900690160FFE731
:104280000198401C0190D0E702B080BD383000405A
:10429000FFFF01FC10B582B000200190FFE70198FC
:1042A000E6496822895C88423ADAFFE70198C00053
:1042B000E24908581C49884226D1FFE70198C0000E
:1042C000DE4908184068C001400C00281CD0FFE7F8
:1042D00000F062FD0A2817DBFFE70198C000D7490C
:1042E0000A18526803231B0214461C401204920E43
:1042F000A218085802600198C0000818C0880B492D
:1043000008400B49086007E00198C000CB490A1833
:10431000526808580260FFE70198401C0190BEE710
:1043200002B010BDDC8BFC074C100040FF01000008
:104330008C7FFC0770B58EB000200B900A90BF49AF
:10434000682288546922885406900120C046C046DD
:10435000BB480068BB49884204D0FFE70DA8FF2195
:10436000017068E10B98001D0B90FFE70B98B449B2
:104370004018B549884200D91FE10B98B049405810
:104380000C900C98000F092800D0A1E00C98C0B246
:1043900009900C9880B2000A0A900998401E1628CD
:1043A00000D98DE078440079400087440B0B890BDD
:1043B000890C1F898989898989898989334A617327
:1043C000897A80007DE09D4C6825605DC0002018E2
:1043D0000B99A74A89180A9A92005AF78DFE605DD8
:1043E0000A9940186055FFE7FFE76AE0934C69259A
:1043F000605DC000201810300B999D4A89180A9AF8
:1044000092005AF779FE605D0A9940186055FFE7FF
:10441000FFE756E00B989649405805AC20800B9872
:104420004058000C04AD288020882988FEF750FBF6
:10443000824E4036B08220882988FEF758FBF082F1
:104440003FE00B988A49405803AC20800B984058B5
:10445000000C02AD288020882988FEF739FB774EB2
:104460004036308320882988FEF741FB708328E09E
:104470000698800007A908180B997D4A89180A9A9E
:1044800092005AF739FE06980A9940180690FFE7FD
:10449000FFE716E00B987649405868496222885237
:1044A0000FE00B98724940586449086509E00B9881
:1044B0006F494058614964228852FFE7FFE700E0F6
:1044C000FFE70B980A9989004018001D0B9073E0D4
:1044D0000C98800F002839D0FFE70C985B49884280
:1044E00034D8FFE70B9808300B900C985849884255
:1044F00006D1FFE70B985A4940585C49088024E0F0
:104500000C985449884207D1FFE70B98544940580A
:104510004A496622885217E00C984F49884206D1D2
:10452000FFE70B984E4940584F4908800BE00C9824
:104530004A49884206D1FFE70B9849494058494902
:104540000880FFE7FFE7FFE7FFE734E00C98000F84
:10455000072807D1FFE70020C046C0460B98001D82
:104560000B9027E00C98000F082804D1FFE70B9868
:10457000001D0B901DE00C98000F0A2804D1FFE7E6
:104580000B98001D0B9013E00C98000F062804D127
:10459000FFE70B98001D0B9009E00C98401C0028C9
:1045A00001D1FFE70AE0FFE7FFE7FFE7FFE7FFE7EB
:1045B000FFE7FFE7FFE7FFE7D8E6FFE707981F4CB5
:1045C0004034A083089801AD288007A8C0886E46B3
:1045D000308028883188FEF77BFAE083288831888C
:1045E000FEF785FA2084FFE7FFE714486821425C64
:1045F00052084254FFE7FFE710486921425C520825
:1046000042546421405A002806D1FFE70B487D211F
:10461000C90064228152FFE708486621405A0028F9
:1046200003D1FFE701F0AEF9FFE7C046C0460DA891
:1046300000210170FFE70EB070BDC046DC8BFC07A7
:10464000D07EF807A5A5A5A5BF7FF8074C4200506E
:1046500028000050020000502400005020000050AC
:10466000CC7EF807A400FC07A200FC07A000FC0712
:10467000D47EF80780B582B00448019001980449BF
:1046800006225AF739FD02B080BDC046CC8BFC072C
:10469000D47FF80780B586B00090FFF715FA784808
:1046A00001881022114301800098401E1B490860B8
:1046B000EFF3108002900298019001200590059878
:1046C00080F3108805200007018880229143018033
:1046D0000198002806D1FFE700200390039880F39B
:1046E000108805E001200490049880F31088FFE70B
:1046F0001F480088012109020840000A00280BD049
:10470000FFE7FFF735F90B2001F098F9174801880A
:10471000012211430180FFE706B080BD2000F407AD
:1047200010B582B001A908700C7801F06FF98442CD
:1047300005DDFFE701A8007801F080F9FFE70B48ED
:104740000088C00700280FD1FFE708480188012230
:1047500011430180FFE7064800884007C00F00288A
:1047600001D1FFE7F7E7FFE702B010BD800000507E
:104770002A00005080B504480078FDF72FFC03485C
:104780000021017080BDC046C68DFC07728DFC07FC
:1047900010B582B0002001900D480E491CC81CC104
:1047A0001CC81CC10C4881680C4A116041680C4A45
:1047B000116000680B49086007200190FCF7B7F909
:1047C00001980121090508430749086002B010BD9E
:1047D0008C74FC07200008408074FC07C800FC07AC
:1047E000C400FC07C000FC070000084080B53DF78E
:1047F00098FD074800680549086080BD80B53DF711
:1048000064FD024800680249086080BD080200405B
:10481000948CFC0780B582B001F02CF9FFF7B8FF4B
:1048200000F0C6FE01A801210170094A13888B43DC
:10483000007808401818108001F0D4FB05200421EE
:104840000022FCF78CFCFEF7EEFB02B080BDC046F8
:104850000C03005082B00190FFE7FFE70848018891
:104860006A4611801188032399431180009901231E
:10487000DB03194311800099018002B07047C046E4
:104880001200005080B501F045F91B4800888007F0
:10489000002806D0FFE718480188032291430180D1
:1048A000FFE71648018880221143018014480188DF
:1048B000042291430180FFE7124800888007002806
:1048C00001D4FFE7F8E7FFF791FF0F4800680421E4
:1048D00008408008002803D0FFE7FFE7FFE7FFE775
:1048E000FFE709480068042108408008002801D13A
:1048F000FFE7F6E780BDC0460A0000500800005000
:1049000010000050140000501000004080B584B02A
:1049100003A9087002A8002101704A480190FFE72E
:1049200002A80078012826D8FFE70198C08AFD2850
:1049300009D1FFE702A800781821414341484018F7
:104940000E494160FFE70198C08A5CF7D7FC0090F0
:104950000098002807D0FFE700988268019803A913
:1049600009789047FFE70298401C02A90870019857
:1049700018300190D4E704B080BDC046D073FC0766
:1049800010B584B003A9087002A8002202702D4857
:1049900001900878C007002827D1FFE7FFE702A8A9
:1049A0000078012820D8FFE701990020086102ACB7
:1049B00021781031019A91820199FF22CA820199CE
:1049C0004860019988600199C8810199888101999D
:1049D00008600199087D58F70CFA0298401C207075
:1049E000019818300190DAE72AE0FFE702A8007882
:1049F000012824D8FFE70198C08A5CF77FFC00906B
:104A00000098002805D0FFE7009841680198884782
:104A1000FFE70198FF21C1820198002141600198C0
:104A200081600198C1810198007D58F73CFA029895
:104A3000401C02A90870019818300190D6E7FFE7E2
:104A400004B010BDC08CFC0770B5274800780A2858
:104A500044D1FFE7244800210170244D284600F08E
:104A60007BF8234C204600F077F8224800F074F8D9
:104A7000284600F071F8204600F06EF8204600F05D
:104A80006BF81D4E707900F03BF81C4D284600F085
:104A900063F8307900F034F8284600F05DF8F078DB
:104AA00000F02EF8284600F057F8B07800F028F80B
:104AB000284600F051F8707800F022F8284600F0FF
:104AC0004BF8307800F01CF8204600F045F82046FE
:104AD00000F042F8204600F03FF8FFE70248017876
:104AE000491C017070BDC046687FFC070478FC0754
:104AF000EA77FC079077FC07648DFC07CF78FC070A
:104B0000F0B585B01D49049103AF387038780009BD
:104B100002AC20702078302637220A28314600DB8C
:104B200011460192401820700498012521462A461A
:104B300001F0C8FB38780F210840207020780A283F
:104B400000DB019E80192070049821462A4601F05E
:104B5000B9FB05B0F0BDC046B0B582B007490191C0
:104B60000090019C009D2846FCF73EFA82B2204648
:104B7000294601F0A7FB02B0B0BDC04600110050AD
:104B800080B584B003A9087023480078002841D07C
:104B9000FFE703A80078C00700280BD0FFE7FFE776
:104BA0001E480088042108408008012801D1FFE741
:104BB000F6E709E019480088042108408008012828
:104BC00001D1FFE726E0FFE71348002303701448F4
:104BD000008802901348008801900298000401990F
:104BE00040180090009810494143880B401C400831
:104BF0000E490860009A1F20400649215EF730FCEC
:104C00000B4A51601060106864214143080C094947
:104C10000860FFE704B080BDC08BFC0700160050A1
:104C2000061600500416005011110100A88CFC0754
:104C3000B08CFC07A08CFC0780B50B4808210170E4
:104C40001120FCF7C1F902480321017080BDC04664
:104C50000510004003480221017003480021018033
:104C60007047C046061000400410004080B5FFF7B2
:104C7000E9F880BD81B06946087001B07047000056
:104C800080B590B00C900BA8002101700C98364AAA
:104C900042620C98354A82620C98354A42610C98FF
:104CA000302281540C983349C1620C98324901601A
:104CB0000C98324901620C98314941600C98314995
:104CC000C161C046C046734801681F221204914367
:104CD00001225304C91801608E480168D20491432F
:104CE0000160FFE70BA80078272808DCFFE70BA886
:104CF000017801AA51540B99491C0170F2E701A8EF
:104D00000F900EA8402101800DAA28211180008853
:104D10001D49096840180F9912885AF7EDF900F0FB
:104D20003FF8C046C046FFE7FFF786FFFFF7B2FA3D
:104D3000FFF776FA00F048FC01F0D4FB00F058F8D9
:104D4000FFF794FF114801210170114800880721E5
:104D5000084010490870FCF7BBF8FDF749FEFFF763
:104D600079FF10B080BDC046D94DFC07E54DFC076A
:104D7000194FFC07F14EFC07A14EFC073113FC074D
:104D8000754CFC07A34EFC074CB9FC07B88CFC071C
:104D9000B8100040B98CFC07064800787047C04640
:104DA00081B068460921017000980249087001B07D
:104DB0007047C046BD8CFC0780B5FFF73DFFFFF78D
:104DC0002FFA00F001FC01F08DFBFCF781F8FDF7F4
:104DD0004DFEFFF73FFF80BD81B06946088000208F
:104DE00001B0704782B001AA1080009102B07047F4
:104DF00080B5022000F0E0FDC7480168012253059C
:104E00009943016023480021016001681F231B04AE
:104E100099435304C918016090070168E0221143C7
:104E200010229143016080BD80B51A4801681F229D
:104E30001204914301225304C918016090070168CC
:104E40000722914301601448018808221143018020
:104E500012480178AA20002900D10846002801D173
:104E6000FFE7FFE7FFE7C046C046FFE7FFF7E4FEC6
:104E7000FFF710FAFFF7D4F900F0A6FB01F032FBC0
:104E8000FFF7B6FFFDF70AFEFFF7E4FE0520FCF78B
:104E900047F880BD7400004008000050BC8CFC073F
:104EA000704780B582B001A9087001986A461070F9
:104EB0000878272804DCFFE768462821017009E00C
:104EC00001A80078E72804DBFFE76846E6210170C7
:104ED000FFE7FFE768460178F920400048437D215D
:104EE000C9005AF78FF88130C0B202B080BD00000F
:104EF00081B00748016807221143009100990160C1
:104F000085480168012292049143016001B0704715
:104F1000300000400002004080B584B003AA107049
:104F200002A8017001A809210170FFE702A800781A
:104F300002280BD0FFE702A80078012806D0FFE77F
:104F400001F02AFE01F07EFEFFE7FEE7FFE7FFE744
:104F500003A8007801280BDBFFE703A80078FF28EF
:104F600006D0FFE701F018FE01F06CFEFFE7FEE758
:104F7000FFE703A80078FF2805D1FFE7FFF70CFF44
:104F800001A908700EE002A80078022804D1FFE70A
:104F900001A80C21017004E0FFF7FEFE01A90870D2
:104FA000FFE7FFE701A8007804B080BD80B58CB0B2
:104FB00059480068C007002806D0FFE75648016836
:104FC000022211430160FFE75348006840020028B5
:104FD00007D5FFE75048016801229205114301609F
:104FE000FFE7FFE74D48006801900198002801D1D4
:104FF000FFE78EE001A800780006002808D5FFE74B
:1050000080200B900B9846490860FEF7F9F8FFE7FF
:1050100001A800788007002808D5FFE702200A9041
:105020000A983F490860FEF701F9FFE701A80078F8
:105030000007002808D5FFE708200990099838499B
:105040000860FEF7CBF8FFE701A84078C00700280A
:1050500009D0FFE701200002089008983049086055
:10506000FEF7C8F8FFE701A840788007002809D5B7
:10507000FFE7012040020790079829490860FEF7E2
:10508000FBF8FFE701A800784006002808D5FFE7F5
:1050900040200690069822490860FEF7C3F8FFE713
:1050A00001A80078C006002808D5FFE71020059069
:1050B00005981B490860FEF77FF8FFE701A8007814
:1050C0004007002808D5FFE70420049004981449FD
:1050D0000860FEF7AFF8FFE701A80078C0070028D6
:1050E00008D0FFE70120039003980D490860FEF700
:1050F00067F8FFE701A800788006002808D5FFE7D9
:1051000020200290029806490860FEF763F8FFE746
:1051100068E70CB080BDC0460002004010000040AF
:105120001800004080B582B000F026F801A9087090
:10513000087804280ED1FFE708480078012804D138
:10514000FFE701A80221017003E001A8032101701B
:10515000FFE7FFE701A8007802B080BDB4BAFC0702
:10516000AC4800887047C046AA4800887047C046CF
:10517000A84800887047C04610B588B006A800242B
:105180000470FEF7C1FB059004A80470C046C04639
:10519000FFE7A0480079022803D1FFE7002005902F
:1051A000FFE7FFE79C480088C007002801D0FFE721
:1051B0002BE1E9480178AA20002900D108460028FF
:1051C00001D1FFE7FFE7FFE757F7E3F9002801D137
:1051D000FFE71AE106A8012101708E48C078C007D8
:1051E000002801D1FFE710E18C480088C0070028A3
:1051F00004D0FFE706A80421017006E1FFF7B4FF21
:10520000002801D0FFE700E1C046C046FFE7844820
:10521000806A002804D0FFE7FEF776FB0590FFE7E1
:1052200000F01CFB7B48817805A857F7AAFF0028EF
:1052300001D1FFE7E9E07B4800684006002801D57E
:10524000FFE7E2E07348817805A848F777FC00287B
:1052500001D1FFE7D9E0012000F0AEFBBE480178A4
:10526000AA20002900D10846AA2801D1FFE7FFE7BC
:10527000FFE7FFE7FFE70598002812D0FFE76A483D
:105280000068029002986949884209D8FFE70298AD
:10529000C008272804D3FFE70598401E0590FFE7C4
:1052A000FFE7FFE762480088624A116840186249D8
:1052B000086062480368624C23401268134303602D
:1052C0000268604B1A40604B1B689B021A430260E5
:1052D00002685E4B1A40096849055118016006A82A
:1052E000042101709C480178AA20002900D10846B9
:1052F000002801D1FFE7FFE7FFE797480178AA20E0
:10530000002900D10846AA2801D1FFE7FFE7FFE7FF
:10531000059800F0A9F80390FFE7FFE78E480178B1
:10532000AA20002900D10846002801D1FFE7FFE7A5
:10533000FFE789480178AA20002900D10846AA2859
:1053400001D1FFE7FFE7FFE70398401E0390FFE767
:10535000FFE703983C490968491C884204D1FFE7EC
:10536000394800680390FFE703982A4909794A1EE3
:10537000914144F7F9FA3648C06A8047C046C046B2
:10538000FFE7FFE733480068079007A80088C00BD5
:10539000002801D1FFE7F5E7FFE72F480068C005C7
:1053A000002801D4FFE7F8E72B48016880229143E9
:1053B000016004A80078C007002803D0FFE700F0D0
:1053C000A9FBFFE746200190244800886946088031
:1053D0000888452809D8FFE7684600884621081A4A
:1053E0001F4A10601D480180FFE7FFF707FAFFE73B
:1053F000194800680006002801D4FFE7F8E71948BB
:105400000188802291430180FFE706A8007808B058
:1054100010BDC04654BAFC070833005014000050B9
:1054200074BEFC0710000040200000401202000083
:10543000988CFC07847FFC07807FFC073C000040C1
:1054400000FCFFFFFF03E0FF887FFC07FFFF1F005A
:1054500058BFFC0730000040000200400A330050F3
:105460009C8CFC070800005080B582B00190FFE7DB
:1054700001980C49884206D3FFE701F085FB01F053
:10548000DDFBFFE7FEE7FFE7019807490A684B6885
:10549000002159F7E1FD0903000D40180090009824
:1054A00002B080BD40420F00B08CFC0780B584B0D4
:1054B000FFE7FDF775FA002845D0FFE757F79DFF96
:1054C00003A80021017024480178AA20002900D1F6
:1054D0000846AA2801D1FFE7FFE7FFE703A8007805
:1054E00001210840FFF74CFBFFE71848007804282B
:1054F00022D1FFE702A80121017017480178AA20F4
:10550000002900D10846AA2801D1FFE7FFE7FFE7FD
:1055100002A8007801210840FFF732FBFFE70020D6
:10552000019001A8042148F709FB002803D0FFE7F8
:10553000FDF708FBFFE7FFE7FCF7FAFA002801D0C8
:10554000FFE7B6E700E0FFE704B080BD938CFC07FF
:10555000E848012101707047BC8CFC0783B00190C2
:1055600000200090FFE70098092816DCFFE700986C
:1055700080000E49085800280AD1FFE701980099D9
:1055800089000A4A50500098401C02A9087008E09F
:10559000FFE70098401C0090E5E702A80021017099
:1055A000FFE702A8007803B07047C0463C8DFC07B7
:1055B00080B51D2101200246FBF7D1FD0920002105
:1055C0000A46FBF7CCFD80BDF0B5654801687F2237
:1055D000120291430B231A02891801606148016885
:1055E00089B2614A8918016060490A6860480240CE
:1055F0000124600312180A605E4D2E6803210A021E
:1056000016432E605C4D2E8810273E432E805B4D46
:105610002E8826432E805A4C5A4D25605A4C258898
:105620005A4E35402F263601AD192580584C256835
:10563000584E3540584EAD192560584D2E68584C7F
:10564000264009246702F6192E60564D2E68564FE3
:105650003E40564FF6192E60554D2E68554F3E4030
:10566000554FF6192E60554D2E68554F3E40554FFB
:10567000F6192E60544D2E68544F3E40544FF61983
:105680002E60544D2D782D06C1267601AD19524E4F
:1056900035600525AD02514E3580514D514E2E805D
:1056A000514D2E8855273E43AA27BE432E808D2577
:1056B000AD004E4E35804E4D4E4E2E804E4D4F4ECF
:1056C0002E804F4D4F4E2E804F4D504E2E80504DC0
:1056D000504E2E80504D2E68504F3E40504FF61980
:1056E0002E60FF256C354F4E35804F4E37884F4D1D
:1056F0002F409B01FF1837804D4E37882F40A40163
:105700003C1934804B4C26882E4015277F01F61912
:105710002680494C26882E40F318238063239B0063
:10572000464C2380464B1C881443E02294431C8043
:10573000444A1388192423430624A3431380424A6E
:105740001388424C234018181080414802680A43CD
:1057500004218A4302603F483F490160F0BDC046D2
:10576000343000402030004000008888383000404D
:10577000FF00FEFF503000405C300040243000400D
:105780008000004059055C07202000400FFC00000D
:10579000182000400000E0FF09581A001C200040BB
:1057A000FEE1FFFF04200040E0E000000809294975
:1057B0000820004000000303696A686C0C20004068
:1057C000031FFFFF7060000010200040E0E0E0E0F9
:1057D0000B0A0A08BD8CFC0700100040281300408B
:1057E0002C130040051400004813004050130040E3
:1057F00054130040340A00005813004051080000C0
:105800005C130040260A00006013004058080000A6
:105810002C200040070F00003C2000402F64E0FED9
:10582000101A060100120040381200401FFC000050
:1058300044120040481200404C1200400412004044
:10584000881200409C1200403C100040FF9F000066
:1058500080100040641000405001500180B582B0BB
:1058600054486421405A694608800888FEF73AFC8B
:105870001F4908801F480178AA20002900D1084646
:10588000AA2801D1FFE7FFE7FFE7684600883C3020
:10589000FEF728FC001D18490860154800880968B3
:1058A0004018C01D15490860FFE715480078022818
:1058B00011D1FFE70F480178AA20002900D108463E
:1058C000AA2801D1FFE7FFE7FFE70C480168113183
:1058D0000160FFE7FFE709480068FEF7C7FB0949D9
:1058E000401801A90880088857F718FE02B080BD4B
:1058F000988CFC07BC8CFC07847FFC07887FFC0726
:10590000B4BAFC07E204000010B582B001A9088017
:10591000019817490880174801880124A143018094
:105920000D20FBF751FB14480188214302229143CB
:105930000180FFE7104800884006002801D4FFE7F7
:10594000F8E701980D4908807D20C000FBF73CFB7B
:1059500009480188032291430180FFE70648008837
:105960000006002801D4FFE7F8E702B010BDC046EA
:10597000908CFC07240000500A00005002000050E8
:105980007047000081B00A480068009068460078BF
:10599000AA2805D1FFE7074866218022425204E089
:1059A000044866216E224252FFE701B07047C046AC
:1059B000D07FF807DC8BFC0781B06946087005488A
:1059C0000188054A1140009A12021143018001B07A
:1059D0007047C04638300050FFFC000080B582B0F0
:1059E00001A90870087800F029F8E448018801222C
:1059F00011430180FFE7E64800884007C00F0028F8
:105A000001D1FFE7F7E702B080BDC04682B0DF48B2
:105A10000188032252021140490A01AA118000881C
:105A20000721C9020840C00A694608800198C000E1
:105A300000994018C0B202B07047C04610B581B09E
:105A400069460870D1480288D34B1A40009B9B01DD
:105A50001F24640223401A4302800288044B1A4028
:105A600009784907890C5118018001B010BDC04662
:105A7000FFC7000010B582B068461B210170C44802
:105A80000088012109020840000A002804D1FFE72C
:105A900001A8FE21017037E0FEF76EF800280BD058
:105AA000FFE768460478FFF7B1FF844204DAFFE7B6
:105AB00001A8FF21017027E0B248008801210903F5
:105AC0000840000B002811D1FFE7AD4800880821ED
:105AD0000840C008002809D1FFE768460078072879
:105AE00004DCFFE701A8FB2101700DE000980749E5
:105AF000087007480121017068460078FFF76EFFC3
:105B000001A800210170FFE702B010BD697FFC070A
:105B10006A7FFC070520000701883022914301803D
:105B20000188032291430180704705200007018806
:105B30003022114301800188032211430180704704
