:0200000407FCF7
:10000000F85DFC076D05FC077505FC078D05FC0711
:1000100000000000000000000000000000000000E0
:10002000000000000000000000000000A505FC0723
:100030000000000000000000A705FC07F914FC0701
:10004000D519FC07311AFC071D27F0075115FC07CD
:10005000E116FC07AB05FC077F12FC07AB05FC07AC
:10006000AB05FC07AB05FC071511FC071911FC07D4
:100070001D11FC072111FC072511FC07AB05FC072E
:100080005911FC07AB05FC07AB05FC07AB05FC07EA
:10009000AB05FC07AB05FC07AB05FC07AB05FC0794
:0200000407FCF7
:100510000348854604F01AFB004800474108FC07E1
:10052000F85DFC0710B50F49062008800F2000F089
:100530000CF8012000F009F8002000F006F8002077
:1005400005210907088062B610BD002809DBC10635
:10055000C90E0120884004490860BFF34F8FBFF3E4
:100560006F8F70470034005080E100E00F488047F3
:100570000F48004704207146084203D0EFF309807A
:100580000C490847EFF308800A49084704207146E0
:10059000084203D0EFF3098007490847EFF30880CA
:1005A00005490847FEE7FEE7FEE7FEE72505FC07ED
:1005B0001105FC072506FC07BD05FC0705221207EF
:1005C000518A802319435182134903680B604368A1
:1005D0004B6083688B60C368CB6003690B614369C0
:1005E0004B6183698B61C369CB6108620B48836A85
:1005F0004B62C36A8B62036BCB62C36B0B63436B4F
:100600004B63806B8863064908200880908A8006C7
:1006100001D500BE7047FEE70000FD0700ED00E0D9
:1006200000330050052109070A8A04231A430A826D
:100630000A8A02231A430A820A8940231A430A813A
:100640001B4B01221A601B4B08221A804A8A802306
:100650001A434A82184A03681361436853618368E6
:100660009361C368D3610369136243695362836909
:100670009362C369D36210631048836A5363C36A89
:100680009363036BD363C36B0B4A40321360436BBA
:100690005360806B9060888A800608D500BE488AC7
:1006A000012280088000D203104348827047FEE791
:1006B00080E200E0003300504000FD0700ED00E064
:1006C000F8B503460C460120154600212B4E024684
:1006D000412B3BD00ADC012B16D00222072B26D05F
:1006E000402B23D12078022824D32AE0422B33D078
:1006F000432B37D0442B19D1207800281AD01F481B
:10070000407B2870227010E006221D491D485DF7CD
:10071000F1FC0627002802D006221A4901E0062231
:10072000B11C28465DF7C2FC27700020F8BD207878
:10073000022802D221700420F8BD30782870707829
:1007400002E0307A2870707A6870DBE72078002841
:10075000F0D00A48807AD4E720780028EAD0074809
:10076000C07ACEE720780028E4D0307BC9E70020AB
:100770007047012070470120704700008E4BFC0736
:1007800090E1F1073448FD07F8B5022801D00328AD
:100790004ED1984A136904210B43136105242407A1
:1007A000628A20239A436282228A02231A43228287
:1007B000914E0027102202287578608A39D01043A4
:1007C0006082608A08436082B068C01C83088B48DE
:1007D0000760628A40210A436282628A8A43628297
:1007E00047618749816201210904C1622188802013
:1007F0000143218000970099491C00916429FADB8C
:10080000618A1022114361827C495B1E4B61218801
:100810008143218003205BF755F800280CD001208C
:10082000F070208A0F2109028843290208432082A0
:10083000F8BD90436082EDE7F77030780543F0E74C
:1008400008B500F083F800F09FFA052500262D0773
:10085000042709E00421684600964CF7CBFB0028EA
:1008600014D000F009FA11E0288900060ED5012005
:100870008007006B000409D462480078C00705D1E6
:100880005BF7ABFD604800780428E3D072B601F056
:1008900063F9042806D002280BD0032809D00128C8
:1008A0004ED04EE059480078012801D0032000E0E6
:1008B0000220694608700446288A38432882204668
:1008C000FFF762FF022C01D0032C1BD15048418856
:1008D000FF220132914341806A8847498A804188DA
:1008E00001221143418000960098401C009014287A
:1008F000FADB688980088000401C688168894006AE
:10090000FCD56E80A88A800602D54249082008805E
:1009100030BFA88A800602D53E4908204880364864
:10092000C078002807D03C48006801898AB2416835
:1009300003205AF7A1FF2F480169B943016100E084
:1009400030BF62B6C820354908808DE7F0B534481D
:10095000344E0827344A354BB04201D3394608E0BB
:10096000904201D30C2104E0984201D30E2100E013
:100970000F212F4C2F4D204864192F4D8170641981
:100980000125ED038460AC4201D8012406E0032573
:10099000AD03AC4201D8032400E00F240C434470A3
:1009A000264C31468C4223D2254D26467519944259
:1009B00005D38D4201D204271AE00C2718E09C428F
:1009C00009D3954201D2022712E08D4201D20627B7
:1009D0000EE00E270CE09D4201D2012708E095426F
:1009E00001D2032704E08D4201D2072700E00F2740
:1009F0000770F0BD00ED00E00448FD070000F407BB
:100A0000204F101A5877FD076049FD07B477FD079E
:100A100020000050003300505876FD070031005090
:100A20000448FD070000FD0700C0FC070080FC072C
:100A30001005FC07A0520000000004F82C5EFC0723
:100A40000C040000704770B50D46002441F793FF79
:100A50002855641CE4B2202CF8D3002070BD10B5DA
:100A60005DF712FB10BD10B55DF717FB10BD7047A9
:100A700070470749884200D000BE05210907488A0F
:100A8000012280088000D203104348827047000092
:100A90001111111124480178002902D080214170E0
:100AA00070472249002008702149C87070471E49CC
:100AB0000A78002A03D000280CD002200BE000287E
:100AC00001D0022000E001201849087018490120D7
:100AD000C87070470120803048707047002805D0EA
:100AE000012804D0022804D10120E0E7D2E7002049
:100AF000FBE770470C48C07870470020EFF3108187
:100B0000012282F31088052212071289120605D4E9
:100B10000848028901231A4302811846002900D09F
:100B2000012181F3108870471048FD07B477FD0755
:100B30005877FD070033005070B505200007018984
:100B40003022914301810189802211430181018971
:100B500089088900491C0181018908231943018101
:100B6000D3490C8814430C80448A9C4344820589F1
:100B7000402425430581058A0426B5430582858ADC
:100B8000AD07FCD5CB4E002535610E8801252E43DF
:100B90000E804D89AE05C84D0E8801D52E4300E06C
:100BA000AE430E800D887826B54328350D800D881C
:100BB000062635430D80458A1D4345820B889343A5
:100BC0000B800289A24302814889800503D5B84978
:100BD00005206031888001208007016882159143DB
:100BE0000160B64801683F225202914342148918BD
:100BF0000160016802031143016070BD10B5B04986
:100C000000200968572901D9573908B2C10F0818BF
:100C100040103D21484300B2C10701D01F3000B24F
:100C2000A849884200D8084680B25BF763FC10BD33
:100C300010B59F494888C006040F48880122104318
:100C4000488048881E22904348809F484B0143803B
:100C50000523038003885B07FCD480884B8893437B
:100C600014334B804B885B085B004B804B8893436D
:100C7000620013434B8010BD70B594490120C863D6
:100C8000C86B0028FCD101208007C069894C002175
:100C9000E268904200D2E160A2780125002A04D0E7
:100CA000A170E060FFF7C4FF11E0E1681922411A6A
:100CB000D201914211D3E060FFF7BAFFA1888842C8
:100CC00001D9411A00E0091A89B2182905D3A08078
:100CD00003F02AFE002800D1A57070BD10B548F7BA
:100CE000CFF810BD10B548F7DAF810BD714B0020F1
:100CF000197800290DD075490122CA63CA6B002AF0
:100D0000FCD101218907C969714A1268914201D257
:100D1000012070470021197070470020704710B5FE
:100D20006C4900200860FFF769FF01208007016B14
:100D300049004908016310BD08B55D494A8801238F
:100D40001A434A80002200920099491C00911429FC
:100D5000FADB052109074B899B089B005B1C4B8133
:100D60004B895B06FCD54880192080010092521CFB
:100D700000928242FBDB48898008800048814889D4
:100D80000006FCD508BD7047F8B55348C82101805E
:100D90000024448051480827478000F03DF944482A
:100DA00020304088FFF7EFFF4248012101704048A2
:100DB00060304188C908C90041803D4E718989056C
:100DC0000AD54188C2130905090D89184180418857
:100DD000782291434031418005252D0768880028FD
:100DE00003D138488838FFF7A7FF708840084000D3
:100DF00070803B4804606A8A40210A436A826A8A9A
:100E00008A436A8244613749816201210904C162CF
:100E1000288880210843288000940098401C009076
:100E20006428FADB002000F043FC22481C3000F06C
:100E3000D5F82D490A8A1F480281498A418100F06C
:100E400013FC00F05BF802F0FCFE012041F799FD75
:100E5000FFF772FE2548006841F72CFA2448C47059
:100E6000047101208007016882151143016000F0C0
:100E7000F5FAFFF70FFE02F0E1F801F047FFFFF788
:100E80004EFF1C4913200860FF201B499130086069
:100E90000B494F200860EC827088E0218843A03025
:100EA00070800D49C82008800C484780F8BD0000BC
:100EB000200000501848FD0700100000000200400C
:100EC0006449FD07E204000000160050C000004025
:100ED000AC57FC07AC76FD070031005000330050E2
:100EE0000000F407204F101A00FEF8074C76FD07AB
:100EF0005877FD076849FD076C49FD0770B51F4E1F
:100F00001F483546002410C5401E0028FBDA03F0B8
:100F1000ABFB1C48302204801B491C485DF7C6F817
:100F20001B481D4904701B4808601D491B48086088
:100F30001D491C4808601D490A2008701C481D49AD
:100F40000470322008701C49052008601B4A0121EA
:100F500011601B4908601B49062008601A490720D8
:100F600008601A4908200860FF2019490730086006
:100F7000184908601848066070BD0000005CFD0755
:100F8000FF0800004848FD0758ECF107FC76FD0714
:100F9000F976FD07DC4DFC075076FD079C4BFC07FE
:100FA0005476FD07204DFC075876FD07B476FD0703
:100FB000B576FD07DD76FD075C76FD076076FD07FB
:100FC0006476FD076876FD076C76FD077076FD0791
:100FD0004876FD074476FD074C76FD0710B50622DE
:100FE00001495DF763F810BDA8FFF8070520000769
:100FF00001883022114301800188032211430180BE
:101000007047052000070188302291430180018844
:101010008908890001807047F0B585B000264A4CE8
:1010200002960298282148430096001900998900E9
:1010300046500099491C00910A29F7DB0298401C90
:1010400002900428EDDB02F0FBFD3F4D0021083D3E
:1010500029606960012702960020009002993B48B0
:101060004900465A00993846884080B206421DD051
:101070000298282148430099001989004058411CD2
:101080001BD000280DD0C117009A5DF753F8029AC3
:1010900012015DF74FF82A686B6810431943286006
:1010A00069600098401C00900A28DBDB0298401C15
:1010B00002900428D0DB05B0F0BD00BEE3E770B5B8
:1010C000012421460A3881400D4688B200F02CF8F0
:1010D00084401F48C189A9430C43C48170BD10B529
:1010E00004460A3804280BD82046FFF7E8FF1649C3
:1010F000A000A03140188038806D002801D08047C2
:1011000010BD002CFCDBE106C90E0120884011490E
:10111000086010BD0A20E2E70B20E0E70C20DEE7C4
:101120000D20DCE70E20DAE700280BD0411E4840F6
:10113000C003010C002002E04908401C80B20029D5
:10114000FAD17047102070475848FD07364EFC070B
:101150000014005080E200E010B5FFF752FF0520B8
:1011600000078188CA0B164918D0164B1A885207F7
:1011700014D51A88D20711D018880222104318807B
:1011800018884008400018800C68002C05D0985E34
:101190000421595E0A229A5EA04710BD8088C006CD
:1011A000FBD5094802881206F7D501228280028801
:1011B00080239A43028048680028EED0804710BD03
:1011C0000C49FD07000200500001005054490A88F4
:1011D0000F239B019A43800102430A8070475049C4
:1011E0000A880F239B019A43800102430A807047BB
:1011F00010B504464A494B48088000204880062024
:1012000000F046F8204600F050F810BD444846492A
:10121000028802231A430280491E02D302889207E1
:10122000FAD40021018140897047F8B505463F484E
:10123000006800906846FFF7DBFF142000F060F8BC
:10124000002D01D0092000E00720FFF7C8FFFFF7BD
:10125000DDFF0446012000F053F800266846867042
:10126000FFF7C6FF002D01D0092000E00720FFF79F
:10127000B6FFFFF7CBFF2A4900190E80F8BD2849B9
:10128000012008812A480068002800D000477047E4
:10129000002809DBC106C90E0120884025490860E5
:1012A000BFF34F8FBFF36F8F704730B505001FD06E
:1012B0001B4C297820880122D2029043C90208439E
:1012C000208028780128687813D0FFF77FFFA9785D
:1012D00001208002002921880ED0014321800920AD
:1012E0006080E97802200029618807D0014361808D
:1012F00030BDFFF774FFEAE78143EFE78143F6E78C
:101300000AE000BF00BF00BF00BF00BF00BF00BFBA
:1013100000BF00BF00BF00BF401EF2D270470000F8
:101320000015005001400000A0860100404EFC075F
:101330001449FD0780E100E0F1B592B0644E6549C3
:101340000496088AB41C0C908922052000070281AB
:101350000122614B52031A80028880231A430280C3
:101360000288920892000280088A022210430882B2
:1013700000F0E5F941F724FB41F728FB002069461E
:1013800001E08888401C888088889128F9D35348D8
:1013900001880991418810915149CA880F920A89A0
:1013A0000E92C2880D92408B08904E48408807905C
:1013B0004888069000F05BF80025B0B22B468446C2
:1013C000494861464180FF21818001210180C18817
:1013D000C907FCD10A460846049E275C365C7E405D
:1013E000F607F60F8E401643491CC9B2F2B208291F
:1013F00005D112994A556D1C0021ADB20A46354FF0
:10140000C82620373E801030FF2680B2B600B0429A
:10141000E2D95B1C9BB2022BD2D32E480C990182DD
:101420003249002008802D48099901801099418097
:101430002B490F9ACA800E9A0A810D9AC280089A87
:101440004283284A07985080069848800520000764
:10145000028880218A43028013B0F0BD10B5244871
:10146000FFF76AFF2248006841F78BFA10BD08B504
:101470001A49002008804880194A1E4BD380FF2358
:10148000D2331381C880C3215180184A08211180AA
:101490006946088003E06A461188491C1180694644
:1014A00009889129F7D36946088003E06A461188C4
:1014B000491C1180694609889129F7D3694601E0E2
:1014C0000888401C088008889128F9D308BD0000CE
:1014D0001001FC07E03000500002004000240050E2
:1014E0006028005000260050003500502020005099
:1014F000B057FC078080000002480068002800D038
:10150000004770471849FD07544930B4884201D05C
:10151000012100E00021524A4901891808E0838A2C
:10152000DB07DB0F12D00388541C8D68CC81AB54D1
:10153000CA898B899A42F2D38288520852008280EB
:101540008A69002A02D0C88930BC104730BC704775
:1015500010B5444800F001F810BDF8B53F4D404EBD
:10156000044620890007000F062826D009DC012840
:1015700040D002281DD00428F3D12046FFF7C4FF35
:10158000EFE7072828D00C28EBD1AC4201D001208E
:1015900000E00020400187192046FFF7B5FFA18831
:1015A00049084900A180B9690029DAD0F88988473B
:1015B000D7E7204600F01FF8D3E72046AC4201D021
:1015C000012100E00021490189190A69002AC8D0D7
:1015D000818A9E2319400BE02046AC4201D00121B4
:1015E00000E00021490189190A69002AB9D00121C6
:1015F0009047B6E7F8BD194930B4884201D00121BF
:1016000000E00021164A490189180EE003891B06F3
:101610009B0F032B1BD0838A9B06DB0F002B95D0DF
:10162000531C0C68CB80A25C0280CA888B889A42CB
:10163000ECD3828802239A438280828880239A4353
:1016400082804A69002A81D0888830BC10477C2378
:101650001B5A9B07DB0FE1E778E700000010005002
:101660001C49FD070011005018B51B4900220A60F3
:1016700005200007448A40231C434482448A9C433B
:1016800044824A61154B8B6201231B04CB620488A0
:1016900080231C4304800092521C0092642AFBDBCE
:1016A0000A68D208D2000A6001889943018018BDF7
:1016B000052109070988090600D400BE06490A88E1
:1016C000520700D000BE002802D0FF20023000E008
:1016D00001200860704700000000F407204F101A36
:1016E00010B50A4880890A49C96A002901D088478B
:1016F00010BD042000F001F810BD002805DBC10674
:10170000C90E01208840034908607047201300502B
:10171000C057FC0780E200E0002070477047704728
:1017200070470020704701218907086B072210438A
:1017300008637047704740087038C0B2704740492E
:101740003E48086040493F48488140484188062259
:101750009143891C41803E4A6321D1803D493A4AE8
:101760000988603A11823C49098801803B48007829
:10177000002802D03A4930200883704700B58BB06A
:10178000384A4262384A8262384A4261384AC26202
:10179000384A0260384A0262384A4260384AC261B6
:1017A000274800214038426B1F231B049A434313F0
:1017B000D218426333480268C3129A430260026837
:1017C00003139A43026068464154491CC9B2282950
:1017D000FAD301462C482822006840305CF766FCAA
:1017E000FFF7ADFFFFF724FA2849088003F09CF8C3
:1017F0000BB000BD12484038416B1F2212049143C8
:1018000042138918416300060168C908C9000160D4
:1018100005200007018989088900491C0181018987
:101820000822114301811A484189890504D501889C
:10183000782291430831018081E700004C0554076C
:1018400080000040EBE600006028005000260050B9
:10185000002C00502248FD072048FD075C49FD0789
:10186000002400501917FC071D17FC072317FC075D
:101870002717FC071F17FC073517FC072117FC0764
:101880003717FC07000200404C76FD071C48FD0797
:1018900020000050F8B50126B607B56B2846FFF7C3
:1018A00021FA994C21694718002020619749384650
:1018B0005CF782FB96494860944A5043381A00D03E
:1018C000101A80B20860306B0821884308433063E7
:1018D0009048056090480068002810D0A8420ED2B9
:1018E0008E49097800290AD16168281A4018E168F0
:1018F000821D8A4201D2801D00E008466060F8BD6A
:10190000F8B5FFF77EFB00268448052706700425FE
:10191000834C36E02188042089088900891C2180B5
:101920006080208828432080FFF760FB00E000BF34
:1019300020884007FBD4FFF764FBE088A1880004FF
:1019400040187849401805280FD26F484188491C33
:1019500089B24180142919D3468042688168531E98
:101960008B4200D91946416010E067494E804868B3
:10197000CB68821C9A4200D213464B606748012113
:10198000017038467F1EFFB20028C3D10520000732
:101990004189890708D041898908890041816249C4
:1019A0004A88520852004A800189802211430181ED
:1019B000018AA9430182818A8907FCD500F0C4F815
:1019C000012080070169490700D500BE0169490768
:1019D000FCD5F8BDF8B5052636077089800720D0FC
:1019E000B08A400701D502F02CF94F4D2888802796
:1019F000384328804A4CFF20608004202080FFF775
:101A0000F5FA7D21C900E088A28800048018884288
:101A1000F9D9052020804548008870802888B8437F
:101A20002880434801894907FCD4FFF769FFF8BDC6
:101A3000F8B5354E0127BD072C69002C62D0200671
:101A400003D58020A8614BF77EF9A00703D50220BB
:101A5000A86147F73EF9200706D50820A8610020B5
:101A600047F7F7F804203070E00505D5FF20013076
:101A7000A861012047F7EDF8A00504D50120400238
:101A8000A8614BF7C9F9600603D54020A86147F764
:101A9000DBF8E00603D51020A86145F710FD6007CC
:101AA00021D50420A8612248018949084900018103
:101AB0005AF7F6FC40F700FE002030701A484089C3
:101AC000800510D5707800280DD11A4877700088ED
:101AD000C00708D10120FFF7A8FB8B2189008842AD
:101AE00001D902207070E00706D00120A8615AF7E2
:101AF000F3FC4BF728F93770A0069DD52020A8618C
:101B000000BE99E7F8BD00006049FD0771020000C2
:101B1000400000407C49FD077449FD07F057FC0771
:101B20000016005061F8FFFF200000500848FD0734
:101B3000003300500015005010B540F7F4FB654825
:101B400080686549486010BD10B540F718FC6248D0
:101B500060494068886010BDF8B5002600F0B5F80F
:101B600000270090FEF7C6FF5C4C002802D12079C8
:101B7000022801D10020009059480089C00711D1E6
:101B8000FFF7B4F800280DD159F7E1FD002809D07E
:101B9000E0780126002805D005200007808AC007CC
:101BA00001D004268FE0208800287DD1FEF7A2FF17
:101BB000002806D14B48806A002802D000F085F842
:101BC0000090FFF71BF8A17868465AF7CBFA002877
:101BD00079D00125AD072869400674D43F48817843
:101BE00068464BF707FA00286DD03F4900200C6883
:101BF0003E490978022900D132343D490A78012A48
:101C000000D121340870E96B1220890A890201434E
:101C1000E963E86B37490840A1020843E863E86BD1
:101C20003721C002C00A89050843E8633249009899
:101C30000426884200D300BEC00264215CF7BCF9D0
:101C4000002800D0401E244AC01E611C106088423B
:101C500000D1146021480079002801D0012100E062
:101C60000021106847F79BF92448C06A8047FFF7B6
:101C700054F8002802D0FFF7B9F90127154C286B5A
:101C80000004C00FFBD02068C005FCD5206880256B
:101C9000A8432060002F01D0FFF7B3F91048418915
:101CA000462906D2462200E00DE0154B511A196074
:101CB0004281FFF741FF20680006FCD505200007A0
:101CC0000189A94301813046F8BD0E480068806A49
:101CD00070470000000200407449FD075877FD0777
:101CE00000330050787EFD076449FD07B477FD0797
:101CF0006149FD07FF03E0FF40420F00B47FFD078D
:101D00007049FD075876FD07FFB58FB000241F46C8
:101D10001B9E1A9D7E486946099413460884002A32
:101D200005D0042219460AA85CF7C0F902E0002099
:101D3000C0430A900F980A99401C0B90C0B207E06C
:101D40000A460241D20701D0641CE4B2401CC0B272
:101D5000B842F5D3182044432018032159F71AFE3E
:101D60000446109801882180199961800F981421E8
:101D700048434119087902280DD0042830460CD078
:101D800040221043207109691022A01D5CF78EF9D2
:101D90000B98C6B272E02671F5E72022F1E70A98A7
:101DA0003041C00768D03046142148430D90401997
:101DB0000C900079022804D0042813D010283DD0BC
:101DC00056E0182102A85CF78AF90D982858017886
:101DD000684601720D9828584178684641720C98FF
:101DE00080681CE0182102A85CF779F90D98285842
:101DF0000178684601720D9828584178684641720A
:101E00000D9828588178684681720D982858C178B5
:101E10006846C1720C9801218068890408430690C5
:101E20000C98818968468183182109980A4648439D
:101E3000001902A918305CF739F919E00D98182239
:101E400029580998504300190490102218305CF763
:101E50002DF90C9904988A680121C9040A430146A6
:101E6000283110465CF75DF90C98818904988185CA
:101E70000998401CC0B20990761CF6B2BE428ED3BF
:101E80000998607120464DF7FEFF0390002838D175
:101E9000109821880180002009900B98C6B2BE429C
:101EA0002FD20A983041C00724D009981421401C31
:101EB000C0B271430990481902908089000419D476
:101EC0000298C089002815D002980079022806D10E
:101ED0006858022208A95CF70DF900280AD0029878
:101EE0002288C18903690998101880B200224EF730
:101EF000A4F80390761CF6B2BE4202D203980028E2
:101F0000CFD0204659F7C1FD039813B0F0BD0000B3
:101F10000328000030B503460120002103241A469F
:101F2000CA40D20704D04D0022466D1CAA4010437F
:101F3000491CC9B20929F2D330BDFFB585B00546A9
:101F40000E981E460088FFF7E5FF049030461E21DC
:101F50000840A98A4B4A00238030019100930292E5
:101F60000390132304AA484906984EF744FB070040
:101F700027D10121202059F70DFD044620215CF7CF
:101F8000AEF82C610698008820830E980088608344
:101F9000F00701D00120C003079908432080A88AD8
:101FA00060801420E8820120E88120461E30A8606D
:101FB00036486860201D40F7ADFDA88A002159F71A
:101FC0007AFF384609B0F0BD70B50469054660680F
:101FD000002805D0201D40F7A5FD59F756FDF6E76E
:101FE00000202861204659F750FD70BD70477047AA
:101FF0002448E430704730B50446228B0920521C37
:1020000093B2648B00222546D540ED0706D05D1CB7
:102010008D4201D1104630BD9B1C9BB2521CD2B2E6
:10202000092AF0D330BD10B50346008B5B8B401CF2
:1020300080B200221C46D440E40706D0914202D16F
:10204000401C80B205E0801C80B2521C52B2092AAA
:10205000F0DB092A00D1002010BD024600208029B3
:1020600001D98D207047062A06D0072A07D0082AF2
:10207000F8D10729F5D170470829F2D17047062910
:10208000EFD37047444EFC070A180000504FFC077E
:10209000FFB581B00C46142000F0D3FD217807462F
:1020A000092935D2FFF7BFFF00282FD061782078AB
:1020B000FFF7D3FF06002CD17D680DE02879217849
:1020C000884208D100222946381D40F79BFD28464A
:1020D00059F7DBFC02E02D68002DEFD1607801217B
:1020E000083059F757FC6178054608315BF7F7FF70
:1020F00020782871607868716278A11CA81D5BF750
:10210000D5FF2946381D40F729FD02E0822600E070
:10211000812602235248039A049959F749FD2178F0
:102120000170467059F75DFD002005B0F0BDFFB5A8
:1021300081B0002000900E46039859F7EEFE00286B
:1021400002D001284CD04DE0142000F07AFD074663
:102150003188FFF750FF05464248092D36D27C688A
:1021600003E02179A94203D02468002CF9D117E0BB
:10217000002C15D06379039A9B1D049959F718FD1B
:10218000054630882880002028716079688062794F
:10219000A11D681D5BF78AFF284659F722FD21E043
:1021A0003D770498010A7977384600F067FD0146CB
:1021B0002B480123401C039A59F7FAFC057059F784
:1021C00010FD0121039859F776FE0BE00623039AD0
:1021D000049959F7EDFC3188018080210171DCE719
:1021E000022000900098A0E7F8B517460D4610466B
:1021F00059F793FE012831D1142000F022FD044646
:10220000017FFFF710FF0646217F2A78154891428B
:1022100014D1617F6B7809023A4608319B1D59F74A
:10222000C7FC0446068000202071687860806A78C8
:10223000A91C601D5BF73AFF204609E0617F062379
:1022400009023A46083159F7B3FC06808021017132
:1022500059F7C7FC0021384659F72DFE0020F8BD7C
:1022600001140000140C000002468B880020022B91
:1022700001D00D207047C988002A05D00029F9D067
:102280000129F7D0812070470029FCD00229F9D11B
:102290007047F0B589B004464DF746FE0546002666
:1022A000384F14E005A920464DF75DFE002301AA32
:1022B00007A905A800964DF749FF68468088B842EF
:1022C00003D1641CA0B209B0F0BD641EA4B2A888FA
:1022D000A04202D8E888A042E4D20020F3E7F0B59B
:1022E0008BB004464DF720FE264F00260546FF37EB
:1022F0001BE008A920464DF736FE002301AA05A9D8
:1023000008A800964DF722FF68468088B84203D19E
:102310006946097D022911D01A49884203D16846CD
:10232000007D022807D0641CA4B2A888A04202D86D
:10233000E888A042DDD200200BB0F0BD2046FBE7CC
:1023400010B50446FD2000F07CFC82790021A242F9
:1023500002D98088001981B2084610BD70B50446C4
:102360000D46FD2000F06DFC81888022A14206D838
:1023700080790818A04202D9601A287000221046FD
:1023800070BD000003280000FFB5064685B0002799
:102390000121282059F7FEFA044628215BF79FFE09
:1023A0000025346126E008981E210840B28A80305A
:1023B0000390534B00216F460EC75248002241192B
:1023C00004914B78405D0699FFF79EFC0746002D6F
:1023D00002D106980088A0804A480499405D497857
:1023E000091A0698008808180699002F088027D136
:1023F0006D1CEDB2444800788542D4D3434D287813
:10240000A0710898C00701D00120C00307990843B4
:102410002080B08A6080FD20F0820120F08120467B
:102420002430B0603A4870602046103040F772FBAC
:102430002988334800F0CDF8B08A002159F73BFDD8
:10244000384609B0F0BD70B5046905462646103619
:102450002069002805D0304640F764FB59F715FB8A
:10246000F6E700202861204659F70FFB70BDF3B551
:1024700081B00298082800D300BE0124204D254FCA
:10248000224E10E0204614214843411909790229BF
:1024900008D128580088B84204D1E1B2002202983D
:1024A00000F0B4F8641C30888442EBDBFEBDF7B565
:1024B00082B000690124124D164F144E009010E0B6
:1024C00020461421484341190979022908D1285886
:1024D0000088B84204D1E1B20022039800F096F8D7
:1024E000641C30888442EBDB0399009800F0BEFB4B
:1024F000002159F7E0FC05B0F0BD07487047000027
:102500002052FC071852FC071C52FC071E52FC0705
:10251000B04FFC0702290000584FFC07F7B50746EB
:1025200082B00D46FD2000F08CFB0646046910E0E9
:102530002079B8420CD16079A8420DD030460022F3
:102540002146103040F75EFB204659F79EFA05E021
:102550002468002CECD101E0002C0ED12846083074
:102560000121009059F716FA044600995BF7B7FD70
:1025700030462146103040F7F1FA277165712A463E
:10258000A01D04995BF792FD002005B0F0BD70B569
:10259000064614460D46FD2000F053FB0369002C4F
:1025A00000D100BE002D0DD100BE0BE01879B04265
:1025B00007D158792880981D2060002B04D0002076
:1025C00070BD1B68002BF1D10020288020600A20FC
:1025D00070BDFEB5054600200E4600900124F74F61
:1025E000019010E02046142148434119097902293D
:1025F00008D128580088B84204D1E0B26A460821C0
:10260000FFF78CFF641CB442ECDBFEBD7FB51546C2
:102610000E460446082800D300BE03AA02A930468D
:10262000FFF7B5FF68460289002A00D100BE039972
:10263000002900D100BE5BF739FD6846055502460A
:1026400001893046FFF76AFF7FBD7CB5FD2000F0B1
:10265000F8FA84680546002C00D100BE687B6A4603
:1026600001A90C34FFF793FF68468088082800D042
:1026700000BE0099287B08282DD2421C2A7362785C
:10268000002A0A5C02D0D207F4D001E09207F1D50B
:10269000A18808318BB2A968CA880102C120000153
:1026A000083159F785FA06466078002801D01220D3
:1026B00000E013203070A88861884018B080A0889E
:1026C000F0803046A288A11D08305BF7EFFC304651
:1026D00059F787FA7CBD607800260028A868C28870
:1026E000018907D00423B64859F762FA618801804E
:1026F000867007E0B2480623801C59F759FA6188B2
:102700004180067159F76DFAA86859F7BEF90021A2
:102710002846AE6000F0AAFA002159F7CCFB7CBD38
:1027200010B50878122801D0132801D1FFF78DFFCA
:10273000002010BD10B50C46FD2000F082FA808804
:102740006188A31D401880B2A18800224DF775FC56
:10275000002010BDF8B517460D46FD2000F071FAB7
:10276000044680886988401886B2384659F7D5FBF8
:10277000012805D03046FFF7B2FD002802D002E064
:102780000220F8BD00BE6946FFF7E8FD002800D032
:1027900000BE0121384659F78EFB0C3D0020A56094
:1027A0002073684600786073FFF74FFF0120F8BD83
:1027B000F8B517460D46FD2000F043FA0446808820
:1027C0006988401886B2384659F7A7FB012805D01A
:1027D0003046FFF784FD002802D002E00220F8BD59
:1027E00000BE6946FFF7BAFD002800D000BE0121F7
:1027F000384659F760FB0C3D0020A5602073684601
:1028000000786073FFF721FF0120F8BD70B5164610
:102810000C46104659F781FB002813D1FD2000F02B
:1028200010FA0546062332460821664859F7C0F9D2
:10283000A988628889180180A1884180A1790171E5
:1028400059F7CFF9002070BDFFB589B00F460B983E
:1028500059F763FB002802D002200DB0F0BDFD2027
:1028600000F0EFF905900020694608720C9802A963
:10287000050A3888FFF772FD0024694606468C83F6
:10288000002825D1FD2001F055F943686846007AFB
:102890001422014651430A1D9A5C022A27D1595835
:1028A000464A0988914222D1082D00D300BE04AACD
:1028B00001A9FFF76CFE68468088002800D100BEA1
:1028C0000498002800D100BE405D69468883022438
:1028D0003C48A31D001F0B9A0C9959F769F905464E
:1028E000388828802E716C80002E16D01AE0294678
:1028F000059800F0C3F9014631480423C01E0B9A25
:1029000059F756F905706946097A418059F769F90E
:1029100001210B9859F7CFFA07E0224607A9681D55
:102920005BF7C4FB284659F75CF9002095E7FFB533
:1029300085B00C46FD2000F084F90490002668461E
:10294000067008986946050A2088FFF707FD0746C4
:102950006088002800D000BE002F62D1FD2001F069
:10296000E9F80146476868460078142302465A434E
:10297000131DFB5C022B27D1BA58104B12889A42C8
:1029800022D1019602962088FFF783FC002800D10F
:1029900000BE01AB002203A94DF76BFD0398214651
:1029A0008005C00FFFF760FC07063F0E39D168466F
:1029B0000178E2882846FFF729FE18E00229000086
:1029C00007FD0000180C0000002908D08E69002EB9
:1029D00005D0A2886188A31DB047070021D1628875
:1029E000A1882088A31D4DF728FB070019D129468F
:1029F000049800F043F90146A088079A801D83B22D
:102A00003D4859F7D5F80546A288A11D801D5BF702
:102A10004DFB684600786880A088A880284659F752
:102A2000E0F804233548079A089959F7C1F8218836
:102A30000180877059F7D5F8002009B0F0BDF8B5CE
:102A40001D4617460E46104659F767FA002815D15D
:102A5000FD2000F0F6F80446274804233A461946BC
:102A6000C01C59F7A5F8290A0170082900D300BE37
:102A70003188A288891A418059F7B3F80020F8BD3F
:102A800070B516460C46104659F747FA012819D179
:102A90001A48A179801E002916D021780623090240
:102AA0003246083159F784F80546A078FFF748FC0C
:102AB000288080202871284659F793F80021304655
:102AC00059F7F9F9002070BDA1883246891D8BB2F3
:102AD00021780902083159F76BF80546A078FFF70D
:102AE0002FFC288000202871A0886880A288E11D22
:102AF000681D5BF7DBFADEE70AFD0000160C00003C
:102B0000F8B50025804EFF27002818D00024182093
:102B100060438719F88A00F0E9F8002802D041687C
:102B200038468847FF20F8827D60BD60FD81387D92
:102B300059F706FA641CE4B2202CE8D3F8BD00244F
:102B40002046182148438119224610320D618A829D
:102B5000CF824D608D60CD818D813550087D59F7D4
:102B600078F9641CE4B2202CEAD3F8BDF3B505462D
:102B700081B00026408800F0B9F801000AD0624F09
:102B80006A88002018234343DB19DB8A934203D170
:102B9000422628E0402626E0401CC0B22028F1D37F
:102BA000002418206043C019C08AFF2806D0641C86
:102BB000E4B2202CF5D3202C14D014E028460830A1
:102BC000009018206043C0190E686B78AA880746E9
:102BD000A91DB0470600EED16888F8820298B98A2C
:102BE0000180E8E74B263046FEBDF8B5464E074665
:102BF0000024182060438519E88A00F077F800283F
:102C000003D08268394628469047641CE4B2202CE1
:102C1000EFD3F8BDF3B53C4E81B00F460024182029
:102C200060438519E88A00F061F8002804D0C36881
:102C30003A46284601999847641CE4B2202CEED30A
:102C4000FEBD034610B500202F4A014618244C4310
:102C5000A418E48A9C4204D11820414388180069D2
:102C600010BD491CC9B22029F0D310BD42885004C0
:102C7000400CD20B01D0090208437047028850046F
:102C8000400CD20B01D009020843704730B5FF2138
:102C9000020AC4B21C4B002018254543ED18AD8A2A
:102CA000A54204D118214843C018C18A03E0401C42
:102CB000C0B22028F0D31002084330BD30B5FF2148
:102CC000020AC4B2104B002018254543ED18ED8AC6
:102CD000A54204D118214843C018818A03E0401C52
:102CE000C0B22028F0D31002084330BD014610B511
:102CF0000020C9B2142904D0FD2901D1FFF7FDFB42
:102D000010BDFFF775F910BD8049FD0710B500F043
:102D1000A3FC00F008FA0020FDF7E0FE10BD0C2136
:102D20003E4A10B5414389188978FF2902D000F046
:102D3000EEF810BD01F00DF810BD10B501F009F866
:102D400010BD10B500F0DAF8002801D001F001F84C
:102D500010BD10B500F0FDFF10BD10B530490A7868
:102D60000270401C491C5BF7A1F910BD2C49498C2D
:102D7000018070470821018010214180002181805D
:102D80007D21C180704770B50C4601780025244B29
:102D9000002904D0012909D04820207070BD827814
:102DA000011D1A70581C5BF781F901E040885884B6
:102DB000257070BD01200870002048808880704711
:102DC00010B500F051FD10BD1FB54A78002A0AD099
:102DD000144B012A12D0022A10D0032A0DD101234C
:102DE0001022891C07E010A41ECC03946C460EC46C
:102DF00001231022694600F069FD1FBD00930123E5
:102E00000422F7E710B50446497800F06DFB204630
:102E100000F09BFD204600F08CFD10BD984CFD0796
:102E2000B84CFD0740E2010000010203040506075B
:102E300008090A0B0C0D0E0F0021CB4A05E0834256
:102E400001D101207047491CC9B20C234B43D35C0C
:102E5000FF2BF4D10020704770B5C349C34C0E4618
:102E60000C36C34D0DE052185268002A07D0C2B28A
:102E70000C235A4351184968401C60702DE0401CD7
:102E8000607060780C2242438B5CFF2BEBD10AE030
:102E900089194968002903D0FFF7CEFF002809D01F
:102EA0002078401C207021780C204143705CFF2862
:102EB000EED117E020780C21414389194968401C64
:102EC00020700AE04919C968002909D0C1B21C2242
:102ED00051434919C968401CA0708847002070BD43
:102EE000401CA070A0781C2141436A5CFF2AE9D1F4
:102EF0000020A07060702070012070BD10B501210D
:102F0000042058F7D8FFFFF7A7FF10BDA4E7F8B5D6
:102F100005460024944E0AE080198168002904D0F7
:102F2000641CE4B22846884701E0641CE4B22046F1
:102F30000C214843315CFF29EED18B4E00240C3626
:102F400009E08F19B968002903D0FFF775FF002841
:102F500009D0641CE4B20C216143705CFF28F0D1FD
:102F60000024834E10E0641CB968E4B22846884708
:102F7000F1E780190169002904D0641CE4B22846F5
:102F8000884701E0641CE4B220461C214843315CC0
:102F9000FF29EED1F8BD10B5744CE06800281CD1B3
:102FA000522304220921734858F702FE0D21E060E4
:102FB000017000214170704A8280C2800722027233
:102FC000012242728172C1722B23195402460C32C3
:102FD0006AA30D210B3000F0B5F8E06810BD70B5A4
:102FE000624EB068002827D162482C2304220921B0
:102FF000093858F7DDFD032101700A21B0604170E6
:1030000017210184002585760446458010210A3069
:103010005BF765F82021E176A583E5835B4965844C
:10302000488F0022002800D91046E084888F0022B3
:10303000002800D910462085B06870BD3EB5002537
:103040004949009501950C223431684602955BF799
:103050002DF846480C22183069465BF727F8434C98
:103060000D223834227045A1601C5BF71FF83E49E1
:1030700065842431042058F7ECFE0021042058F721
:103080001AFF3EBD10B5044601023A48022304224D
:10309000F7300A3158F78CFD0C220121544301709E
:1030A000324A1321417018320021A218D17058F70A
:1030B00098FD10BD70B50D4601022E4814462C2314
:1030C0000422F5300A3158F773FD014620310D72A4
:1030D0004C7258F786FD70BD10B5FFF75CFF58F7CE
:1030E00080FD22490020C8600221042058F7E3FE39
:1030F00010BD10B5FFF773FF58F773FD1B49002093
:10310000886010BD194A002124324B00D35C8342F1
:1031100003D14800801840787047491CC9B20A2979
:10312000F3D304207047114910B50020FF23243148
:10313000042442008B545218401CC0B254700A2818
:10314000F7D310BD70B50646481C1070092015460F
:103150000C46507022461946A81C5AF7A7FF307833
:10316000A41C0019307070BDC84FFC07804CFD07CF
:10317000E850FC070D0D00004C04000053494D5071
:103180004C452D424541434F4E000000A479FD07B8
:1031900010B5114CE06800281CD1522304220921EB
:1031A0000E4858F705FD0C21E060017000214170C8
:1031B0000B4A8280C280072202720122427281720F
:1031C000C1722B23195402460C3206A30D210B3079
:1031D000FFF7B8FFE06810BD804CFD070D0D000043
:1031E0004C04000053494D504C452D424541434F3E
:1031F0004E000000FFB51E460D46074681B0412334
:10320000042209210C4858F7D3FC044610202070F2
:1032100065702A463946A01C5AF748FF21200655FA
:1032200020463246223003995AF740FF204658F78D
:10323000D8FC05B0F0BD00000E0D000010B5012354
:1032400004220921034858F7B3FC0221017058F702
:10325000C8FC10BD030D000010B5FFF799FF10BDAD
:1032600010B5FFF795FF58F7BCFC06490020C86071
:10327000042058F752FE032803D00221042058F7F7
:103280001AFE10BD804CFD0710B5104658F745FEDC
:10329000002802D000BE002010BD01230422092115
:1032A0008C4858F785FC0121017058F79AFCF2E729
:1032B00010B508780E2822DA032810D004DC012883
:1032C00005D002281BD116E00C2818D10FE0487851
:1032D000002801D000BE12E0FFF70BFF0FE0487896
:1032E000002801D000BE0AE0FFF72BFD07E0487878
:1032F00000F04FFD03E04878002800D000BE002019
:1033000010BDF8B51C4610460E4658F706FE0228BA
:1033100002D000BE0020F8BD240A00D000BE0C2060
:10332000274647436C483D18AC70FF2CF2D0012172
:10333000E9700321042058F7BEFD67483188C15366
:10334000707A28713146681D06220A315AF7AEFE9E
:103350007A206249604340186030017E0122204695
:10336000FFF7A8FED6E70A784878092A02D0002895
:1033700000D000BE0020704710B51C46104658F71C
:10338000CCFD210A032802D000BE002010BD0C2075
:1033900041435148FF22081882700021C170F4E7B0
:1033A000002070470020704730B5097800254C4850
:1033B00089B01C46002904D0012913D002291CD150
:1033C0001EE069460B7821460A3358F7F1FB057079
:1033D00069460A7804464280001D491C5AF766FE79
:1033E000204608E069460D800A23214658F7E0FB95
:1033F00001210170458058F7F4FB002009B030BD71
:103400000A23214658F7D4FB022101706946098836
:10341000418069464988818069468988C1806946BA
:10342000C9880181E7E770B5180A0C4601022C48EB
:10343000482502230422801C0A3158F7B9FB457045
:103440002178017058F7CDFB002070BD10B51046F3
:1034500058F763FD012809D1FFF758FD002805D072
:103460000221042058F727FDFFF773FC002010BD50
:1034700010B51946E1200623000158F799FB58F7CB
:10348000B0FB002010BD00207047002070470020D6
:103490007047FFB583B00F460C9C1D460D201149A7
:1034A00016461346019102902A4600943946039825
:1034B00000F079F900280BD00A4901200839019160
:1034C000029033462A4600943946039800F06BF97F
:1034D00007B0F0BD020D0000984CFD07DE4CFD0763
:1034E0000B0E00001050FC07F8B50E467A21484339
:1034F0000B4D074644192046082226771430114602
:1035000000F054FBA01C1022314600F04FFB3FF7A7
:1035100032FA6082E85D01210843E855F8BD0000F9
:10352000DE4CFD0710B50A78180A13005AF712FE90
:103530000805191919131A1A16190C22434C42437B
:1035400012190123D3727A22414C00234243A3541F
:10355000FFF736FC06E0FFF737FC03E0FFF752FC0D
:1035600000E000BE002010BDF8B5180A1B0A00904C
:103570001C460C267A20364D73430A784443334E5A
:10358000601907469E19921E603713005AF7E2FD34
:10359000060412351921293589783976C90706D0EC
:1035A000711D062271305AF781FD3079F8750020BF
:1035B000F07222E00020F07238760098FFF762FD8A
:1035C0001BE017223A30891C5AF770FD285D042150
:1035D00011E010226130891C5AF768FD285D102126
:1035E00009E04A8A002A0AD01C221E30891C5AF798
:1035F0005DFD285D0221084328550020F8BD1C22EE
:10360000801C891C5AF752FD285D0121F3E7002038
:103610007047180A7A2250430D4A097880186030A2
:10362000017600207047002070470020704700207E
:103630007047FEB51C46089B0726064D6F4668C7B7
:103640001346224600F0AFF8FEBD0000984CFD077F
:10365000DE4CFD078850FC07704710B50A23042292
:1036600009210B4858F7A4FA04461B2020701420A7
:10367000FFF748FD6070142060800420A0800020C7
:10368000E080FF2174312181204658F7AAFA10BD4D
:103690001B0D0000F8B50E46097818460024254693
:1036A0000B005AF757FD090609120915150C180FDA
:1036B0001B000B241AA512E007241CA50FE0082408
:1036C0001CA50CE007241EA509E00A241EA506E09F
:1036D0000C2420A503E0062422A500E000BE01463C
:1036E000A31C224858F764FA0746307838707C707B
:1036F000002C04D022462946B81C5AF7D7FC38467D
:1037000058F76FFA0020F8BDFEB51C46089B01264D
:10371000174D6F4668C71346224600F044F8FEBDB9
:103720004469616C6F672053656D690044413134B1
:1037300035383500123456FFFE9ABCDE000000001A
:1037400001D2008005000100312E302E302E302DA8
:103750004C450000765F362E302E31312E39383907
:1037600000000000FFEEDDCCBBAA00000314000047
:10377000C050FC07FFB583B01C4E002401AFA00071
:103780003558002D00D100BE009703A80FC8A847E8
:10379000002805D0641C062CF1D3002007B0F0BD32
:1037A00068460079FAE7F8B5089C9C46079D0346F1
:1037B000002C19D0641E17D40D4FE600AE5B9E425C
:1037C00001D0BE420ED1E3005B195C68002C00D131
:1037D00000BE002C08D013466246A0470699087028
:1037E0000020F8BD641EE8D50120F8BDC850FC07D4
:1037F000FFFF0000052000070089000608D5012012
:103800008007006B000403D403480078C00701D090
:1038100000207047012070475877FD0770B51049A8
:10382000049C4118052901D3012070BD00F00FF858
:103830000025002807DB0B4A81005058002803D0E0
:103840005550804700E000BE2570002070BD04493F
:103850004018052801D240B270470020C04370478D
:10386000F2FBFFFF5C4DFD07F8B5010205461E2384
:10387000042243480A3158F79BF90126414F06704C
:103880000446AD007859002806D17C5107223E49F4
:10389000A01C5AF70BFC6670204658F7A2F90020CE
:1038A0007851F8BD70B5374D84002D1D2959002978
:1038B00001D0084670BD01021E23042230480A319F
:1038C00058F776F904210170285170BDFFB581B019
:1038D0001F460446FFF7E6FF2A4D0646A4002D1DAD
:1038E00028591021801C5AF7FAFB2859039A801C8A
:1038F00002995AF7DBFB7770304658F772F90020CF
:10390000285105B0F0BD70B51E4D84000C35295905
:10391000002901D0084670BD01021E230422184868
:103920000A3158F745F907210170012141702851EA
:1039300070BD10B50446FFF7E6FF58F752F9114A7B
:103940000020A1000C32505010BD70B50546FFF7A5
:10395000DAFF04467A2045430C4808222D18287FB8
:103960002077688A608229462046143114305AF73D
:103970009DFBA91C1022A01C5AF798FB70BD0000EB
:10398000140E0000704DFD07E050FC07DE4CFD07F3
:103990007047704770B50D460446FFF72BFF0028AF
:1039A00006D04C482A460421201858F753FB70BD16
:1039B000FDF7A3F84748042208231146801E58F754
:1039C000F7F84560047058F70CF970BDF8B5424C33
:1039D000069D06190024002E26D0012E0CD0404F43
:1039E0003E4B3A46283A022E0AD03B49C91E41189E
:1039F0000A2929D30120F8BD00F042F828703DE0E3
:103A00000878461E092E0DD88000001F10589842D5
:103A100033D1B0003B5813504A6808781146FFF77D
:103A2000B9FF2AE000BE28E04A68002A0AD02D48E3
:103A3000824200D300BE087826494018042158F776
:103A400009FB1AE000BEF6E72349891E4018C0B200
:103A5000411E092910D88600B218803AD16F00297A
:103A60000BD0994209D0204B994206D0D467F21965
:103A7000803AD467884700E000BE2C700020F8BD73
:103A800010B508780C46411E09291FD88200144839
:103A9000121F28388258144B9A4205D100228900FF
:103AA00042502830425012E0890040580B49884269
:103AB0000DD1042208231146064858F779F82178D9
:103AC00001706168416058F78CF800E000BE00208A
:103AD00010BD000003040000FFFBFFFF9339FC074B
:103AE000B04DFD07FCFF3F009139FC070A4601007D
:103AF00010B50E480DD0814200D300BE0C4B002003
:103B000084001C59002C06D0401C0A28F8DB002039
:103B100010BD00BEF2E784001A51401C0406240EBA
:103B2000F5D02046FFF736FF204610BDFCFF3F00D2
:103B3000884DFD070021154A06E0834203D11C2071
:103B4000414388187047491C1C234B43D35CFF2B0F
:103B5000F3D10020704710B51823042209210C4826
:103B600058F726F804461B202070FD20FFF7CAFAFC
:103B70006070FD2060800420A0800021E180E16071
:103B80002161A182204658F72CF810BDE850FC07AF
:103B90001B0D00003EB51D46069B002400931346F6
:103BA000019402942A46FFF7FEFD3EBDF7B50C4690
:103BB000002582B01646A24200D200BE0027E01EB9
:103BC000009011E03EF7D7FE0299F31B5918020E40
:103BD0002039CA77020C8A77020A4A772D1D0877A6
:103BE0003F1D0098EDB2FFB28742EBDB601B07067A
:103BF0003F0E13D03EF7BFFE844600210CE00320A9
:103C0000401AC0006246C2406818029B301AC018B1
:103C10002038491CC277C9B2B942F0D3301BC1B2B7
:103C20000020024607E02318F51A029BEB18203B00
:103C3000401CDA77C0B28842F5D305B0F0BD000071
:103C4000704710B505242407208A0221884320826A
:103C5000A08A0007FCD507484188FF2201321143A2
:103C6000418000F0E9FC608A20218843084360829B
:103C700010BD00002000005010B5664C21460D31EB
:103C800062780846A2701F305AF710FA21464B316D
:103C9000E278084622711F305AF708FA32225EA1F4
:103CA0006A485AF703FA3120A07200206071A071AF
:103CB0006078E071E07820720120607210BD30B54C
:103CC000544801791F2902D2417A002901D00120EC
:103CD00030BD8179491C8171027A521CD3B20372C2
:103CE0004C4AC4786A321155057B6118D554491C79
:103CF0000171002030BD70B5464C00252570E07A7A
:103D0000A17A884217D85149095C2173401CE0729E
:103D100000F064F8617A084203D06572FFF7CFFFC4
:103D200006E0FFF7CCFF617A884304D0012060727F
:103D3000FFF784FA70BD374A23796A321046A178BA
:103D40003E38FFF757FA42496420FFF7CFFE207054
:103D500070BD70B53E496420FFF7C8FE2D4D287038
:103D6000FFF77AFAC27A0146044628466A700C3197
:103D70000D305AF79BF92B20025D21462846EA7048
:103D80002C314B305AF792F9FFF776FFFFF768FABC
:103D900070BD70B5442820D1FFF75EFA1D4D044672
:103DA000687A002801D0FFF767FF1A49AA782046F1
:103DB000E2722C310C305AF779F92A792B2002550E
:103DC000144920466A312C305AF770F9FFF748FA47
:103DD0001F496420FFF78AFE287070BD30B50D487A
:103DE00081781F2914D2417A002911D04179491CC8
:103DF0004171C279521CD3B2C371024644782C324D
:103E00001155057B6118D554491C8170002030BDC7
:103E1000012030BDD84DFD07444131343538352FB0
:103E200036202620444131343533312053696D70BA
:103E30006C6520426561636F6E20536F66747761B5
:103E40007265204578616D706C650000F85DFC0757
:103E5000F73CFC0770B50E460446002203214DF7DF
:103E60007AFD05464EF746FF688028464DF784FDEB
:103E70004EF740FF7188884200D30846014620462D
:103E80004DF761FE002070BD0246FB4B92009A5830
:103E90000120126900290ED0517F5E239B5C002B0C
:103EA0000BD0052906D1517E090702D5917C09075F
:103EB00000D400207047917DEFE70229F9D0042952
:103EC000F7D00529F6D10020EDE7024630B5930082
:103ED000E94A0120D2581269137DD47E157F234010
:103EE000547D2C40012901D0022909D1957C527EB4
:103EF00015402A0704D41A462243D20700D10020D5
:103F0000032901D0042904D1590702D4610700D440
:103F1000002030BDFFB5160AD84CB50061591046D7
:103F20000A8B01239B0281B01A430A8357F7F5FFDE
:103F3000002852D0132850D014284ED0152811D064
:103F400060592D210B5C0122D90600290DDA0146AA
:103F5000A0318F7D002F08D08A753D21304642F771
:103F600049FA3AE0022005B0F0BD190703D5002157
:103F7000A0308175F6E7A030827502980122817821
:103F8000437809021943401C1B39E12900D3002260
:103F9000C178837809021943B94BFF39801C49392C
:103FA000994200D30022C178877809023943801CE6
:103FB0001B39E12900D30022C178877808023843F1
:103FC000FF38493898420AD2002A08D030463FF7D5
:103FD0000BFF304602993FF74AFF0020C3E71E223D
:103FE000142130463FF7C4FC60590121028B89023D
:103FF0008A430283F1E710B50446A248008D80078A
:10400000800F012800D000206071002807D054F7ED
:10401000EDFA01460622A01D5AF748F810BD062207
:104020009949A01DF8E770B5054600243EF7A3FCAA
:104030002855641C082CF9DB70BDF8B50227077001
:104040000126044646700D4688799049C96988471B
:104050002A210855287900210007000FA0700300CD
:104060005AF778F807050709100D100B1000A1701A
:104070000AE0A67026E0032002E0A77004E0042016
:10408000A07001E001281DD0A888000A801FC0B2DE
:10409000A0721F2800D9A17228463EF721FD811D7C
:1040A0002046A27A0B305AF701F828463EF718FD51
:1040B00001460622201D59F7F9FF28794006C00F56
:1040C000E070F8BDA172F0E7F7B544688CB0254602
:1040D0002435039505460746243548F715FE064660
:1040E0004420405B52214843694909684018C03068
:1040F0004089694608840121384643F744FD48F762
:1041000078FC09900E9800698088000AC100614817
:104110000818298940185F495B3159F74DFF01465E
:104120006868039D47184035288906900090A0686C
:104130000099381A4001400959F73EFF0A9100984A
:10414000C019401A400140096946A060098C490025
:10415000C919891C49014909884204D206994018A5
:1041600040014009A06001460998081A40014A49E7
:104170004009884215D900202B89A268401CD2181A
:1041800052015209A260EA89521CEA81A368099A85
:104190009A1A520152098A42EED801B20D9843F799
:1041A00093FDA1680998081A4201607D5209824274
:1041B00010D82A89891849014909A1602A890A99D0
:1041C000511A814206D901210D9843F77DFDE889F6
:1041D000401CE8812989A06859F7EEFEF180288902
:1041E000B080208A3081A88870810020B081C80703
:1041F000C00FB073A888522148438E3030823046B9
:1042000048F78DFD0398466320460FB0F0BDFFB51B
:104210001C490020496801240A7893B006462146CB
:104220000C2A0CD06A46117300221192002E09D07C
:1042300015990291169D1F2D66D9402064E0002437
:104240002246119413990291149DF4E7029989185A
:104250004978012905D0172903D0182901D0192937
:1042600024D1631E04E003AFFF5C8F4216D05B1EB7
:104270005BB2002BF7DA15E02C7EFD071879FD07FD
:10428000010700004C7EFD07CF79FD07B47FFD07D5
:104290004C76FD0716020000FFFFFF03002B01DB39
:1042A0004A2003E003AB1955641CE4B20B0059F734
:1042B00051FF1D2610101010101010101026262669
:1042C0002626262626262626262610101010101012
:1042D0002600119B03E00BAFFF5C8F4204D05B1EF6
:1042E0005BB2002BF7DA03E0002B01DB4A2006E08B
:1042F000119F0BABD9551199491CC9B21191029963
:10430000895C521C89188AB2AA4201D200289DD029
:10431000AA4200D04A20761CF6B2022E01D2002812
:1043200082D017B0F0BD10B50022134607E0841804
:104330006478012C07D0845C521CA21892B28A4285
:10434000F5D3184610BD80188378FAE7F0B5064615
:10435000A9B01546002084006318DA789F7812020D
:104360005B783A4352BA1B041A430B5D07241B06C1
:104370001A43231A9F0020AB401CDA510828EAD3C5
:1043800000218A0090190746C37880781B020343F6
:1043900078785BBA00040343B05C10AA00060343BC
:1043A000601A8000135038462230437800781B0290
:1043B00003433846203047785BBA3F0400783B43DC
:1043C000000603430F27781A8000491C1350082960
:1043D000D7D358F7FFFC0146304659F778F9002843
:1043E0002DD058F7F7FC034620AA10A9684659F7C4
:1043F00079FD00226846A11A8B009600C75C7119EE
:10440000CF70C75A3F0A8F70C7583F0C4F70C358C0
:1044100020311B0EAB550F239B1A9B00C65CCE7040
:10442000C65A521C360A8E70C658360C4E70C35887
:104430001B0E0B70082ADED3002029B0F0BD01202E
:10444000FBE7F7B500251746064641232A462946CD
:104450000A2057F7ADFB0446002E10D0012E02D0E3
:10446000022E0CD105E02022611C00203EF79CFAB0
:1044700004E0621C394601983EF746FA2070204657
:1044800057F7AFFB2846FEBDF8B57848009007689F
:104490000C46002F7BD005461C35287E002876D0A0
:1044A000012802D0022872D102E02078002819D019
:1044B00038896F49002688423AD1072048F71CF80E
:1044C000002835D042233E2200216A4857F770FB6E
:1044D000082101702178002913D00321417021782F
:1044E000817043E061480226611C14302E76202240
:1044F000044659F7DBFD22465F4930463EF70EFA87
:1045000045E0002146701F22531A1B1947185B789B
:10451000491CBB702029F7DB00213F22531A4718A2
:104520001B1920375B78491CBB702029F6DB1DE086
:104530004F493889491C88421AD1082047F7DCFFC7
:10454000002815D022233E2200214A4857F730FB8D
:1045500009210170217800291BD01221417000210E
:10456000FF224318491C9A702029FADB4AF7D0FA37
:104570002E76402057F79FFF00983EF7D3FA57F763
:104580005AFB00980068002801D03EF7C2F90020CD
:10459000F8BD002146701F22531A1B1947185B787B
:1045A000491CBB702029F7DBE0E770B508780025CF
:1045B0000C46012809D01D2810D02B2812D04022EB
:1045C000194652F7B5FA284670BD57F75EFE2B48DC
:1045D000012504602A4853F73EFEF4E729483EF7D8
:1045E00001F9F0E7284801680029ECD101210160B8
:1045F00026483EF7FDF9E6E770B51D4D244C223DF7
:10460000AB4217D11B4809232A460021C01E57F789
:10461000CFFA044608221F49401C59F747FD20796C
:104620000821084320710025257020464AF770FABA
:10463000284670BDA04770BD10B5A0221649174886
:1046400059F734FD144950225039154859F72EFDB9
:1046500012481449A03001600F49703941600F4978
:1046600011482039086010BD70470000287AFD0706
:10467000252000000408000089E7F1074C7EFD07B3
:10468000030C0000C3C3C3C35077FD07CC7DFD07F7
:104690000DC3F0075CE5F1071456FC072000084045
:1046A000C000FC078CBFF107FF031000F0B53748CE
:1046B00087B0018906914188354D0591A9890491FA
:1046C000698B344AC9B212880392334AD289334C77
:1046D000029222880192C2880092314A01260389FF
:1046E00076037711BB4303814388B7103B43438074
:1046F000A889000A000296310843A881254838217C
:10470000018025480027C781107800280DD0254852
:10471000218800687211114321802188090A090249
:104720004030007D0143218002E0142000F088F930
:10473000184887800188018801221143018001887F
:10474000C907FCD000E0761E0188C90701D0002E01
:10475000F9D187800D49069A0A81059A4A80049A00
:10476000AA81039A02800C4B029ADA81019A228074
:10477000009ACA80002E02D0012007B0F0BD018847
:104780004908490001800020F7E70000002C005094
:10479000002500500022005000240050002000504E
:1047A000B456FC074C76FD07F0B5324885B0018859
:1047B00003914188029130490989304B0191198850
:1047C0002F4C009127882F49CE8803256D022E4952
:1047D0000022028022224280FF222748D132028119
:1047E0002C221A800878FF21013100280CD027489C
:1047F000228800680A4322802188090A0902403081
:10480000C07C014321800AE0208808432080208862
:10481000000A000213302080132000F011F917481D
:10482000002181800288028801231A4302800288C5
:10483000D207FCD000E06D1E0288D20701D0002D07
:10484000F9D181800B49039A0A80029A4A800A4A68
:10485000019911810099018027800A49CE80002D9D
:1048600002D0012005B0F0BD01884908490001804F
:104870000020F7E70024005060280050002200507C
:1048800000200050002C0050B456FC074C76FD0769
:1048900030B5644802880321490234230380002391
:1048A00083800488048801252C4304800488E4075D
:1048B000FCD000E0491E0488E40701D00029F9D1AA
:1048C00083800280002901D0012030BD0188490881
:1048D00049000180002030BDF8B5534C6088C60700
:1048E0006088F60FC005C50F6088400840006080F2
:1048F0006088FF270137B8436080FFF7C9FF0028B1
:1049000005D0FFF751FF002801D0FFF7CFFE6188E7
:10491000A1886188490849003143618061882A0281
:10492000B94311436180F8BDF8B53F4C6088C607B4
:104930006088F60FC005C50F6088400840006080A1
:104940006088FF270137B84360803EF739F83EF7AB
:104950003DF80022082102203EF72CF8002800D064
:1049600001206188A188618849084900314361803C
:1049700061882A02B94311436180F8BD70B50125F1
:104980002A492A020A60BFF34F8FBFF36F8F28496D
:104990000A6028490B681C0A240240231C430C604F
:1049A000224980390A6020494C880626B443241DD8
:1049B0004C804C882C434C804C8838252C434C80B0
:1049C0004C889C434C8001280FD1488833021843FF
:1049D000488048881043488048882A02104348800D
:1049E0004888012292039043488070BD10B5124C54
:1049F000E18A124ACBB21189248BC904890E64045E
:104A0000640E001B093141430120C002401A80B2EC
:104A1000584340031189000E090A0902014311811C
:104A200010BD0000002200502020005080E100E076
:104A300080E200E008E400E000230050002C005079
:104A4000064A4108515CC207054801D0090901E046
:104A50000907090F1031C18070470000764EFD072D
:104A6000002C0050F8B502020546412309213448C4
:104A70000A3257F79DF827210170044600201F23B2
:104A80003049AA008F581E1A4936BE5D2718401CAF
:104A90007E702028F6DB00203F238E581F1A4937EE
:104AA000F65D27182037401C7E702028F5DB58F76C
:104AB00091F90146601C58F70AFE002812D10A201D
:104AC00000906A46052128464FF7FEF8284650F721
:104AD000E3F8009960221143CAB201460123284637
:104AE0004FF75CF8204657F77CF8F8BD70B50546DF
:104AF0000446008914490C3488B088421AD1002039
:104B00001F216E460A1AA25C3254401C2028F9DB91
:104B100020223146204659F7C9FA00203F210A1ABF
:104B2000A25C3254401C2028F9DB20226946A018E0
:104B300059F7BCFA284646F7D8FB08B070BD00000C
:104B4000270D00002C7EFD0726200000064C0125C5
:104B5000064E05E0E36807CC2B430C3C9847103425
:104B6000B442F7D3FBF7D8FC7C57FC07AC57FC07E3
:104B700002E008C8121F08C1002AFAD17047704726
:104B8000002001E001C1121F002AFBD17047F4018F
:104B9000001170CAEA80D007064064327D17FC0716
:104BA000F517FC074BD3F007A9D3F007B1D3F007F3
:104BB00001D4F00719D4F0072FD4F00751D4F0072F
:104BC000E1D7F00781DAF007C1D8F007E1D8F007A4
:104BD00001D9F0073FD9F0074FD9F007FBEEF007F6
:104BE000D5ECF007F3ECF0070FEDF00729EDF00737
:104BF0003DEDF007BFEDF007D7EDF0073FBEF10741
:104C000049C0F10773AFF007C106FC077707FC073F
:104C10007307FC076F07FC07ED21F007730AFC0719
:104C20009518FC071F0DFC07DD0CFC07E50CFC07C5
:104C3000FF75F007C974F0076B75F0077190F10705
:104C40001F40F107012BFC076D2BFC07EB2BFC072A
:104C5000152CFC078D2CFC07BD2CFC070000000068
:104C60006F0AFC07710AFC0757BBF0070986F107BA
:104C7000018BF107778FF1075F8EF107AB56F107D4
:104C80005366F1077F17F10773F9F007450AFC0730
:104C9000D599F0074D43FC07EBB2F0074344FC07FE
:104CA0008944FC07BF2DF007532EF0075B78F0070F
:104CB0002577F007F535F007000000005F0AFC07D4
:104CC000670AFC07470AFC0795D5F0078BD6F00763
:104CD000D7D6F0078FB5F1072FB6F107BFB6F107AA
:104CE00000000000000000000000000000000000C4
:104CF00000000000000000000000000000000000B4
:104D000000000000000000000000000000000000A3
:104D10000000000000000000000000000000000093
:104D2000050000002C5EFC07000400009852FD07FF
:104D3000680200008C4EFD07000400000C55FD07C2
:104D4000700500002003000000A60E000400000013
:104D5000D2000000320000003C0000000100000012
:104D6000010000000200000002000000040000003A
:104D70000300000006000000000000000200000028
:104D8000020000000000000000000000030000001E
:104D90000300000005000000050000000600000000
:104DA0000A0000000A000000C8000000B80B000064
:104DB00002000000B80B0000B80B0000100000005B
:104DC000D4010000E5010000700200006A0000004C
:104DD0000400000001000000200000005046000315
:104DE0000003983A6400F401B80BB80BB80B000C40
:104DF000B80B120030003000CD009A0112002400E0
:104E000030006400B0001800280012001200D00723
:104E10000000FFFF000000006400C8000000D00791
:104E200000024441313435383500000000000000F4
:104E3000000000000000FF003F00FF03FF01000032
:104E40000100010100280000010000000000000036
:104E5000032800000100000002000000292A0000D1
:104E60000100000080800000032800000100000015
:104E700004000000242A00000100000080800000DF
:104E8000032800000100000006000000252A0000A1
:104E900001000000808000000328000001000000E5
:104EA00008000000272A00000100000080800000A8
:104EB00003280000010000000A000000262A00006C
:104EC00001000000808000000328000001000000B5
:104ED0000C000000282A0000010000008080000073
:104EE00003280000010000000E000000232A00003B
:104EF00001000000088000000328000001000000FD
:104F0000100000002A2A00000100000008800000B4
:104F1000032800000100000012000000502A0000D9
:104F200001000000078000003B1FFC07C91FFC07B1
:104F3000ED1FFC07EF1FFC07001400009120FC0789
:104F4000130C00002F21FC0703140000E921FC07CB
:104F5000384FFC07030000008923FC074724FC07A7
:104F60006F24FC07AF24FC07130C00004928FC0742
:104F7000150C00002F29FC07170C00003F2AFC0726
:104F8000000C00002127FC0706FD00005527FC0748
:104F900003FD00003527FC0708FD0000B127FC07D2
:104FA0000EFD00000D28FC0705FD0000812AFC070E
:104FB000684FFC070900000000004C044C04070186
:104FC0000001020304050600FF00000000000000CD
:104FD00000000000140000005B36FC070000000029
:104FE000FF000000000000000000000000000000C2
:104FF0008050FC07DC4CFD070400010000000000AD
:105000000000000000000000080E00008F34FC07C4
:10501000010D00008932FC07000D0000B132FC07D1
:10502000000E00006733FC07010E00000333FC078D
:10503000030E00007933FC070A0E0000A933FC07B9
:105040000C0E00002734FC071C0D00004D34FC073B
:10505000100D0000A133FC070F0E00007134FC0797
:105060002C0E00008734FC07120C00008B34FC0768
:105070001B0E0000A533FC07FFFF00007537FC077F
:105080007850FC0701000000130E00002535FC07D6
:10509000150E00006935FC07170E00000F36FC07DF
:1050A000190E00001336FC07150D00002736FC070B
:1050B000210D00002B36FC07220D00002F36FC07C7
:1050C000021400009536FC079334FC07CD39FC0729
:1050D0001D38FC073336FC070937FC07953BFC07F6
:1050E0000300001000010000FD0000002052FC073A
:1050F0002D000000573BFC070000000000000000EE
:1051000000000000FF0000000000000000000000A0
:10511000000000000000000000000000000000008F
:10512000595A08E4862A9E8FE911BC7C984342189C
:1051300020EE8D0CE1F04A0CB325DC536A68862D15
:105140004F43313C939242E6A876FA3BEFB4875A3C
:1051500017B967984C664C01963331B191590015D7
:105160002368EC521E6244749A1BD18BAB75B66EE9
:105170009EE7BA08B9A948ABA1AC031C2E0D296C57
:1051800028D5E1C1E1C54729B55765C3BA47159E82
:105190008C09E0D1815442408E4FD2B377E32A7715
:1051A000595A08E4862A9E8FE911BC7C7C46421835
:1051B00020EE8D0CE1F04A0CB325DC536A68862C96
:1051C0004F43313C939242E6A876FA3BEFB48759BD
:1051D000595A08E4862A9E08E911BC7CD047421837
:1051E00017B967984C664C01963331B19159001448
:1051F0002368EC521E6244749A1BD18BAB75B66D5A
:1052000028D5E1C1E1C54729B55765C3BA47159D02
:105210000028032802290129001A212D03002D004E
:105220001052FC07100000000100000010001000E8
:105230002051FC071252FC07020000000100000090
:1052400000000000000000003051FC0710000000CA
:105250000800020001000000000000001652FC07D8
:1052600002000000010000000D000D006C57FC075B
:105270001252FC07020000000100000000000000C4
:10528000000000004051FC071000000008800000F2
:1052900001000000000000001652FC0702000000A0
:1052A00001000000090009004457FC071252FC07E6
:1052B00002000000010000000000000000000000EB
:1052C0005051FC0710000000010200000200000025
:1052D000000000001452FC07020000000900020058
:1052E00002000000000000001652FC07020000004F
:1052F000010000000B000B000857FC071252FC07CE
:10530000020000000100000000000000000000009A
:105310006051FC07100000000100000002000000C6
:10532000000000001652FC0702000000010000000F
:105330000B000B001457FC071252FC070200000080
:105340000100000000000000000000007051FC0798
:105350001000000001020000010000000000000039
:105360001452FC07020000000900020002000000C5
:10537000000000001652FC070200000001000000BF
:105380000C000C005057FC071252FC0702000000F2
:105390000100000000000000000000008051FC0738
:1053A0001000000041000000140000000000000098
:1053B0001452FC0702000000090002000200000075
:1053C000000000001652FC0702000000010000006F
:1053D0000C000C002057FC071252FC0702000000D2
:1053E0000100000000000000000000009051FC07D8
:1053F000100000000902020032000000000000005E
:105400001452FC0702000000090002000200000024
:10541000000000001652FC0702000000010000001E
:105420000A000A006057FC071052FC071000000039
:105430000100000010001000A051FC071252FC07F0
:105440000200000001000000000000000000000059
:10545000B051FC071000000008000200010000002D
:10546000000000001652FC070200000001000000CE
:10547000080008003857FC071252FC070200000021
:10548000010000000000000000000000C051FC0707
:105490001000000008800000010000000000000073
:1054A0001652FC070200000001000000110011006C
:1054B000E056FC071052FC0710000000010000003D
:1054C00010001000D051FC071252FC07020000002F
:1054D000010000000000000000000000E051FC0797
:1054E00010000000010200000200000000000000A7
:1054F0001452FC0702000000090002000200000034
:10550000000000001652FC0702000000010000002D
:1055100010001000F456FC071252FC0702000000B5
:10552000010000000000000000000000F051FC0736
:105530001000000001000000020000000000000058
:105540001652FC07020000000100000007000700DF
:105550003057FC071252FC07020000000100000057
:1055600000000000000000000052FC0710000000D6
:105570004100000002000000000000001452FC077F
:10558000020000000900020002000000000000000C
:105590001652FC0702000000010000001200120079
:1055A000CC56FC0701001D01153FFC070900020D48
:1055B000AB45FC0700000508F945FC0700000000AA
:1055C00000000000553EFC07654AFC07893EFC07C9
:1055D000CB3EFC07F73FFC072743FC072740FC07AF
:1055E000C940FC073B40FC070F42FC0700000000DD
:1055F00000000000000000000000000000000000AB
:10560000000000000000000000000000000000009A
:1056100000000000750BF10700000000B3B5F107B2
:10562000000000003B3FF107000000004538F10793
:10563000000000005791F107000000001584F107F9
:10564000000000005764F007000000007985F007B3
:1056500000000000C397F00700000000B97AF107CE
:10566000000000000000000000000000000000003A
:10567000000000000000000000000000000000002A
:10568000000000000000000000000000000000001A
:10569000000000000000000000000000000000000A
:1056A00000000000000000000000000000000000FA
:1056B000000000000101000A04280A040203AA00F5
:1056C00055032A00A001FFFF2C0100005265616410
:1056D000206D652028696E64696361746529000026
:1056E0005772697465206D6520286E6F2072737023
:1056F0002900000052656164206D6520286E6F747A
:1057000069667929000000004144432056616C75A8
:10571000652031004144432056616C75652032009C
:10572000496E64696361746561626C6500000000C4
:1057300052656164206D65005772697465206D65FE
:10574000000000004C454420537461746500000063
:10575000427574746F6E20537461746500000000AC
:105760004C6F6E672056616C75650000436F6E74F8
:10577000726F6C20506F696E740000001001FC079E
:105780001001FC0700040000804BFC07B057FC0729
:10579000B057FC077C060000804BFC070448FD075F
:1057A0000448FD0788060000804BFC07800C0000C1
:0400000507FC0511DE
:00000001FF
