:0200000407FCF7
:10000000D02CFC076501FC076D01FC078501FC078E
:1000100000000000000000000000000000000000E0
:100020000000000000000000000000009D01FC072F
:1000300000000000000000009F01FC07A101FC0778
:100040007506FC07291BFC07A526F0077107FC07AE
:100050002907FC07A301FC073906FC07A301FC07DD
:100060004506FC07A301FC07D506FC07DF06FC07D5
:10007000E906FC07F306FC07FD06FC07A301FC07E5
:10008000B507FC07A301FC07A301FC07A301FC07BC
:10009000A301FC07A301FC07A301FC07A301FC07C4
:0800A000000000008E070E00B5
:0200000407FCF7
:100110005458000652580005525453000743545394
:100120000008504F520000010000000000000000D5
:0200000407FCF7
:100130004669726D776172650000000032363332B5
:0C01400006001600790500020000000017
:0200000407FCF7
:100150000348854600F058FA004800471D0FFC0789
:10016000D02CFC070F4880470F48004704207146F9
:10017000084203D0EFF309800C490847EFF30880E9
:100180000A49084704207146084203D0EFF309806A
:1001900007490847EFF3088005490847FEE7FEE7EF
:1001A000FEE7FEE7211CFC075101FC073907FC07AD
:1001B0002507FC0770477047704700007FB5E4488B
:1001C0006B460188428889186A46118001214C00DB
:1001D00022181546403DED8F065B5288AD19AA18CE
:1001E000491CC9B21A530729F1D38189C08908185B
:1001F00081B2D981D888002821D01889002820D040
:10020000988800281FD0588900281ED09889002877
:100210001DD0588800281CD000291CD01888002820
:100220000BD00720062254001C5B8C4201D22146D1
:10023000D0B2521E52B2002AF5DA04B070BD0320CB
:10024000FBE70420F9E70220F7E70520F5E70620A1
:10025000F3E70120F1E70720EFE7F0B595B0EFF302
:1002600010801090012080F31088BA48816B4A07F3
:10027000520F69460A800A92816B0122C908C9009F
:100280008163B5498B8869464B800224B24B0021BB
:100290009980C16A09078B0F69468B800F93C16AE9
:1002A0000C2399430831C162052109070988090611
:1002B000CB0F6946CB800521090709930988802364
:1002C000194305231B071980A449898A4906CB0FC6
:1002D00069460B81A1490893898A402319439F4BA2
:1002E0009982016A09074B0F69464B810C93036A97
:1002F0000E218B4303629B4D99486860FF2040307C
:10030000A8602888A0432880974841680B071B0FE6
:1003100069468B810B9341680909090108314160E5
:10032000416849064B0F6946CB810D9341687023A4
:100330009943603141608748403801688904CB0F98
:1003400069460B820293036841140B430360016802
:10035000CB07DB0F69464B820E93016811430160A6
:1003600041688903CA0D69468A8203924168CA05B9
:10037000D20D6946CA82049281688903CA0D694612
:100380000A8301928168CA05D20D69464A830592A3
:100390004168764A11400322D203891841604168BE
:1003A000490A4902FF314131416081686F4A114079
:1003B0000322D203891881608168490A4902FF310A
:1003C00041318160642000F00FF9A88969468007F7
:1003D000C00F8883A8892043A8810024604F288803
:1003E00000260121084328800A2000F0FDF8FF20A4
:1003F0005F4941303A680A4200D0761C401E3F1DDA
:100400000004000CF6D1A88A8004FCD15149886B05
:10041000671CC208D2007807400F02438A630A2093
:1004200000F0E2F860004A49FCB20E52082CD5D325
:1004300048480A99826BD208D2000A43826369460F
:10044000454A498891800F998A00C16A0C239943D3
:100450001143C1620999CA0105210907098880234E
:100460009943114305221207118008998A013B49DB
:10047000898A402399431143384A91820C994A0052
:10048000016A0E2399431143016237480B99426870
:10049000120912010A4342600D9942680901702352
:1004A0009A430A434260029841032A484038006850
:1004B00001225203904308432649403908600E98B0
:1004C00009684908490001432248403801600398FF
:1004D00042022048403840682449084010431D4AE1
:1004E000403A506004985268520A52020243194836
:1004F000403842600198174A4002403A92680A40E8
:10050000024314484038826012490598403989688E
:10051000490A490201430F48403881601098002879
:1005200000D0012080F3108815B0F0BD10B5114C3B
:100530002078002808D0FFF790FEFFF73FFE0E4915
:1005400008700020207010BD5FF710F80120F9E757
:100550009025FC0780100040001200402030005021
:100560009020FC070035005040200040FF01FCFFB8
:10057000C0C0C0C04D8CFC074E8CFC0710B5FF22DC
:10058000154901320A60BFF34F8FBFF36F8F1349D4
:100590000A6013490B6840241B0A1B0223430B60AB
:1005A0001049898A0021C30700D03521830702D56D
:1005B0007D231B021943430702D575231B041943EE
:1005C000000702D53D20000601430648203801639C
:1005D00001488038026010BD80E100E080E200E068
:1005E00008E400E0A010004000280CD000BF00BFCD
:1005F00000BF00BF00BF00BF00BF00BF00BF00BF03
:1006000000BF401EF0D170471CB509480090094852
:10061000019005460126009C05E0E36807CC3343C2
:100620000C3C98471034AC42F7D3FFF795FD00001F
:100630006C20FC078C20FC070148012101807047D9
:100640000E1500500A48011F0988CA0706D0028803
:1006500007239A43B74B9B7913430380490706D579
:10066000018807229143B34AD2790A430280704736
:10067000B810004010B5144808210180AD4C218A03
:10068000E0895EF757FC5CF788FF354841888907A9
:1006900003D04188032291434180018880220A438C
:1006A0000280018904229143018181898907FCD557
:1006B00041F737FEE06905490860054801680168AF
:1006C0004907FCD510BDC046003300500802004069
:1006D0001000004080B50A2000F01AF880BD80B5F7
:1006E0000B2000F015F880BD80B50C2000F010F84C
:1006F00080BD80B50D2000F00BF880BD80B50E20C8
:1007000000F006F880BD80B500235DF741F880BD9C
:1007100010B504465DF748F9E0B201218140114867
:10072000016010BDFEE70000024800880D4810215E
:10073000016070472C1300500948018904220A43C4
:100740000281018840220A430280064901220A6090
:100750004189054A11408918091D41817047C046E9
:100760000800005080E200E0FC7F000070470000BD
:1007700010B50F4CA1880F200840022806D004288D
:100780000BD00C280CD00128F4D110E020880221D5
:10079000884320802088802106E001F029FAE9E7DB
:1007A00001F026FA2088012188432080E2E710BD6D
:1007B0000411005080B55CF7F0FE19480188090566
:1007C0000CD518490A8805231340052B06D1088843
:1007D000042202430A80088801221EE00188C9061B
:1007E00006D511498A88D20702D00A88120610D489
:1007F0000088C0060CD50C488188890708D5018877
:10080000C90505D5022181800188084A0A40028075
:1008100080BD01208880088880229043088080BDA8
:10082000040000500002005000010050FFFE0000D4
:1008300080B5C1B20C2904D1A02108435F218843AF
:1008400080BD08465FF788F980BD80B5C1B2A02998
:1008500004D10C210843F321884380BD08465FF78B
:1008600097F980BDB0B50C460025202D04D042F785
:1008700040F860556D1CF8E70020B0BDB0B50446E7
:1008800009480A4D402229465AF7E8FC48350848ED
:10089000302229465AF7E2FC0648001B0649088028
:1008A00014304880B0BDC04670A0FC07D017F207D6
:1008B000B0A0FC07B8A0FFFF78A0FC0707481E21E6
:1008C0004180018803220A430280018804220A43EE
:1008D0000280E948012101707047C04600160050AF
:1008E00080B5E4480078C00708D1052058F796FB8A
:1008F00000280FD12A200949085C04E00648417D00
:10090000012907D1007D41424141C21E5042504160
:10091000084380BD002080BD34BDFC07DCBCFC0763
:1009200080B503480168D448401C5CF74DFB80BD8E
:100930008C20FC07488CFC0770477047704780B5D7
:100940005CF7E6FB80BDF8B56946C870020A8A709C
:10095000020C4A70000E087008465CF7C1FB8FBDA0
:100960007047704770B505460469261D3068002839
:1009700005D0304642F786F858F777F8F6E70020BA
:100980002861204658F771F870BD0000F0B58BB0B3
:100990001E4607920F46044610980690008808905D
:1009A000002101200246092913D003258540099022
:1009B00020463446089ECE403B46012737407E42C3
:1009C0001F462E403243264604460998801C491C87
:1009D000E9E70A92802030439E210140A08A0391DA
:1009E0001D4902910190002000901C490AAA13237E
:1009F00038464DF7CDFE0546002829D10897202717
:100A000001210591384657F7B5FF09960646394644
:100A10005AF73DFC266130461E3011496160A060E6
:100A20000898008830830598E0811420E082A08A2D
:100A300070800998C00307990843308006980088A1
:100A40007083301D42F716F8A08A002158F7D1FABA
:100A500028460BB0F0BDC046981CFC070A180000E1
:100A60007C1DFC07004870479C1DFC07FEB51F4617
:100A700016460C4614205FF747F8002819D0019756
:100A80002778082F029615D80546418B008B3A46E9
:100A900000F094F800280FD060788D2680283AD88E
:100AA000082F0BD0072F0CD0062F0CD108280AD006
:100AB00031E0FEE781262EE082262CE0072802D0D6
:100AC00029E0062827D32E1D35462D68002D0BD092
:100AD0002979B942F9D100223046294642F742F835
:100AE000284657F7C2FF60780830012157F742FFC8
:100AF0000546617808315AF7CAFB2078287160787A
:100B00006871A81D6278A11C5AF7A8FB30462946D7
:100B100041F7D4FF0026064802230199029A58F7AC
:100B200037F821780170467058F74DF80020FEBD67
:100B300001140000F8B514460D46104658F76EFA39
:100B4000012838D114205EF7DFFF002821D00746A6
:100B5000418B008B3E7F324600F030F80090787F6A
:100B6000010208312A78B948964213D16A7889B2CD
:100B7000931D224658F70CF807460020387100985C
:100B8000388068787880781D6A78A91C5AF766FBE7
:100B90000AE0FEE789B20623224657F7F9FF074627
:100BA0008020387100983880384658F70CF80021BA
:100BB000204658F71EFA0020F8BDC046B0B58BB2EB
:100BC000411C00200446092C0DD01D46E540ED07D0
:100BD00002D0A24202D0891C641CF4E7092A01D089
:100BE000481C00E0002080B2B0BD000080B558F77E
:100BF00039FD4AF716FAC6480121017280BDC04688
:100C00007047000080B5002047F77DFBC0480421F5
:100C100001725EF7FBFC80BD80B5012047F773FBD6
:100C200080BD80B54AF7FDF9FFF748FE80BD80B56D
:100C300047F7B5FB80BD000080B50D480188012253
:100C4000914301800B480078C00702D141F73AFD7B
:100C500004E0002041F786FD41F74CFD58F7E6FC23
:100C600041F7EEFCFFF72AFEA9480021017280BD82
:100C700008330050CDB9FC07488CFC0770B50D4611
:100C800033494018062861D87844007940008744E9
:100C9000035D1C5D335D46002878841C34480C22BB
:100CA0001946234657F774FF044600260670287835
:100CB000607029788E4246D2B10701D15CF728FADC
:100CC000A1198870761C000AF3E726480C22142527
:100CD00019462B4657F75CFF0446234908312A463C
:100CE0005AF7BCFA21480178217001796170017AC4
:100CF000A170007BE07026E018480C2202241946FF
:100D0000234657F745FF044606202070287841B255
:100D1000002901D403280ED33020607013E00D4861
:100D20000C2201241946234657F732FF04460A488D
:100D30000079207007E00021617009A1085C064974
:100D4000087100F00BFF204657F73DFF002070BDF3
:100D5000FF5FFFFF08A00000488CFC0706A0000012
:100D60000C09010004A000003001FC070032005013
:100D700002A00000F8B51E4614460D46104658F76E
:100D80004DF901281AD0002847D114205EF7BCFE87
:100D9000002812D00096418B2A88038B5E1C00230A
:100DA000092B2ED00F46DF40FF0704D0B7B27F1CBF
:100DB000974205D0B61C5B1CF2E7FEE702242DE04B
:100DC000DFB2082F1DD8061D3668002E28D03179D5
:100DD000B942F9D17079831D1C480099224657F712
:100DE000D7FE07462888388000243C7170797880C7
:100DF000781D7279B11D5AF731FA384657F7E3FE7C
:100E00000CE0124806230099224657F7C1FE2988B4
:100E100001808021017157F7D6FE00242046F8BDDD
:100E200007770099090A41775EF78CFE014608486A
:100E3000012522462B4657F7ABFE077057F7C3FE36
:100E40002046294658F7D5F8E7E7C046140C0000BD
:100E50000214000080B52E48C01C0249891C5DF7B1
:100E600029FD80BDA025FC0770B5174EB06800F0C5
:100E70002DF827490A6A00230B621518084C2846EA
:100E800021465AF771F9706106494143481901D06A
:100E9000201A80B23061306808210143316070BD92
:100EA000710200008FFDFFFF80B506480021016040
:100EB00000F066FE0120C00703490A6882430A6009
:100EC00080BDC046A4B9FC073000004080B5024692
:100ED000C00B09D00E48406B00210B465AF76EF943
:100EE0008905800A401880BD0948406B4243900A3A
:100EF00080BDC04680B5FFF7E9FF80BD80B50449DD
:100F0000096B41430348081803495AF72DF980BD7E
:100F1000488CFC0720A1070040420F0000B59BB0A1
:100F2000CB4808260680CB4F388818AC2080208814
:100F3000C046C046208804211591C943084202D00A
:100F40000020388003E0B88901218843B881B88B3C
:100F5000C149014007201690C0020818B883BF4D50
:100F6000288830432880E88D06229043E885334660
:100F70000126B003B98B0143B9832888B8490140E1
:100F800029806888129210430C9398436880052743
:100F90003C07618DB34AFF32E88D10407D22D200BC
:100FA0000F23C9051396049211931DD4190303222C
:100FB00052021043E885E88D0843E885A54A908BE6
:100FC0000C9988439083908B042188439083688890
:100FD000A54901406980E88D13990843E885159E6D
:100FE000608D4007FCD51AE0114618310843E885AA
:100FF000E88D9E490140139AD0030818E885954B67
:10100000988B0C9908439883988B159EB0439883CE
:10101000E88D9043E885988B4021884398838D4ADA
:10102000908B03210E910843908329882023194334
:101030004020C04301402980118C15931943014081
:101040001184E18A80220B9211430140E182218EBA
:10105000FF2291432186218F31431822914321871A
:10106000218FA0220A430240228781480680A0885F
:1010700080490140A1808048139D457028047F4924
:101080000860FFF7E7FE022010905DF7DBFB3246B9
:101090007B4E3068C1B20C20AA29014600D011460F
:1010A0002288824388182080C046C0467548008840
:1010B000714908857448006848622846C046C046A1
:1010C000724800907248021D724D7349734B284656
:1010D0005CF798F86420295A0029049900D1295214
:1010E0006621685A0028644A06D13068C0B2AA282E
:1010F0000B9800D06E206852139909020F91D0818D
:1011000015465BF779FF7F20A870B0696049C86019
:10111000E81C891C5DF77AFC6148006861498842D7
:1011200000D089E0604861495AF7B1F81698010289
:101130005F485AF7ACF8FFF73FF85E485E49016038
:101140005E485F49302632465AF788F85D480025E8
:10115000C571857145710571C570857045703F21F8
:101160000A910170584859A1402214925AF776F812
:101170006648C5718571139A4271C0210171159934
:10118000C1708670457011990170614811950570A4
:101190006048614901606148614901606149624894
:1011A0000860624832210D91017061480760614812
:1011B00002606148076061481299016060481699B1
:1011C000016060480C9901600F9FB81D5E4908607E
:1011D0005E4908605E4D3448286000F043FB5BF7D1
:1011E00039FE5BF77DFE5BF797FE2D4800682D49C1
:1011F000884200D1C2E0286856498860244EF068D1
:101200003072010EF172010CB172000A7072384630
:10121000C03051490A46002800D1A1E0401E435C7D
:1012200015782F460E9E3740194EF7193F7A5F40CA
:101230006F401770521CEEE700204849464A7B0277
:10124000984200D96EE743588350001DF7E7C04627
:101250000033005004030050FFC300005200005050
:10126000FFBF000000F0FFFFFFF90000FF0F0000CC
:1012700000020050FFF70000488CFC0780E200E00D
:10128000D07FF807D87FF807D47FF8070000000068
:10129000A025FC07C08BFC07A000FC070000000095
:1012A0009CB8FC076587341200A0FC07AC14000052
:1012B00000B9FC072CBAFC07BC1DFC07D0B9FC0721
:1012C00094BCF107ABB9FC075CBCFC0720008000B4
:1012D00000C0000000000400000028220000000000
:1012E0000000040000F7C3F77E00000030F007089C
:1012F00000000000000400000000000000000000EA
:10130000000000000000000000000000B3B9FC076E
:10131000CDB9FC0750B9FC072A17F20754B9FC07EE
:10132000E01EFC0758B9FC07E41DFC07AAB9FC073E
:101330005CB9FC0760B9FC0764B9FC0768B9FC0735
:101340006CB9FC0770B9FC0748B9FC0744B9FC0745
:101350004CB9FC0700020040888CFC0700B0FC0779
:1013600035462035E4491C2228465CF789FC28468E
:101370005BF7B6FEE148E2490160E24D286840F7BC
:1013800069FFE148119F0771C770139EB507286870
:101390000F9908432860FFF791FA304600F0EAFA07
:1013A000D948C770D94807700C26D949304657F735
:1013B000EEFD3046394657F71CFED348C770D34878
:1013C0000770FFF771FD0520FFF7D8F81399480261
:1013D00003900A9880020290C80312900F9FCD4894
:1013E00010301690CC48CD490818CD4940188008D7
:1013F000401E0A902089000600D48EE0286B1299C6
:10140000084200D089E0C0480088C00700D084E0CE
:1014100058F7A5F80026304600F0ACFAF348007AF9
:1014200004287AD1139800F0A5FA179617A804217A
:1014300049F74EFF0028ED4B6FD01398EF49086035
:1014400008680028FCD1E8695969884201D25E61C8
:101450003146411ACA095979182A01D800295CD0A5
:10146000002905D09869401C986100F007FB54E002
:101470005861E34908880890488807908888069052
:10148000C88805901996E048189018A8F349F44ABE
:101490005DF7C6FB04981730D94B19890140EE4A15
:1014A000518159890140EC4881811889029E304060
:1014B0000399084318815889304008435881E74808
:1014C00000885DF7C1FCE44A09905389CC48018942
:1014D0003140194301819389418931401943418148
:1014E00091787F290ED00998431A59B2C9114B40FF
:1014F000591A49B2082907DB9169491C916100F02A
:10150000BDFAD54A09989070BD480799418006995F
:1015100081800599C18008990180FFF7E1F90028D1
:1015200000D167E772B617A9119A0A70B14800791D
:101530000228104602D0AE480068406A18901698FB
:10154000B24A5DF739FD002830D1B148806A0028E1
:1015500003D0A7480068406A189000F011FB18A952
:1015600016985DF75FFD002820D14BF7ABFD0028F2
:1015700019D04AF7AFFA002815D018A85DF774FD06
:10158000002813D101205CF713F8189A002A00D123
:10159000AEE0286A9F494018DA2800D9C2E0521EFE
:1015A00009921892BFE017A80021017092480078B4
:1015B0000128109800D00E9817A90978042900D0A6
:1015C0000846811E022929D2218A0426314321821C
:1015D00002282BD003284BD18A4908683043086081
:1015E00080490889139FB8430881608AB0436082AC
:1015F000FFF730FC608A1021014361820A988B4911
:101600000860EFF3108087F3108821880B9A9143CC
:101610002180002818D087F3108818E0012865D1B0
:10162000FFF75EF9002861D030BF5FE075490868B8
:10163000304308606B490889139A90430881608A97
:1016400010218843608211E0002080F31088608DB3
:101650000F9F38420AD00020D149C8700B205BF799
:10166000D9FF6149C88D139A1043C8850020208393
:10167000608D384206D15C490888149A1043159A47
:10168000904308805749088C149A1043159A904348
:101690000884A08C139FB843A0840D20FEF7A4FFFC
:1016A0006089384302218843608160894006FCD507
:1016B0000D986080A08AC00602D549480C99018027
:1016C00030BFA08A484A1088159B18431499C94313
:1016D00008401080434A108C18430840108400F0E2
:1016E000C1F848490868B04308600F9F62B681E6B8
:1016F0000020099017E0C046888CFC079CB8FC07C6
:10170000658734124CB9FC0720BAFC0780BAFC0785
:10171000301CFC07A025FC07401F00005001FC07FF
:10172000030004F80992D34B7C4E1A46188A71695B
:101730000818B061E86B384B18400843E863E86B61
:1017400036490840F16989020143E96317A8042179
:101750000170E86B32490840B16949050818E8632F
:101760003048099B83423AD2906BD16B1A460023D2
:1017700059F724FD0903000D4118F069821C8A42C3
:1017800000D0481E1B4909794A1E914146F708FFBF
:101790002548C06A80471299286B0842FCD0ED4A60
:1017A00010683842FCD010680B99884310600C48D0
:1017B0004089452805D84621094A5181081AEE4931
:1017C000086240F782FDE34A9068EB49C8611068FF
:1017D0000006FCD520890B9988432081E6E6FEE7C8
:1017E000003300500403005052000050488CFC07A6
:1017F00058B9FC0720BAFC0780BAFC07FC0000407F
:101800000015005010ED00E0010400002109FC0764
:101810001CBEFC07C8FEFFFF00FCFFFFFF03E0FF4C
:10182000FFFF1F0040420F0000BFFC072000F4072D
:1018300080B5E9480379EB484168E64800225BF748
:1018400063FE80BD80B5E4480379E648011DE148A8
:1018500000225BF725FE80BD488CFC07A025FC0715
:10186000C08BFC07F8B5DC48C278DE48811C1B2021
:101870005BF728FF2A480021016008200B21032480
:10188000224640F713FF274FB87D5BF7ABFF264B8F
:10189000002826D0B87D797DBA798A4202D1FA79BA
:1018A00082421ED0BA788A4202D1FA78824218D097
:1018B000FA7A8A4202D13A7B824212D03A7C8A4238
:1018C00002D1797C81420CD001251D8000210A467D
:1018D000FEF719FFF97D481E8141B87D2A465CF765
:1018E00075F8F878250202223C46104F2946B84781
:1018F000E0790026012431462246B8470948007B9A
:1019000014222946B8470748407C13223146B8477D
:101910000549888920438881F8BDC046A025FC0779
:10192000000008401001FC07000300500707FC07F7
:1019300003480188034A11408918091D0180704736
:1019400012000050FC7F0000B0B504460120084D95
:10195000C0070BD0E88A5EF75DF9002803D08268E3
:1019600028462146904718350020F1E7B0BDC04613
:101970002C8CFC0780B5014697480278012A0ED1CD
:10198000084A002903D011884907FCD402E01188D5
:10199000490704D40021017030305BF7D7FA80BDCD
:1019A000488CFC070016005070470000F0B58BB063
:1019B0003022002181541F221204244B1D689543BC
:1019C00001246204AA181A60224B234D4561234D5D
:1019D000234E244F244AC261066243621C4A82623B
:1019E000C562224A07604260E0045A4A1368834392
:1019F0001360282903D001A84154491CF9E71C4869
:101A00000068403001A9282259F728FC724D0920AE
:101A100028715DF7E5FDFFF715FFFFF709FF00F0FF
:101A20009DF85DF71BFE5DF72DFE5DF79FFD6C7168
:101A30001148008807210140E971FEF777FD2F4822
:101A40005DF75EFE5DF7E2FD0BB0F0BD7400004097
:101A5000A51AFC07A11AFC07051BFC0741F6F107B4
:101A60006D07FC07011BFC071DF6F107A919FC0710
:101A70004CB9FC07488CFC07B810004080B55DF7F6
:101A8000AFFDFFF7D5FE00F069F85DF7E7FDFEF763
:101A90004DFD1A485DF714FE5DF7B8FD80BDC046E8
:101AA000002070477047000080B51F20000401210E
:101AB0008A07536F8343480418185067106807213A
:101AC000884310600C48018808220A4302805DF7B1
:101AD00087FDFFF7B7FEFFF7ABFE00F03FF85DF7BD
:101AE000BDFD5DF7CFFD05485DF7FAFD5DF78EFDA5
:101AF0000520FEF743FD80BD0800005070A0FC07E4
:101B000070470000022901D0012904D1002803D028
:101B1000FF2805D0FEE7FEE7022901D10C2070471F
:101B20002D4800797047C04680B50A480168C9074A
:101B300003D0016802220A4302600168490204D509
:101B40000121890502680A43026003485DF71CFA17
:101B500080BDC04600020040401CFC0780B55DF718
:101B6000ABFAC12040011C4909790906081803494C
:101B700008605DF71BFB80BD488CFC07001000402F
:101B8000F8B5642013490E5A134F3C6B304660433E
:101B900012494018124959F7E7FA054638823C368F
:101BA00066430E4830180E4959F7DEFA001D0D49FC
:101BB00048612818C01DC8610B4A1278022A01D159
:101BC0001130C861FFF782F90849401880B257F711
:101BD00057FDF8BDC08BFC07488CFC0720A107000F
:101BE00040420F00A025FC0780BAFC07E204000079
:101BF000024801880122914301807047041100507E
:101C000002E008C8121F08C1002AFAD170477047C5
:101C1000002001E001C1121F002AFBD17047000023
:101C200080B502485AF734FE80BDC046A000FC07CC
:101C300000000000AC1DFC07448CFC070200010002
:101C400080000000230CFC07020000002F0CFC07A2
:101C500008000000050CFC0700010000190CFC073F
:101C600000020000F5B0F00740000000FD82F00720
:101C7000100000007F6FF00704000000390CFC0723
:101C800001000000ED0BFC0720000000010CFC0728
:101C9000000000000000000000280000010000001B
:101CA0000000000003280000010000000200000006
:101CB000292A0000010000008080000003280000A5
:101CC0000100000004000000242A000001000000C0
:101CD00080800000032800000100000006000000D2
:101CE000252A000001000000808000000328000079
:101CF0000100000008000000272A00000100000089
:101D00008080000003280000010000000A0000009D
:101D1000262A000001000000808000000328000047
:101D2000010000000C000000282A00000100000053
:101D30008080000003280000010000000E00000069
:101D4000232A000001000000088000000328000092
:101D500001000000100000002A2A0000010000001D
:101D600008800000032800000100000012000000AD
:101D7000502A00000100000007800000841DFC07BD
:101D800003000000001400006D0AFC07130C0000A3
:101D9000750DFC0703140000350BFC078D09FC07CB
:101DA0006509FC076309FC076109FC07B41DFC0712
:101DB00001000000FFFF00007D0CFC070000000098
:101DC00000000000F4011100F4352348F40108C4B8
:101DD000140A000014000000650AFC07FF00000060
:101DE0000000000005000000D02CFC0700040000EB
:101DF0009490FC0764020000888CFC07000400003B
:101E00000493FC07700500002003000000A60E00EC
:101E100005000000D2000000320000003C0000007D
:101E200001000000010000000200000002000000AC
:101E30000400000003000000060000000000000095
:101E4000020000000200000000000000000000008E
:101E50000300000003000000050000000500000072
:101E6000060000000A0000000A000000C800000090
:101E7000B80B000002000000B80B0000B80B000017
:101E800010000000D4010000CC010000700200002E
:101E90006A000000040000000100000020000000B3
:101EA0000A00000001000000E20400008A020000B5
:101EB000DC050000AF0000005820FC07D01EFC0726
:101EC000000000006020FC0700000000000000008F
:101ED000A8B8FC07A0B8FC07B8B8FC07F8B8FC071E
:101EE000AD19FC07A91AFC0727B6F00785B6F0075D
:101EF0008DB6F007DDB6F007F5B6F0070BB7F007C3
:101F00002DB7F007ADBAF00751BDF00791BBF00750
:101F1000B1BBF007D1BBF0070FBCF0071FBCF00747
:101F200079D0F00735CEF00753CEF0076FCEF0072B
:101F300089CEF0079DCEF0071BCFF00733CFF00717
:101F40007B8FF1070392F107F797F0076DCDF1074B
:101F500051CEF1074DCEF10749CEF1078D21F007A3
:101F60003119FC07690EFC07A90EFC07FD0EFC07E2
:101F7000F50EFC07BB70F007896FF0072970F007BA
:101F8000F965F1070122F10769F9F107E9F9F107AC
:101F90004919FC07C9FAF1073108FC074B08FC078F
:101FA000000000003B09FC073D09FC079BA1F0076E
:101FB000595AF107C760F107FD64F107FD63F107A6
:101FC000D736F1076545F1075DF9F0070DDBF0073E
:101FD0003909FC0785AAF007599AF007D19AF0074A
:101FE0008D9BF007CF2DF007892EF0071D73F007AA
:101FF000E771F0078536F007000000003F09FC0795
:102000004709FC076508FC07A785F1071B86F10750
:102010009F86F1077D08FC0700000000000000001B
:1020200000000000000000000000000000000000B0
:1020300000000000000000000000000000000000A0
:102040000000000000000000000000000000000090
:102050000000000000000000C41DFC076C8CFC07A1
:10206000D41DFC072C8CFC07010000009020FC070D
:102070009020FC07400C0000101CFC07C08BFC07E4
:10208000C08BFC07C8000000101CFC07E00100002A
:0400000507FC0151A2
:00000001FF
