:0200000407FCF7
:100000001864FC079101FC079901FC07B101FC078A
:1000100000000000000000000000000000000000E0
:10002000000000000000000000000000C901FC0703
:100030000000000000000000CB01FC072123FC07AA
:10004000512CFC07C72CFC07A526F0071725FC0739
:10005000132BFC07CF01FC073F21FC07CF01FC0756
:10006000CF01FC07CF01FC079B1CFC07A51CFC076C
:10007000AF1CFC07B91CFC07C31CFC07CF01FC0725
:100080004B1DFC07CF01FC07CF01FC07CF01FC078C
:10009000CF01FC07CF01FC07CF01FC07CF01FC0714
:0200000407FCF7
:100110000348854604F018FF00480047C505FC0762
:100120001864FC07002815DBC206D20E012191409D
:10013000154A116000BF00BF00BFBFF34F8F00BF63
:1001400000BF00BF00BF00BF00BFBFF36F8F00BF85
:1001500000BF00BF704710B506200C4908800F2073
:10016000FFF7E0FF0120FFF7DDFF0020FFF7DAFFD8
:10017000052000074089042188430521090748819B
:100180000020088062B610BD80E100E0003400501D
:100190000F4880470F48004704207146084203D0AB
:1001A000EFF309800C490847EFF308800A49084734
:1001B00004207146084203D0EFF30980074908473D
:1001C000EFF3088005490847FEE7FEE7FEE7FEE794
:1001D0005701FC071101FC07B102FC07E101FC0714
:1001E00010B504462E484089FF2101310840001215
:1001F00000280BD01B2001F02AFC29486030008821
:1002000040084000401C26496031088000BF05209E
:100210000007408AFF2181318843052109070988A9
:100220000C2211408910C9010843052109074882A1
:1002300000BF1C492068086060684860A06888604A
:10024000E068C8602069086160694861A0698861E8
:10025000E069C861084604621348806A486212482F
:10026000C06A88621048006BC8620F48C06B0863A0
:100270000D48406B48630C48806B886300BF0820C2
:100280000A49088000BF05200007808A1021084025
:10029000102801D100BE01E000BFFEE710BD000044
:1002A000200000500090FC0700ED00E000330050FB
:1002B00010B5044605200007008A04218843001D6C
:1002C00005210907088208460089402188434030FB
:1002D0000521090708810020002805DBC206D20E8F
:1002E00001219140364A116000BF00BF0820354906
:1002F000088000BF34484089FF21013108400012C6
:1003000000280BD01B2001F0A2FB2F486030008892
:1003100040084000401C2C496031088000BF052087
:100320000007408AFF218131884305210907098898
:100330000C2211408910C901084305210907488290
:1003400000BF22492068086160684861A068886130
:10035000E068C8612069086260694862A0698862D3
:10036000E069C862084604631948806A486318480F
:10037000C06A88631648006BC8631548C06B134990
:10038000403108601248406B48601148806B8860BB
:1003900005200007808A10210840102801D100BEE6
:1003A00001E000BFFEE705200007408A80088000CA
:1003B0000121C903084305210907488210BD000037
:1003C00080E200E000330050200000504090FC0725
:1003D00000ED00E070B505460C461646012D18D11B
:1003E00006220F490F485EF7B7F9002808D0062209
:1003F0000C4930465EF78CF906202070002070BD55
:100400000622094930465EF783F906202070002055
:10041000F5E732462146284660F718F8EFE7000076
:10042000CA4FFC072C8CFC07BE4FFC077CB5054669
:10043000019500BF05200007008A04218843001DA4
:1004400005210907088200BF01ACF84800690028AF
:1004500004D02078F54A11698847207000BF6846AB
:10046000007900F050F968460479F04840690028A6
:1004700003D0EE4841692046884700BFEC484089D8
:10048000FF21013108400012002808D1E84820303F
:10049000408A602188434030E54920314882E54860
:1004A0008088602188434030E24988806946087925
:1004B000022801D0032828D1052109074988DE4AEE
:1004C0001180DB49898849084900D94A9180002177
:1004D000009102E00099491C009100991429F9DB70
:1004E00005210907498989088900491C0522120745
:1004F000518100BF05210907498940221140002987
:10050000F8D0002105221207518000BF7CBD38B50C
:100510003AE05CF77EFA002400BFC8480068AA28C9
:1005200000D100BF0120002802D0204600F0A8FA28
:1005300000BFC3480078042818D1012400BFBF4879
:100540000068AA2800D100BF0120002802D0204660
:1005500000F096FA00BF00200090042168464CF796
:1005600095FF002801D000F0DFFB00BF00BFAF48BF
:100570004068002803D0AD494868804700E000206B
:10058000002800D000E01BE000BF05200007008924
:1005900080210840C01100280FD0C805006B090257
:1005A0000840C00B002808D100BFA6480078C0074B
:1005B000C00F002801D1012000E000200028A8D1B0
:1005C00000BF38BD00F0EFF800F0D4FC5AE000BFE7
:1005D000FFF79DFF00BF95488068002803D093492E
:1005E0008868804700E000200028F1D100BF00BFEC
:1005F00072B600BF8D48C068002802D08B49C86819
:10060000804700BF00BF02F094FC0546042D06D1D0
:100610008D480078012801D1022500E003252C46F1
:1006200000BF022C01D0032C20D12046FFF7FEFE94
:1006300005200007808A10210840102805D100BF3E
:1006400008208249088000BF00BF30BF0520000796
:10065000808A10210840102805D100BF08207B495E
:10066000488000BF00BF00F00EF804E0012C02D16A
:1006700000BF00BF30BF62B600BFC8207449088009
:1006800000BF00BFA3E710B569484089FF210131D1
:100690000840001200280FD1654860300088C0076C
:1006A000C00F002808D062482030408A602188436B
:1006B00020305F49203148825E488088602188432D
:1006C00020305C49888063480078002809D062485F
:1006D0000068008982B260480068416803205BF7C7
:1006E000E3FB04F049FA00BF50488069002802D0BB
:1006F0004E498869804700BF5848006904218843F3
:100700005649086110BD70B50446022C01D0032C77
:1007100048D1002551480069042108434F49086128
:100720004448203880894008400042492039888167
:10073000022C0AD105200007408A10218843052198
:10074000090748824648057818E005200007408AD6
:100750001021884310300521090748820846408A45
:1007600004218843001D0521090748823C4805787B
:100770003C490968C91C880800F08CF803205BF725
:10078000B9FB002805D13349087037480078054087
:1007900002E001202F49087000BF052000070583F3
:1007A00000BF00BF70BD00BF30483149884201D34F
:1007B000C52105E02F49884201D3C12100E0C021B5
:1007C0002D48017000BF2D482D494018254908606B
:1007D0000846006801218903884201D8D42000E03E
:1007E000C0202549097808401D49087000BF2548E8
:1007F00025491F4A904201D3C52248E01D4A904234
:1008000007D342181A4B9A4201D2D1223FE0C122AB
:100810003DE04218174B9A4201D2D42237E04218E9
:10082000134B9A4232D2D02231E00000D84FFC075D
:100830002000005020030050F88BFC070C8CFC07B4
:10084000688DFC074CBAFC07ACBAFC0700330050BB
:1008500000310050F78BFC0758B9FC0700ED00E0B1
:10086000F58BFC07F08BFC07F48BFC07F08BFC0787
:100870000070FC070040FC07F68BFC07100100002D
:10088000805C00004C64FC070C040000C02224487B
:100890000270704710B5044601F0B9FE052000074C
:1008A000408A102188431030052109074882601EC4
:1008B0001C49086200BF00BF00BF00BFEFF31080FB
:1008C0000146012080F3108800BF05200007008842
:1008D00080229043052212071080002904D10020B5
:1008E00080F3108800BF04E0012080F3108800BF6F
:1008F00000BF00BF00BF0C484089FF210131084004
:10090000001200280BD00B2001F0A1F8064860303F
:10091000008840084000401C03496031088010BD39
:10092000F48BFC070000F407200000507047F8B576
:1009300006460D461746002406E000BF41F7DFFFDC
:10094000C0B22855601CC4B2202CF6DB0020F8BDD4
:1009500010B55DF7CBFE10BD10B5044620465DF71F
:10096000CEFE10BD704770477047014600BF084A71
:10097000914200D000BE00BF05221207508A8008B5
:1009800080000122D20310430522120750827047D3
:100990001111111134480078002804D1334908702E
:1009A0003349C87002E080203249087070472E49F0
:1009B000097800290AD1002801D0022100E0012194
:1009C0002A4A117001212A4AD17008E0002801D07A
:1009D000022100E0012180221143264A1170704754
:1009E00000B50346002B04D0012B05D0022B0BD100
:1009F00006E0FFF7CFFF08E00020FFF7D8FF04E094
:100A00000120FFF7D4FF00E000BF00BF00BD1A487F
:100A100000787047002100BF00BFEFF3108002464E
:100A2000012080F3108800BF052000070089802383
:100A30001840C011002807D1104800894008400024
:100A4000401C0E4B18810121002A04D1002080F3A4
:100A5000108800BF04E0012080F3108800BF00BFB1
:100A600000BF084670470000FA8BFC07ACBAFC07D1
:100A70004CBAFC07FB8BFC07FD8BFC0700330050D6
:100A8000F8B50546F8480078002833D000BF002D9F
:100A900008D000BFF54800880421084080100028D5
:100AA000F8D107E0F14800880421084080100028B0
:100AB00000D0F8BDED48C68887883004C4190020EE
:100AC000E9490870EA486043800B401C4008E94946
:100AD0000860224600231F204006492162F763FC7C
:100AE000E54A03C2E448006864214843000CE34936
:100AF000086000BF00BFDCE7DC494880098889083E
:100B00008900C91CD94A11801146098804229143E1
:100B1000091DD64A11800121D34A11707047AA20BD
:100B2000D7490860704710B50520000700893021BB
:100B300088430521090708810846008980218843E8
:100B4000803005210907088108460089082188436B
:100B50000830052109070881CA480088400840007C
:100B6000C8490880052000074089182188430521CD
:100B70000907488108460089402188434030052103
:100B8000090708810846008A0421884305210907CE
:100B9000088200BF05200007808A02210840002843
:100BA000F8D0FFF7BCFF00BFB5480068002800D1AF
:100BB00000BF0020002825D0B348808880218843CA
:100BC0008030B1498880AF48408840084000401CD0
:100BD000AC49488008464088782188432830A94994
:100BE00048800846408806218843801DA5494880E2
:100BF0000520000740891821884310300521090786
:100C000048812BE000BF9E480068AA2800D100BFA1
:100C1000012000281FD09B48C0880F21090288436B
:100C20000521490240189749C8800846C0884008F5
:100C30004000401CC88005200007408918218843D7
:100C400008300521090748818E4840884008400047
:100C50008C49488002E000BF00BE00BF05200007AD
:100C60000089402188430521090708818800006820
:100C7000FF210131884389050860844800683F21CD
:100C80004902884301214903401880490860084609
:100C900000680903884340187C49086010BDF8B516
:100CA000044600270120C00384420BD3204671492B
:100CB000096804F05BF905460E46B205A80A104320
:100CC000074603E06B4800686043870A3846F8BD72
:100CD00070B50446002500BF69480068002800D1AF
:100CE00000BF0020002804D0204648F7DCFA054663
:100CF0000CE000BF62480068AA2800D100BF0120B4
:100D0000002803D02046FFF7CAFF0546284670BDDD
:100D100010B55F480068FFF7DBFF5E49401804B27A
:100D2000A0B25BF707FF10BDF0B585B000BF012092
:100D30005949C86300BF00BF00BF00BF5648C06B21
:100D40000028FAD100BF01208007C46900BF5348C2
:100D50000068844202D20020504908604F48006871
:100D6000201A1921C901884232D34C4804604C48EA
:100D70000788408804904A48808803904848C08883
:100D80000290484903C901910090684601F09DF91D
:100D900001F021FA064644480078301A45B2002D89
:100DA00001DA684245B2082D08DB40480068401C63
:100DB0003E49086002F022FF3B4806703848078031
:100DC000374904984880039888800298C88000BFFB
:100DD00005B0F0BD70B50446002528490968614397
:100DE000334A881851005DF719FC0546284670BD46
:100DF00070B50446002500BF21480068002800D1D6
:100E000000BF0020002804D0204648F739FA0546E4
:100E10000CE000BF1A480068AA2800D100BF0120DA
:100E2000002803D02046FFF7D5FF0546284670BDB1
:100E3000002220480078002844D000BF0121164B32
:100E4000D96300BF00BF00BF00BF1349C96B0029B1
:100E5000FAD100BF01218907C86900BF1649096896
:100E600088422BD201222CE0148CFC070016005083
:100E700011110100188CFC07208CFC07108CFC075A
:100E80000C8CFC07200000502003005000020040A2
:100E9000588CFC07E2040000C0000040088CFC07EE
:100EA00000150050A852FC07018CFC07048CFC07BD
:100EB00020A10700008CFC07885DFC070021FE4B89
:100EC000197000BF104670470020704710B5FB48EE
:100ED00000210160FFF71CFF002001218907096B39
:100EE00049004908C207114301229207116300BF5C
:100EF00010BD08B5F249898849084900F04A918037
:100F00000021009102E00099491C009100991429E8
:100F1000F9DB05210907498989088900491C05224F
:100F20001207518100BF052109074989402211405C
:100F30000029F8D00521090748800021009102E02E
:100F40000099491C0091E122D20000999142F7DBFF
:100F5000052109074989890889000522120751815D
:100F600000BF052109074989802211400029F8D0D6
:100F700008BD7047F8B5002000BFC821D14A1180D4
:100F800000BF1146488000BF0821CF4A518000BFF2
:100F900000BF00F0AFFDCD48818800916846008811
:100FA000FFF7E7FF6846008804218843002806D140
:100FB000C648008A40084000C449088202E0002078
:100FC000C2498880C148203000880F2189028843A7
:100FD0004018BE4920310880B9482030408A082195
:100FE00088430830B64920314882B54860300088CF
:100FF00006218843B24960310880B4482030008817
:10100000C90188434018B14920310880AC482030DC
:10101000408A012189038843A94920314882084632
:10102000808A0E218843801DA54920318882A448EA
:101030004089FF2101310840001200282FD0A0482C
:10104000603000880F21090288430121890240187D
:101050009B4960310880084600880F2109038843B6
:101060000121C90340189649603108809748203013
:1010700000880821884308309449203108800846B8
:101080000088042188439149203108808C486030D1
:101090000088400840008A49603108803DE0884867
:1010A000603000880F21090288430321490240185B
:1010B000834960310880084600880F21090388436E
:1010C00040187F496031088080482030008808211E
:1010D00088437E49203108800846008804218843DF
:1010E0007A492031088076482030808A03214902DD
:1010F00088437349203188827148603000884008F5
:101100004000401C6E496031088000BF6C48408937
:101110000421084080100028F8D06C482030008856
:1011200080088000C01C6949203108806448203054
:10113000408A6021884320306149203148826348D9
:1011400020308088602188432030604920318880A9
:1011500001205949087005200007C08AC021884332
:10116000803005210907C8825548008A000A00021C
:10117000534908820846008B1C2188430830504997
:101180000883042052490880052000078088012137
:10119000C90288430521090788801020002805DB43
:1011A000C206D20E012191404A4A116000BF01F0EF
:1011B0002EFA022001F0D9F947480069C0B2AA28E6
:1011C00001D1032000E0012005462846052109073A
:1011D00009880C22914382001143052212071180D5
:1011E00000BF3E4800F0CCFB00F0A0F900BF00F0CB
:1011F0007BFB00280CD138480069C0B2AA2803D173
:101200008020FFF776FE08E06E20FFF772FE04E014
:10121000052109074888FFF76CFE00BF01F064FA5A
:1012200000F0A6F803F0A8FC0126304641F76DFB5C
:1012300000BFFFF778FC2A48006841F70BF8002050
:101240002849C8700871B007006831028843401807
:101250008905086001F027F800BF00BF2248006838
:10126000AA2800D100BF0120002805D01E20FFF7CA
:1012700043FC0120FFF704FC00BFFFF78BFB03F0EA
:1012800009F81A480068002802D018490868804701
:10129000FFF71CFE00F02BFB04462046FFF7A8FDDD
:1012A0001349088020463C30FFF7A2FD001D11497C
:1012B00008600F4800881FE0008CFC07A8B9FC07F5
:1012C0002000005000310050003300500003005057
:1012D0000002005080E200E0C07FF8072C8CFC0781
:1012E0004CB9FC074CBAFC070C8CFC078052FC077D
:1012F000568CFC075C8CFC07C01D09684018174918
:1013000008601748007802281CD100BF1548006803
:10131000AA2800D100BF0120002805D00F4800688E
:1013200011300E4908600DE000BF0E48006800282B
:1013300000D100BF0020002804D0084800683230E7
:101340000649086000BFC8200749088000BF00BFE9
:1013500008200649488000BFF8BD0000588CFC07F3
:10136000ACBAFC070C8CFC07003100500033005075
:101370007CB54A4C01256D03A908481E02E00021F6
:1013800002C4401E0028FADA03F0C7FD00204449D9
:1013900008803022434944485DF7BAF9434903C9FC
:1013A000019100900822694641485DF7B1F900209B
:1013B0004049087040484149086041484149086037
:1013C0004148424908600A204149087000204149CB
:1013D000087032204049087005204049086001200B
:1013E0003F49086005203F49086008460068401CE6
:1013F0003D49086008460068401C3C4908600846B2
:101400000068401C3A490860FF20073039490860ED
:101410003949086000BF31480068052837D1304895
:101420000068012833D12D4800682D49096840180B
:10143000C01C314909684843304940183049884246
:1014400025D126480068264909684018C01C2A4949
:10145000096848432949401826490968C9004018C5
:101460002849884213D11D4800681D490968401861
:10147000C01C214909684843204940181D49096892
:10148000C9004018801D1F49891D884200D000BE38
:1014900000BF02481C4908607CBD000000A0FC079A
:1014A000648CFC07B4F2F10700BAFC07B452FC07E5
:1014B000DAB9FC07FDB9FC07603FF20750B9FC0739
:1014C0000050FC0754B9FC077C51FC0758B9FC07D5
:1014D000B0B9FC07B1B9FC07D9B9FC075CB9FC0786
:1014E00060B9FC0764B9FC0768B9FC076CB9FC0774
:1014F00070B9FC0748B9FC0744B9FC073E0300007B
:10150000740C0000A41400004CB9FC070246881AB1
:101510008B1A1B049B0CC018401C00B2704702467B
:10152000D0001018401A00B2C0107047F0B587B054
:10153000002400250021EF48017641760026EE4880
:101540000069EE49884202D0C81707B0F0BD241DDB
:1015500007E1E94840382018006D06900698000F12
:1015600000070921090788427ED10698C7B2FF21EA
:10157000090206980840050A112F4AD007DC3B00F3
:101580005DF71AF908AB0E0FAB10AB112CAB384658
:10159000123803005DF710F906567183A18B93A1F1
:1015A00000BF00BF9AE0AA00D34810302018011DE8
:1015B000D048007EC000CF4B403BC01801905DF783
:1015C000A7F8CC48007E4019C1B2CA48017600BFD6
:1015D000007E042800DD00BE00BF7FE0AA00C648F0
:1015E00010302018011DC348407EC300C148303868
:1015F000181801905DF78CF8BE48407E4019C1B2C2
:10160000BC48417600BF407E0C2800DD00BE00BF14
:1016100064E0B94810302018406880B20190B648A4
:10162000103020184068000C009000990198FFF7D6
:101630006DFFB049888000990198FFF770FFAD49B0
:10164000C8804BE0AC4810302018406880B2019050
:10165000A948103020184068000C009000990198AB
:10166000FFF754FFA34900E03DE00881009901988D
:10167000FFF755FF9F49488130E0AA009E4810308F
:101680002018011DB00004ABC01801905DF740F8B0
:10169000761900BF022E00D900BE00BF1EE096489A
:1016A00010302018406881B29248418216E092487A
:1016B0001030201840688F49403908640EE08E4889
:1016C00010302018406881B28A48818200BF808A29
:1016D000002800D100BE00BF00E000BF00BFA9008D
:1016E000201D0C183DE001218907069888420CD383
:1016F00083490698884208D8083482490698884267
:101700002FD10120804908702BE00698000F0007B8
:1017100007210907884201D1241D22E00698000F05
:1017200000070121C907884201D1241D19E006984C
:10173000000F000705214907884201D1241D10E050
:101740000698000F000703214907884201D1241D94
:1017500007E00698401C002800D109E000BF00BE49
:1017600000BF6548103020186849884200D2F0E672
:1017700000BF049881B25F488181059880B20390D0
:101780000598000C029002990398FFF7BFFE594993
:10179000C88102990398FFF7C2FE5649088200BF2C
:1017A0000846007EC007C00F002800D000BE00BF62
:1017B0005048007E41104F48017600BF407EC00770
:1017C000C00F002800D000BE00BF4A48407E411034
:1017D00048484176808A002803D17D21C9004548C8
:1017E000818200BF4348407E042800D000BE00BF75
:1017F0000020AAE610B500243BE0E0003D49403956
:1018000008584349884228D1E0003A4940394018F5
:101810004068C001400C00281FD002F00EFA0928D1
:101820001BDDE000334940394018406803210902BC
:101830000840E1002F4A403A891889880904890E36
:101840000843E10051580860E00011464018406824
:10185000C001C00D2F4908600AE0E0002549403969
:1018600040184068E100234A403A5158086000BFE0
:10187000641C2048007EA042BFDC10BD10B50024CF
:1018800027E0E1001B48303840582349884214D1F2
:1018900002F0D3F9092810DDE100164830380818A5
:1018A00040681E4908401B49098849040843E20072
:1018B00010493039895808600AE0E1000D48303895
:1018C0000818E20041680B4830388058016000BFBA
:1018D000641C0848407EA042D3DC10BD05488089C6
:1018E00070470448408A70470748007870470148AD
:1018F000808A7047A88CFC07C07EF807A5A5A5A51F
:101900004C42005002000050905DFC07C07FF80779
:101910004C100040945DFC0738300040FFFF01FC94
:1019200002480421415E084670470000A88CFC076D
:1019300002480621415E084670470000A88CFC075B
:1019400002480821415E084670470000A88CFC0749
:1019500002480A21415E084670470000A88CFC0737
:1019600002480E21415E084670470000A88CFC0723
:1019700002481021415E084670470000A88CFC0711
:1019800010B504460622024920465CF7C1FE10BD90
:10199000D47FF807052000070088302188433030C5
:1019A0000521090708800846008880088000C01CBF
:1019B00008807047052000070088302188430521F2
:1019C0000907088008460088800880000880704762
:1019D0004449098B03221202914302021143414AF6
:1019E000118370474049898A032252029143C210F1
:1019F000520211433C4A91821146898A0722D2023F
:101A000091434207920C1143374A91823649403143
:101A1000098849084900491C334A4032118000BFF7
:101A20003149203949894907C90F0029F8D0704741
:101A30002D48808A0321490208404012C1002A48EB
:101A4000808A0722D2021040C01208187047264927
:101A5000898A032252029143C21052021143224A40
:101A600091821146898A0722D20291434207920C41
:101A700011431D4A9182704710B504461A48203818
:101A80004089FF21013108400012002801D1801E49
:101A900010BD00F0A6FD002806D0FFF7C9FFA04248
:101AA00002DD0020C043F3E70F48408A012109030B
:101AB0000840001300280AD10C480088082108407B
:101AC000C010002803D1082C01DA401FE0E70848C5
:101AD00004700120064948702046FFF783FF00206C
:101AE000D6E7000020300050400000502003005096
:101AF000985DFC07FEB50020029014E000200190E4
:101B00000BE00021302202985043704A8018019A5D
:101B1000920081500198401C019001980C28F0DB44
:101B20000298401C029002980128E7DB03F022F89B
:101B300000BF67480068002800D100BF00200128CE
:101B40000AD100BF6148C068002803D15F4800691E
:101B5000002800D000BE00BF00215E4A1160516025
:101B6000002002904EE00020019044E00120019905
:101B7000884080B20090029840005749085A009966
:101B80000840002800D139E03021029848434F49ED
:101B90004018019989004058401C002800D100BE1F
:101BA000302102984843494940180199890040581A
:101BB000002800D11CE030210298484343494018D6
:101BC000019989004458E51720462946019A5CF797
:101BD000E3FD029A120106460F465CF7DDFD3D4B20
:101BE0001A685B68104319433A4A1060516000BF9D
:101BF0000198401C019001980C28B7DB00BF0298A7
:101C0000401C029002980128ADDBFEBD0146002970
:101C10000BD04A1E4A40D203110C002002E04910AA
:101C2000421C90B20029FAD100E01020704710B594
:101C3000044621460A3901228A4090B2FFF7E6FFA6
:101C40000146012088402549C98922460A3A0123D4
:101C50009340994308432149C88110BD70B504469B
:101C60000E2C19DC0A2C17DB2046FFF7E0FF20467C
:101C70000A3880001A490D58002D01D0A8470AE003
:101C80002046002805DBC206D20E01219140154AEC
:101C9000116000BF00BF00BF70BD10B50A20FFF784
:101CA000DDFF10BD10B50B20FFF7D8FF10BD10B53C
:101CB0000C20FFF7D3FF10BD10B50D20FFF7CEFFAE
:101CC00010BD10B50E20FFF7C9FF10BDC88CFC0772
:101CD0000C8CFC07F88CFC07BC52FC07001400506D
:101CE000008DFC0780E200E05B480088C007C00F61
:101CF000002827D15948008880210840002821D198
:101D0000564800884900084000281BD110200028B0
:101D100015DBC206D20E01219140514A116000BF6D
:101D200000BF00BFBFF34F8F00BF00BF00BF00BFA9
:101D300000BF00BFBFF36F8F00BF00BF00BF00BF79
:101D4000002070470020C043FBE770B5FFF732FE6C
:101D50000520000780880121C9020840C012002820
:101D60002BD03D48008805210840052825D13A4858
:101D7000008804218843001D3749088008460088F0
:101D800040084000088037480068002862D000BF43
:101D90000846408804B200BF00BF0846808805B2EC
:101DA00000BF00BF0846408906B200BF3246294640
:101DB00020462C4B1B6898474CE005200007808884
:101DC00010210840001100281DD024488088C00739
:101DD000C00F002817D02148008880210840C0117A
:101DE000002810D001201D498880084600888021E5
:101DF00088431A4908801C48006800282AD01A48DD
:101E00000068804726E005200007808810210840F0
:101E1000001100281ED0114880880221084040107F
:101E2000002817D00D480088C9010840001200287A
:101E300010D002200949888008460088FF2101311E
:101E400088430649088009480068002802D00748EE
:101E50000068804770BD0000000200500001005083
:101E600080E100E0148DFC07188DFC071C8DFC0739
:101E7000002815DBC206D20E01219140ED4A116007
:101E800000BF00BF00BFBFF34F8F00BF00BF00BF48
:101E900000BF00BF00BFBFF36F8F00BF00BF00BF18
:101EA0007047E5480088012109038843E24908801A
:101EB0007047E14800880121090388434018DE4942
:101EC00008801920810001E000BF491E0029FBD1D4
:101ED00000BF7047D849C988C908C9000143D64A1C
:101EE000D1807047D449C9887022914302011143BF
:101EF000D14AD180704710B50446002C7ED020789E
:101F0000CD4909884022914382011143CA4A118078
:101F100000BF2078012803D16078FFF7E3FF02E0DB
:101F20006078FFF7D7FFE078012809D100BFC248E9
:101F3000008804218843001DBF49088000BF08E0D5
:101F400000BFBD48008804218843BB49088000BF0A
:101F500000BF2079B8498988FF221202914302020A
:101F60001143B54A918000BF00BF1046C088702160
:101F70000840001104285BD1FFF7B3FCAF4908808B
:101F800008460088002801D1AD480880FFF791FF7E
:101F900000BFA94800880121490288434018A6498A
:101FA000088000BF0120098840229143820111432B
:101FB000A14A118000BF00BF104640880421884319
:101FC000001D1146488000BF08464088072149038C
:101FD0008843114648800F2000BF00BF0F2800DD56
:101FE00000BE00BF944949880F2252029143420229
:101FF0001143914A518000BF062000E05CE000BF21
:1020000000BF072800DD00BE00BF8B494988FF22C2
:10201000C132914382011143874A518000BF0020A1
:1020200011464988890889000143518000BF43E077
:10203000FFF737FFA07800BF00BF0F2800DD00BE0C
:1020400000BF7D4949880F22520291434202114349
:10205000794A518000BF6079114649888908890012
:102060000143518000BFA07901280AD100BF10466A
:10207000008801214902884340181146088000BFAA
:1020800009E000BF6C4800880121490288436A4981
:10209000088000BF00BFE07900BF00BF072800DD57
:1020A00000BE00BF64494988FF22C13291438201CA
:1020B0001143614A518000BF10BD5F48008840084D
:1020C0004000401C5C490880704710B50446002061
:1020D0005949088021200001488040208880FFF76E
:1020E000FDFB55498881084680897021884340302E
:1020F000514988810620FFF7BBFE2046FFF7FBFE13
:10210000FFF7DBFF10BD4C48008802218843801C8C
:1021100049490880704700B5FFF7F5FF00BF00BFD1
:10212000454800880221084040100028F7D100BF30
:1021300001204149C88100BF0846008A00BD10B592
:1021400000BF01203C49C88100BF3E48006800280C
:1021500002D03C480068804710BDF8B507463648B5
:10216000408808210840C010002806D0FFF7F8FB7F
:102170000446FFF7FDFB054614E000BF2E4800882B
:10218000402108408011002806D0FFF7C9FB044613
:10219000FFF7CEFB054605E0FFF7D2FB0446FFF74D
:1021A000D7FB0546284AA1183A04D01B5CF736FA3B
:1021B0000646254AA1182A04501B5CF745FA361A30
:1021C0002248864201D90020F8BD1F48864200D926
:1021D000FAE7B0B2F8E7F8B5FFF795FF00BF00BF28
:1021E000154800880221084040100028F7D100BFA0
:1021F00001201149C88100BF0846058A2F460F48B3
:102200000088381A7D21C90048430446002C02DDAD
:102210000F48241803E0002C01DA0D48241A0D4958
:1022200020465CF711FA8011193046B200BF3046E3
:10223000F8BD000080E100E0001500509A5DFC0749
:1022400040760000208DFC07FFFF0000FEFF01002C
:102250002303000046060000F8B52D480488458891
:102260008688C7882B48FFF730FFFFF754FF8004AC
:10227000000E294908700620FFF734FEFFF74BFFD8
:102280008004000E244948700520FFF72BFEFFF75D
:1022900042FF8004000E204988701D48048045805C
:1022A0008680C780F8BDF8B500260121FF20C13027
:1022B00059F788FE0446FFF7CFFF00250EE0605D6A
:1022C00003215CF7C1F91448405CFF21C031491B70
:1022D000615C4840615D484060556D1CFF20C13025
:1022E0008542ECD31C2221460C485EF7D9F90646FC
:1022F00000BF002E00D000BE00BF204659F7DDFE13
:10230000064807683D46284640F7FFFA00BFF8BD7B
:1023100000150050BE52FC079C5DFC07A05DFC0749
:1023200010B504480068002802D0024800688047C1
:1023300010BD0000248DFC0770B504467848844227
:1023400001D0012000E0002040017649451823E03B
:1023500000BF2089C0210840C02801D1012000E031
:102360000020002808D000BF7C20005B022108402C
:102370004010002808D170BD00BFA08A202108406D
:102380004011002800D1F6E7EA88511CE98029684D
:10239000885C208000BF00BFE888A9888842D7DB1E
:1023A0000020A1880222914342001143A18000BF76
:1023B00000BFA18880229143C2011143A18000BFC8
:1023C0006869002802D0A8886969884700BFD2E7F9
:1023D00070B505465248854201D0012000E000203A
:1023E0004001504944180FE000BFA88AC007C00F41
:1023F000002808D000BF2888C0B2E289511CE181C2
:10240000A168885400E070BDE089A1898842EBDBB7
:102410000020A988490849000143A98000BFA0699C
:10242000002802D0E089A169884700BFEBE770B5BA
:1024300004463B48844201D0012000E000204001D6
:10244000384945182046FFF7C3FF0020A1884908F6
:1024500049000143A18000BFA869002802D0E88993
:10246000A969884770BD70B504462D48844201D0E3
:10247000012000E0002040012A4945182869002871
:1024800008D000BFA08A9E2108400646314620465B
:102490002A69904770BD70B505462148854201D034
:1024A000012000E0002040011E4944182069002856
:1024B00003D0012128462269904770BD70B50546BA
:1024C00000BF00BF28890407240F00BF062C18D0C6
:1024D00006DC012C0CD0022C0BD0042C19D10CE002
:1024E000072C12D00C2C14D12846FFF7A0FF11E0C6
:1024F00070BD2846FFF720FF0CE02846FFF768FF75
:1025000008E02846FFF7AFFF04E02846FFF7C3FFC7
:1025100000E000BFD5E710B50348FFF7CFFF10BDBF
:1025200000100050288DFC070011005010B5044623
:10253000FFF77EFAA04202DA2046FFF788FA9648B3
:102540000088C007C00F00280ED1934800884008BB
:102550004000401C9049088000BF8F486038408987
:102560004007C00F0028F8D010BD38B504468B488E
:1025700000684107490F00916846007884422FD0D7
:10258000854860384089FF21013108400012002849
:1025900014D0A01E03005CF70FF905040B06070515
:1025A0000F0000BF00BF00BF0B20FFF7BFFF04E01C
:1025B0001320FFF7BBFF00E000BF00BF77480068B3
:1025C000C008C00020437549086000BF00BF00BFBD
:1025D000724840680421084080080028F8D000BFF5
:1025E00038BD6F480078704700BF0521090709888A
:1025F00080221140C911002900D100BE00BF810016
:10260000684A5158654A116167495161704710B570
:1026100000BF00BFEFF310800446012000F0B9F8BE
:102620005D4860384089FF210131084000120028D0
:102630000BD001205A490870FFF7FAF95B4908707E
:1026400055480088C007C00F487005200007008863
:102650008021884380300521090708804F480068A1
:10266000C008C0004D49086000BF00BF00BF4B4814
:1026700040680421084080080028F8D000BF0320EB
:10268000FFF7B2FF002C03D1002000F082F802E037
:10269000012000F07EF800BF10BDFFB581B00446F8
:1026A0000D46174600BF052000070088802108401E
:1026B000C011002800D100BE00BF0498FFF755FFED
:1026C00000260DE0A900FF22D204891820680968BD
:1026D000884202D0002005B0F0BD6D1C241D761C80
:1026E000BE42EFD30120F6E710B500BF00BFEFF305
:1026F00010800446012000F04CF8052000070088F7
:10270000802188438030052109070880234800681C
:10271000C008C0002149086000BF00BF00BF1F48BB
:1027200040680421084080080028F8D000BF2048F5
:102730001A4908611C48486105200007008880216B
:102740008843052109070880134860384089FF2124
:10275000013108400012002810D0002010490870F4
:1027600012490878FFF773F910484078002805D11E
:10277000094800884008400007490880002C03D120
:10278000002000F006F802E0012000F002F800BF8F
:1027900010BD80F310887047800000500000F407DF
:1027A000B05DFC07C852FC07090404A4985DFC074F
:1027B0000F009909034AD06200BF034A118200BF8B
:1027C00070470000B45DFC072013005010B50021D5
:1027D0000846FFF7EFFF042000F0A5F910BD000048
:1027E00010B50446FFF7F2FF0020D3490860084601
:1027F0008068002805D00A46D188D06893682246B0
:10280000984710BD70B50546CB4C402028400028A5
:1028100007D00020FFF7E4FF00BFC848808A00BF50
:1028200070BD01204002284000280FD0E188A28816
:10283000914201D1012100E000210846FFF7D0FFBD
:1028400000BFBE482030008800BFE9E717E0E288FB
:102850002168895C521CA3889A4206D1022322690E
:102860001A40002A01D01A0200E000221143084653
:10287000B2494039088200BFE088401CE080E0880F
:10288000A188884208DA00BFAC482030008A0221C3
:10289000084040080028DAD1E088A188884213D196
:1028A000207CC007C00F00280BD000BFA3492039EF
:1028B000098A102208469043A0492039088200BFA7
:1028C000AEE70120FFF78CFF00BFA9E710B5044673
:1028D000FFF77CFF0020984948610846006A0028FD
:1028E00005D00A46518B506A136A2246984710BD9C
:1028F00070B50546904C143440202840002807D07D
:102900000020FFF7E3FF00BF8C48808A00BF70BD46
:1029100018E02089401C80B220812189A288914240
:1029200006D1022261691140002901D0110200E0A4
:102930000021FF22013211430846804940390882B4
:1029400000BF00BF2089A188884208DA00BF7B4809
:102950002030008A0221084040080028D9D10AE02E
:1029600000BF76484038008AC0B2E28821688854A7
:10297000E088401CE080E088A188884207DA00BF38
:102980006E482030008B8006800E0028E8D1E08859
:10299000A188884203D10120FFF798FFB7E720897B
:1029A000A188884200DAB2E700BFB0E770B50546FB
:1029B000614C143402202840002807D00020FFF783
:1029C00085FF00BF5D48008900BF00BF0AE000BF6F
:1029D0005A484038008AC0B2E28821688854E088AA
:1029E000401CE08000BF55482030008B8006800EE0
:1029F000002803D0E088A1888842E8DBE088A1882D
:102A0000884204D0012040022840002808D001203C
:102A1000FFF75CFF00BF49482030008800BF70BD51
:102A200000BFFCE770B50546434C40202840002815
:102A300007D00020FFF7D4FE00BF4048808A00BFC7
:102A400000BF02202840002807D00020FFF7C8FE62
:102A500000BF3A48008900BF00BF01204002284063
:102A600000280FD0E188A288914201D1012100E025
:102A700000210846FFF7B4FE00BF30482030008830
:102A800000BF70BD8020284000280ED0E188A288B9
:102A9000914201D1012100E000210846FFF7A0FE8C
:102AA00000BF2648008B00BFEBE72020284000280D
:102AB0001ED0E088A188884212DA00BF1F4820306B
:102AC000008A022108404008002809D0E288511CF1
:102AD000E1802168885C19494039088200BF02E022
:102AE0000020FFF77DFE00BF1448008A00BF00BF32
:102AF00000BFC6E710B504460F48C06A002804D0DE
:102B00000D48C16A2046884702E0042000F00BF817
:102B100010BD10B500BF0948203880890446204602
:102B2000FFF7E8FF10BD002805DBC206D20E012129
:102B30009140034A11607047B45DFC074013005098
:102B400080E200E0F8B50546CE4800682D18002068
:102B5000CC490860CC4928465BF760FD044600BFBD
:102B6000CA48446000BFC84860432E1A002E01D1F5
:102B7000002001E0C448801B0746B8B2C349086082
:102B800000BF01208107096B08229143C200114355
:102B90008207116300BFF8BD70B500BF0120800738
:102BA000806B04462046FEF793F805462846FFF75B
:102BB000C9FFB7480460B7480068002806D0B54888
:102BC0000068A04202D200BF00BE00BF70BD10B5B9
:102BD000FEF7F0FE0520000740898007800F0028DF
:102BE00007D00520000740898008800005210907DB
:102BF0004881052000070089802188438030052115
:102C0000090708810846008A04218843052109072D
:102C1000088200BF05200007808A022108400028A2
:102C2000F8D000F07EF901208007006904210840F7
:102C30008008002802D000BF00BE00BF00BF0120F6
:102C4000800700690421084080080028F7D010BDE3
:102C500010B5FEF79FFE00BF8F4800890421084091
:102C60000028F9D1FEF7A6FE8C4800880521090747
:102C700048808B480088801E8A49488000BF8A4867
:102C80000068AA2800D100BF0120002803D0072037
:102C9000844908800BE000BF83480068002800D109
:102CA00000BF0020002802D006207E490880FEF7E1
:102CB00071FE00BF7B480088042108400028F9D13C
:102CC000FFF785FF10BD10B578480068C007C00F3A
:102CD000002806D07548006802218843801C73498B
:102CE000086072480068012189050840002805D065
:102CF0006E480068884340186C490860BEE000BF19
:102D00000120800700690446002C00D1B7E0802034
:102D10002040002814D08020C105886100BF00BF7A
:102D20004AF75DFA00BF60480068AA2800D100BFDA
:102D30000120002802D01E20FDF7DEFE00BF00BFEC
:102D400002202040002808D002204107886100BFEF
:102D500000BF46F7BEF900BF00BF08202040002892
:102D60000ED00820C106886100BF00BF002046F7D2
:102D700069F904204E49087000F056FF00BF00BFFB
:102D8000FF200130204000280AD0FF2001308105BB
:102D9000886100BF00BF012046F754F900BF00BFA3
:102DA000012040022040002809D0012040024105B6
:102DB000886100BF00BF4AF77BFA00BF00BF402018
:102DC0002040002808D040200106886100BF00BFD5
:102DD00046F733F900BF00BF10202040002808D07C
:102DE00010208106886100BF00BF44F7E3FC00BFEC
:102DF00000BF0420204000281FD004200107886164
:102E000000BF00BF244800894008400022490881D3
:102E100059F766FE3FF714FC00BF23480068AA2854
:102E200000D100BF0120002802D01E20FDF764FE63
:102E300000201F49087000BF00BFE007C00F002836
:102E40000DD001208107886100BF00BF59F764FEE3
:102E50004AF7C5F901201649087000BF00BF2020BD
:102E60002040002809D020204106886100BF00BF13
:102E700000BF00BF00BE00BF00BF00BF3FE700BFF4
:102E800010BD00006C8DFC07710200004000004086
:102E9000748DFC07708DFC0700330050F88BFC0725
:102EA000568CFC07001600500C8CFC0700020040FA
:102EB000688DFC0770B5054600BFD248854200D337
:102EC00000BE00BFE80264215BF7A8FB0446002CAB
:102ED00000D0641E204670BDFEB5044600BFC94840
:102EE000844200D300BE00BF0027C74903C925465E
:102EF0000091019028463946009B019A5BF7B8FB88
:102F00000903060D0E433046FEBDC0490968886AB4
:102F1000704710B53FF7D9F9BD488068BD490860D2
:102F200010BD10B53FF7FDF9BA480068B849886090
:102F300010BD38B50024FFF7E8FF00900025FDF72D
:102F400066FD002803D1B4480079022801D1002091
:102F5000009000BFB1480089C007C00F002800D012
:102F60004CE100BFAE480068002800D100BF00203F
:102F7000002804D0FDF75CFF002800D03EE158F7A0
:102F8000FEFE002800D139E10124A348C0780028C2
:102F900000D133E105200007808AC007C00F002858
:102FA00001D004242AE100BF9B480088002800D0FB
:102FB00024E1FDF72CFD002806D19A48806A0028FC
:102FC00002D0FFF7A2FF0090FDF7A2FE92488178A1
:102FD000684659F7E3FB002800D10FE100BF01204C
:102FE0008007006940210840002800D006E18A4897
:102FF000817868464AF74AFA002800D1FEE00120AD
:10300000FEF7E6FC00BF86480068AA2800D100BF92
:103010000120002814D000BF00BF009800280FD066
:1030200000BF01218907096A08467F49884206D8FE
:10303000FF213931884202D30099491E009100BF17
:103040007A48007802281CD100BF75480068AA2879
:1030500000D100BF0120002805D07548006811305C
:10306000734908600DE000BF6D480068002800D17A
:1030700000BF0020002804D06D48006832306C4941
:1030800008606C4800886C49096840186B49086002
:1030900001208007C06B800A8002674909680843E5
:1030A00001218907C8630846C06B6549084060492B
:1030B00009688902084301218907C8630846C06B73
:1030C000C002C00A5D4909884905084301218907F2
:1030D000C863042400BF52480068002800D100BF24
:1030E0000020002805D00098FFF7E4FE554908604D
:1030F0000DE000BF4A480068AA2800D100BF0120A7
:10310000002804D00098FFF7E7FE4E49086000BF92
:1031100043480068002800D100BF0020002805D0E7
:1031200048480068C01E474908600DE000BF3C48A1
:103130000068AA2800D100BF0120002804D041481F
:103140000068401E3F4908603E48016838480068F2
:10315000401C814203D1364800683A4908602E4835
:103160000079002801D0012000E000200146354808
:10317000006846F71DF93449C86A8047FDF7A4FE88
:10318000002802D0FEF706FC012500BF00BF012188
:103190008907086BC9130140C90B0029F6D000BF8D
:1031A0001B480068FF21013108400028F8D018486A
:1031B00000688021884316490860002D01D0FEF781
:1031C000F9FB4621154A5089462806D24622121A92
:1031D0001E4B1A604622114B5A81FFF79AFE00BF20
:1031E0000B480068802108400028F9D0052000071E
:1031F0000089884305210907088100BF00BF2046D8
:1032000038BD000040420F00208CFC0758B9FC0775
:1032100000020040788DFC074CBAFC0700330050D8
:103220000C8CFC0728BEFC0712020000ACBAFC079D
:10323000588CFC07568CFC075C8CFC07608CFC07E8
:10324000FF03E0FF708DFC070CBFFC076C8DFC07D3
:103250000146002070477047704770B50446254608
:10326000282C01DA282502E0E62C00DDE625002DD9
:1032700001D1812070BDFF21F331694308467D21D2
:10328000C9005BF7E1F98130C0B2F3E770477047DE
:1032900002460020704700BF01218907096B062202
:1032A00011430122084610439107086300BFD0482C
:1032B000006809138843CE4908607047CD4800680C
:1032C000CD4908607047F8B50220FEF781FBC84879
:1032D0000068012149058843C54908600020C549A7
:1032E000403948630846406B1F2109048843012187
:1032F00049044018BF494039486308060068F02176
:103300008843E030012189070860BB4800687F21BD
:1033100009060840040EB84800680F210902084059
:10332000050AB5480068FF2109040840000C06465C
:103330000A36B1480068C0B207460A37002000903C
:103340007F210906009888432106084300900F2139
:10335000090200988843290208430090FF210904CC
:10336000009888433104084300900098000A000246
:10337000384300909F490098086001209F490881C8
:103380009F48808B1021884310309D498883F8BD69
:103390009C49088A9C4909688969090C0904014308
:1033A000994A126891619749088B97490968C969D8
:1033B000090C09040143944A1268D1619149488B70
:1033C00091490968096A090C090401438E4A126887
:1033D00011628C492031088B8B490968896A090C74
:1033E00009040143884A1268916286492031488B5A
:1033F00085490968C96A090C09040143824A1268AF
:10340000D1628049603188887F490968096B090C5D
:10341000090401437C4A126811637A496031C88803
:1034200079490968496B090C09040143764A126815
:10343000516374492031488873490968896B090CC4
:1034400009040143704A126891636E4920318888EB
:103450006D490968096C090C090401436A4A12683C
:1034600011647047F0B58BB0044600256748606270
:103470006748A062674860610021302001556648B6
:10348000E062664820606648206266486060664880
:10349000E06100F0B7FB57484038406B1F2109043A
:1034A0008843012149044018524940394863504833
:1034B0000068C91288434E49086003E001A84555D9
:1034C000681CC5B2282DF9DB01AE402728200090EA
:1034D0005649096878183146009A5BF719F900BF18
:1034E000082000F0A7FB00F0ABFB002802D0012071
:1034F00000F0A0FB00F087FBFEF77CF9FEF7BEF9B9
:1035000000F09CF8FFF7DAFEFFF7DDFE00F076FB37
:10351000FFF73EFF00F088FB0BB0F0BD10B535485B
:103520004038406B1F210904884301214904401899
:1035300030494039486308060068C008C0000906E1
:10354000086005200007008908218843083005210C
:103550000907088100BF36480068002800D100BF75
:10356000002000280ED033484089FF210131084057
:103570000012002806D02F48408878218843083060
:103580002C49488000F05CFB002802D0012000F0AC
:1035900051FB00F038FBFEF72DF9FEF76FF900F054
:1035A0004DF8FFF78BFEFFF78EFEFFF7F1FE00F000
:1035B0003BFB10BD10B50446204670301249086030
:1035C00000BF00BF70221C490F4800685BF7A0F8DD
:1035D0000D4800884830001B0B49096808810A48DB
:1035E00000885C30001B08490968488110BD000054
:1035F00000020040800000407C8DFC07A0100040CD
:103600002020004000300040E45DFC075132FC0700
:103610005732FC079132FC079732FC075932FC07FE
:103620008D32FC078F32FC075B32FC074CB9FC077C
:103630000C8CFC0720000050E452FC07F648406B5D
:103640007F21090288430B2109024018F24948638F
:103650000846006A80B2F1494018EF4908620846FE
:10366000806BEF490840012149034018EA4988630B
:10367000E948403000690321090288434018E649BF
:10368000403108610846808B102188431030E249A0
:1036900040318883E348E4490860E44800883F21DA
:1036A000090188432F2109014018E0490880DF48BB
:1036B00020388069400D4005DD494018DB4920393C
:1036C00088610846C069DB49084009214902401861
:1036D000D6492039C86108464068D7490840D749CB
:1036E0004018D2492039486008468068D4490840CB
:1036F000D4494018CD49203988600846C068D2496D
:103700000840D2494018C9492039C86008460069B4
:10371000CF490840CF494018C44920390861CE48F4
:10372000007800068914401849104018CB490860F9
:1037300005208002CA490881401D8881C848203080
:103740000089000A00025530C549203108818D20CA
:1037500080000882C3488882C3480883C1480E3865
:103760008883C148C01DBE4940310880BF48AF4969
:103770008881AE482038C06BBD490840C943401815
:10378000AA492039C863FF206C30BA490880B9487B
:103790002030008B1F21490188430B2189014018EB
:1037A000B44920310883B348403080881F21490143
:1037B0008843092189014018AE4940318880084674
:1037C00000891F2149018843152149014018A94951
:1037D00040310881084680891F21490188430B2117
:1037E00089014018A34940318881FF208D30A149CB
:1037F0008880A048803000891F2149018843032127
:10380000090240189B49803108810846808B400995
:1038100040011930888391482030808B032149036F
:1038200088430121490340188C49203188838B4803
:1038300080300068C008C000C01C88498031086022
:103840008D4886494031486273482030808840085E
:103850004000401C704920318880704708B5002026
:103860007E498031C862009002E00098401C0090C0
:103870000098FF28F9DD8149097849011F2252018A
:10388000114008467B494031C96891430143794A58
:103890004032D16008BD7A4800685F494031086015
:1038A0005D488069800980011C305B498861084659
:1038B0008069C9138843584988610846006B3F21D5
:1038C00009068843072189064018534908630846BA
:1038D000006B3F21890188430F21C90140184E49DF
:1038E00008630846006B800980011E30086370473A
:1038F0004948C069400840004749C86170470320F3
:1039000056494871704708B55A484030C06880052C
:10391000C00E5A49087057484030C0681F214901FD
:10392000884354494031C86001204C4988714B4854
:103930008030C06A80088000C01C48498031C8625D
:103940000020009002E00098401C00900098FF28A2
:10395000F9DD08BD08B502204049887100200090BB
:1039600002E00098401C009000980B28F9DB08BD8D
:103970004120294908770846C06903214902884344
:103980000121890240182449C86170474320224917
:1039900008777047204840300068394908600020A7
:1039A000C0431D49403108601B488069800980017F
:1039B0001949886108468069C91388431649886196
:1039C0000846C06903214902884301218902401841
:1039D0001149C8610846C0697021884340300E49CA
:1039E000C8610846006B3F21090688430B21490640
:1039F0004018094908630846006B3F218901884344
:103A0000032149024018044908630846006B8009F5
:103A1000800118300863704700300040000088883B
:103A2000FF00FEFF59055C07800000402020004099
:103A300009581A00FEE1FFFFE0E0000008092949EB
:103A400000000303696A686C031FFFFF70600000D9
:103A5000E0E0E0E00B0A0A08808DFC07001000405F
:103A600020130040340A0000510800000C1200002E
:103A7000EFE7FFFF00120040500150018C5DFC0792
:103A8000145EFC0718B5FFF73AFF6F484068C0099D
:103A9000C00114306C494860FFF77CFFFFF776FFE8
:103AA000FFF758FFFFF72FFF0020009002E000987B
:103AB000401C00900121890200988842F7DBFFF743
:103AC0001EFF614880308068C405E40DFFF7C6FE24
:103AD0000020009002E00098401C00900098102800
:103AE000F9DB594880694002400AE105C90DC90562
:103AF0000843554988610846806954490840A10136
:103B0000524AD243114008434F498861FFF730FFC2
:103B1000FFF720FFFFF7F7FE0020009002E000987B
:103B2000401C00900121890200988842F7DBFFF7D2
:103B3000E6FE454880308068C405E40DFFF78EFE40
:103B40000020009002E00098401C0090009810288F
:103B5000F9DB3D4880694002400AE105C90DC9050D
:103B60000843394988610846806938490840A101FD
:103B7000364AD2431140084333498861FFF7F8FEC3
:103B8000FFF7E8FEFFF7BFFE0020009002E000987C
:103B9000401C00900121890200988842F7DBFFF762
:103BA000AEFE294880308068C405E40D264880694F
:103BB0004002400AE105C90DC90508432249886150
:103BC0000846806921490840A101204AD24311409A
:103BD00008431D498861FFF78BFEFFF75CFEFFF786
:103BE0003DFE0020009002E00098401C00900098EC
:103BF0001028F9DB16494C81012018BD00B5FFF7EC
:103C000041FF00BD704708B5092012490871002026
:103C1000009002E00098401C009000980B28F9DB0F
:103C200003200C49487108BD03200A49887100200F
:103C30000871704708490870704707480078704756
:103C40000648007870470000003000403F80FFFFCA
:103C5000E85DFC0700100040808DFC07818DFC07AB
:103C600010B500F053FD5FF7E7FC0020FCF7B8FE4D
:103C700010BD10B55FF7C8FB002806D040480068AB
:103C8000002802D03E490868804710BD10B53C4866
:103C90000068002802D03A490868804710BD70B516
:103CA00004466079C0210840002827D100BF3EF7B4
:103CB00026FE054620460570401CFF2109022940CA
:103CC000090A0170401CFF2109042940090C0170F8
:103CD000401C290E017000BF251D3EF710FE86B264
:103CE00000BF28460670401CFF210902314009121E
:103CF000017000BF6079C0210843607170BD70B56C
:103D000004460D462946204600F01AFE70BD7FB5D8
:103D100005460C46607800280AD11AA30FCB6E46E0
:103D20000FC6012310226946284600F055FE17E011
:103D30006078012808D1174803900123042203A9C1
:103D4000284600F049FE0BE06078022808D11148AF
:103D500003900123042203A9284600F03DFE00BF82
:103D60007FBD70B505460C466178284600F038FBEB
:103D7000284600F081FE284600F070FE70BD00006D
:103D80009453FC07000102030405060708090A0B07
:103D90000C0D0E0F40E201000246002109E00C204C
:103DA0004843FE4B185C904201D101207047481CEB
:103DB000C1B20C204843F94B185CFF28EFD100201A
:103DC000F4E710B51CE0F64800780C214843F349AD
:103DD0004018406800280ED0F1490978F04A12785E
:103DE000521CEF4B1A700C225143EC4A8918486858
:103DF0008047002010BDEA480078401CE849087060
:103E0000E74800780C214843E449085CFF28DAD1F0
:103E100026E0E44800780C214843E3494018406814
:103E2000002818D0DF4909780C225143DE4A505C43
:103E3000FFF7B2FF00280ED1DA490978D94A127883
:103E4000521CD84B1A700C225143D74A8918486823
:103E500080470020CEE7D3480078401CD149087045
:103E6000D04800780C214843CF49085CFF28D0D1C6
:103E70001CE0CE4800781C214843CD494018C0685A
:103E800000280ED0C9490978C84A1278521CC74B7D
:103E90001A701C225143C64A8918C86880470020FE
:103EA000A8E7C2480078401CC0490870BF480078A5
:103EB0001C214843BE49085CFF28DAD10020BB49D9
:103EC0000870B7490870B7490870012092E770B5CB
:103ED000B848006800284DD100BF00BF00BF00BF38
:103EE00000BF522304220921B34858F779F9054647
:103EF0002C4600BFAF4804600C202070AF4800780B
:103F00006070AE484088A080AC488088E080AB48B4
:103F100080792072A948C0796072A848017AA1729C
:103F20000021E17200BF2B20015500BFA1480068AD
:103F3000C07A05460F359F480068293080780646CC
:103F40000F361F2D09DCE17A20460C300A189CA39D
:103F50000D21401E5FF782FA0BE01F2E09DC2B209B
:103F6000015D20462C300A1895A30D21401E5FF7F5
:103F700075FA00BF8F48006870BD70B58D48006845
:103F8000002851D100BF00BF00BF00BF00BF5223B7
:103F900004220921884858F723F905462C4600BF1A
:103FA000844804600D202070844800786070834845
:103FB0004088A08081488088E08080488079207295
:103FC0007E48C07960727D48017AA17200217948EB
:103FD0000068C17200BF774800682930817000BF57
:103FE00074480068C07A0546123572480068293066
:103FF000807806460F361F2D09DCE17A20460C300A
:104000000A186FA30D21401E5FF728FA0BE01F2E40
:1040100009DC2B20015D20462C300A1868A30D21F5
:10402000401E5FF71BFA00BF6248006870BD70B5A4
:1040300005466048006800282DD100BF52230422A5
:1040400009215D4858F7CCF8064600BF3446594868
:104050000460002D08D00F20207058484088A080B0
:1040600056488088E08005E00E2020702020A08047
:104070004002E0805148007860705048807920729A
:1040800006224E490931204609305AF741FB4B4878
:10409000C17BE17300BF4748006870BD70B504463E
:1040A000A0004B490858002828D100BF2002014633
:1040B0000A310E230422474858F792F80646092091
:1040C000307000BF354600BF012C00DB00BE00BFD2
:1040D000A0003F490D5040484088A8803E480088D5
:1040E00068803D488088E8803B48C08828813A48FD
:1040F0000089688138484089A88100BFA000344900
:10410000085870BD70B535480068002842D100BF1E
:104110001D23042209212848001D58F761F805468F
:1041200000BF2C462D4804602D48007820702C4894
:10413000407860702A484088A08029488088E080C4
:104140002748C0882081264800896081244840890A
:10415000A08123488089E0812148C08920822048AD
:10416000008A60821E480078132803D01C4800781B
:10417000162802D1012020750BE0012020750622AF
:1041800017491231204615305AF7C2FA1448017EF9
:10419000E17600BF1148006870BD00003454FC0790
:1041A000158EFC07148EFC074054FC07168EFC0786
:1041B0000457FC07048EFC070D0D0000A453FC07F8
:1041C00053494D504C452D424541434F4E00000050
:1041D000FC8DFC070E0E0000DE53FC07088EFC076A
:1041E000EA53FC0770B55548006800283ED100BF6F
:1041F0002C2304220921524857F7F2FF05460320D9
:10420000287000BF2C464D4804604E48007860700E
:104210004C48408820844B480079A076002060807C
:10422000102120460A305AF78CFA4648807FE07603
:104230004448008CA0834348408CE0834148808CF4
:104240006084404AD08C404A518F884201D2024655
:1042500000E00A46E2843B4A108D3B4A918F884237
:1042600001D2024600E00A46228500BF33480068BA
:1042700070BD10B55FF746F9002034490870344826
:104280000068002805D032480468002030490860E2
:10429000A04710BD3EB5002411E000200090019021
:1042A0000C222C49029068465AF732FA0C216143DD
:1042B000294A88180C2269465AF72AFA641C012CEC
:1042C000EBDB0D2025490870084602782449401C84
:1042D0005AF71EFA0020214948842249042058F741
:1042E000D3F80021042058F701F93EBD10B5FFF7BF
:1042F000EEFD10BD70B5FFF7EAFD064634462046D8
:1043000057F789FF00BF002017490860042058F7BD
:1043100020F90546032D03D00221042058F7E6F8C2
:1043200070BD70B5FFF75EFF05462C46204657F777
:1043300072FF00BF00200149086070BD008EFC07BD
:10434000040D0000B453FC07E8BBFC070C8EFC070F
:10435000108EFC076854FC07B88DFC07D88DFC074D
:10436000C041FC075854FC07048EFC07F8B507460B
:104370000D461C462004060E16488068002804D00E
:10438000144829468268304690470020F8BDFFB5A2
:1043900083B014461D460C9E0D200F4923462A4625
:1043A000009601910290049903985EF7D5FA0746AA
:1043B000002F02D1384607B0F0BD0120074923463F
:1043C0002A46009601910290049903985EF7C4FA78
:1043D000F1E70000F454FC07E83EF2070C55FC0737
:1043E00070B504460D467A2060431449401805779D
:1043F0007A216143114A891808461430082211466F
:104400005EF77AFC7A2161430C4A8918881C1022D5
:1044100029465EF771FC00BF3EF771FA81B27A203F
:104420006043064A801841827A2060431146085C46
:10443000012108437A216143505470BD188EFC0756
:10444000F8B507460C461E463004050E20780300DA
:104450005AF7B2F908054141411A242D374101218B
:104460000C206843A54A8018C17200217A20684355
:10447000A34A1154A348006D002804D0A148214646
:10448000026D284690472AE09E48406D002804D0DF
:104490009C482146426D2846904720E09948806D0F
:1044A000002803D09748816D2046884717E095483B
:1044B000C06D002804D093482146C26D284690471D
:1044C0000DE09048006E002804D08E482146026E10
:1044D0002846904703E000BF00BE00BF00BF00BFFA
:1044E0000020F8BDF8B507460D461E463004040E00
:1044F0002878801E03005AF75FF906043D8C4D6250
:10450000778CA9787A2060437D4A801860300176E4
:104510007A206043114640186030007EC007C00F0B
:10452000002818D00C226243744BD218511D7A22F5
:104530006243734BD2181046713006225AF7E8F8DE
:104540000C2060436D49401801797A2060436C4A21
:104550008018713081716B48406E002803D0694823
:10456000416E2046884700210C206043634A801832
:10457000C1724FE000210C206043604A8018C17274
:104580007A2060435E4A80186030017620465EF7EC
:104590009BFF3FE07A216143594A891808463A3027
:1045A0001722A91C5AF7B4F87A2060435449085CD2
:1045B000042108437A216143514A50542AE07A2168
:1045C00061434F4A8918084661301022A91C5AF7E6
:1045D0009FF87A2060434A49085C102108437A21F9
:1045E0006143474A505415E07A216143444A89188F
:1045F00008461E301C22A91C5AF78AF87A2060430C
:104600003F49085C022108437A2161433C4A5054E7
:1046100000E000BF00BF0020F8BDF8B506460D461B
:1046200017461C463748C06E002805D02104080EE6
:104630003449CA6E294690470020F8BDF8B50746B0
:104640000C461D462804060E21787A2070432C4A19
:104650008018603001762B48806E002804D02178C5
:104660002848826E304690470020F8BDF8B50646CF
:104670000D4617461C462348406F002805D02104EC
:10468000080E20494A6F294690470020F8BDF8B52A
:1046900005460C4616461F461A488030006800281A
:1046A00004D02078174A8032116888470020F8BD6E
:1046B000F8B505460C4616461F461248803040683D
:1046C000002805D020780F4980314A68611C904746
:1046D0000020F8BDFFB583B0064614461D460C9F6A
:1046E0000720094923462A46009701910290304647
:1046F00004995EF731F907B0F0BD0000B88DFC07F2
:10470000188EFC071455FC07AC55FC07704770B5B4
:104710000A23042209210C4857F762FD04461B2096
:10472000207014205EF75CFF60701420608004200D
:10473000A0800020E08025460835FF2074302880C6
:10474000204657F768FD70BD1B0D0000FFB581B016
:104750000E461F46002500200090307803005AF7CF
:104760002BF809060A161A1E220E26122A000B25FD
:1047700028A0009023E0072529A000901FE008252D
:1047800029A000901BE007252AA0009017E00A2529
:104790002AA0009013E0072521A000900FE00C252F
:1047A00029A000900BE00C2527A0009007E006252B
:1047B00029A0009003E000BF00BE00BF00BF00BF03
:1047C000AB1C39462648039A57F70AFD0446317850
:1047D00021706570002D04D02A46A01C009959F75D
:1047E00097FF204657F717FD002005B0F0BDFFB535
:1047F00083B0064614461D460C9F012019492346E6
:104800002A46009701910290304604995EF7A4F879
:1048100007B0F0BD4469616C6F672053656D690036
:104820004441313435333100123456FFFE9ABCDE38
:104830000000000001D2008005000100312E302E62
:10484000302E302D4C450000765F362E302E313123
:104850002E39383900000000FFEEDDCCBBAA000085
:1048600003140000E455FC0705200007008980219F
:104870000840C01100280FD0C805006B090208408D
:10488000C00B002808D100BF04480078C007C00F43
:10489000002801D1012070470020FCE74CBAFC073A
:1048A00002462548111A002903DB052901DA48B21E
:1048B00070470020C043FBE7024600210BE0880060
:1048C0001E4B1858002805D188001A501A4808189D
:1048D00080B27047491C0529F1DB0020F9E770B56B
:1048E00005462846FFF7DCFF0446002C0CDBA00041
:1048F0001249085800280AD0A0000E580020A10034
:104900000E4A5050B04702E000BF00BE00BF70BD6D
:10491000F8B504460E461746069D0748844202DB5A
:10492000001D844201DD0120F8BD2046FFF7D7FFBE
:104930000020287000BFF7E70E040000948EFC07EB
:10494000F8B5044600BF00BF200201460A311E230D
:1049500004225D4857F744FC074600BF3E4601204D
:10496000307000BF3546A0005849085800280DD1C6
:10497000A0000D5007225649A81C59F7C9FE5448FB
:10498000807808218843287101206870284657F7ED
:1049900042FC0020A1004D4A5050F8BD70B50446BD
:1049A000A0004C490858002812D100BF00BF2002C7
:1049B00001460A311E230422434857F711FC0646DC
:1049C00000BF35460420287000BFA00041490D50AB
:1049D000A0004049085870BDFFB581B00446154697
:1049E0001E462046FFF7DAFF0746A100394A515814
:1049F000881C102159F7A5FE2A46A100354B5958AD
:104A0000881C029959F784FE7E70384657F703FCDC
:104A10000020A1002F4A505005B0F0BD70B50446EB
:104A2000A0002D490858002814D100BF00BF200263
:104A300001460A311E230422234857F7D1FB0646BC
:104A400000BF3546072028700120687000BFA00015
:104A500021490D50A0002049085870BD70B504468A
:104A60002046FFF7DBFF0546284657F7D4FB00201A
:104A7000A100194A505070BD70B504462046FFF79A
:104A8000CDFF05467A20604314494018017F2977FD
:104A90007A20604311494018418A69827A20604334
:104AA0000E4A80180146143108222846143059F75E
:104AB0002FFE7A206043094A8018811C1022A81C0E
:104AC00059F726FE70BD0000140E0000AC8EFC07E6
:104AD000C056FC07B08EFC07B88EFC07188EFC078A
:104AE000024600210AE01C204843174B185C904204
:104AF00003D11C204843C0187047491C1C20484360
:104B0000114B185CFF28EED10020F5E770B5182393
:104B1000042209210D4857F763FB04461B2020702F
:104B2000FD205EF75DFD6070FD2060800420A080A8
:104B30000020E080254608356860A860A8812046EE
:104B400057F769FB70BD00000457FC071B0D000000
:104B5000FFB583B0064614461D460C9F0020019009
:104B600023462A4600970290304604995DF7F4FEEA
:104B700007B0F0BD7047704710B51B20FCF77CFFF5
:104B800000F0B1F9FFF7F7FF01200449898981435B
:104B90000143024A918100BF10BD00000003005094
:104BA00010B58C4800788C490870084602788B490B
:104BB0008B4859F7ADFD8B4800788B490870084643
:104BC00002788A498A4859F7A3FD322289A196487A
:104BD00059F79EFD312095490870002094490870CE
:104BE000944908707B480078934908707D480078A4
:104BF0009249087001209249087010BD91480078D0
:104C00008A49097888420CDC87488E490978405CDB
:104C10008D4908708B480078401C8A490870002034
:104C200070470120FCE76C4800781F2822DA84488E
:104C3000007800281ED07E480078401C7C4908700F
:104C40007D480078401C7C490870794800786449A8
:104C5000604A127888547C480078774A12788854E1
:104C60005C480078724909784018401C5A4908701D
:104C7000002070470120FCE75B4800781F2822DAFB
:104C80006F48007800281ED16A480078401C6949A6
:104C900008706A480078401C6849087065480078C8
:104CA0005349504A1278885467480078634A12780A
:104CB00088544C4800785F4909784018401C4A499C
:104CC0000870002070470120FCE710B500205F4904
:104CD0000870FFF793FF00281DD1FFF7A4FF0028FD
:104CE0000BD057480078002807D00020544908709E
:104CF000FFF7C2FF5EF706FC10BDFFF7BDFF0028FF
:104D000009D04F480078002805D101204C4908708F
:104D10005EF7F8FBF0E734480378354A2E4801780F
:104D20002F485EF7ADFB4A4964205DF7B7FE47495F
:104D3000087000BFE0E710B5454964205DF7AEFE9E
:104D400042490870FFF7D2FA0446E07A2149087018
:104D50000846027821460C31204859F7D9FC2B200F
:104D6000005D204908700846027821462C311F4812
:104D700059F7CEFCFFF714FFFFF7BCFA10BD70B572
:104D80000546442D25D1FFF7B1FA04462C4800789A
:104D9000002801D0FFF704FF0F480178E172027884
:104DA0000F4920460C3059F7B3FC0F4801782B20EF
:104DB00001550D4802780E4920462C3059F7A8FCC1
:104DC000FFF798FA224964205DF768FE1F490870D2
:104DD00000BF70BD348FFC07548FFC07158FFC0794
:104DE000358FFC07748FFC07948FFC07558FFC07E9
:104DF000758FFC07444131343538352F3620262055
:104E0000444131343533312053696D706C65204233
:104E10006561636F6E20536F6674776172652045BC
:104E200078616D706C6500001864FC079A8FFC0750
:104E3000958FFC07968FFC07978FFC07988FFC07D0
:104E4000998FFC079B8FFC079C8FFC07148FFC0736
:104E5000CB4CFC07F8B50746012000230246009022
:104E60001946032043F7F2FF044602218030017007
:104E70002B4D2A482A68C08F1146FF31F73108862A
:104E800026484030008848862648066A0123DB060B
:104E90009E431E430662FF320020FF3238325082AA
:104EA0009082D0821D2008821F4848841F48C882F3
:104EB0001F48088300204882384644F707FB014614
:104EC0002868FF30F730C28B920992010A43C283EF
:104ED0001848416800208847002C02D0204643F73C
:104EE0009EFB2046F8BD10B5A0221349134859F780
:104EF0000FFC114950225039114859F709FC11484B
:104F000001680E48A03001600B495839416001200A
:104F10000A4900052039086010BD7047E8BBFC074E
:104F20004CB9FC07C000004010800000294100007F
:104F3000767100000CBFFC07185CFC0720000840DD
:104F4000C000FC07B052FC07064C0125064E05E0E8
:104F5000E36807CC2B430C3C98471034B442F7D39A
:104F6000FBF7DAF8685DFC07885DFC07F8B582B2EC
:104F70008BB2040C0D0C10465843002126465E43AC
:104F8000370C36048019794116466E43370C3604C7
:104F90008019794126466E438919F8BD02E008C898
:104FA000121F08C1002AFAD170477047002001E0A3
:104FB00001C1121F002AFBD170470000F40100114B
:104FC00070CAEA80D00706406432FFFFFFFFFFFF90
:104FD000BC4FFC072C8CFC07613CFC070000000068
:104FE00000000000000000000000000000000000C1
:104FF00000000000FF0000000000000000000000B2
:105000006534FC071D35FC07E3D7F00741D8F007EE
:1050100049D8F00799D8F007B1D8F007C7D8F007FA
:10502000E9D8F00769DCF0070DDFF0074DDDF00788
:105030006DDDF0078DDDF007CBDDF007DBDDF00780
:1050400069F3F00731F1F0074FF1F0076BF1F0076A
:1050500085F1F00799F1F00717F2F0072FF2F0074A
:1050600075C4F10781C6F10795B3F007D503FC07B6
:105070003105F2072D05F2072905F2078D21F0070A
:105080006B09FC07992BFC07CD0EFC07F10DFC0703
:10509000D10CFC07F578F007BF77F007554EFC07F9
:1050A0004196F107C345F107D106F2075107F20710
:1050B000F507F2073108F207C108F207F908F2070D
:1050C000000000006509FC076709FC0721C0F00724
:1050D000D98BF107D190F1074795F1072F94F1078C
:1050E0004F5CF107EF6BF1072D1CF107DFFDF007B7
:1050F0002D09FC07F39DF00741CCF00713B7F0072B
:105100004BB7F007F5B7F0072D2DF007C72DF007C7
:10511000557BF0071F7AF0078D35F007000000007F
:105120005109FC075909FC072F09FC0787BBF10748
:1051300061BCF1076909FC07B535FC0700000000F8
:10514000000000000000000000000000000000005F
:10515000000000000000000000000000000000004F
:10516000000000000000000000000000000000003F
:10517000000000000000000000000000050000002A
:105180004C64FC0700040000AC93FC077C020000A8
:10519000A08FFC07000400003496FC077005000097
:1051A0002003000000A60E0004000000D200000052
:1051B000320000003C00000001000000010000007F
:1051C00002000000020000000400000003000000D4
:1051D00006000000000000000200000002000000C5
:1051E00000000000000000000300000003000000B9
:1051F0000500000005000000060000000A00000095
:105200000A000000C8000000B80B00000200000007
:10521000B80B0000B80B000010000000D401000023
:10522000E5010000700200006A00000004000000B8
:1052300001000000200000000A0000000100000042
:10524000E20400008A020000DC0500009600000075
:10525000D04FFC0700000000F456FC075453FC0735
:105260007C53FC07A056FC07000000000000000073
:10527000000000000000000000000000000000002E
:10528000613CFC070000000000000000000000007E
:10529000000000000000000000000000FF0000000F
:1052A00000000000000000000104000000000000F9
:1052B000C4C5F107FD00000000000000FF0F01045D
:1052C0000000000300000000010099090300990993
:1052D000070099090F0099091F1099092F209909B2
:1052E0005F519909080004D0000000000000000090
:1052F000030005D08B0035F010005CF0565610B05E
:10530000DC4118B094831AB0030051F003FF38B0A9
:1053100098013AB0F40B64B0F48B66B0777722B0A2
:10532000010005D0000024B0000000000A00008049
:1053300008030490000004F0030006D00000000001
:105340000A00008008030490000004F0030006D067
:10535000000000003458FC073858FC073C58FC0794
:10536000E14AFC07140000006D0BF207FD0000008D
:10537000A11CF207FF000000000000006453FC07BE
:10538000888DFC070200000000000000504600006D
:1053900000000000374DFC07FF0000000000000087
:1053A0000000000000004C044C040701000102034F
:1053B000040506000A0017000000000000000000BD
:1053C000983A000102030405060708090A0B0C0DB0
:1053D0000E0F200000000000000000000000080088
:1053E000100000007D00000000001300800160013B
:1053F000640064000000F4010000050000000000EB
:10540000000000000000000000000000000000009C
:10541000000000000000000000000000000000008C
:10542000000000000000000000000000000000007C
:1054300000000000FF00000000000000000000006D
:10544000140000000F47FC0700000000FF000000F0
:10545000000000000000000000000000583FF207BC
:10546000178EFC070400010000000000000000008F
:10547000000000000000000000000000000000002C
:1054800000000000733CFC077F4DFC07000000009B
:10549000000000008D3CFC07000000000000000040
:1054A00000000000000000000000000000000000FC
:1054B0000000000000000000000000009F3CFC070E
:1054C00000000000FF3CFC070F3DFC07000000004F
:1054D00000000000633DFC07000000000000000029
:1054E00000000000000000000000000000000000BC
:1054F00000000000000000000000000000000000AC
:10550000FF0000000000000000000000080E000086
:105510006D43FC07000000000000000000000000D8
:1055200000000000733CFC077F4DFC0700000000FA
:10553000000000008D3CFC0700000000000000009F
:10554000000000000000000000000000000000005B
:105550000000000000000000000000009F3CFC076D
:1055600000000000FF3CFC070F3DFC0700000000AE
:1055700000000000633DFC07000000000000000088
:10558000000000000000000000000000000000001B
:10559000000000000000000000000000000000000B
:1055A000FF0000000000000000000000130E0000DB
:1055B0004144FC07150E0000E544FC07170E0000EF
:1055C0001B46FC07190E00003D46FC07150D0000A8
:1055D0006D46FC07210D00008F46FC07220D0000E0
:1055E000B146FC07021400004D47FC070000000014
:1055F000000000000000000000000000733CFC07F9
:105600007F4DFC0700000000000000008D3CFC07FF
:10561000000000000000000000000000000000008A
:10562000000000000000000000000000000000007A
:10563000000000009F3CFC0700000000FF3CFC074E
:105640000F3DFC070000000000000000633DFC0768
:10565000000000000000000000000000000000004A
:10566000000000000000000000000000000000003A
:105670000000000000000000FF000000000000002B
:10568000000000008F43FC07F129F2071149FC07D5
:10569000D546FC07EF47FC07514BFC07F80000001C
:1056A0002343FC07C33DFC07EC55FC07000000004A
:1056B0008456FC07B88DFC07188EFC07C48DFC07C8
:1056C00003000010000100000000000000000000C6
:1056D00000000000000000000000000000000000CA
:1056E0000000000000000000FF00000000000000BB
:1056F00000000000C48EFC07EC8EFC076948FC0724
:10570000150AFC07FD0000003C58FC072D000000B6
:105710000D4BFC070000000000000000000000002E
:10572000FF0000000000000000000000000000007A
:10573000000000000000000000000000595A08E4CA
:10574000862A9E8FE911BC7C9843421820EE8D0C6E
:10575000E1F04A0CB325DC536A68862D4F43313C97
:10576000939242E6A876FA3BEFB4875A17B9679846
:105770004C664C01963331B1915900152368EC52B7
:105780001E6244749A1BD18BAB75B66E9EE7BA0845
:10579000B9A948ABA1AC031C2E0D296C28D5E1C1D9
:1057A000E1C54729B55765C3BA47159E8C09E0D1B5
:1057B000815442408E4FD2B377E32A77595A08E496
:1057C000862A9E8FE911BC7C7C46421820EE8D0C07
:1057D000E1F04A0CB325DC536A68862C4F43313C18
:1057E000939242E6A876FA3BEFB48759595A08E4F7
:1057F000862A9E08E911BC7CD047421817B96798E1
:105800004C664C01963331B1915900142368EC5227
:105810001E6244749A1BD18BAB75B66D28D5E1C15D
:10582000E1C54729B55765C3BA47159D0028032828
:1058300002290129001A212D03002D002C58FC07F4
:105840001000000001000000100010003C57FC0791
:105850002E58FC07020000000100000000000000BC
:10586000000000004C57FC07100000000800020078
:1058700001000000000000003258FC070200000098
:10588000010000000D000D00585DFC072E58FC07BC
:105890000200000001000000000000000000000005
:1058A0005C57FC07100000000880000001000000A9
:1058B000000000003258FC07020000000100000058
:1058C00009000900305DFC072E58FC0702000000AB
:1058D0000100000000000000000000006C57FC0701
:1058E00010000000010200000200000000000000A3
:1058F0003058FC070200000009000200020000000E
:10590000000000003258FC07020000000100000007
:105910000B000B00F45CFC072E58FC070200000093
:105920000100000000000000000000007C57FC07A0
:105930001000000001000000020000000000000054
:105940003258FC0702000000010000000B000B00B1
:10595000005DFC072E58FC0702000000010000005B
:1059600000000000000000008C57FC071000000041
:105970000102000001000000000000003058FC0798
:105980000200000009000200020000000000000008
:105990003258FC0702000000010000000C000C005F
:1059A0003C5DFC072E58FC070200000001000000CF
:1059B00000000000000000009C57FC0710000000E1
:1059C0004100000014000000000000003058FC07F7
:1059D00002000000090002000200000000000000B8
:1059E0003258FC0702000000010000000C000C000F
:1059F0000C5DFC072E58FC070200000001000000AF
:105A00000000000000000000AC57FC071000000080
:105A10000902020032000000000000003058FC07BC
:105A20000200000009000200020000000000000067
:105A30003258FC0702000000010000000A000A00C2
:105A40004C5DFC072C58FC07100000000100000012
:105A500010001000BC57FC072E58FC070200000085
:105A6000010000000000000000000000CC57FC070F
:105A7000100000000800020001000000000000000B
:105A80003258FC0702000000010000000800080076
:105A9000245DFC072E58FC070200000001000000F6
:105AA0000000000000000000DC57FC0710000000B0
:105AB0000880000001000000000000003258FC07D0
:105AC000020000000100000011001100CC5CFC0786
:105AD0002C58FC071000000001000000100010000E
:105AE000EC57FC072E58FC070200000001000000E4
:105AF0000000000000000000FC57FC071000000040
:105B00000102000002000000000000003058FC0705
:105B10000200000009000200020000000000000076
:105B20003258FC07020000000100000010001000C5
:105B3000E05CFC072E58FC0702000000010000009A
