:020000040000FA
:10000000E84D0020490C00004D05000049050000A6
:1000100049050000490500004905000049050000A8
:100020000000000000000000000000004905000082
:1000300049050000000000004905000049050000D6
:10004000AD190000111B0000911A000015190000E5
:1000500000000000000000000000000000000000A0
:100060000000000000000000000000000000000090
:100070000000000000000000000000000000000080
:100080000000000000000000000000000000000070
:10040000FFFFFFFFDFCEFFFFFCFF0F00FFFF0F002E
:10041000FCFF0F00FFFF0F00FCFF0F00FFFF0F00AE
:10042000FCFF0F20FFFF0F20FCFF7F40FFFF7F40FE
:10043000FCFF0D40FFFF0D40FFFFFFFFFFFFFFFF31
:10044000FFFFFFFFFFFFFFFFFFFFFFFFFFFFFFFFBC
:10045000FFFFFFFFFFFFFFFFFFFFFFFFFFFFFFFFAC
:10046000FFFFFFFFFFFFFFFFFFFFFFFFFFFFFFFF9C
:10047000FFFFFFFFFFFFFFFFFFFFFFFFFFFFFFFF8C
:10048000FFFFFFFFFFFFFFFFFFFFFFFFFFFFFFFF7C
:10049000FFFFFFFFFFFFFFFFFFFFFFFFFFFFFFFF6C
:1004A000FFFFFFFFFFFFFFFFFFFFFFFFFFFFFFFF5C
:1004B000FFFFFFFFFFFFFFFFFFFFFFFFFFFFFFFF4C
:1004C000FFFFFFFFFFFFFFFFFFFFFFFFFFFFFFFF3C
:1004D000FFFFFFFFFFFFFFFFFFFFFFFFFFFFFFFF2C
:1004E000FFFFFFFFFFFFFFFFFFFFFFFFFFFFFFFF1C
:1004F000FFFFFFFFFFFFFFFFFFFFFFFFFFFFFFFF0C
:1005000003460B439B0703D009E008C9121F08C02C
:10051000042AFAD203E00B780370401C491C521ED7
:10052000F9D27047D2B201E00270401C491EFBD2E2
:1005300070470022F6E710B513460A4604461946EE
:10054000FFF7F0FF204610BD00BE7047F0B581B048
:100550000A4D2E8A00240A4F03E03F1D641C102C14
:1005600009D03046E040C007F7D039680029F4D000
:1005700020468847F1E72E8001B0F0BD3061004091
:10058000C444002010B5EFF31081012282F31088DB
:100590004200194B98189B5A43B9184B9A5A184B5A
:1005A0001C8814434AF2005222431A800288521CCB
:1005B000028081F3108810BD10B5EFF31081012285
:1005C00082F3108840000C4B1A181B5A13B1138881
:1005D0005B1E1380128812B181F3108810BD074A88
:1005E000105A074A13884AF200541C43844314806B
:1005F00081F3108810BDC0461045002064A400009F
:10060000FEE30140022804D010B906480121017020
:1006100070470248024900F011B8C0460845002062
:100620006CA4000090C07E4018B103490160002016
:10063000704701207047C04600000203F0B585B046
:1006400002460120002A63D0002961D04B68002BAC
:100650005ED013682F48834202D10E2005B0F0BD52
:100660001060EFF310800122019282F310882A4A71
:10067000136800912BB9294B00241C7040241C7076
:10068000009913685B1C136080F31088088850B3CE
:100690000023234C1D4608E080012018B20087503B
:1006A00008336D1C088885421DD24F68F8184068D1
:1006B000C6B2000AFF58FA03EED58201A1180491D0
:1006C000B200029289188A780392FE22039C22408B
:1006D0008A70019909043A468A430499029C0A5196
:1006E0000F4C0099D8E7EFF31081019880F3108840
:1006F000094A106810B11068401E1060106820B9D7
:100700000648002202708022027081F310880020C7
:1007100005B0F0BD54524F5018450020030D044061
:1007200000080440F0B500284BD001464068274A35
:10073000904248D1002048600A6A9070CA695469A2
:100740001F2365091C4001221646A640AD00204C1F
:100750002E51BFF34F8FBFF36F8FCD69ED6A6E09D6
:100760001D401746AF40B5002F51BFF34F8FBFF369
:100770006F8FCD69ED696E091D401746AF40B5001A
:100780002F51BFF34F8FBFF36F8FCD696D6A2B4031
:1007900016469E406B099B001E51BFF34F8FBFF35F
:1007A0006F8FEFF3108382F31088D207C96909783D
:1007B000CA4008490C6814430C60096883F3108828
:1007C000F0BD0120F0BD0720F0BDC04655494353A0
:1007D00080E100E000700440F0B58AB001270028F5
:1007E00000D142E1002900D13FE18C6B002C00D107
:1007F0003BE10E6C002E00D137E1F368002B00D1F5
:1008000033E102464068E74B984201D10E272CE1C4
:100810000D7801273846A840E44B184200D123E167
:10082000B069032805D17069E14EB04201D10327B8
:100830001BE14869002800D517E1C869002800D5E8
:1008400013E1486A002800D50FE1C86A002800D5E6
:100850000BE10846203002909678032003908643EF
:10086000701CCF6B09979070002717706801D14DED
:100870004019D1611546203591C50998D062486864
:10088000022802D1022006439670CD6A1F240794E5
:1008900028462040012609968640C74C803405949E
:1008A000680980002650AC000194C44824180298BE
:1008B000007A0090BFF34F8FBFF36F8FA078FE26B2
:1008C00008963040A070A807C60EFF240694B440D6
:1008D0000398C04304900540B9482858A043009CA1
:1008E000A407240EB4400443B5482C50B548019CDD
:1008F00002514D692846079C2040099C84406809A4
:100900008000059E3450AC000194AC4820180C7C4B
:100910000094BFF34F8FBFF36F8F8478089E3440ED
:100920008470A807C60E069CB44004980540A448ED
:100930002858A043009CA407240EB4400443A048B8
:100940002C50A048019C0251CD692846079C2040AC
:10095000099C844068098000059E3450AC000194D5
:10096000964820180C7E0094BFF34F8FBFF36F8F13
:100970008478089E34408470A807C60E069CB44054
:10098000049805408E482858A043009CA407240ED4
:10099000B44004438A482C508A48019C02514D6A55
:1009A0002846079C2040099C844068098000059ED9
:1009B0003450A8000190814C0619029C20780590C3
:1009C000BFF34F8FBFF36F8FB47808980440B470B3
:1009D0007C48019C0251A807C00E069C8440049EDE
:1009E0003540774EAE59A643059CA407240E84409B
:1009F000344373482C50EFF31080099C84F3108823
:100A0000E4070D78EC40704D2E68A6432E602C68EC
:100A100080F31088106A8770106A0771106A477235
:100A2000106A8772106AC772106A47830878C340D9
:100A3000D80702D0106A4023C374106A06230377D4
:100A4000087818B9106A4FF6000383824E688868E8
:100A5000CB680001DC000443022E09D0F225012EF0
:100A600007D14020044304E04F4F38460AB0F0BDA0
:100A7000E225039E106A0470106A8571106A0C6C7E
:100A8000237EDB079B0F43736068A368156A2F7290
:100A9000C007000EDB079B0E1D182068099B9843BA
:100AA00002280AD1106A069B43702068022801D1EF
:100AB00010200543106AC57116E0106AC571156AE9
:100AC000E468A0786870607830402B78FC261E407F
:100AD00030182870E078A874E879A32303402078C0
:100AE0005C240440E018E871D76017615761976192
:100AF000D06940698300314CE318096C069109788C
:100B000005919D7808990D409D704309079908400B
:100B100009990E46864098002C4BC650264D2E5003
:100B2000D069C06A8300E3189E78089C26409E70B6
:100B30004309079D28400E4686409800234BC65027
:100B40001D4B1E50D069C06983001C4EF3189E785F
:100B500026409E70430928402C460E468640980049
:100B60001A4BC650144D2E50D069406A8300134E64
:100B7000F3189E78089D2E409E700440A1404009C5
:100B80008000124BC1500C4B19500398059901403D
:100B90007031106A81702B485060069840699060EF
:100BA00063E7C046554943537A0500000702000039
:100BB000FFFF00000000074000E100E0006300408C
:100BC00000E400E0504500200070044080E200E0B6
:100BD00070B503460120A3B399B392B35868194C7A
:100BE000A0420CD19C7803200440022C03D10C4677
:100BF0001443E40725D11C691CB1082070BD0720EF
:100C000070BD1C6AA5787B262E40A6709C78044097
:100C1000121B0C19DC601A611A6A9478802525432E
:100C200095709A780240022A07D108884FF6006131
:100C30000143186AC181002070BD186A0978C1702B
:100C4000002070BD5549435300F0E4FB00F05CFE0A
:100C5000FEE70000F0B581B014460D4606467F4F12
:100C6000387840BB0320386178611A49B9611A4865
:100C7000F86140F2004038620020B8627862F862A1
:100C80003966164979661021B9663867F866B87210
:100C90005421797239725221F9717867BFF35F8FED
:100CA0000F4907223846FFF72BFCBFF35F8F202048
:100CB000B871BFF35F8FEFF31087012181F31088C4
:100CC00030462946224600F00DF887F3108801B01F
:100CD000F0BDC04693A50000C4400020B4400020F1
:100CE0008CA50000F0B587B00E46182141435B4843
:100CF0004318D96A02290DD0012949D000200029C2
:100D000056D15C6A9D6AA5424AD9E143691891426D
:100D10004ED365E018461C300290184620300690ED
:100D20001846283001905C6A2433002003930AE0BF
:100D3000039B0498BFF35F8F1C60059AD21B2E465D
:100D4000EE193818A2B3049001980068E143A0425C
:100D500003D947180698006803E041180698006810
:100D60000F1802990968001B874200D3074608192B
:100D7000974200D317460592354631463A46FFF76B
:100D8000BFFB3C19069800688442D1D10024CFE70C
:100D90005C6A986AE1434118A0420BD9186A0BE0DB
:100DA0000746E1436818196A41183846914217D23C
:100DB00007B0F0BD186A0918071B914200D311460D
:100DC0001D462435D8690019B9420A461CD231465D
:100DD0001646FFF795FB3019BFF35F8F286025E0BB
:100DE000184624300690D869196A001915460F1B59
:100DF00097421ED931462A46FFF782FB6019BFF39E
:100E00005F8F0699086025E01C3303933146344612
:100E100016463A46FFF774FBE119F41B0398006885
:100E20002246FFF76DFBBFF35F8F2C60304607B0A3
:100E3000F0BD1C33314634463A461E46FFF760FB90
:100E4000E119EC1B30682246FFF75AFBBFF35F8FB6
:100E500006980460284607B0F0BDC0460C4000204C
:100E600082B080B582B00492059304AA019201AACF
:100E700000F006F802B080BC02BC02B008470000D7
:100E8000F0B5A1B009920E460690209000211E9167
:100E900040201D900CA81C901F9102200B900A91DD
:100EA000084606E03B4600F043FB1F98002800D5AB
:100EB0009FE23178761C25290BD0002900D182E2EF
:100EC0001E9B581C1D9A90423BD918469042ECD16B
:100ED00040E00A9D31780B46233B0D2B29D89A0020
:100EE00001A7BF180B9ABF4600F01FB800F021B849
:100EF00000F01FB800F01DB800F01BB800F019B8E2
:100F000000F017B800F015B800F011B800F011B8F3
:100F100000F009B800F00DB800F00BB800F000B810
:100F20001543761CD6E70122FAE70822F8E70422E7
:100F3000F6E70A46303A0027092A16D93A463346D8
:100F40001FE01C9AD1541E901F99491C1F911D9A95
:100F50009042AAD11C992098FFF77CFE1E998842E6
:100F600000D03EE200201E909FE700220A23534358
:100F70005A18303A731C71780E46303E0A2E1E46BF
:100F8000F4D32E2913D15E1C59780B46303B092B24
:100F900001D933460BE000270A237B435F18303F1B
:100FA000731C71780E46303E0A2E1E46F4D35E1C2A
:100FB0002539532900D978E78B0001A4E3189F460F
:100FC00000F0B5B800F0AEB800F0ACB800F0AAB8C8
:100FD00000F0A8B800F0A6B800F0A4B800F0A2B8DD
:100FE00000F0A0B800F09EB800F09CB800F09AB8ED
:100FF00000F098B800F096B800F094B800F092B8FD
:1010000000F090B800F08EB800F08CB800F08AB80C
:1010100000F088B800F086B800F084B800F082B81C
:1010200000F080B800F07EB800F07CB800F07AB82C
:1010300000F078B800F076B800F074B800F072B83C
:1010400000F070B800F06EB800F06CB800F06AB84C
:1010500000F068B800F066B800F064B800F062B85C
:1010600000F060B800F05EB800F05CB800F05AB86C
:1010700000F058B800F056B800F054B800F052B87C
:1010800000F050B800F04EB800F04CB800F040B896
:1010900000F048B800F046B800F044B800F042B89C
:1010A00000F040B800F03EB800F03CB800F03AB8AC
:1010B00000F038B800F036B800F042B800F04DB893
:1010C00000F030B800F02EB800F02CB800F02BB8CB
:1010D00000F028B800F026B800F024B800F023B8DB
:1010E00000F020B800F01EB800F01CB800F053B8B3
:1010F00000F018B800F016B800F059B800F012B8B7
:1011000000F080B800F00EB800F00CB800F000B8A5
:10111000099B1868011D19600168009201951CA8BF
:101120001022BFE6C1E6731C31781E4640E71E99C7
:10113000481C1D9A90420CD81C9A252353546EE0EB
:1011400009990B68181D08601E99481C1D9A904249
:1011500062D9084690426AD0A7E6099C21680B1D17
:1011600023600B68D91707935B184B4001210A2BAA
:1011700006D30A24B3FBF4F4491C632B2346F8D8A6
:10118000B942089700D30891002A079C5BD0002C35
:101190005BD400215AE0099A1068011D11600168B2
:1011A00000200823009301901CA810227BE6099BD5
:1011B00019680A1D1A600D680DE01C992098FFF748
:1011C00049FD1E9988423AD100201E901F986D1C3F
:1011D000002800D569E62B78002B00D165E61E9F1C
:1011E000791C1D9A914203D939469142EFD1E4E727
:1011F0001C98C3551E911F98401C1F901D9A914228
:10120000E5D1DAE7099B1868011D196001680092B1
:1012100001951CA80A2245E61A681C9B5A541E9088
:101220001F99491C1F911D9A904200D03DE61C99C0
:101230002098FFF70FFD1E99884200D192E600200A
:10124000C0431F9031E6002305E0012104232B4019
:101250009B080B43D31A02212940059111D087B96D
:10126000002800D521E6002C3CD4680769D51E99DA
:10127000481C1D9A904204934ED90846904255D07E
:101280005EE0E907ECD1002BEAD008998B421946C1
:1012900000D3089904915C1C0CE01C992098FFF77E
:1012A000D9FC1E998842CAD100201E901F980028A0
:1012B00000D5FAE5641E0899A1421BD21E9B591C59
:1012C0001D9A914203D919469142F0D1E5E71C9845
:1012D0002022C2541E911F98401C1F901D9A9142BB
:1012E000E5D1DAE71E99481C1D9A9042049304D96F
:1012F00008460DE0049B079CB2E71C9A03922D233D
:10130000039A5354049B1E901F99491C1F911D9AC8
:10131000644290420AD014E01C9A2B2353541E902E
:101320001F99491C1F911D9A904209D11C99209820
:10133000FFF790FC1E99884200D080E700201E90A5
:10134000049B1F98002800D5AFE50599A9B301219A
:101350002940394331D183B3079408998B42194608
:1013600000D3089905915C1C0DE01C992098FFF7AB
:1013700071FC1E99884200D061E700201E901F98E2
:10138000002800D591E5641E0899A14213D21E9B46
:10139000591C1D9A914203D919469142F0D1E4E7B4
:1013A0001C983022C2541E911F98401C1F901D9AF9
:1013B0009142E5D1D9E7059B079C009301951CA8B4
:1013C0000A2221466EE5012808DB1E9A72B10CA99B
:1013D0000698FFF73FFC1F981E9908E0002021B0F7
:1013E000F0BD0020C0431F9021B0F0BD0021401887
:1013F0001F9021B0F0BD00000548C1788900E24A85
:101400005158007807220240D140E54801607047FA
:1014100023E0014070B582B03648374901600025AD
:101420002846FFF7EFF800F057F901AE3570019844
:1014300001242046FFF7A6F8EFF3108284F310880A
:1014400021072E4803688B430360036882F31088EA
:101450002B4A13882340337013882340337012883B
:1014600022403270EFF3108284F3108803680B433C
:101470000360006882F310882046FFF79DF820463D
:10148000FFF7C0F81F480580011F4AF200520A808A
:101490001D4941601D4A891881601D4941F20002C1
:1014A0000A8004801B481C49FFF743F81B481C496D
:1014B0001C4AFFF725F81C4D1C48401BC117890F1B
:1014C00040188610012E07DB00DC2646164C01CDA5
:1014D00000198047761EFAD1FFF78EFF0220FFF732
:1014E00091F800F067F9002002B070BC02BC8E4693
:1014F00000F05EB908ED00E0000000000470044058
:1015000000080440040D0040E849002000040000E9
:101510002061004004400020D00500000040002071
:1015200008A60000040000000005000000050000FF
:10153000F0B587B01F46154605900122A942104616
:1015400006D301200B46B3FBF5F3401CAB42FAD2A5
:101550000D9B0C9EB842039700D303901A40019252
:101560002EB122B920209B0703D4069003E0059BEF
:101570003CE030230693059B07B106900398B042E8
:10158000304600D8039800900020029002E0D8680E
:1015900000282BD40398B04222D204965A681C46E5
:1015A0009B68581C904201D9184607E02268069EA5
:1015B000D654A060E268521CE26062682346049E32
:1015C000761E9042E3D10C4619681869FFF742FB7A
:1015D000059B9968884205D1029898602146D6E714
:1015E000009E03E00298C043D86021460496D86864
:1015F000002861D4012601E07F1E6E43022FFBD23A
:10160000B1FBF6F2AA42F8D29C680691B1FBF6F75C
:101610005A68611C914209D82BA0C05D1A68105508
:101620009960D868401CD8605A680C460699944264
:101630000BD119681869FFF70DFB059B9C68A04248
:101640000DD100249C60D868069900280AD4B6FB06
:10165000F5F27743C91BAE421646D6D202E000200F
:10166000C043D860019A3AB3049929B304994D1C38
:1016700001E0002820D46D1E039AAA421CD25A68A9
:101680001946631C934208D80868202202558B60D3
:10169000C868401CC8604A681C469442059BE8D153
:1016A00019681869FFF7D6FA059B9968884205D131
:1016B00000249C60D868DCE707B0F0BD0020C04380
:1016C000D86007B0F0BDC0463031323334353637DC
:1016D0003839414243444546F0B581B0284D294848
:1016E0002880294948F20000284A294B294C0C60DF
:1016F0004B608860CA600861274800260670274B47
:10170000187880000858DC1E2778072200921740BE
:10171000F840234A10606E75224F0920B8702248A5
:1017200002780AB146700670387858B1187C10B942
:10173000987DC007FCD03878C006FCD43E7038785D
:10174000C006FCD4194F1E74987DC007FCD0012040
:10175000D872114D2A1F10701E709A1F40F2001689
:1017600016601A78920089582278009B1A40D1405E
:101770000B4A1160F91E024A1180287001B0F0BDB9
:10178000FEE3014003A5FFFFD44500200024F40040
:1017900000127A00006CDC02C8FF7E4026E00140A7
:1017A00008400020A0E0014080E4014003A50000C3
:1017B0007047000000200449044A0B588350001D64
:1017C0008028FAD17047C046ACA4000000630040F6
:1017D00080B50748FEF7A6FF48B10020054906A2DC
:1017E00008A3019FBE4680BC01B0FFF739BB80BD96
:1017F0001C4500209CA500006465696E69745F75D6
:10180000617274000D0A2A2A2020525F5343495FF7
:10181000554152545F436C6F7365204150492066B7
:1018200061696C656420202A2A200D0A00000000EE
:10183000B0B582B00024019401A8FEF7F5FEEFF3E5
:101840001082012181F310881A4803681BB91A4BD2
:101850001C7040251D7003685B1C036082F31088B8
:10186000164A1368164D1D402B1D1360EFF31082AE
:1018700081F31088016811B10168491E0160006898
:1018800018B90D4804708021017082F3108800F0AF
:10189000B9F918B100200BA1FFF7E2FA00F09EF9A8
:1018A00028B100200FA1FFF7DBFAFFF791FF02B08C
:1018B000B0BDC04618450020030D04409C080440FC
:1018C000FA3FFEFF0D0A202A2A2055415254204992
:1018D0004E4954204641494C4544202A2A200D0AAD
:1018E000000000000D0A202A2A20436F64656C6501
:1018F00073732044656D6F204641494C4544202A4E
:101900002A200D0A0000000080B5FFF791FF00209B
:1019100080BD000070B584B07B4AEFF303801040B7
:1019200010388400AC480559A87803210140286A82
:10193000022902D1018A114000E04179037938225D
:101940001A40DB0603D5037FDB0700D14032037961
:10195000C7261E4006716846AE6A5EB1F068039005
:10196000B0680290706801903068009033460C3384
:10197000304601E003460C3342608160E96A196039
:10198000E96909780160696A8847A86A38B10399EA
:10199000C1600299816001994160009901605B48D2
:1019A000215CFE220A40225404B070BDB0B586B05E
:1019B000EFF30380C005400D8649425CFE231340CF
:1019C00043548549401840380468A27803252A40CA
:1019D000206A022A03D1008A4B49014000E0417984
:1019E0000191A069D8B1606901A9FEF789FDA078CD
:1019F0002840616909186161A169081AA06145D18F
:101A0000A26A02A892B3D0680590906804905068CA
:101A100003901068029011460C31104628E0A36A2A
:101A200002A85BB1D8680590986804905868039044
:101A3000186802901A460C32184601E002460C3231
:101A4000042343608160E16A1160E1690978016003
:101A5000616A8847A06AC8B10599C160049981602C
:101A6000039941600299016006B0B0BD01460C3196
:101A70000022012343608260E26A0A60E16909781A
:101A80000160616A8847A06A0028E5D106B0B0BD50
:101A9000B0B584B01C48EFF30381014010398C00CD
:101AA0004D480559286A81787B220A408270AA6ACB
:101AB00068465AB1D06803909068029050680190CF
:101AC0001068009011460C31104601E001460C31BF
:101AD0000022022343608260EA6A0A60E9690978A9
:101AE0000160696A8847A86A38B10399C1600299A0
:101AF000816001994160009901600448215CFE22E7
:101B00000A40225404B0B0BDFF010000026300404F
:101B100010B584B0EFF30380C005400D2D49425C41
:101B2000FE23134043542C49401840380468206970
:101B3000E169496B11B1E8B104B010BDD0B1A17831
:101B400003200140022907D1E16809884FF60062AD
:101B50000A43216ACA8103E0216AE2681278CA70E6
:101B6000A17801402069401A2061E2685118E160C3
:101B70000028E1D1206A81787B220A40111D817002
:101B80000021E1606846A36A5BB1D8680390986859
:101B9000029058680190186800901A460C32184656
:101BA00001E002460C32802343608160E16A1160EB
:101BB000E16909780160616A8847A06A0028BBD0A2
:101BC0000399C160029981600199416000990160A7
:101BD00004B010BDC26200405045002000204649BC
:101BE000464A0B785840521E491C002AF9D1C0B20F
:101BF0003F4908603C4800210278002AFCD001706F
:101C0000FAE7C04610B507480749FEF7E5FD044668
:101C100028B10020054906A209A3FFF721F92046B3
:101C200010BDC0461C4500202CA500009CA500004E
:101C3000756172745F696E697469616C697A650057
:101C40000D0A2A2A2020525F5343495F55415254BE
:101C50005F4F70656E20415049206661696C656414
:101C600020202A2A0D0A0000B0B582B00446406840
:101C7000042803D0022832D002B0B0BD1A48012592
:101C80000570A06802280CD101A987208870602007
:101C900048700D7017480322FEF79AFF134805603D
:101CA0001AE0124D2968062809D1012907D11148E7
:101CB0001149124AFEF78CFF022028600CE002292D
:101CC0000AD10B490968814206D16946062008708D
:101CD00008480122FEF77CFF60680228CCD1084842
:101CE0000221017002B0B0BD04450020D0450020A3
:101CF000044000201C450020041D000060870000F7
:101D00004C45002000ACFC079501FC079D01FC0739
:101D1000B501FC070000000000000000000000000A
:101D200000000000000000000000000000000000B3
:101D3000CD01FC070000000000000000CF01FC07FF
:101D40001512FC07391EFC07731EFC07A526F007B9
:101D5000D301FC07A116FC07D301FC07911BFC076C
:101D6000D301FC07D301FC07D301FC07250DFC07B9
:101D7000290DFC072D0DFC07310DFC07350DFC0767
:101D8000D301FC07D50DFC07D301FC07D301FC07E9
:101D9000D301FC07D301FC07D301FC07D301FC07E7
:101DA000D301FC070348854607F002F800480047C6
:101DB0005904FC0700ACFC070349C820088003490C
:101DC00008204880FEE7000000310050003300503A
:101DD00005200007018A0422114301820189402263
:101DE00011430181054A01211160418A01228908BC
:101DF0008900D203114341827047000080E200E075
:101E000010B520480189C908C9000181008A1E4C0B
:101E1000C00715D0608A8007800F012810D91B48A1
:101E20001949428820310A8182888A80C2880A80C2
:101E3000618AFF22813200889143C001014361829F
:101E40001349062008800F2000F00EF8012000F052
:101E50000BF8002000F008F86089042188436081B5
:101E60000020208062B610BD002809DBC106C90E23
:101E70000120884007490860BFF34F8FBFF36F8F81
:101E8000704700000003005000000050BC83FC07B6
:101E90000034005080E100E00F4880470F480047C1
:101EA00004207146084203D0EFF309800C4908472B
:101EB000EFF308800A49084704207146084203D01E
:101EC000EFF3098007490847EFF308800549084701
:101ED000FEE7FEE7FEE7FEE7FD00FC07A100FC07CA
:101EE000CD00FC07B500FC070146002000E0401CC7
:101EF0000A5C002AFBD17047FFB5002681B01D4661
:101F00000F461C46102902D9002005B0F0BD00285C
:101F100003DA0A2F01D10126404239465EF7F4FE6A
:101F20000A2901DA303107E0039A002A01D0412260
:101F300000E0612251180A392170641C0028ECDC91
:101F4000601B302102E02170401C641C0A9A904200
:101F5000F9D3002E02D02D202070641C00202070A8
:101F6000601B0021430807E0421A5219203A6C5CBA
:101F7000D67F6E54D477491C8B42F5D8C5E770B52F
:101F8000044625680498691A511A4D1E854200D2EC
:101F90002846002106E026685D5C357025686D1CCA
:101FA000491C25608142F6D3216800200870104644
:101FB00070BDFFB589B006460790002008901378E1
:101FC0000F46541C0798801B401CB84261D2252B39
:101FD00005D03A46314607A800F098F855E0257834
:101FE0000021641C302D09D12078641C002850D0B9
:101FF0003038092800D8C1B22578641C6C2D01D076
:10200000682D02D108952578641C692D21D008DC43
:10201000002D3ED0582D24D0632D40D0642D06D104
:1020200017E0732D40D0752D1BD0782D19D02520A9
:1020300000903EA33A46314607A8FFF7A0FF2B4683
:102040003A46314607A800F061F8022041A300900B
:1020500016E00C9A01CA0C920022009101AB0A21F1
:102060000AE00C9A752D01CA0C92F5D00091582DFA
:1020700013D0002201AB1021FFF73EFF01AB00900F
:102080003A46314607A8FFF77AFF2378641C002BF5
:1020900098D107980DB0801BF0BD0122EAE70C989B
:1020A0000378001D0C9094E70C9808C80C90184613
:1020B000FFF71AFF0090E3E77BE770B5264E0D4669
:1020C00004461146304600F0A7FFAAB2012321467C
:1020D000304601F02BF870BD10B51F4801F05EF8D6
:1020E00010BD0FB410B5C0B00446FF2144AB0131A0
:1020F0006846439AFFF7E0FF6946204606F077FD01
:1021000040B010BC08BC012004B0184710B50468EA
:10211000611A491C914201D3002010BD237001684F
:10212000491C016000200870012010BD4641544147
:102130004C3A20756E737570706F727465642070A0
:1021400072696E7466206368617261637465723A65
:10215000200000002E0A00000010005008B50524E1
:10216000C0202407208306F071FE00F09DFA0826A7
:102170005A4F602513E0012000F05EF90020009026
:10218000042168464DF75CFB002801D000F011FAED
:1021900004F049FD002802D106F0BCFA0BE02089CA
:1021A000000608D501208007006B000403D44C48CA
:1021B0000078C00711D004F034FD0028EFD172B6CA
:1021C00004F033FD01F066FD042810D0022815D07C
:1021D000032813D001283AD03AE05CF790FF0020A2
:1021E00000F02AF93F4800780428D1D1C3E73E48DF
:1021F0000078012801D0032000E0022000F02DF833
:10220000A08AC00600D53E8030BFA08AC00600D597
:102210007E8036484089C0050AD434486030008842
:10222000C00705D031492031488AA8432030488270
:102230002F498888A8432030888004F061F904F091
:10224000A7FC2C48016904229143016100E030BFE2
:1022500062B6C82028490880A1E738B569460870E9
:10226000052109070B8A042213430B82022801D09F
:10227000032809D11F4B1C6914431C611C4A203AD6
:1022800093895B085B009381184A5389DC056023BE
:10229000002C05DB154C2034658A9D434035658252
:1022A000134CA5889D434035A580022801D0032802
:1022B00013D1908840084000908000200090009A40
:1022C000521C0092142AFADB4A8992089200521C8E
:1022D0004A814A895206FCD5488038BD00330050F7
:1022E00054BAFC073089FC07B4BAFC072000005040
:1022F0002003005000ED00E000310050704770B541
:102300000D46002442F77DF92855641CE4B2202CC8
:10231000F8D3002070BD10B55EF75EFD10BD10B59E
:102320005EF763FD10BD7047704705210907488AB5
:10233000012280088000D2031043488270470000C9
:1023400039480178002902D080214170704737490F
:10235000002008703649C87070473348017800295A
:1023600002D0812141707047304901200870304906
:10237000C8707047002803D0012802D10020ECE784
:10238000DEE77047294900200978002902D0012999
:1023900000D10120704724488178002904D0491ECB
:1023A0000906090E817015D142780021002A04D057
:1023B0009207920F0270417004E00278002A01D067
:1023C000521E02701206120E017003D0012A01D1B2
:1023D0000020C2E7704700B5134A9078401C907007
:1023E0001078002805D1FFF7CDFF431CFFF7A8FFA9
:1023F000137000BD0C48C07870470020EFF31081C7
:10240000012282F31088052212071289120605D4D0
:102410000848028901231A4302811846002900D086
:10242000012181F3108870477788FC07B4BAFC0754
:1024300054BAFC070033005010B5A64CA17800290F
:1024400021D0A549002803D008884007FCD402E029
:102450000888400717D4CA88888811040A18002001
:10246000A0709E4800235043800B401C4008E06150
:102470001F204006492162F775FEE162A0626421D7
:102480004843000CA06110BD93494880088803228E
:102490001043088008880422104308808D490120D9
:1024A0008870704770B5052000070189302291437C
:1024B0000181018980221143018101890822114390
:1024C000018187490A88520852000A8043891822EC
:1024D00093434381048940231C430481048A0425D7
:1024E000AC430482848AA407FCD57A4DAA246C618B
:1024F000CD8801240F263602B5430B263602AD19CE
:10250000CD80CD882543CD804489944308344481CF
:102510004A88520852004A8001899943018101206A
:10252000800701688215914301606E4801683F226F
:102530005202914342148918016001680203114359
:10254000016070BD10B563490122D203C969904290
:1025500005D306F04EFC8905800A084310BD4843A8
:10256000800A10BDEEE710B55A49896948435E49B3
:10257000401849005EF7C8FB10BDF4E770B500F0E5
:1025800070F90446FFF7F9FF524D288120463C3090
:10259000FFF7F3FF5549001D88602A891018C01DF8
:1025A0004860FFF7DFFF5249401880B25CF738FE01
:1025B00070BDF0B54F4985B00120C863C86B0028D5
:1025C000FCD101208007C069424C2169884201D2B8
:1025D000002121611922411AD20191422AD320619E
:1025E000454801880391418802918788C6884349FC
:1025F00003C900900191684601F090F801F062F97A
:102600000546012020567F280CD0281A40B2002809
:1026100001DA404240B2082805DBE068401CE06077
:1026200001F0A2FC65703448029941808780C68021
:102630000399018005B0F0BD0020704710B5304906
:1026400000200860FFF79AFF01208007016B490016
:102650004908016310BD08B51E49888020498A8851
:10266000520852008A80002200920099491C009171
:102670001429FADB052109074B899B089B005B1C89
:102680004B814B895B06FCD54880E120C00000925D
:10269000521C00928242FBDB4889800880004881FE
:1026A00048890006FCD508BD10B500F046F80120A9
:1026B0008007016882151143016002F08AFA04F074
:1026C0000FFAFFF7BBFF0F49C82008800E4908200A
:1026D000488010BD8088FC070016005011110100D1
:1026E000200000500002004020A1070044B1FC0778
:1026F000E2040000C000004000150050D876FC073E
:10270000A8B9FC07003100500033005070B5002418
:1027100026460FE0A300C3581E80DB1C9D08630003
:10272000CB5AAD009B085B1E03D440C55B1E002B3B
:10273000FBDA641C9442EDDB70BD00B589B0142255
:10274000074968465EF75AFB054A05AB143207CACB
:1027500007C3052205A96846FFF7D8FF09B000BDE9
:10276000F876FC07010308180B490E4A4118C80CFB
:1027700048400A494840410108180949411848029F
:1027800089184840C100081807494118080C4840FA
:102790000649484070470000165DD57E3CC261C7BF
:1027A000B16756166C64A2D3C54670FD094F5AB581
:1027B000F8B52E4C00252746403724E0EE00A059FE
:1027C0002B4988421AD1301900904068800A400491
:1027D00014D001F09BFE092810D90098032240680C
:1027E0001202014609041040890E0843A1590860ED
:1027F000009820494068C001C00D02E030194068CF
:10280000A15908606D1C387EA842D7DCF8BDF8B528
:10281000164C00252746403717E0E80006191648F1
:10282000316981420DD101F071FE092809D913499E
:10283000706908400F4909884904084331690860F4
:1028400002E03069716901606D1C787EA842E4DCA9
:10285000F8BD06484030408A704704484030C08A7E
:10286000704702484030808A70470000B488FC07F7
:102870004C100040D087FC0738300040FFFF01FCBF
:102880000521090708783322104308707047052195
:1028900009070878CC221040087070472F490A8B2E
:1028A00003231B029A43000202430A8370472C4908
:1028B0008A8A03235B029A43C3085B021A438A8213
:1028C0008A8A0723DB0240079A43800C02438A82EC
:1028D00070472348818A808A4905890F8004400F08
:1028E000C9000818704710B504461D4820384089B3
:1028F000C00502D40120C04310BD01F05CF80028DF
:1029000006D0FFF7E6FFA04202D90020C04310BD69
:102910001348408AC00408D412480088000704D431
:10292000082C02D20420C04310BD0F4801210470BE
:102930004170204600F002F8002010BD00B5FFF7FE
:10294000B6FF074840300188012211430180044846
:10295000203841894907FCD500BD000020300050D7
:102960004000005020030050D487FC0710B53B4CBA
:1029700040010019490008181A43C28010BD374AA7
:102980004001801801228A4082807047334A40010A
:10299000801801228A404280704770B5064604982C
:1029A000144600280D46304602D0FFF7EFFF01E045
:1029B000FFF7E5FF224629463046FFF7D7FF70BDF7
:1029C000264A40018018008801228A40104000D029
:1029D0000120704770B5012421460A3881400D4618
:1029E00088B200F02BF884401D48C189A9430C43EC
:1029F000C48170BD10B504460A3804280AD82046A0
:102A0000FFF7E8FF1749A00040188038806D0028C4
:102A100001D0804710BD002CFCDBE106C90E01206F
:102A200088401149086010BD0A20E3E70B20E1E768
:102A30000C20DFE70D20DDE70E20DBE700280BD0C0
:102A4000411E4840C003010C002002E04908401C20
:102A500080B20029FAD17047102070470030005032
:102A600000140050E4B1FC0780E200E08307FF227D
:102A7000DB0E9A408907090E9940002808DB83087D
:102A800054489B001B18186890430843186070470F
:102A90000007000F083883084F489B001B18D869AF
:102AA00090430843D86170474C480088C00710D154
:102AB0004B48018809060CD40088C00509D40120C0
:102AC000484900040860BFF34F8FBFF36F8F0020A9
:102AD00070470020C043704710B5FFF7D8FE0522AD
:102AE000120790884049000504D53C4B1C880520FE
:102AF000A04311D09088C30639481FD58388DB07CF
:102B00001CD003881B0619D50122828002888023ED
:102B10009A430280486822E01888042210431880F3
:102B200018884008400018800C68002C05D002204E
:102B3000185E995E0A229A5EA04710BD9288D2065E
:102B4000FBD582889207F8D50288D205F5D50222F6
:102B500082800288FF2301339A430280886800281C
:102B6000EBD0804710BD70B505242407A58810263A
:102B70003543A5801A4C0425A58025889B06AD0900
:102B8000AD019B0E1D432580A181521ED1B26180F3
:102B90002188802211432180208102211020FFF70B
:102BA00065FF102000F00CF870BD0D4801218180F8
:102BB000018880229143018076E70B494860704785
:102BC000002806DBC106C90E01208840054980396E
:102BD0000860704700E400E000ED00E000020050F3
:102BE0000001005080E100E094B1FC07FEB5124CFA
:102BF0002088019060880090A788E6880F4800F040
:102C00008DFD00F0D0FD0E4D80092870062000F0EB
:102C100000FD00F0C8FD80096870052000F0F9FC97
:102C200000F0C1FD8009A8700198208000986080A4
:102C3000A780E680FEBD0000001500506477FC0709
:102C4000D887FC0710B5012000F007FC0520000222
:102C500000F0B5FC80B210BD10B5FFF7F3FFC00760
:102C600001D00D20C04310BD70B50024A74DFFF763
:102C7000E9FFC00704D0641CAC42F8D30020C04375
:102C800070BD10B500F050FC00F05AFC002000F0C0
:102C9000E4FBAB2000F093FC002010BD0DC89C4964
:102CA0000DC1704710B50446FFF7D6FF00281ED1AE
:102CB00000F0D3FB00F038FC9F2000F04CFC00201B
:102CC00000F049FC0006000A2060002000F043FCF0
:102CD00000062168000C08432060002000F03BFC47
:102CE0002168C0B20843206000F02AFC002010BD1B
:102CF00070B59CB006466C22864968465EF77EF841
:102D00001BA8FFF7CFFF002815D11B98002814D06F
:102D1000411C12D0092100246D460C226243521935
:102D2000526882420CD10C2044436019FFF7B6FF71
:102D3000285D307000201CB070BD0A20C043FAE747
:102D4000641CE4B28C42E8D30920C043F3E710B519
:102D5000FFF782FF002805D100F07FFBB92000F0CB
:102D60002EFC002010BD10B50446FFF775FF0028AB
:102D70000DD100F072FB204600F021FCFFF774FF3C
:102D8000002804D1FFF75EFF800701D5002010BDA9
:102D90000B20C04310BD70B50C460546FFF75CFF25
:102DA00000280DD10620FFF7DEFF002808D1022001
:102DB00000F053FB2006284300F001FCFFF754FF0E
:102DC00070BD70B50C460546FFF746FF00280CD1D4
:102DD0000620FFF7C8FF002807D1022000F03DFBC6
:102DE0002006284300F0EBFB002070BD70B51446B0
:102DF0000E460546FFF730FF002824D10620FFF7D6
:102E0000B2FF00281FD1FF200130844200D90446C0
:102E1000022000F022FB00F087FB0121304649062A
:102E2000084300F098FB002000F017FB05E028782D
:102E30006D1C00F090FB641EA4B2002CF7D100F0D2
:102E40007FFBFFF711FF70BDFFB583B0002001903D
:102E50000E460091FF20014315460C46002000F06D
:102E6000FCFA2B488068801BA84200D205462E46FB
:102E7000002715E000988019A04202D90098261A70
:102E8000761C0398B2B2C0190099FFF7AFFF01900A
:102E900000280AD1601CBF19EE1BFF3401340090DA
:102EA000AF42E7D306980760019807B0F0BDF8B5C8
:102EB0001D4617460C460646FFF7CEFE002824D1D5
:102EC000134839198068814202D9001B286000E04C
:102ED0002F60022000F0C1FA00F026FB03212046FB
:102EE0000906084300F037FB002000F0B6FA002482
:102EF00005E0002000F02FFB3070641C761C286871
:102F0000A042F6D800F01CFB0020F8BD80841E0013
:102F1000EC87FC076C77FC0702480068002800D0AB
:102F2000004770471089FC078307FF22DB0E9A4099
:102F30008907090E9940002808DB8308F9489B009F
:102F40001B18186890430843186070470007000F6B
:102F500008388308F4489B001B18D869904308433D
:102F6000D8617047F14930B4884201D0012100E0B6
:102F70000021EF4A4901891808E0838ADB07DB0F4B
:102F800012D00388541C8D68CC81AB54CA898B89BC
:102F90009A42F2D382885208520082808A69002ABB
:102FA00002D0C88930BC104730BC704710B5DF482C
:102FB00000F05EF910BDEFF31081012282F310885A
:102FC000DA4B052212079842908801D1802300E055
:102FD000402318439080002903D0012080F31088FB
:102FE00070470020FAE710B502464032938FDB07A6
:102FF000DB0FFBD183898022934313438381CCB2BF
:10300000C0231C520B041B0E03800902090E818091
:1030100081899143818110BDC44A904201D0012031
:1030200000E00020C24A4001801841617047BF4A59
:10303000904201D0012000E00020BD4A40018018EC
:1030400081617047B94A904201D0012000E0002020
:10305000B74A4001801801617047F0B5B34F0D4683
:103060000446B84201D0012000E00020B0494001F0
:1030700046182046FFF79FFF7C20005B286801026E
:10308000090A2046FFF7AFFFE978C8068A06800FD5
:10309000D20FC000920049071043490F0843A08196
:1030A000E878C109204680300183E978CA091AD03E
:1030B000BC4210D14906CA0F218A202399435201EC
:1030C00011432182E9784906CA0F218A02239943D4
:1030D00052001143218229790907890F81832979B7
:1030E0008907890F0184287A3077E8683061286978
:1030F00070616869B06128790007800F7077F0BD52
:10310000828A5209D207D20FFAD00180704730B5B7
:1031100013460C46054606E021782846641CFFF756
:10312000EFFF5B1E9BB2002BF6D130BD70B57F4D1B
:103130000446A84201D0012000E000207C4E40015E
:1031400086190020F080B280002B06D0012B07D119
:103150003160AC4205D1022004E02046FFF7D7FFE2
:1031600070BD032000F076F8A08802218843084350
:10317000A080A088802188430843A080317FAC4292
:1031800001D1022000E00320FFF7CEFEAC4201D1C6
:10319000022000E0032000F054F870BD818A890904
:1031A000C907C90FFAD07047818AC907C90FFBD078
:1031B0000088C0B2704710B50B46044606E02046B2
:1031C000FFF7F2FF521E187092B25B1C002AF6D174
:1031D00010BD70B5554D0446A84201D0012000E055
:1031E0000020534E400186190020B281F081B16069
:1031F000002B05D0012B06D1AC4205D1022004E002
:103200002046FFF7D8FF70BD032000F023F8A18807
:10321000012081430143A180A08804218843084301
:10322000A080317FAC4201D1022000E00320FFF7F3
:103230007BFEAC4201D1022000E0032000F001F847
:1032400070BD002805DBC106C90E01208840394940
:103250000860704700280ADBC106C90E01208840BB
:10326000344980310860BFF34F8FBFF36F8F7047D1
:10327000F8B52E4D2E4E044620890007000F062873
:1032800026D009DC012840D002281DD00428F3D123
:103290002046FFF767FEEFE7072828D00C28EBD180
:1032A000AC4201D0012000E00020400187192046F7
:1032B000FFF758FEA18849084900A180B969002993
:1032C000DAD0F8898847D7E7204600F01FF8D3E71F
:1032D0002046AC4201D0012100E0002149018919BA
:1032E0000A69002AC8D0818A9E2319400BE0204633
:1032F000AC4201D0012100E00021490189190A698D
:10330000002AB9D001219047B6E7F8BD074930B48B
:10331000884201D0012100E00021054A49018918B5
:1033200019E0000000E400E000ED00E000100050B3
:10333000F4B0FC0700E100E003891B069B0F032BA0
:103340001BD0838A9B06DB0F002B1BD0531C0C6801
:10335000CB80A25C0280CA888B889A42ECD3828898
:1033600002239A438280828880239A4382804A691A
:10337000002A07D0888830BC10477C231B5A9B0743
:10338000DB0FE1E710E60000114AD062114801822C
:10339000704710B500210846FFF7F6FF042000F043
:1033A0000EF810BD10B50B4880890949C96A00297B
:1033B00001D0884710BD042000F001F810BD00289E
:1033C00005DBC106C90E012088400349086070472B
:1033D000F887FC072013005080E200E010B57D2242
:1033E00012027D4C904201D17F2005E04100104641
:1033F0005DF78AFC401EC0B22189C909C901014399
:10340000218110BDEFF31080012181F31088052187
:1034100009078A8801239B021A438A80002800D06A
:10342000012080F310887047EFF31080012181F3B1
:103430001088052109078A8801239B029A438A8004
:10344000002800D0012080F31088704762498A88E4
:103450009208920002438A80704730B501245E4989
:103460007C235E4A002803D0012807D002280BD015
:103470008D889D431C358D8014740AE08C889C4394
:103480003C348C80022103E08C881C438C80042116
:1034900011741178E12300071940C00E0143117027
:1034A00030BD70B50446FFF7ADFF4B4D202028809E
:1034B00020794007400FFFF7D0FF20780007400F2A
:1034C000FFF7C4FF2078C107A88880229043090E27
:1034D0000843A880414923780878DB07400840006A
:1034E000DB0F184308700023AB812B8913432B811A
:1034F0002278D20712D12279C0069206520FC00E4E
:103500005201104308706088FFF768FFE079C10737
:10351000288840229043490E08432880288820218B
:1035200088432880002070BD2B49088820229043C2
:1035300008802A482849007840092031888070474F
:103540002549002020318880234908882022904383
:1035500010430880704770B51F4900230A8852093C
:1035600052010A800A880224A24322430A800A8860
:103570000424A24322430A800C880122944314436A
:103580000C80164A1278D506134A2C0F2032022CD2
:1035900001D3060C16811080088B000BC007C00FEA
:1035A000FAD1012C01D910890304280F888B04D08B
:1035B000C0180A8BD20BFCD170BDC0B2F9E700B5C0
:1035C0000346FFF7B1FF1846FFF7C5FF0346FFF7B5
:1035D000B7FF184600BD0000001200501489FC0718
:1035E000CF48018801221203914301807047CC48E3
:1035F00001880122120311430180642000BF401E94
:10360000FCD17047C649CA88D208D2000243CA809A
:103610007047C349CA8870239A4300010243CA8095
:103620007047F8B5050043D0BD4C2878218840226A
:1036300091438001014321806878FFF7EAFF2878F1
:10364000002803D168780009FFF7DCFFE87804263A
:10365000012820882DD0B04320802879A18800023D
:10366000C9B20143A180E08801274006400F7F02D4
:10367000042820D0FFF7B4FFA97860880F225202F7
:10368000904349020843608068796188890889000D
:1036900001436180A8790128208837D0B843208071
:1036A000E9796088FF22C132904389010843608034
:1036B000F8BD3043D0E7FFF7CCF89A4900280880DE
:1036C00001D199480880FFF792FF20883843208075
:1036D00021884020814301432180608830436080FD
:1036E0006088C004C00C608060880F214902884354
:1036F000084360806088FF21C1318843FF21813108
:1037000008436080608880088000D0E73843C6E7BF
:1037100083480188012211430180704710B5044697
:103720007F490020088021200001488040208880B7
:103730008A897020824340328A81062000F0E2F8B4
:103740002046FFF76EFFFFF7E3FF10BD7448418886
:10375000082211434180142000BF401EFCD1704755
:103760006F484188082291434180704710B46C4AE9
:1037700013880124E402A343C0020343138050884A
:103780003023984309010843508010BCDEE76448A9
:103790000188490849000180704761480188022278
:1037A00011430180704700B5FFF7F7FF5C480188BF
:1037B0008907C90FFBD10121C181008A00BDF8B57D
:1037C000574C05462088009067880020FFF7A6FF29
:1037D000608804210843608060880F21490201232A
:1037E00088435B021843608020889843208061886A
:1037F000FF20C130814301436180208840218843FC
:10380000A901084320802089800A80021843208172
:103810006089800A800218436081208880210843E3
:1038200020802188581081432180FFF7BCFF800948
:10383000FF38FF38023886B22088FF210131084363
:103840002080FFF7B0FF8009FF38FF38023880B2D0
:10385000012D16D02289991B920A92020A432281D5
:103860006189181A890A8902014361812088FF2130
:10387000013188432080FFF796FF00982080678001
:10388000F8BD71002289591A920A92020A432281D4
:103890004000E5E722490120C8812448006800284B
:1038A00000D0004770471E494A88D205520F062AA9
:1038B00001D9062102E04988C905490F0622511A9B
:1038C000C840704710B5FFF768FF154801888907A1
:1038D000C90FFBD10121C181008A124A1449128803
:1038E000801A7D22D2005043002801DD4A1002E0F8
:1038F000002801DA0F4A80185DF71CFA8011193090
:1039000040B210BD002809DBC106C90E0120884065
:1039100009490860BFF34F8FBFF36F8F70470000F6
:10392000001500502888FC07407600002889FC0715
:10393000AA0500002BFDFFFF80E100E010B5044662
:10394000FEF7C7FFA04202D22046FEF7B0FF534861
:103950000188C90708D101880122114301804F481D
:10396000603841894907FCD510BD38B54C4C054637
:1039700020684107490F684601700078854219D0D8
:10398000464860384089C0050CD5A81E03005DF785
:1039900089FA05040604040409000B2000E0132042
:1039A000FFF7CCFF2068C008C00028432060606893
:1039B0004007FCD538BD3B48007870473A49800045
:1039C00009583748016139494161704710B5EFF333
:1039D0001084012080F31088304860384089C00589
:1039E0000BD5304901200870FEF773FF304908708D
:1039F0002A480088C007C00F4870052000070188CA
:103A000080221143018026480168C908C90001606D
:103A100041684907FCD50320FFF7D0FF002C03D0F5
:103A2000012080F3108810BD0020FAE770B5EFF395
:103A30001084012080F3108805210907088880225E
:103A40001043088016480368DB08DB000360436806
:103A50005B07FCD5174B0361144B43610888904307
:103A600008800E4860384089C0050ED50D490020F9
:103A70000F4D08702878FEF71AFF6878002804D1E7
:103A800006480188490849000180002C03D0012024
:103A900080F3108870BD0020FAE70000800000501D
:103AA0000000F4072C89FC07D877FC07090404A45C
:103AB000D487FC070F009909F8B50125AD07AC6B59
:103AC0002046FEF74FFD6249624F4A688618002083
:103AD0004860394630465DF717F95F4948603A4615
:103AE0005043301A00D0381A80B20860286B082181
:103AF00088430843286359480460F8BD10B5FEF7B1
:103B0000C6FE052000074189890703D0418989083D
:103B1000890041810189802211430181018A0422A7
:103B200091430182818A8907FCD500F0ABF801201E
:103B30008007016901694907FCD510BD10B5FEF782
:103B40009FFE474801894907FCD4FEF7A0FE45487F
:103B500005210088090748804348444C0088801E9E
:103B6000608007202080FEF78BFE20884007FCD471
:103B7000FFF7C4FF10BDF8B53D480168C90703D081
:103B800001680222114301600168490204D50168FD
:103B9000012292051143016001272D4EBD072C69BA
:103BA000002C54D0200606D58020A8614BF7F1FCEC
:103BB0001E20FEF769FCA00703D50220A86147F785
:103BC000E6FB200708D50820A861002047F798FBEE
:103BD0000420307000F091FCE00505D5FF20013095
:103BE000A861012047F78CFBA00504D50120400205
:103BF000A8614BF737FD600603D54020A86147F761
:103C00007AFBE00603D51020A86145F737FF60076F
:103C10000FD50420A8611248018949084900018193
:103C20005BF7D4FA40F78EFB1E20FEF72DFC002038
:103C30003070E00706D00120A8615BF7E3FA4BF78C
:103C4000A8FC3770A006AAD52020A861A7E7F8BD78
:103C50003089FC0771020000400000403889FC07F1
:103C6000003300508488FC078888FC070016005049
:103C70000002004010B540F7AAF969488068694918
:103C8000086010BD10B540F7CEF966486449006879
:103C9000886010BDF8B5002500F0BEF80027009040
:103CA000FEF7A8FB0146604C0020002902D12179D3
:103CB000022900D100905D4E3189C9070DD15AF714
:103CC000EAFA002809D0E07801250028FAD005207A
:103CD0000007808AC00701D004259BE020880028C7
:103CE0007ED1FEF787FB002806D15148806A002864
:103CF00002D000F091F80090FEF740FC4A4881782D
:103D000068465BF7C0F800286AD00124A407206940
:103D100040067FD44448817868464BF791FD0028DF
:103D200078D00120FEF7BAFD0099002906D0206A5C
:103D3000FF383938DA2801D8491E00913D480188FA
:103D40003D4802683D488918016001208007C36B27
:103D50009B0A9B021343C363C26B394B1A40394B16
:103D60001C68A3021A43C263C26BD202D20A49057D
:103D70000A43C263344A009804250021904205D3C7
:103D80003249C820088008207080FEE7304B0CCBF9
:103D90005CF7E4FF0903000D0843611C401E8842E4
:103DA00000D1204620490979002900D0012147F798
:103DB0005DFC2848C06A8047FEF73EFC002802D020
:103DC000FEF75EFD01270120154C8007016B0904F9
:103DD000C90FFBD02068C005FCD52168802000E019
:103DE00018E081432160002F01D0FEF750FD70895B
:103DF000462804D24621184A081A10607181FFF73C
:103E000039FF20680006FCD50520000702898021C3
:103E10008A4302812846F8BD10480068806A7047CE
:103E2000000200403C89FC0754BAFC0700330050F4
:103E300074BEFC078888FC074CB1FC072C88FC0783
:103E4000FF03E0FF48B1FC0740420F000031005083
:103E5000A888FC0758BFFC073489FC0758B9FC0741
:103E6000002070477047704710B5282801D22820DD
:103E700002E0E62800D9E620FF21F33148437D2106
:103E8000C9005CF741FF8130C0B210BD7047704778
:103E900070B5C822694B0824694D022904D0012954
:103EA00002D01A806C80FEE7002804D0FF2804D0DE
:103EB0001A806C80FEE7022902D000F027FB70BD5B
:103EC0000C2070BD01218907086B0722104308638D
:103ED0005C480168021391430160704710B50220ED
:103EE000FEF7DCFC57480168020391430160564825
:103EF00000214163416B1F22120491434213891830
:103F0000416301060868F0229043E030086010BD6C
:103F100010B54D48416B1F2212049143421389187A
:103F2000416300060168C908C90001600520000757
:103F3000018908221143018100F0EBFA002802D028
:103F4000012000F0E0FA00F0C5FAFEF731FCFEF7C0
:103F50005EFC00F081F800F017F8FFF7BFFF00F0FB
:103F600023F800F0CAFA10BD10B500F0B3FAFEF75E
:103F70004EFC00F071F800F007F800F0A9FA00F02C
:103F800022F800F0BAFA10BD2F4B10B54033186874
:103F90002E4C0102090EC2B20A3109040A32204035
:103FA00011430143196010BD294A118B29488369C7
:103FB0001B0C1B040B438361518BC269120C12044E
:103FC0000A43C2617047224A203A118B2148C368D4
:103FD0001B0C1B040B43C360518B0269120C1204AF
:103FE0000A430261704710B5FFF7EDFFFFF7DCFFF2
:103FF00017482038018A17488268120C12040A43B5
:104000008260134A40329188036A1B0C1B040B43E5
:104010000362D188426A120C12040A4342620C49BC
:104020004A88836A1B0C1B04134383628988C26A13
:10403000120C12040A43C26210BD0000003100508D
:1040400000330050000200404000004000FF00FF2D
:104050002030004080ACFC07F0B5FE48406B7F216B
:10406000090288430B2109024018FA494863086A8B
:10407000F94980B24018F7490862886BF749012274
:1040800008405203F34980188863F24840300169C0
:1040900003231B0219430161818B10242143818377
:1040A000EC4820308188012421438180ED49EC488F
:1040B0000860ED4C20883F21090188432F21090128
:1040C00040182080E84820388169E84D490D4905AD
:1040D00049198161C169E64D294009256D024919D7
:1040E000C1614168E34D2940E34D49194160816850
:1040F000E24D2940E24D49198160C168E14D2940F6
:10410000E14D4919C1600169E04D2940E04D49196F
:104110000161E049C514097809064919C1256D01F5
:104120002943DD4D29600525DC49AD020D816D1D5A
:104130008D81DA4920310D892D0A2D0255350D81E9
:104140008D25AD000D82D64D8D82D64D0D83D44D7B
:104150000E3D8D83D349D14DC91D40352980D249AB
:10416000A181C16BD14C2140D14C0919C163FF2001
:10417000D04C6C302080CF482030068B1F21490165
:104180000B258E43AD0176190683CA4840308688D8
:1041900009278E43BF01F6198680068915278E43AD
:1041A0007F01F619068186898E4371198181FF206E
:1041B0008D30A080BF4880300189E024A14319439D
:1041C0000181818B4909490119318183B24820302D
:1041D000818B5B01994389188183AF4880300168E6
:1041E000C908C900C91C0160AB49B34840314862E5
:1041F000F0BDA94908B500208031C8620090401C7C
:104200000090FF28FBDDAD480078AA49C006820D6A
:104210004031C8681F235B0198431043C86008BD44
:10422000A7488C490068403108608A48816989093B
:1042300089011C3181618169C21391438161016BE4
:104240003F22120691430722920689180163016BEF
:104250003F22920191430F22D20189180163016B21
:10426000890989011E31016370477A48C16949088B
:104270004900C16170478F4808B54030C1688F4A16
:104280008905C90E1170C1681F2252019143C16096
:1042900081490120887180488030C16A032211431E
:1042A000C16200200090401C0090FF28FBDD08BD8B
:1042B00008B579490220887100200090401C0090C8
:1042C0000B28FBDB08BD634841210177C16903224C
:1042D0005202914302158918C16170475D48403010
:1042E0000168774A11600021C9430160594881691A
:1042F0008909890181618169C21391438161C16921
:104300000322520291430315C918C161C169702388
:1043100099434031C161016B3F231B0699430B2335
:104320005B06C9180163016B3F239B019943891800
:104330000163016B89098901183101637047F8B580
:10434000554803274771434C6068C009C0011430C9
:104350006060FFF7C3FF43202077FFF7A9FFFFF757
:104360008AFF0025261500950098401C0090B04259
:10437000FADB494903204871364880308068C70518
:10438000FF0DFFF736FF00950098401C00901028A5
:10439000FADBA0694002400AF9050843A061A06960
:1043A00048490840B9010843A061FFF78CFFFFF7B7
:1043B0007FFFFFF760FF00950098401C0090B0421F
:1043C000FADB354903204871224880308068C705F0
:1043D000FF0DFFF70EFF00950098401C009010287D
:1043E000FADBA0694002400AF9050843A061A06910
:1043F00034490840B9010843A061FFF764FFFFF7A3
:1044000057FFFFF738FF00950098401C0090B0421E
:10441000FADB2149032048710E4880308068C605C8
:10442000A069F60D4002400AF1050843A061A069A9
:1044300024490840B1010843A061FFF716FFFFF7C8
:10444000EFFEFFF7D6FE00950098401C0090102864
:10445000FADB39E00030004000008888FF00FEFFF2
:1044600059055C07800000402020004009581A00D0
:10447000FEE1FFFFE0E00000080929490000030316
:10448000696A686C031FFFFF70600000E0E0E0E015
:104490000B0A0A084089FC07001000402013004066
:1044A000340A000051080000070F00002F64E0FEEE
:1044B000101A060100120040500150012083FC0731
:1044C0003088FC073F80FFFF134846810120F8BD7C
:1044D00035E7704708B511480821017100210091A6
:1044E000009A521C0092102AFADB0091491C00919C
:1044F0001029FBDB0321417108BD084802218171AD
:104500000021818070470649087070470448007890
:1045100070470348407870473488FC07001000401B
:104520004089FC0710B518460C460146082315487B
:104530005AF7E2F821780C225143134A89188978F6
:104540000170618841800021818081715AF7EFF804
:1045500010BD10B518460C460146082309485AF705
:10456000CBF821780C225143074A891889780170C9
:104570006188418000218180032181715AF7D7F839
:1045800010BD00000EFD00009089FC07FFB585B04E
:104590000C46FD205EF7AEFC0390002768460770CE
:1045A00008986946060A20885FF7D0FD05466088AE
:1045B000002806D04449C820088044490820488083
:1045C000FEE7002D71D1FD2001F0BCFB69460978A2
:1045D00014238E46594342680B1DD35C022B28D10D
:1045E00051583B4A0988914223D10197029720886C
:1045F0005FF747FD00280ED001AB002204A94EF75B
:1046000035FB049821468005C00F5FF725FD0506A0
:104610002D0E07D049E02C48C82101802B490820E5
:104620004880FEE768460178E28830465FF7EFFE93
:1046300020E000280AD080698446002806D0A2889D
:104640006188A31D70466546A847054601970297F5
:10465000208801A94EF785F8002D26D10198008900
:10466000C00B07D16288A1882088A31D4EF7E3F80C
:10467000051E1AD1314603985EF75AFC0146A08800
:10468000079A801D83B213485AF736F80746A28866
:10469000A11D801D5CF7B2FB684600787880A08879
:1046A000B8803E7038465AF742F804230A48079A01
:1046B00008995AF721F82188018085705AF737F850
:1046C000002009B0F0BD0000003100500033005060
:1046D000022900000AFD0000160C0000F8B50025B4
:1046E000244CFF272E46002813D12846103026617F
:1046F000A082E7826660A660E681A681C0B22146FC
:1047000026605AF7F8F96D1CEDB21834022DECD37F
:10471000F8BDE08A5EF774FC002802D041682046AC
:104720008847E7826660A660E681207D5AF73DFAF9
:104730006D1CEDB21834022DEBD3F8BDF1B50D4D63
:104740000D4F00242E46E88AFD2803D1182060432F
:1047500080194760E88A5EF753FC002803D082681E
:10476000284600999047641CE4B21835022CEAD31D
:10477000F8BD00004889FC07BC78FC0710B500F0C4
:1047800095FC60F737FE0120FDF7F4FD10BD10B574
:1047900060F718FD002801D001F00AFF10BD10B528
:1047A00001F006FF10BD10B567490A780270401C81
:1047B000491C5CF723FB10BD6349498C018070479D
:1047C0000821018010214180002181807D21C1804C
:1047D000704770B50C46017800255B4B002904D06A
:1047E000012909D04820207070BD8278011D1A70FF
:1047F000581C5CF703FB01E040885884257070BDAD
:1048000001200870002048808880704710B501F0B2
:1048100032F810BD10B501F08DF810BD10B504468A
:10482000497800F063FB204601F0B2F8204601F021
:10483000A3F810BD7CB505460C20444A6843841893
:10484000E07A002838D128467A235843404B0A881A
:10485000C618002A12D00222002001F053F90400E9
:1048600037D030467A2221465CF7C8FA284601F054
:1048700004F96034607E01F018FC7CBD611D0622E5
:1048800068465CF7BBFA2079019A009901F0B6FC02
:10489000002815D0012813D0042802D0022813D0F4
:1048A00017E0611D0622032001F02CF9010010D051
:1048B00030467A225CF7A2FA284601F0DEF87CBD89
:1048C000611D06220120EFE7284601F0F4F80028D8
:1048D000F5D1284601F0E4F87CBD7A2148431C4913
:1048E00010B540187821095CC90701D001F006F91C
:1048F00010BD10B5044610220220891D01F002F9F6
:1049000001000AD07A20124A604380187A225CF7AC
:1049100075FA204601F0B1F810BD204601F0C0F84C
:1049200010BD10B501F0BCF810BD0178242909D1E3
:104930004078972806D10749C820088006490820F2
:104940004880FEE7704700009C89FC079089FC07BF
:10495000D689FC0700310050003300500021B84ACE
:1049600005E0834201D101207047491CC9B20C23E4
:104970004B43D35CFF2BF4D10020704770B5B04996
:10498000B04C0E460C36B04D0DE052185268002A5D
:1049900007D0C2B20C235A4351184968401C6070BA
:1049A0002DE0401C607060780C2242438B5CFF2B32
:1049B000EBD10AE089194968002903D0FFF7CEFF3F
:1049C000002809D02078401C207021780C20414319
:1049D000705CFF28EED117E020780C214143891943
:1049E0004968401C20700AE04919C968002909D0AB
:1049F000C1B21C2251434919C968401CA0708847A4
:104A0000002070BD401CA070A0781C2141436A5C4E
:104A1000FF2AE9D10020A07060702070012070BDD5
:104A2000F8B505460024864E0AE080198168002901
:104A300004D0641CE4B22846884701E0641CE4B258
:104A400020460C214843315CFF29EED17C4E0024E6
:104A50000C3609E08F19B968002903D0FFF77EFFF3
:104A6000002809D0641CE4B20C216143705CFF286B
:104A7000F0D10024744E10E0641CB968E4B22846FA
:104A80008847F1E780190169002904D0641CE4B269
:104A90002846884701E0641CE4B220461C214843B4
:104AA000315CFF29EED1F8BD10B5664CE0680028F6
:104AB0001CD1522304220921644859F71DFE0C2100
:104AC000E060017000214170614A8280C28007224B
:104AD0000272012242728172C1722B231954024662
:104AE0000C325CA308210B3060F796FBE06810BD28
:104AF00010B5544CE06800281CD15223042209212F
:104B0000524859F7F9FD0D21E06001700021417014
:104B10004F4A8280C2800722027281720122427251
:104B2000C1722B23195402460C324AA308210B30C0
:104B300060F772FBE06810BD70B5424D84002D1D1A
:104B40002959002912D101020E23042244480A31B6
:104B500059F7D2FD0921017028510C218180418033
:104B60000021C1807D22028141818181285970BD4F
:104B700070B5344EB068002829D134482C23042263
:104B80000921093859F7B8FD032101700A21B060E5
:104B9000417041210184002585760446458010211D
:104BA0000A305CF744F92021E176A583E5832D489E
:104BB0006584C08F0021002800D90846E084294878
:104BC000002140300088002800D908462085B068C0
:104BD00070BD3EB500251A49009501950C2234316F
:104BE000684602955CF70AF916480C2218306946A7
:104BF0005CF704F9134C08222434227015A1601CC0
:104C00005CF7FCF80E4965842431042059F773FFE2
:104C10000021042059F7A1FF3EBD69E744E78BE777
:104C2000084A00218000121D11507047A0E710B5FE
:104C3000FFF79EFF59F77BFD02490020886010BDF9
:104C4000F878FC077889FC07CC7AFC070D0D00008A
:104C50004C040000436F64654C65737300000000F2
:104C60000E0E0000F0BBFC0710B5104659F78AFF86
:104C7000002806D09649C820088096490820488018
:104C8000FEE7012304220921934859F735FD01214C
:104C9000017059F74CFD002010BDF8B50C78844622
:104CA0000F2C1CD010DC0C2C2DD008DCC825884E15
:104CB00008278848012C14D0032C0DD11AE00D2CA4
:104CC00021D00E2C08D10AE0112C20D0122C1ED09D
:104CD000132C20D0172C24D0604601F086FD002034
:104CE000F8BD4978002902D035804780FEE7FFF7FC
:104CF0009EFFF4E74978002902D035804780FEE71F
:104D000001F0B1FEEBE7487801F061FDE7E7487894
:104D100001F0A1FEE3E748784428E0D101F0F6FC79
:104D2000DDE748784728DAD1180AFFF7FAFDD6E719
:104D3000F8B51C4610460E4659F724FF022806D047
:104D40006349C8200880634908204880FEE7240A98
:104D50000C202746474361483D18AC70FF2C1AD001
:104D60000121E9700321042059F7F7FE5B483188DF
:104D7000C153707A28713146681D06220A315CF7EA
:104D80003DF87A205649604340186030017E012288
:104D9000204660F72BFA3146204601F054FC0020F3
:104DA000F8BD70B504460D784878092D08D0002864
:104DB0000ED04749C8200880464908204880FEE7B1
:104DC000002802D001F0C9FB05E001F0C5FB02E0BC
:104DD000204601F00AFD002070BD70B51D4610464A
:104DE0000C4659F7CFFE2A0A032806D03849C820B6
:104DF0000880384908204880FEE70C2042433748A5
:104E0000FF21101881700021C170204601F09CFC28
:104E1000002070BDF0B508780025324C89B01F46DF
:104E20001646002804D0012817D0022827D129E0EF
:104E30006846FFF7B8FC6846037832463946204694
:104E40000A3359F759FC0446057068460278411C3C
:104E50006280201D5BF7D2FF2BE069460D8068461B
:104E6000FFF7AAFC0A2332463946204659F744FC8C
:104E70000121017069460988418059F758FC0020DA
:104E800009B0F0BD0A233946204659F735FC0446DF
:104E90006846FFF795FC0220207068460088608015
:104EA00068464088A08068468088E0806846C08860
:104EB00020812046E1E7FEB51C46089B0E260A4DE0
:104EC0006F4668C71346224660F794F8FEBD00009F
:104ED0000031005000330050020D00009089FC07A3
:104EE000D689FC070B0E00003879FC07F8B50E4692
:104EF0007A214843134D0746441920460822267755
:104F00001430114601F084F9A01C1022314601F042
:104F10007FF93FF776FB6082E85D01210843E855A1
:104F2000F8BD70B57A214843064C05460019102299
:104F30001146513001F06CF9605D0821084360555D
:104F400070BD0000D689FC0710B50A78180A130056
:104F50005BF7A8FF08051D1D1D131B16191D0C224C
:104F60004D4C424312190123D3727A224B4C002339
:104F70004243A354FFF74AFC07E001F040FE04E07F
:104F8000FFF748FC01E0FFF749FC002010BD444951
:104F9000C8200880434908204880FEE7FFB5180A6A
:104FA00081B01E461C0A009023460C256B430A78EC
:104FB000394D7A20394F44435D19921EE019130090
:104FC0005BF770FF0604143C171F273C04468978E2
:104FD00060342176C90706D0691D062271305BF75F
:104FE0000DFF2879E0750098FFF777FC0020E87244
:104FF00029E017223A30891C5BF700FF385D042155
:1050000011E010226130891C5BF7F8FE385D102139
:1050100009E04A8A002A09D01C221E30891C5BF74D
:10502000EDFE385D0221084338550CE01C22801C3F
:10503000891C5BF7E3FE385D0121F4E73346039AF0
:10504000019801F0D2FB002005B0F0BD10B5180AA0
:10505000FFF7F0FB002010BD180A7A2250430F4AD8
:1050600009788018603001760020704710B5180A62
:10507000FFF73FFC002010BD002070470020704764
:10508000FEB51C46089B0726074D6F4668C71346AA
:1050900022465FF7AFFFFEBD9089FC07D689FC076B
:1050A0000031005000330050A879FC07F948002176
:1050B000017441618161C16001770246D1621421AE
:1050C00001707047F348002101744161C16070476D
:1050D00010B5092304221946EF4859F70DFB044681
:1050E0001B202070FC2060F759F96070FC20608064
:1050F0000420A0800021E1802172204659F717FB8F
:1051000010BD10B50446FC203FF7DFF9014604232B
:105110001A46E24859F7F0FA847059F708FB10BDB7
:1051200010B5DC4C2078032801D1FEF77DF914205E
:105130002070002003F0A2F910BD70B502460020D7
:10514000160BC04336030C0B090500D0641C002C61
:1051500001D000250BE00124002520213046FDF779
:105160001AFE012109037618002802D16D1CA54200
:10517000F3D370BDF8B50C4606461546200B491909
:105180000003A04202D11146204607E00A0B230B80
:105190009A4205D0012212038018091AFFF7CDFFA9
:1051A0006B462A4621463046FDF74EFEF8BD08B54F
:1051B000FDF767FD6846FDF79BFD08BDF8B50446A1
:1051C000B4480326017A36020906090FA171017A53
:1051D0001D230907090FE171018909040D0F2570CD
:1051E00001890905090F617082681202120FA2700D
:1051F00082681203120FE2708268120F22718068B7
:1052000032460001000F6071012000902846FDF732
:10521000C4FB00250095E179A0791C233246FDF7F7
:10522000BCFB0095E178A0781B233246FDF7B5FB67
:105230000095617920791A230022FDF7AEFBF8BDB5
:105240003EB5AA216A46934C117221780620132993
:105250000FD11046FFF7B2FF6846FFF7A8FF61685D
:10526000012202A8891CFFF785FF40B2002800D167
:105270000220C0B23EBD10B5012003F0FFF8854CFE
:105280002078C00601D5102000E00820FFF739FF84
:10529000002020746061A061E060207710BD70B5CF
:1052A0000D46010E7B4C0A4614290FD2227080B2A3
:1052B0006060002A01D0012A01D179486060122A79
:1052C00001D0132A02D102280AD86074132917D0FA
:1052D00008DC102917D0112915D0122908D10FE0A8
:1052E000112017E0FD2926D0FE2916D0FF290CD069
:1052F0000820FFF706FF142020700020286070BDF2
:10530000FFF7B9FF70BD082004E0FFF709FFFFF7C2
:10531000D9FE0320FFF7F5FE70BD207F002801D0E5
:10532000042001E0FFF78CFFFFF7EBFEFFF7F8FE2C
:10533000FFF7C8FE70BD5B488078FF2806D055494E
:10534000012220310A725FF79DFF70BD56483FF77A
:105350008FF870BD10B50446FC203FF7B6F8014643
:105360004E4804231A46401E59F7C6F9046059F7FF
:10537000DEF910BD0021FF2802D0401CC0B27047EA
:1053800008467047FF2802D0FF2905D006E0FF2914
:1053900008D0002906D001E0002801D0884201D9B8
:1053A000022070470120704738B53A4B0446002070
:1053B0001B78C043132B03D16B462046FDF777FDC6
:1053C00038BDF7B596B0002618980C4635464028EB
:1053D00005D32078702802D16078512802D012209D
:1053E00019B0F0BD67682B493846403008621F216C
:1053F0000C2209036846FFF7D7FF002847DB684601
:105400000078702803D168464078522801D01420D3
:10541000E6E70198119002981290002F04D011999C
:10542000401A4038B84201D21320D9E768464022DA
:105430001090FFF7B9FF002829DB6846C078149068
:1054400068468178274603A80C371590AA2907D10A
:1054500068460078702803D168464078512803D008
:105460000126002014900BE01022384615995BF7B6
:10547000E9FC002804D1E0690799884200D102269E
:10548000402212991098FFF78FFF00280EDA16209D
:10549000A6E7000094B5FC071B0D000005FC00000A
:1054A000BCB7FC079089FC07111111116846C07840
:1054B000139068468078AA2807D16846007870283B
:1054C00003D168464078512803D00125002013906D
:1054D0000BE01022384615995BF7B4FC002804D184
:1054E000E0690799884200D102251698002801D06A
:1054F000022807D9012E10D0012D1BD01399149822
:10550000FFF740FF0746FF22402168465BF788FC13
:10551000022F15D0022E24D004E0FF22402168463D
:105520005BF77EFC574911984860002D1BD0022D77
:1055300019D00EE0FF22402168465BF771FC01E0C4
:10554000022D0ED04F4912984860002E07D0022E2F
:1055500005D001264B4D2878132809D03AE014983D
:1055600002E015203CE71398FFF704FF0646F1E739
:1055700001216868FFF7E1FD00282BD16846C6705D
:1055800060680190A068029020460C300EC8A069A7
:10559000069003A80EC0E069079021786846017064
:1055A000617841702020015D08A8017028781328D7
:1055B00010D1402269681098FFF7DCFD002809DB54
:1055C0006968189A204640304031403AFFF7D2FDD2
:1055D000002801DA062003E7002001E77CB5294C0A
:1055E0000226002022462C32616904E0237F155CEC
:1055F0006B402377401C8142F8D82078122801D0D4
:10560000132801D0082638E06846FFF7D7FD684622
:10561000FFF7CDFD6269002A02D0A069002818D0EA
:10562000A169206A8A18431C9A4220D8824201D973
:10563000401A6061606825464118124862692C3042
:10564000FFF798FD002812DB6969A8694018A86176
:105650000EE00C49607C2C31FFF7B3FE002801D02E
:1056600086B205E06269A1698918A16100E0062699
:1056700000206061A069FFF76DFEF0B2FFF741FD09
:105680007CBD000094B5FC0770B53F4C0D462078FA
:10569000142827D2A978002922D0E16800291AD03D
:1056A000C0061FD5EA786069012381185B02994220
:1056B00013D836494018291D5BF7A0FBE9786069CB
:1056C00040186061E168814201D1FFF787FFE1681E
:1056D0006069884204D9052000E00720FFF711FD2A
:1056E000002070BD0820F9E708B5002000908878F8
:1056F000002806D048686946FFF7D1FD0098FFF7FB
:1057000029FE002008BD10B5887800280ED01E485C
:1057100049688160007802280AD0032808D012283E
:1057200004D0132802D00820FFF7EBFC002010BDA6
:105730000020FFF70FFEF9E710B58878002813D096
:10574000898800290DD010480278142A0CD2D2067C
:105750000CD501225202914205D90720FFF7D1FC56
:1057600002E00520FAE7C160002010BD0820F5E73F
:10577000FEB51C46089B0426054D6F4668C71346B8
:1057800022465FF737FCFEBD94B5FC07C0B5FC07A9
:10579000E079FC07052000070089000608D50120F4
:1057A0008007006B000403D403480078C00701D0D1
:1057B000002070470120704754BAFC071A4A0021A4
:1057C0008B00D358002B04D0491C0529F8DB17485F
:1057D00070478B00D050164808180004000CF6D013
:1057E000704770B51249049C49424118052901D3FC
:1057F000012070BD00F00DF80025002806DB0A4AE4
:1058000081005058002801D0555080472570002055
:1058100070BD074949424018052801D240B270477F
:105820000020C0437047000054B1FC07FFFF000098
:105830000E040000F8B5B54E85007159002918D145
:1058400001021E230422B2480A3158F755FF0127EE
:105850000770044670510722AE49801C5BF7CEFAF0
:10586000AC484178012903D18078F72108402071A4
:1058700067707059F8BD10B50446FFF7DBFF58F7A5
:1058800056FF0020A14AA100505010BD70B59F4D99
:1058900084002D1D2959002901D0084670BD010240
:1058A0001E2304229A480A3158F726FF042101706A
:1058B000285170BDFFB581B01F460446FFF7E6FFD3
:1058C000924D0646A4002D1D28591021801C5BF71F
:1058D000AEFA2859039A801C02995BF78FFA777009
:1058E000304658F724FF0020285105B0F0BD70B5B0
:1058F000864D044686000835A859002818D1210293
:105900001E23042282480A3158F7F6FE0621017050
:1059100001214170A8512046FFF703FB7A20444340
:105920007D4810222118A8595131801C5BF766FA76
:10593000A85970BD10B50446FFF7D9FF58F7F7FE18
:10594000724A0020A1000832505010BD70B56F4D52
:1059500084000C352959002901D0084670BD010288
:105960001E2304226A480A3158F7C6FE0721017037
:1059700001214170285170BD10B50446FFF7E6FFC4
:1059800058F7D5FE614A0020A1000C32505010BDDE
:1059900070B50546FFF7DAFF04467A2045435E48B6
:1059A00008222D18287F2077688A608229462046A1
:1059B000143114305BF722FAA91C1022A01C5BF7EB
:1059C0001DFA70BD70B5514D84001035295900295C
:1059D00001D0084670BD01024D4812230422001D6B
:1059E0000A3158F789FE285170BD10B50446FFF7FB
:1059F000E9FF58F79CFE454A0020A10010325050A4
:105A000010BD10B50446FFF7DDFF012101707A21BA
:105A10004C43414961180A7F42741022401C891C82
:105A20005BF7ECF910BD10B5FFF7CCFF002101705A
:105A300010BD70B5354D840014352959002901D0A9
:105A4000084670BD334902238E7801023048042293
:105A5000801D0A3158F750FE0C2101704670285104
:105A600070BD10B50446FFF7E4FF58F760FE274A03
:105A70000020A1001432505010BD10B504467A2009
:105A80002549604340186030017E012220465FF7BF
:105A9000ADFB2046FFF7B5FF2046FFF7A6FF10BD80
:105AA00010B50446FFF7BFFF2046FFF79EFF2046D4
:105AB0005FF7E8FB10BD70B5064600F0CDFA0500B3
:105AC0001AD02B01042209211448083358F714FE78
:105AD0000446172020700C20464311486570311889
:105AE0000622A01C491D5BF789F92046083000F00A
:105AF000C3FA204658F71BFE284670BD10B500F0CB
:105B00009EF910BD10B500F09AFA10BDA0B1FC07C7
:105B1000140E0000B083FC07D689FC07140D0000AA
:105B20009089FC077047704770B50D460446FFF733
:105B300031FE002806D07B482A460421201859F758
:105B40001AF970BDFCF759FC764804220823114667
:105B5000801E58F7D1FD4560047058F7E8FD70BD10
:105B6000F8B59646704A9C468318C8266F4F08229F
:105B70000024069D002B2BD0012B08D0022B0CD02B
:105B80006949C91E41180A2938D30120F8BD634666
:105B9000724600F099F828704CE00878431E092BF3
:105BA00012D81A46830062481B1FC658614B9E429A
:105BB0003FD10346920028339B5883504A680878A7
:105BC0001146FFF7B1FF34E03E805B484280FEE7BC
:105BD0004B68002B06D05948834207D33E80564875
:105BE0004280FEE73E8054484280FEE708784D49F7
:105BF0001A464018042159F7BEF81AE04A49891E8E
:105C00004018C0B2411E092913D8494983005A18C7
:105C1000803AD16F00290CD0464EB14209D0484E8F
:105C2000B14206D0D467424A28329A18803AD467E3
:105C300088472C700020F8BD70B50A460146C82080
:105C40003A4B08243C4D002905D03C4EB14205D3C7
:105C500018806C80FEE718806C80FEE7344B0020D3
:105C600084001C59002C04D0401C0A28F8DB0020BA
:105C700070BD84001A51401C0406240EF7D0204643
:105C8000FFF752FF204670BD70B50446401E09283C
:105C900019D82748A1000D18803DE86F002812D0C0
:105CA000274EB0420FD01F480421201859F7ADF8F5
:105CB0001C48042208231146401EEE6758F71CFDBD
:105CC000047058F734FD70BD10B508780C46411EBD
:105CD00009291FD882001648121F8258184B9A4271
:105CE00005D10022890042502830425010E089003E
:105CF0004058104988420BD1042208231146094814
:105D000058F7FAFC217801706168416058F70FFD7F
:105D1000002010BD0549C820088007490820488098
:105D2000FEE7000003040000FFFBFFFF003100500E
:105D3000508AFC07233EFC0700330050FCFF3F0065
:105D4000213EFC070021154A06E0834203D11C20B6
:105D5000414388187047491C1C234B43D35CFF2BDD
:105D6000F3D10020704710B51823042209210C48F4
:105D700058F7C2FC04461B202070FD205FF70EFB85
:105D80006070FD2060800420A0800021E180E1603F
:105D90002161A182204658F7CAFC10BDCC7AFC07CD
:105DA0001B0D00003EB51D46069B002400931346C4
:105DB000019402942A465FF71DF93EBD10B5F748DD
:105DC00000F02CFAF648F7490088884204D1F648DA
:105DD000F649C088884202D0002000F0F5F910BDD5
:105DE000F7B500260746FF253446ED4801198978A6
:105DF000AA2904D0002E19D10126254616E07A21C1
:105E000061430918087C3A781040400706D53846A7
:105E100010223A304A3105E025460BE03846072289
:105E2000713081315BF70EF80028F5D0641CE4B2C4
:105E3000022CDAD30298067001980570FEBDFEB5FB
:105E40000027064668460771FF2101703C467D1E0B
