:0200000407FCF7
:100000005060FC077501FC077D01FC079501FC07AA
:1000100000000000000000000000000000000000E0
:10002000000000000000000000000000AD01FC071F
:100030000000000000000000AF01FC07251CFC07C9
:100040008728FC07C528FC07A526F007AB11FC078D
:10005000031AFC07B301FC074F1EFC07B301FC07A2
:10006000F329FC07B301FC076310FC076710FC07CA
:100070006B10FC076F10FC077310FC078918FC0756
:10008000C510FC07B301FC07B301FC07B301FC0773
:10009000B301FC07B301FC07B301FC07B301FC0784
:0200000407FCF7
:100110000348854604F0E6FF004800475503FC0706
:100120005060FC0710B51149062008800F2000F030
:1001300010F8012000F00DF8002000F00AF805206A
:10014000000741890422914341810021018062B668
:1001500010BD002809DBC106C90E012088400449F2
:100160000860BFF34F8FBFF36F8F704700340050AC
:1001700080E100E00F4880470F48004704207146A7
:10018000084203D0EFF309800C490847EFF30880D9
:100190000A49084704207146084203D0EFF309805A
:1001A00007490847EFF3088005490847FEE7FEE7DF
:1001B000FEE7FEE72501FC071101FC075102FC07E1
:1001C000C501FC0710B504461E484089C00508D586
:1001D0001B2000F089FE1B4860300188012211437A
:1001E000018005221207508AFF218131884311883E
:1001F0000907890FC9010843508213492068086024
:1002000060684860A0688860E068C860206908612C
:1002100060694861A0698861E069C8610C620B4847
:10022000836A4B62C36A8B62036BCB62C36B0B63E3
:10023000436B4B63806B8863908AC00601D500BE18
:1002400010BDFEE7200000500090FC0700ED00E02C
:1002500070B5052504462D07288A04210843288205
:100260002889402108432881244801260660244922
:100270000820088023484089C00507D51B2000F0CE
:1002800033FE20486030018831430180688AFF21B5
:100290008131884329880907890FC9010843688289
:1002A00019492068086160684861A0688861E06851
:1002B000C8612069086260694862A0698862E06973
:1002C000C8620C631148826A4A63C26A8A63026B1D
:1002D000CA63C26B0C4940310A60426B4A60806B52
:1002E0008860A88AC00608D500BE688A01218008F7
:1002F0008000C9030843688270BDFEE780E200E029
:1003000000330050200000504090FC0700ED00E05A
:1003100070B516460C46012802D060F797F870BDFC
:1003200006220A490A485EF717FA0625002803D074
:1003300006220749304603E00449062208313046C8
:100340005EF7E6F92570002070BD00005651FC07ED
:10035000248CFC0708B500F0C1F800F0C6FB0524AA
:1003600001250027240760260FE0284600F06EFADA
:100370000421684600974DF789F8002801D000F065
:1003800006FB03F03FF800280BD02089000608D5B3
:1003900001208007006B000403D497480078C00751
:1003A00013D003F05EF80028EFD100F03BFB0028EB
:1003B000EBD072B602F05EFB042810D0022815D0F4
:1003C000032813D0012845D049E05CF722FB002028
:1003D00000F03CFA894800780428D2D1C5E7884863
:1003E0000078012801D0032000E0022000F039F855
:1003F000A08AC00602D583490820088030BFA08AA1
:1004000081484089C0050AD47F4860300088C00711
:1004100005D07D492031488AB043203048827B494D
:100420008888B043203088807948C078002807D079
:100430007848006801898AB2416803205BF734FD7F
:1004400002F0DBFC03F010F87348026904218A43D0
:10045000026104E000F0E6FA002800D030BF62B686
:1004600093E738B569460524087005462407208AB5
:10047000042108432082284600F069F8284602F04B
:10048000F2FF61484189CA056021002A05DB5E4B05
:1004900020335A8A8A4340325A825C4A93888B437B
:1004A00040339380022D01D0032D16D16188584A24
:1004B000918081884908490081800020009000993E
:1004C000491C00911429FADB618989088900491CBB
:1004D000618161894906FCD5608038BDF0B54F481F
:1004E0004F49C523C1274F4A884201D31C4604E027
:1004F000904201D33C4600E0C0244B4D4B4E444853
:10050000AD194B4E8470AD190126B6038560B54216
:1005100001D8D42500E0C0252540464C45708C42CA
:1005200013D2454B2546EB18944205D38B4201D29A
:10053000D1230AE03B4608E0934201D2D42304E0F1
:100540008B4201D2D02300E0C0230370F0BDF8B588
:10055000022801D0032846D12F4A136904210B43F6
:1005600013612A4A203A93895B085B009381052432
:100570001022274E240702287578608A34D0104351
:100580006082608A08436082B068C01C870800F0FF
:1005900051FF608A10210843608228487F1E07624D
:1005A000EFF31080012181F310882188802291438C
:1005B0002180002800D0012080F310881248408953
:1005C000C00508D50B2000F08FFC0F486030018873
:1005D00001221143018003205BF78CFC002806D028
:1005E0000120F0702583F8BD90436082F3E700207E
:1005F000F07030780540F5E74CBAFC07308DFC0709
:10060000ACBAFC070033005020000050200300501B
:10061000F08BFC0758B9FC0700ED00E0F08BFC07FD
:100620000070FC070040FC071001FC078858000020
:10063000000004F85060FC070C0400000000F40700
:10064000704770B50D46002442F759F92855641CCF
:10065000E4B2202CF8D3002070BD10B55EF746F848
:1006600010BD10B55EF74BF810BD05210907488A8B
:10067000012280088000D20310434882704770B581
:10068000064614460D460B4800F0BEFD224629469C
:1006900030464DF718F970BD10B54EF7BCFD054852
:1006A00000F0CFFD10BD10B54DF78FFB014800F0F5
:1006B000C8FD10BD0010005058480178002902D034
:1006C0008021417070475649002008705549C87014
:1006D000704752490A78002A03D000280CD0022023
:1006E0000BE0002801D0022000E001204C490870F6
:1006F0004C490120C8707047012080304870704715
:10070000F0B594460A46484908269E460E8072B6C1
:1007100005242407218A0425294321822789802151
:100720008F432781278940210F4327813F490D802F
:10073000A1886F02B943A1803D4F691F3960A18A2A
:10074000C906FCD4618AFF278137B94361823949E0
:100750000F8A7F087F000F82374F3B692B433B6135
:10076000278BBF08BF0007432783208B0C27B84384
:10077000920010432083208B302290436246120166
:1007800010432083208A01221043208288899043CD
:100790007246104388810889072210430881254842
:1007A000203001880F22920211430180018801222A
:1007B000920311430180214949896022CB051F49D9
:1007C0002031002B4B8A07DA934320334B82018878
:1007D00089088900891C04E013434B8201880323A4
:1007E000194301800188314301800188A9430180B8
:1007F000818891434031818000BF00BF00BF30BF7E
:10080000F0BD074900200978002904D0012903D050
:10081000022900D10220704701207047FC8BFC07A1
:10082000ACBAFC074CBAFC07003300500002005081
:1008300080E200E00003005000ED00E020000050E6
:100840000148C07870470000FC8BFC0710B5FE4CD7
:10085000A178002921D0FD49002803D0088840074D
:10086000FCD402E00888400717D4CA88888811049D
:100870000A180020A070F64800235043800B401C4B
:100880004008A0611F204006492162F78CFD61638A
:10089000206364214843000C606110BDEB4948802F
:1008A0000888032210430880088804221043088027
:1008B000E54901208870704770B50520000701895F
:1008C00030229143018101898022114301810189F4
:1008D000082211430181DF490A88520852000A8028
:1008E0004389182293434381048940231C43048194
:1008F000048A0425AC430482848AA407FCD5D24D23
:10090000AA242C61CD8801240F263602B543052682
:100910007602AD19CD80CD882543CD80448994439E
:10092000083444814A88520852004A800189994318
:10093000018170050168821591430160C648016814
:100940003F22520291434214891801600168020358
:100950001143016070BD10B5BB490122D203896902
:10096000904205D304F0D0FB8905800A084310BDEE
:100970004843800A10BDEEE710B5B348C069FFF7E1
:10098000FAFFB649401880B25CF7D4F810BDF0B554
:10099000B34885B00121C163C16B0029FCD101209E
:1009A0008007C069A84CE168884201D20021E1605B
:1009B0001922411AD201914227D3E060A948018847
:1009C0000391418802918788C688A74903C900908E
:1009D0000191684601F008FA01F054FA0546607882
:1009E000281A40B2002801DA404240B2082805DB4C
:1009F000A068401CA06001F045FD6570994803990E
:100A00000180029941808780C68005B0F0BD10B595
:100A10008D49496948439549401849005DF7FEFDF5
:100A200010BDF4E710B5924801240078C00705D046
:100A30009048417D01290CD1007D06E005205BF73F
:100A400088FD002805D18C48807A002802D0032830
:100A500000D00024204610BD10B588490020086051
:100A6000FFF78AFF01208007016B490049080163F5
:100A700010BD834A400110B580184A0012180324A3
:100A80002402D48001228A4092B242800021001DBB
:100A9000491CBE29FCD3028010BD08B56D498A8867
:100AA000520852008A80002200920099491C00914D
:100AB0001429FADB052109074B899B089B005B1C65
:100AC0004B814B895B06FCD54880E120C000009239
:100AD000521C00928242FBDB4889800880004881DA
:100AE00048890006FCD508BD7047F8B5654808265A
:100AF000068000F03FFA644CA188684601800088B7
:100B0000FFF7F2FF68460088042398433AD000209C
:100B1000A0805D48203001880F229202114301809D
:100B20004C4A2032518A314351824A4960310C8803
:100B30000625AC430C800588CC0125430580558AE9
:100B4000A5435582948A0E25AC43A41D9482414F3F
:100B50007C89E5054D4C0D8819D5A54314012C1948
:100B60000C800C880D022405240D64190C80048867
:100B70003443048004889C4304800C886408640027
:100B80000C8020E0208A400840002082C1E7A54375
:100B9000032464022C190C800C880F252D032C4390
:100BA0000C800488B443048004889C430480948AA5
:100BB00003256D02AC4394820C8801252C430C80E4
:100BC00079894907FCD50188032421430180548A8F
:100BD00060218C432034548282888A432032828070
:100BE0000120194D052428702407E08AC02188437C
:100BF0008030E082388A000A00023882388B1C215B
:100C000088430830388322480380A0880121C90224
:100C10008843A08048011F49086000F00BFC0220B7
:100C200000F0D1FB1C4E3069C0B2AA287AD0012056
:100C300021880C2291438000014321800248243006
:100C400000F004F92AE00000008CFC0700160050B8
:100C5000111101002000005000020040E2040000D9
:100C6000C000004000150050F453FC0720A107000D
:100C7000FDB9FC073CBDFC0704BDFC07A8B9FC0797
:100C8000003000500033005000030050000F0000FF
:100C90000002005080E200E0C07FF80700F040FC56
:100CA00000F096FD00283FD06088FFF7F6FE00F0C8
:100CB000F1FB00F04DF802F0A0F8012041F725FE0D
:100CC000FFF7FAFD1F48006841F7C4FA1E490020EB
:100CD000C870087101208007016882151143016006
:100CE0001E20FFF7DBFD0120FFF7B0FDFFF7E4FC5E
:100CF00002F0D2F8FFF7B0FE00F06DFD0446FFF7FA
:100D000090FEE88020463C30FFF78BFE001D2862F5
:100D1000E9880818C01D0D49E861097802290BD03F
:100D20000CE0FFE7032083E73069C0B2AA2801D0B6
:100D30006E20BAE78020B8E71130E861012003F0A7
:100D4000C3FEF8BD4CB9FC074CBAFC07ACBAFC07B3
:100D50007CB5244E24483446002520C4401E00287B
:100D6000FBDA03F070FE214830220580204921483B
:100D70005DF7CEFC2049082203C901910090694625
:100D80001E485DF7C5FC03F08FFD1D49012008706A
:100D90001D4A1C4911601E4A1C4911601E4A1D490A
:100DA00011601E4A0A2111701D491E4A0D70322120
:100DB00011701D4A052111601C4A10601C48016019
:100DC0001C49062008601C49072008601B490820B0
:100DD0000860FF201A49073008601A4908601A485D
:100DE00006607CBD00A0FC07FF0700003C8CFC07F0
:100DF000B4F2F10700BAFC070054FC07DAB9FC07AB
:100E0000FDB9FC07603FF20750B9FC077451FC07BD
:100E100054B9FC07F052FC0758B9FC07B0B9FC07FD
:100E2000B1B9FC07D9B9FC075CB9FC0760B9FC078C
:100E300064B9FC0768B9FC076CB9FC0770B9FC071A
:100E400048B9FC0744B9FC074CB9FC0710B50622A9
:100E500001495DF75DFC10BDD47FF8070520000750
:100E6000018830221143018001880322114301804F
:100E700070470520000701883022914301800188D6
:100E8000890889000180704736490A8B03231B02B9
:100E90009A43000202430A83704733498A8A032334
:100EA0005B029A43C3085B021A438A828A8A072339
:100EB000DB0240079A43800C02438A822A48403072
:100EC00001880122114301802748203841894907C0
:100ED000FCD570472448818A808A4905890FC9005A
:100EE0008004400F081870471F498A8A03235B0259
:100EF0009A43C3085B021A438A828A8A0723DB0269
:100F000040079A43800C02438A82704710B504461A
:100F1000154820384089C00502D40120C04310BDC7
:100F200000F077FA002806D0FFF7D4FFA04202D9DC
:100F30000020C04310BD0C48408AC00408D40B48B0
:100F40000088000704D4082C02D20420C04310BD3E
:100F500007480121047041702046FFF79EFF0020E2
:100F600010BD000020300050400000502003005011
:100F70009C59FC07704710B5474C400100194900C7
:100F800008181A43C28010BD434A4001801801224C
:100F90008A4082807047404A4001801801228A407E
:100FA0004280704770B506460498144600280D46E6
:100FB000304602D0FFF7EFFF01E0FFF7E5FF2246E2
:100FC00029463046FFF7D7FF70BD10B5324BD88B9E
:100FD00001248C40A0438A400243DA8310BD2E4A8C
:100FE00040018018008801228A40104000D0012072
:100FF000704708B529A212680092002805D16846FA
:101000000078884201D3012008BD002008BD70B5DA
:10101000012421460A3881400D4688B200F02BF8A1
:1010200084401F48C189A9430C43C48170BD10B5D9
:1010300004460A3804280AD82046FFF7E8FF194971
:10104000A00040188038806D002801D0804710BD76
:10105000002CFCDBE106C90E012088401249086023
:1010600010BD0A20E3E70B20E1E70C20DFE70D20AD
:10107000DDE70E20DBE700280BD0411E4840C0030F
:10108000010C002002E04908401C80B20029FAD17E
:101090007047102070470000003000500B00000027
:1010A00000140050408CFC0780E200E0044A40013C
:1010B000801849000818C088C006C00E704700009C
:1010C0000030005010B5FFF7D4FE052212079088BB
:1010D0002049000504D5204B1C880520A04311D0D1
:1010E0009088C3061D481FD58388DB071CD0038862
:1010F0001B0619D501228280028880239A43028030
:10110000486822E018880422104318801888400894
:10111000400018800C68002C05D00220185E995EF3
:101120000A229A5EA04710BD9288D206FBD582881B
:101130009207F8D50288D205F5D50222828002886E
:10114000FF2301339A43028088680028EBD0804750
:1011500010BD0000548CFC0700020050000100503C
:101160008A4930B4884201D0012100E000212422C4
:101170005143874A891808E0838ADB07DB0F12D0C6
:101180000388541C8D68CC81AB54CA898B899A42E0
:10119000F2D382885208520082808A69002A02D0E3
:1011A000C88930BC104730BC704710B5794800F092
:1011B00069F810BD38B5754B984201D0012400E0A4
:1011C000002424256C43724D64190125A577E1772D
:1011D00011462022115500220092984201D101238C
:1011E00000E00323E07F0022FFF7DCFE38BD674903
:1011F000884201D0012000E00020242148436449B6
:101200004018002181777047604908B5884201D0B5
:10121000012200E0002224235A435D4BD218937F21
:10122000002B0DD000230093884201D1022300E05F
:1012300004232020815CD07F03221202FFF7B2FE3C
:1012400008BD524908B5884201D0012200E00022C1
:1012500024235A434E4BD218937F002B11D0838AFC
:101260009B09DB07DB0FFAD000230093884201D1F2
:10127000012300E003232020815CD07F0022FFF7C0
:1012800091FE08BDF8B5414D414E04462089000746
:10129000000F062827D009DC012843D002281ED0E1
:1012A0000428F3D12046FFF75BFFEFE707282AD099
:1012B0000C28EBD1AC4201D0012000E00020242119
:1012C000484387192046FFF74BFFA188490849008A
:1012D000A180B9690029D9D0F8898847D6E7204686
:1012E00000F021F8D2E72046AC4201D0012100E015
:1012F00000212422514389190A69002AC6D0818A13
:101300009E2319400CE02046AC4201D0012100E0B0
:1013100000212422514389190A69002AB6D00121EB
:101320009047B3E7F8BD194930B4884201D0012194
:1013300000E0002124225143154A89180EE0038958
:101340001B069B0F032B1BD0838A9B06DB0F002BF6
:101350001BD0531C0C68CB80A25C0280CA888B888F
:101360009A42ECD3828802239A4382808288802327
:101370009A4382804A69002A07D0888830BC104787
:101380007C231B5A9B07DB0FE1E70CE700100050A2
:10139000608CFC070011005010B50446FFF79AFD61
:1013A000A04202D22046FFF79FFD56480188C90798
:1013B00008D10188012211430180524860384189D7
:1013C0004907FCD510BD38B54F4C0546206841078C
:1013D000490F684601700078854219D04948603845
:1013E0004089C0050CD5A81E03005DF7E5F905048A
:1013F0000604040409000B2000E01320FFF7CCFFD3
:101400002068C008C0002843206060684007FCD501
:1014100038BD3E480078704705210907098809064C
:1014200000D400BE3A498000095837480161394963
:101430004161704710B5EFF31084012080F31088EC
:10144000304860384089C0050BD53049012008700C
:10145000FFF740FD304908702A480088C007C00FD8
:10146000487005200007018880221143018026482A
:101470000168C908C900016041684907FCD503201B
:10148000FFF7CAFF002C03D0012080F3108810BDA5
:101490000020FAE770B5EFF31084012080F3108884
:1014A0000521090708888022104308801648036830
:1014B000DB08DB00036043685B07FCD5174B036167
:1014C000144B43610888904308800E486038408977
:1014D000C0050ED50D4900200F4D08702878FFF784
:1014E00003FD6878002804D10648018849084900AE
:1014F0000180002C03D0012080F3108870BD0020F3
:10150000FAE70000800000500000F4079E59FC0735
:101510000854FC07090404A49C59FC070F0099090E
:10152000F0B5B54C89B00020207660760290B348C3
:101530000069B349884202D0C81709B0F0BDAF4F67
:101540000425403FE819016D0191090F09290FD0C9
:1015500001220198920790427CD3AA4A904279D8FE
:10156000A9490835884202D1A849012008708EE0B7
:10157000019A01991204C9B2160E112937D007DC5D
:101580000B005DF719F9087676767676760D20767B
:1015900012390B005DF710F9063C4D5F6D62676D07
:1015A000207EB200C1009448403808189349143195
:1015B00069185DF7ADF8207E8019C0B22076042846
:1015C00057D900BE55E0607EB200C1008A4840385D
:1015D00008188A491030143169185DF799F8607E4F
:1015E0008019C0B260760C2843D900BE41E0416D3D
:1015F00089B20491406D000C01460390049800F0FC
:10160000EDF8A0800399049800F0F0F8E08030E055
:10161000416D89B20491406D000C0146039004981D
:1016200000F0DCF820810399049800F0DFF8608175
:101630001FE0029806A9800040187049B2001431DA
:1016400069185DF765F8029880190290022810D990
:1016500000BE0EE010E0406D60820AE0416D664819
:101660004038016405E0406D0004000CA08200D108
:1016700000BEB000451930E007292ED008292CD033
:101680000A292AD0062928D0401C07D000BE5B4872
:10169000103029185E48814200D253E70698A08195
:1016A0000798050C86B22946304600F097F8E0818D
:1016B0002946304600F09AF82082207EC10700D0EB
:1016C00000BE40082076607EC10700D000BE400802
:1016D0006076A18A002902D004E02D1DD7E77D2184
:1016E000C900A182042800D000BE002025E7F8B57B
:1016F000414C0025403C404F25E0EE00A0594549B3
:1017000088421BD1301900904068800A400415D0EF
:1017100000F0D0FE092811D9009803224068120277
:10172000014609041040890E0843A1590860009839
:1017300036494068C001C00D486003E03019A15926
:10174000406808606D1C387EA842D6DCF8BDF8B54C
:10175000294C0025403C2746403717E0E800061991
:101760002D48316981420DD100F0A4FE092809D924
:101770002A49706908402549898849040843316924
:10178000086002E03069716901606D1C787EA842D2
:10179000E4DCF8BD18490420085E704716490620AD
:1017A000085E704714490820085E704712490A20F5
:1017B000085E70471048808970470F490E20085E08
:1017C00070470D491020085E70470B48408A7047EB
:1017D0000E48007870470848808A7047081A01044C
:1017E000890C40180E49401800B27047C20080189A
:1017F000401A0004C0147047E88CFC07C07EF8074C
:10180000A5A5A5A54C42005002000050A059FC0718
:10181000C07FF8074C10004038300040FFFF01FC4B
:101820000100FFFFC90092008918400008181949FB
:101830000880194801680902090A4207114301603A
:1018400070471448018801221143018070471148F4
:10185000018849084900018070470E4B58809980E3
:10186000DA80704701200D49C003086070470120ED
:101870000A49C00380310860BFF34F8FBFF36F8FF9
:10188000704707490860704705480068002800D085
:1018900000477047003400500CE400E000E100E035
:1018A000048DFC0710B5624A13885B085B00138047
:1018B00013884024A343138013880824A343C00043
:1018C000034313801089800A80020843108110BDF1
:1018D00030B5574B1C880125640864002C431C80DC
:1018E0001C884025AC432C431C80012900D10120D9
:1018F0001C882025AC43400104431C801888102418
:10190000A0430901084318809888800A8002104388
:10191000988030BD30B5EFF31081012282F310883A
:1019200005231B079A882024A24322439A8000297A
:1019300000D0012181F310883D4C6034A189490811
:101940004900A181A189C907C90FFBD138490022EB
:1019500020310A82364A038893824388138383881E
:101960009383C3880B8013880625AB43457A6D00AB
:101970002B431380827B002A00D100BEC37B002B47
:1019800000D100BE8B8B5B095B01521E13438B831E
:101990000A8B5309C27B5B01521E13430B83817A6E
:1019A000012917D08189C07AFFF77CFFA189012026
:1019B00081430143A181A089C007C00FFBD01D480E
:1019C00001688022090A0902114301601A491020A6
:1019D000086030BD8289C17A007AFFF779FFE5E7B8
:1019E0001348603081894908490081818189C9078C
:1019F000C90FFBD1052109078888202290438880E0
:101A000070470B4810B5203080890C49C96A0029FD
:101A100001D0884710BD042000F001F810BD002857
:101A200005DBC106C90E01208840054908607047E2
:101A30000013005004E400E000E100E0A859FC07B6
:101A400080E200E0EFF31080012181F3108805218E
:101A500009078A8801239B021A438A80002800D044
:101A6000012080F310887047EFF31080012181F38B
:101A70001088052109078A8801239B029A438A80DE
:101A8000002800D0012080F31088704763498A88BD
:101A90009208920002438A80704730B501245F4962
:101AA0007C235F4A002803D0012807D002280BD0EE
:101AB0008D889D431C358D8014740AE08C889C436E
:101AC0003C348C80022103E08C881C438C800421F0
:101AD00011741178E12300071940C00E0143117001
:101AE00030BD70B50546FFF7ADFF4C4C202020807F
:101AF00028794007400FFFF7D0FF28780007400FF4
:101B0000FFF7C4FF2878C107A08880229043090E00
:101B10000843A08042492B780878DB074008400042
:101B2000DB0F184308700023A3812389134323810B
:101B30002A78D20721D12A79C0069206520FC00E08
:101B400052011043087068887D221202904201D130
:101B50007F2005E0410010465CF760FD401EC0B2EA
:101B60002189C909C90101432181E879C107208878
:101B700040229043490E084320802088202188433A
:101B80002080002070BD25490888202290430880CD
:101B900023482249007840092031888070471F4936
:101BA0000020203188801D4908882022904310435E
:101BB0000880704770B5194900230A8852095201FC
:101BC0000A800A880224A24322430A800A88042445
:101BD000A24322430A800C880122944314430C80C0
:101BE0000F4A1278D5060D4A2C0F2032022C01D351
:101BF000060C16811080088B000BC007C00FFAD1AD
:101C0000012C01D910890304280F888B04D0C01837
:101C10000A8BD20BFCD170BDC0B2F9E700120050A4
:101C2000088DFC071C480068002800D0004770475A
:101C30001A4A13695B085B00136153691B0E1B068C
:101C4000401E034353619069000E000690611069C5
:101C50000223984349000843106110690421884316
:101C60001061106901210843106170470B488169B8
:101C7000090E09068161016949084900016170473F
:101C800000B50021FFF7D4FF04480169C903FCD562
:101C9000FFF7ECFF00BD00001C8DFC0700E000E03A
:101CA000AA48018801221203914301807047A74886
:101CB00001880122120311430180642000BF401EED
:101CC000FCD17047A149CA88D208D2000243CA8019
:101CD00070479E49CA8870239A4300010243CA8014
:101CE0007047F8B5050045D0984C287821884022E7
:101CF00091438001014321802878012868783AD0F7
:101D0000FFF7E0FFE87804260128208836D0B043AA
:101D100020802879A1880002C9B20143A180E0880F
:101D200001274006400F7F02042829D0FFF7B8FFA3
:101D3000A8780F2800D900BE61880F225202914373
:101D40004002014361806879618889088900014304
:101D50006180A879012820883ED0B8432080E879A6
:101D6000072800D900BE6188FF22C132914380015B
:101D700001436180F8BDFFF7ACFFC3E73043C7E71D
:101D8000FFF723FD72490028088001D171480880BF
:101D9000FFF78DFF20883843208021884020814331
:101DA000014321806088304360806088C004C00C9B
:101DB000608060880F214902884308436080608802
:101DC000FF21C1318843FF21813108436080608851
:101DD000800880006080F8BD3843BFE75B48018819
:101DE000012211430180704770B50546574C002011
:101DF00020802120000160804020A080FFF7DAFCD5
:101E0000A081A189702081434031A181062000F08A
:101E10005AF82846FFF765FFFFF7E0FF70BD4B4813
:101E2000018849084900018070474848018802221A
:101E300011430180704700B5FFF7F7FF4348018861
:101E40008907C90FFBD10121C181008A00BD3F492B
:101E50000120C88140480068002800D00047704732
:101E600010B500F03DF839494A88D205520F062ACC
:101E700001D9062102E04988C905490F0622511AF5
:101E8000C84010BD10B5FFF7D0FF30480188890762
:101E9000C90FFBD10121C181008A2D490988401A4F
:101EA0007D21C9004843002801DD2C4903E00028BA
:101EB00002DA2A494942401829495CF7C5FB8011DA
:101EC000193040B210BD002809DBC106C90E01203F
:101ED000884024490860BFF34F8FBFF36F8F70476E
:101EE000F8B5054619484188090705D5FFF765FC8F
:101EF0000646FFF766FC0FE000888009C007C00FA8
:101F000005D0FFF747FC0646FFF748FC04E0FFF763
:101F100049FC0646FFF74AFC04462804401B124DC4
:101F200071190E465CF77AFB07462004001B314608
:101F30005CF78AFB391A6800814201D90020F8BD9C
:101F400028468142FBD888B2F8BD00000015005039
:101F5000D859FC0740760000208DFC0723030000C1
:101F60004606000080E100E0FFFF000029494A88A2
:101F700008239A430378DB001A434A804A88407852
:101F800004239A43800002434A8070470A4610B5F2
:101F9000014610465CF742FB1E492039401E08816D
:101FA00010BDF8B506464078642800D900BE194C2B
:101FB000203C278964217F1C78435CF72FFB054672
:101FC000B078642800D900BE784364215CF726FB12
:101FD00031780B005CF7F0FB070805090D111519A6
:101FE000080060812818E082F8BDA08128182083AD
:101FF000F8BDE08128186083F8BD20822818A083EE
:10200000F8BD60822818E083F8BDA0820149281835
:102010000880F8BD20340050F0B5FE48406B7F21A9
:10202000090288430B2109024018FA494863086AEB
:10203000F94980B24018F7490862886BF7490122D4
:1020400008405203F34980188863F2484030016920
:1020500003231B0219430161818B102421438183D7
:10206000F049EF480860F04C20883F21090188437F
:102070002F21090140182080EB4820388169EB4D61
:10208000490D490549198161C169E94D2940092571
:102090006D024919C1614168E64D2940E64D491973
:1020A00041608168E54D2940E54D49198160C1686D
:1020B000E44D2940E44D4919C1600169E34D2940CF
:1020C000E34D49190161E349DD0009780906491921
:1020D000E14D29600525E149AD020D816D1D8D8120
:1020E000DE4920310D892D0A2D0255350D818D25B2
:1020F000AD000D82DA4D8D82DA4D0D83D84D0E3D47
:102100008D83D849D54DC91D40352980D649A18137
:10211000C16BD64C2143C163FF20D54C6C3020806D
:10212000D3482030068B1F2149010B258E43AD017A
:1021300076190683CE484030868809278E43BF0132
:10214000F6198680068915278E437F01F6190681C8
:1021500086898E4371198181FF208D30A080C4480B
:1021600080300189E024A14319430181818B490911
:10217000490119318183B8482030818B5B01994333
:1021800089188183B44880300168C908C900C91C16
:102190000160B149B748403148629E48203081888B
:1021A000012211438180F0BDAB4908B50020803188
:1021B000C8620090401C0090FF28FBDDAE4800780C
:1021C000AB49C006820D4031C8681F235B019843AC
:1021D0001043C86008BDA9488E49006840310860B6
:1021E0008C488169890989011C3181618169C21327
:1021F00091438161016B3F221206914307229206AF
:1022000089180163016B3F22920191430F22D20191
:1022100089180163016B890989011E3101637047C7
:102220007C48C16949084900C1617047904808B5B8
:102230004030C168904A8905C90E1170C1681F22DB
:1022400052019143C16084490120887182488030E5
:10225000C16A03221143C16200200090401C00901B
:10226000FF28FBDD08BD08B57B49022088710020EE
:102270000090401C00900B28FBDB08BD6548412105
:102280000177C16903225202914302158918C16185
:102290007047604840300168784A11600021C943A6
:1022A00001605C4881698909890181618169C21382
:1022B00091438161C1690322520291430315C918F8
:1022C000C161C169702399434031C161016B3F23F2
:1022D0001B0699430B235B06C9180163016B3F235F
:1022E0009B01994389180163016B890989011831A0
:1022F00001637047F8B5584803274771454C60683B
:10230000C009C00114306060FFF7C3FF432020778D
:10231000FFF7A9FFFFF78AFF002526150095009813
:10232000401C0090B042FADB4B4903204871394809
:1023300080308068C705FF0DFFF736FF00950098D5
:10234000401C00901028FADBA0694002400AF90501
:102350000843A061A0694A490840B9010843A06147
:10236000FFF78CFFFFF77FFFFFF760FF00950098F6
:10237000401C0090B042FADB3749032048712548E1
:1023800080308068C705FF0DFFF70EFF00950098AD
:10239000401C00901028FADBA0694002400AF905B1
:1023A0000843A061A06936490840B9010843A0610B
:1023B000FFF764FFFFF757FFFFF738FF009500981E
:1023C000401C0090B042FADB2349032048711148B9
:1023D00080308068C605A069F60D4002400AF1050C
:1023E0000843A061A06926490840B1010843A061E3
:1023F000FFF716FFFFF7EFFEFFF7D6FE00950098F8
:10240000401C00901028FADB1C48001D468101206A
:10241000F8BD00000030004000008888FF00FEFF8B
:1024200059055C07800000402020004009581A0030
:10243000FEE1FFFFE0E00000080929490000030376
:10244000696A686C031FFFFF70600000E0E0E0E075
:102450000B0A0A08248DFC070010004020130040DE
:10246000340A0000510800000C120000101800008F
:1024700000120040500150017859FC07DC59FC075C
:102480003F80FFFF36E7704708B50D48092101710D
:1024900000210091491C00910B29FBDB03214171B4
:1024A00008BD07480321817100210171704705496A
:1024B00008707047034800787047024840787047BA
:1024C00000100040248DFC070020704770477047C3
:1024D00010B5282801D2282002E0E62800D9E620FD
:1024E000FF21F33148437D21C9005CF797F8813023
:1024F000C0B210BD704770470020704701218907A6
:10250000086B0722104308638E4801680213914349
:102510000160704738B50220FEF7B6FC89480168B3
:10252000020391430160884800214163416B1F22EF
:102530001204914342138918416301060868F0228E
:102540009043E03008608148016849004B0E016803
:1025500009050A0F016800680902090E0F241B060D
:102560002402A343120213431A46FF231B040A3119
:102570009A4309040A43C0B2110A09020A3001430E
:102580000846009170494031086071490120088176
:102590007048818B10221143818338BD10B56E497C
:1025A0000A8A6E48006883691B0C1B04134383610D
:1025B0000A8BC3691B0C1B041343C361498B026A5A
:1025C000120C12040A430262634920310A8B836AA7
:1025D0001B0C1B04134383624A8BC36A1B0C1B0432
:1025E0001343C3625C4A60329388046B240C240456
:1025F0001C430463D288436B1B0C1B0413434363CB
:102600004A88836B1B0C1B04134383638988026C09
:10261000120C12040A43026410BD10B58AB050496E
:1026200041625049816250494161002430210C547B
:102630004E49C1624E4901604E4901624E494160B6
:102640004E49C161FFF71FFF3F48416B1F22120433
:1026500091434213891841633A480168C212914379
:10266000016068460455641CE4B2282CFAD3014684
:1026700043482822006840305CF74AF80820FFF7FA
:1026800016FFFFF71AFF002802D00120FFF70FFF07
:10269000FFF7FAFEFFF72BF8FFF759F8FFF7BCFC3E
:1026A00000F04AF8FFF736FFFFF7ECFEFFF776FF82
:1026B000FFF7F7FE0AB010BD10B52348416B1F228B
:1026C0001204914342138918416300060168C90846
:1026D000C90001600520000701890822114301811A
:1026E000FFF7EBFE002802D00120FFF7E0FEFFF726
:1026F000CBFEFEF7FCFFFFF72AF8FFF78DFC00F09A
:102700001BF8FFF707FFFFF749FFFFF7CAFE01209D
:1027100002F0DAF910BD70B50446104D7030702229
:10272000184928605BF7F4FF2968081B0246483205
:102730000A815C30488170BD03484030006803491D
:102740000860704700020040400000402C8DFC07EC
:10275000A010004020200040003000400C5AFC0730
:10276000C924FC07CD24FC07F924FC07FD24FC0741
:10277000CF24FC07F524FC07F724FC07D124FC0731
:102780004CB9FC072454FC0730B5A14CA14A217D6B
:1027900026E00A2325694B43EB189B785B065B0E0A
:1027A000DD060DD055686D1C5560DD0702D0D5687B
:1027B0006D1CD5601B0708D593685B1C93600CE00B
:1027C00015686D1C15601B0707D4934D138AAD6BFC
:1027D0002D0B5B19DB031B0C1382491C4907490FA6
:1027E0000346401EC0B2002BD3D130BDF8B5012541
:1027F000AD07AC6B2046FEF7BEF88649874F083917
:102800004A68861800204860394630465BF706FF64
:10281000834948603A465043301A00D0381A80B293
:102820000860286B08218843084328637D480460BA
:102830007D480068002802D0A04200D200BEF8BD4A
:1028400010B5FEF716FB052000074189890703D064
:1028500041898908890041810189802211430181D0
:10286000018A042291430182818A8907FCD500F004
:10287000F9F8012080070169490700D500BE016908
:102880004907FCD510BD10B5684C08202080FEF724
:10289000E5FA20894007FCD4FEF7EBFA64480521ED
:1028A0000088090748806348634C0088801E608068
:1028B00007202080FEF7D2FA20884007FCD4FFF7DB
:1028C000BFFF10BDF8B55D480168C90703D00168B6
:1028D0000222114301600168490204D50168012206
:1028E0009205114301604B4E0127083EBD072C693C
:1028F000002C7BD0200606D58020A8614AF76FFC0B
:102900001E20FDF7CBFFA0070AD50220A8614C4886
:1029100000688030008EC0B2FFF736FF46F7D9FB63
:1029200020071AD50820A861464852220068643062
:1029300081885143444A12688918FF314131C98B5B
:10294000C07E090A081AC0B2FFF71EFF002046F732
:1029500079FB04203070FFF7A4FDE00505D5FF20CA
:102960000130A861012046F76DFBA00504D50120C8
:102970004002A8614AF79CFC600603D54020A8618C
:1029800046F75BFBE00603D51020A86144F712FF71
:1029900060071BD50420A861244801894908490023
:1029A00001812A480078C00705D000203FF7DAFEF1
:1029B0003FF7A0FE01E03FF785FE5AF791F83FF799
:1029C0003FFE1E20FDF76AFF00203070E00706D0B2
:1029D0000120A8615AF7A0F84AF701FC3770A00659
:1029E00085D52020A86100BE81E7FFE7F8BD7047CC
:1029F000704710B51648808A010702D500F005FC23
:102A000010BD8107FCD4C007FAD000F003FC10BD54
:102A100058BBFC07388DFC07002000407102000005
:102A200040000040548DFC074C8DFC0700330050E3
:102A3000F48BFC07068CFC070016005000020040D7
:102A400058B9FC077CBBFC074CB9FC07FDB9FC0777
:102A5000A010004010B53FF738FC734880687349F8
:102A6000486010BD10B53FF75CFC70486E49406887
:102A7000886010BDF8B5002600F0D2F86C4D0090CB
:102A800029790020022900D100906A490989C907E3
:102A90000DD159F774F9002809D0E87801260028EB
:102AA000FAD005273F07B88AC00701D00426B5E051
:102AB00028880028FBD1FDF7C3FE002806D15E4818
:102AC000806A002802D000F0ABF80090FDF754FFB8
:102AD000A978684659F762FE002836D00124A40779
:102AE0002069400631D4A97868464AF7CFFC00280F
:102AF0002BD04CF75FFC002826D04BF7C9F80028F4
:102B000022D0A978684659F749FE00281ED02069CE
:102B100040061BD44648817868464AF7B7FC00282F
:102B200014D00120FEF7B0F90098002806D0216AE1
:102B3000FF393939DA2901D8401E00903F48017821
:102B40003F4802290FD011E0002667E03D48007899
:102B5000C00705D000203FF705FE3FF7CBFD5DE045
:102B60003FF7B0FD5AE001681131016036490B882A
:102B700036490A689918364B1960E36B9B0A9B0229
:102B80001343E363E26B334B05681A40A802024328
:102B9000E263E06BC002C00A49050843E0632E4AC5
:102BA000009804260021904200D300BE2B4B0CCB92
:102BB0005BF75EFD0903000D08431C4A401E691CBB
:102BC0001060884200D1156019480079002801D0B2
:102BD000012100E00021106846F7EAFB2048C06AA6
:102BE0008047114D206B0004C00FFBD02868C00542
:102BF000FCD528688024A04328600E4841894629D6
:102C000004D24622174B511A19604281FFF722FF66
:102C100028680006FCD53889A04338813046F8BDC5
:102C200011480068406A7047000200404C8DFC0764
:102C30004CBAFC070033005028BEFC07ACBAFC07B6
:102C40001C8CFC07FDB9FC07068CFC07208CFC07DC
:102C5000388CFC07FF03E0FF40420F00308CFC077C
:102C60000CBFFC07348DFC0758B9FC0710B50021D8
:102C70000846FEF71BFA824C002801D001200BE029
:102C800000230122520219461846FEF774F9022069
:102C9000401C2828FCDB0020208010BD38B5002512
:102CA000784C0095E178A07801232A46FEF77AF95E
:102CB0002078A178884203D16178E278914206D0E9
:102CC00000950322617802231202FEF76BF938BDEA
:102CD000F8B5074605200D460007418A1C461646F2
:102CE000C905890F022D16D0022C14D0012904D059
:102CF000022907D003290AD015E0052D0BD0052C99
:102D000009D010E0012D06D0012C04D00BE00A2DD3
:102D100001D00A2C07D1818AC906FCD4418AFF223E
:102D20008132914341825748002F07704570867069
:102D3000C47001D1002D0FD0002E01D1002C0BD07A
:102D4000FFF794FF5048B7420AD1A54208D1224666
:102D50003146FEF72FFAF8BD494901200880F1E716
:102D6000FEF745FAF8BD10B5464CE41E2078002861
:102D700015D14648007803005BF71EFD07050F09D3
:102D80001A161E220F0001230022114602E003231F
:102D9000002202210020FFF79BFF01202070FFF797
:102DA0007DFFFFF763FF10BD052300220421F1E73B
:102DB000032300221946EDE7052300221946E9E71F
:102DC000072300220621E5E738B500252D4C0095A4
:102DD000E178A0782B462A46FEF7E4F82078A1781F
:102DE000884203D16178E278914205D000950023B2
:102DF00061781A46FEF7D6F838BDF8B5204D0027A1
:102E00002F801B20FEF782F821480188802421436F
:102E1000018001F0FEFDFEF72CF81E48082101801C
:102E200005200007828822438280428AFF23813363
:102E30009A43038803261B079B0FDB011A43428238
:102E4000114A0720803210810F4C2781A7808320F0
:102E5000A0810C48C01E4278002A02D141700B218B
:102E600081708178032240783FF720FCA681FFF72C
:102E70007AFFA989012081430143A981F8BD00009F
:102E8000000300505B8DFC07001000509859FC07B0
:102E9000001500500033005010B5FDF70DFCFD4942
:102EA00000204870FC4B02221A70FC4A1070252248
:102EB0008A7032220A814881F9494860C860886076
:102EC00008600882F7480168020311430160052188
:102ED0000907C88AC02290438030C88210BD0020F4
:102EE000704770B515460E460446FEF7A3FA022059
:102EF000FEF769FA2A46214630465BF709FCFEF7E1
:102F0000C9FA70BD10B5E84C0520E062E64908201A
:102F1000803908710020401CC0B25028FBD3FFF755
:102F2000B3FADC484078052803D0062804D00728E7
:102F300001D10020E06210BD0320FBE710B5DB48A3
:102F4000007800281ED1052000078188082211433F
:102F500081808188D64A890812788900114381804E
:102F6000012200211046FEF75DFCD2497D221201AC
:102F70008800FEF772FCD048FEF783FCFEF772FC77
:102F8000FEF75FFC10BDC849886BC84A137815224C
:102F90005206002B05D0C94B1843531098431043D9
:102FA00003E0C64BDB43184090438863704738B555
:102FB000B84C607800282AD1B8480178684601707A
:102FC00025214170B448017868468170FFF7DBFF26
:102FD000684647F72EFABA48016AC21311430162E4
:102FE000016A021491430162016A821491430162F1
:102FF000016A490A4902016205206070B149101155
:103000000860BFF34F8FBFF36F8FFFF797FF38BD97
:1030100010B5A04C6078012808D06078022805D04F
:103020006078052802D06078072807D1A648806D0F
:103030003FF7A1FB0021084659F758FA00206070BD
:1030400010BD38B5934C6078002819D16081934841
:10305000017868460170A17841708F480178684610
:10306000817047F7E6F9984D05E0684647F7E1F9C2
:10307000002800D0FEE7A86D0028F6D0012060707F
:1030800038BD38B5834C607800280ED1844948603B
:10309000C8608860086008828048007869460870C7
:1030A000684647F741FA0220607038BD70B50446A3
:1030B000417800250078FDF79CFF002800D101250C
:1030C000E178A078FDF795FF002800D1012528467A
:1030D00070BDF8B5044600267D20000100960099D9
:1030E000491C00918142FADB784D009600236978F3
:1030F00028781A46FDF756FF00960023E978A8784D
:103100001A46FDF74FFFE378A27861782078FFF741
:10311000DFFDFFF7C3FDF8BD6D490A8A5207D20FE4
:10312000FBD06B4A603A1082088A4007C00FFBD080
:10313000032000021082088B8006800EFBD0108ACC
:10314000C0B27047624A138A5B07DB0FFBD0604B4B
:10315000603B1882FF31FF3102311982108A40072B
:10316000C00FFBD0108A8006C00FFBD1704770B52E
:103170000D460446FEF707FD2046FEF71BFD2846D8
:10318000FEF718FDFEF70BFD70BD10B50446FEF707
:10319000FAFC80202043FEF70DFD0020FEF70AFD1B
:1031A000C4B2FEF7FCFC204610BD014600B500206D
:1031B0000B005BF701FB0C07090C0F1215181B1E07
:1031C00021242708434800BD4248801C00BD4148D7
:1031D000001D00BD3F48801D00BD3E48083000BDB9
:1031E0003C480A3000BD3B480C3000BD39480E3029
:1031F00000BD3848103000BD3648123000BD35489B
:10320000143000BD3348163000BD22484189491CA6
:10321000418170471F48C188491CC18070471CB557
:103220001C4C012020702C4910230968019100904A
:10323000032221791202E078FDF7B4FE60790028BC
:1032400001D0012200E000222179E078FDF7BDFEE7
:10325000FEF7FDFA21480188490849000180052050
:103260000007818808221143818081886A46890885
:103270001279890011438180002211461046FEF721
:10328000D1FA7D20C000164A0146FEF7E6FAFEF7A5
:10329000D8FA1CBD105AFC07485AFC07495AFC07CB
:1032A000388DFC0700020040801000405F8DFC0755
:1032B0007959FC0788130000052FFC0788080000D7
:1032C000C000004080E100E0A8BBFC075B8DFC076C
:1032D0006013005006300050A054FC07200000503E
:1032E000FFFF000010B5FEF7C2FAFEF7B0FA0520A6
:1032F0000007818808229143818010BD37490870FA
:1033000037494989C9050BD4354920318A8A0323B5
:103310005B029A43002800D00220400202438A82C6
:1033200070470168002901DB0020704701684A00EE
:103330002C490268006804D58000800C4018027097
:1033400003E08000800C401802800120704770B5B7
:10335000254D2868FFF7E5FF00242968A0004018E4
:103360000C30FFF7DEFF002802D0641C092CF4DBD0
:1033700000242968A00040183830FFF7D2FF002849
:1033800002D0641C072CF4DB70BD1CB517494868DB
:1033900089680090124801914089C00501D5062036
:1033A00000E00520694648706846FEF71DFD2720AD
:1033B00000BF00BF00BF00BF00BF00BF00BF00BF15
:1033C00000BF00BF00BF401EF2D2FEF734FDFEF783
:1033D00047FD0446FEF723FD20465AE75F8DFC07B4
:1033E00020000050000000400C5AFC07A054FC07CD
:1033F00010B500231E4A19461E4858F7F1FE4BF738
:10340000B5FD10BD70B51C4D002428782646012856
:1034100006D11A48806D002802D12E70FFF711FEE8
:1034200017480188174A1288914207D32978012941
:1034300004D10680FFF7DCFFFFF7EAFD59F7E9FA50
:10344000FDF7DFF90100104807D001684A1E02604D
:10345000002900DD0124204670BD012464210160A3
:10346000F9E700207047704710B5FDF725F910BD4A
:103470000BFE000001080000115AFC07A8BBFC0766
:103480001A5AFC07185AFC077C59FC073EB50D4D2B
:103490006D1E14D002880A42FAD16D1E0FD0028828
:1034A0000A42FAD0084A13680124234313606D1EB0
:1034B00005D002880A42FAD1044A10683EBD0020B5
:1034C0003EBD0000C0C62D0010E000E018E000E0A6
:1034D00093490978002900D04000924948430121CE
:1034E00002E000BF00BF491C8142FAD9704710B505
:1034F0008B498A69904202D2002800D08869CA6943
:10350000904200D9C86900F07EF90220FFF7E0FF81
:1035100010BDFEB500276A4601A9029700F00CF91C
:10352000002801D00020FEBD804C7F4E6661A7615F
:103530002069042108432061EFF31085012080F306
:10354000108868460188019800F062F902902069AD
:10355000400840002061002D0BD0012080F310882E
:1035600002986F49301A4F70B042DCD101224A7084
:10357000FEBD0020F2E710B51C46029B101A1B1B73
:103580005843511A5BF760F8001910BDF3B50027D6
:1035900089B005460420C0430A211423604C3E46EE
:1035A0003A46019702970097002D2CD0012D28D183
:1035B00001202070A161AF208000E0615C48A06024
:1035C000E16023616E206061A069554D243528605B
:1035D000E0696860606960600A9800F0B4F8001DF6
:1035E00017D06068FFF783FF0A98FFF792FF0090FB
:1035F000A168884210D3A168401AE16888420BD8BC
:1036000060680BB0F0BD2270A161FA20E06149480A
:10361000D5E70320C043F4E70098A168884205D2AB
:10362000A0680099401AE1688842E9D90098A16829
:10363000884208D96E686868FFF759FF0A98FFF753
:1036400068FF019007E02F682868FFF750FF0A988D
:10365000FFF75FFF029000256D1C0098A168EDB296
:10366000884202D96768029001E06668019001997A
:1036700002980096884201D9024600E00A46884234
:1036800000D201463B46A068FFF775FF60606068A6
:10369000FFF72DFF0A98FFF73CFF0090A1688842D2
:1036A00004D3A168401AE16888420BD90098A16848
:1036B000884205D2A0680099401AE168884201D981
:1036C0000A2DC9D36078002805D00020FFF70FFF2E
:1036D0000120C04395E7A068E1680025401A0099E1
:1036E000ED43884205D8A068E168401800998842F7
:1036F00003D20020FFF7FBFE0AE00948203000F06B
:103700007CF8206AA169884204D8206A002801D088
:10371000284676E7206AE1698842F9D2206A70E794
:103720001C5AFC07F1060000FFFFFF0000E000E06C
:10373000007C920000127A00012383403648086022
:1037400013800020704700B50322334912020300A2
:103750005BF732F80C070D13191F252B31373D434A
:103760004950C8889043FF300130C88040E0088944
:103770009043FF30013008813AE048899043FF30A0
:103780000130488134E088899043FF3001308881DE
:103790002EE0C8899043FF300130C88128E0088AB4
:1037A0009043FF300130088222E0488A9043FF3086
:1037B000013048821CE0888A9043FF3001308882C3
:1037C00016E0C88A9043FF300130C88210E0088BB1
:1037D0009043FF30013008830AE0488B9043FF306C
:1037E0000130488304E0888B9043FF3001308883A8
:1037F000002000BD0320C04300BD05210907498802
:1038000001600020704705210907488000207047AB
:1038100010B5FFF73BFE10BD0030005010B5194643
:103820000223FE4AFE4858F7DBFC0446FFF7ADFDD5
:10383000208020464BF79AFB002010BD10B518469B
:103840000C467F22014604235202F54858F7C8FC73
:103850002178332904D001604BF788FB002010BD8C
:10386000052109074988F6E7EC4A10B519460023F7
:10387000133AEB4858F7B4FC4BF778FB002010BD27
:1038800070B5E64A19464223123AE54858F7A8FCB3
:103890000D2504460570E3A1801C01F019FC2046AB
:1038A0006570E0A1223001F013FC20464BF75EFB6F
:1038B000002070BD38B518460C46D84A0146022390
:1038C000113AD74858F78CFC0546217868460170B4
:1038D00061784170A1788170E178C170FFF7E6FBF3
:1038E000288028464BF742FB2888002802D16846EA
:1038F000FFF7EFFB002038BD10B518460C46C74A4D
:1039000001460823143AC64858F76AFC217801702A
:103910000021417022786168002A06D0012A06D071
:10392000022A07D0032A0AD107E0096803E0A26847
:103930000A6004E00988416001E022890A804BF7AF
:1039400015FB002010BD70B518460C46B34A014661
:1039500000230B3AB24858F743FC0546B548217896
:10396000417061780170FFF722FB28464BF7FEFAA1
:10397000002070BD7CB518460C46A84A01460723B6
:10398000173AA74858F72CFC0546002000900190F4
:10399000207828702078022802D0032817D105E06B
:1039A0000622691CA448FFF79CFA10E0A01C5AF7F5
:1039B000E0FE6178000208430090A079617900027E
:1039C00008430190012269469C48FFF788FA28467F
:1039D0004BF7CCFA00207CBDF0B518460E468F4A56
:1039E000014685B00223183A8D4858F7F9FB054681
:1039F000B178707809020143002003900190327879
:103A00000520000713005AF7D7FE08050710212AE2
:103A10003134340A408801E0418025E02880307844
:103A200006286CD007286AD092E0418AC905890F20
:103A3000012907D1818AC906FCD4418AFF2281323B
:103A4000914341827E497F4801820DE003464088D0
:103A5000FF22521A824207DB4018588004E0428855
:103A60008A4201D3511AD7E70020D7E70121490242
:103A7000E9E77478FE2C05D00027029438462043ED
:103A80001DD01FE070A00068002700900A20784336
:103A90003C4604900CE004980019C0B20290FFF775
:103AA00084FB00880007000F0128E7D0641CE4B203
:103AB0006846C05DA042EED2FF200290DEE7634977
:103AC000012008800298FFF770FB0090002814D0B6
:103AD00000880190FF21009801310180B07802999F
:103AE000FFF754FD411C03D0801C03D0039895E7D9
:103AF000012000E00220039090E70420FBE70198FA
:103B0000C006C00E012801D0032821D150480290E0
:103B100021463846FDF763FA002804D00298401E7B
:103B20000290401CF4D14A48029021463846FDF7E5
:103B300056FA002804D10298401E0290401CF4D18D
:103B40000020029043480299491C02918142FADB0D
:103B500028464BF70BFA3078062801D0072818D1F1
:103B60000198C006C00E012801D0032811D13A4D9A
:103B700021463846FDF733FA002804D128466D1E49
:103B8000ADB20028F4D10098002802D00098019925
:103B90000180FFF76BF8002005B0F0BD1F4A10B59B
:103BA000194600230A3A1E4858F71AFB04462B48C8
:103BB0000078052809D1FFF795FBFFF729FA284976
:103BC0000020086220464BF7D1F9002010BD70B5E7
:103BD00018460C46114A014600230E3A104858F781
:103BE000FFFA0546134920784870FFF74AFA28463D
:103BF0004BF7BCF9002070BD084A10B519460823E0
:103C00000D3A074858F7ECFA0446144800780228A1
:103C100034D1FFF7FDF91348018825E01AFE0000B2
:103C200001080000765F362E302E31312E393839BA
:103C300000000000485AFC07D47FF807D47F00003A
:103C400005030000003000500B000000000300508E
:103C500018F73600120E0000B68C0000115AFC074F
:103C6000C0000040388DFC07218081896180018976
:103C7000A180008AE08020464BF778F9002010BD33
:103C8000FEB518460E4601460023FE4AFE4858F788
:103C9000A7FA01903078FD4CFD4FFE4D4F2804D01F
:103CA00052282FD0542843D119E0FFF71BFB287866
:103CB0000026062808D0072809D1FFF7A9F9206AAD
:103CC00040004008206202E0FE62FEF7EAFBFF20AF
:103CD000F14901300860F14908602E7025E00820A4
:103CE00000F095FD7478FFF74EF9FFF730FBE849D7
:103CF000032080394871EA490C43EA494C60F86274
:103D000006200FE0082000F082FD7678FFF73BF9EF
:103D10006846067046F708FC206A0121C907084377
:103D2000206207202870FFF709F901984BF71EF968
:103D30000020FEBD10B5DC480A784270DB4B4A78A3
:103D40001A708A7802700879C97800020843D84945
:103D50000880FFF776F9002010BD10B518460C4614
:103D60000146C84AC84801230D3A401C58F738FAA2
:103D7000002101704BF7FAF849F78EFD20780028F2
:103D800004D0012805D0022828D11FE0FCF794FCBC
:103D900024E0FFF719F86178C648002902D1A1781C
:103DA000002910D0012101716078C34919224843CC
:103DB000A178920151434018C04909684862002027
:103DC000FCF787FC0AE002210171F8E7FEF7FCFF2F
:103DD0000122002311461046FCF792FC002010BD82
:103DE000A84A10B519460023121FA74858F7F8F93A
:103DF0004BF7BCF8002010BDFEB518460D46A14A91
:103E00000146F2230A3AA04858F7EAF904462888FE
:103E10000190AD780026002D01D03C2D19D912203B
:103E20001AE00198B7003918FF20C00408180422CE
:103E30006946FFF756F8694638190978817069466E
:103E40004978C1706946897801716946C9784171BC
:103E5000761CAE42E5D300202070657020464BF7FB
:103E600085F80020FEBDF0B518460C46854A01468F
:103E700087B00223093A844858F7B2F9002506466C
:103E800002950395A778E01C009020880490002FED
:103E900001D03C2F21D9122022E0A80000990190E6
:103EA00040180590401C5AF764FC0102009A0198E2
:103EB000105C014305980291401D5AF75AFC01021B
:103EC0000598012200790143039102A90498FFF7A4
:103ED00006F804980830AD1C0490BD42DDD30020E4
:103EE0003070A078707030464BF740F8002007B073
:103EF000F0BDF0B518460C46624A014685B0022373
:103F0000D21C614858F76CF905462078002802D089
:103F100001282DD112E10020039002900190074664
:103F20000646E178A078FDF764F800281ED0617994
:103F30002079FDF75EF8002818D0E179A079FDF727
:103F400058F8002812D0617A207AFDF752F800283C
:103F50000CD0607B002805D0E17BA07BFDF749F801
:103F6000002803D0A078002803D005E0FF20288097
:103F70007BE1E07800281AD02079002802D160790E
:103F8000002814D0A079002802D1E07900280ED0B2
:103F9000207A002802D1607A002808D0607B0028AF
:103FA00008D0A07B002805D1E07B002802D144493D
:103FB00001200880E078FFF7F8F8002801D0008899
:103FC00003906079FFF7F1F8002801D00088029093
:103FD000E079FFF7EAF8002800D00788607AFFF759
:103FE000E4F8002801D000880190E07BFFF7DDF8BD
:103FF000002800D006883348217A4171617A8171A6
:10400000FDF76FFD002000900322E178A0781C23CB
:104010001202FCF7C7FF00200090617920791A2373
:104020000022FCF7BFFF002000900322E179A07975
:104030001B231202FCF7B6FF012000900322617AD5
:10404000207A1D231202FCF7ADFF607B002808D008
:10405000002000900122E17BA07B00235202FCF7AC
:10406000A1FF6078012805D1637A227AE17AA07AEB
:10407000FFF77DF81448FDF703FE627A217AA07AF3
:1040800024E000000EFE000001080000C000004017
:1040900080100040115AFC0700E100E080E200E0DF
:1040A0000001620900300040485AFC07125AFC0720
:1040B000185AFC074CBAFC070077010058B9FC07F6
:1040C000000300508059FC0730750000FFF75DF8D1
:1040D0002880607B00280DD000200090FF20F53064
:1040E0000099491C00918142FADBE17BA07BFCF73F
:1040F00076FF2880E078FFF758F8002801D0039970
:1041000001806079FFF751F8002801D00299018001
:10411000E079FFF74AF8002800D00780607AFFF7BF
:1041200044F8002801D001990180A07BFFF73DF8F9
:10413000002800D00680FDF797FC96E00020019053
:104140000746064661792079FCF753FF002800D125
:104150000CE7E178A078FCF74CFF0028F8D0607BF2
:10416000002805D0E17BA07BFCF743FF0028EFD0BF
:104170002079002802D1607900280ED0A07800288C
:1041800002D1E078002808D0607B002808D0A07B0E
:10419000002805D1E07B002802D1FF4901200880DA
:1041A000E078FFF702F8002801D0008801906079DC
:1041B000FEF7FBFF002800D00788A07BFEF7F5FF85
:1041C000002800D00688F549207B88810846FDF745
:1041D000A1FBE178A07809230022FCF7CCFE6179ED
:1041E00020790A230022FCF7C6FE607B002808D055
:1041F000002000900122E17BA07B00235202FCF70B
:10420000D1FE6078012803D1E17AA07AFEF79AFF07
:10421000E348FDF735FDA07AFEF77EFF2880607B3E
:1042200000280DD000200090FF20F5300099491C97
:1042300000918142FADBE17BA07BFCF7D0FE288075
:10424000E078FEF7B2FF002801D001990180607983
:10425000FEF7ABFF002800D00780A07BFEF7A5FF8C
:10426000002800D00680FDF7BBFBFEF77CFD28464A
:104270004AF77CFE00208FE4F0B518460C46014654
:1042800089B00123C74AC84857F7AAFF0490002005
:10429000089002902578A778E078009026796079D8
:1042A000069029460298FCF7A4FE002801D10120BF
:1042B00008906078002806D0012806D0022807D090
:1042C000032812D107E0002207E0FF22013204E0B8
:1042D0000122520201E003221202012F05D80698A2
:1042E000642802D80898002801D0FF2176E0002D2C
:1042F00002D1A9490120088005242407608AC0054D
:10430000800F022D0ED0012804D0022805D00328EA
:1043100006D00FE0052D05D00CE0012D02D009E0FC
:104320000A2D07D1A08AC006FCD4608AFF21813102
:10433000884360820098002E58D00021002804D0C5
:10434000012811D0FEF792FCCFE798484288520826
:104350005200428000230122520200914BE0294684
:104360000298FCF732FE36E0032200911723120276
:1043700029460298FCF716FE002F01D0012200E02A
:10438000002229460298FCF720FE89480168009126
:10439000A18808221143A180A1886A468908127861
:1043A00089001143A180816803916A46069951737F
:1043B0004068089008A8FDF7D9FD7D20C000704333
:1043C0007C49FDF7E3FD03A8FDF7EBFD7748418845
:1043D000012211434180FEF749FC0021049801703D
:1043E00004984AF7C3FD002009B0F0BD012800D0B1
:1043F00000200023009029460298FCF7D3FD002FEF
:1044000001D00122ABE70022A9E770B518460E469D
:10441000644A01460123521C634857F7E1FE36788F
:104420000446002531462846FCF7E3FD002809D064
:1044300031462846FCF7D3FD207020464AF796FD0A
:10444000002070BDFF20F7E770B518460D46554AAD
:1044500001466423921C544857F7C2FE0446642266
:1044600029465AF755F920464AF780FD002070BDCD
:10447000F8B518460E464B4A01460123D21C4A485D
:1044800057F7AEFE317801240025052920D00429F4
:104490001ED003291CD002291AD0012918D00029C6
:1044A00016D004704AF762FD49F7F6F900950098B6
:1044B000401C0090C828FADB377808220B263E48BB
:1044C0003E493B005AF778F90616120E0B08060B08
:1044D0000570E7E71A220AE004700D700EE0027022
:1044E0000E700BE011220270062206E034220270E8
:1044F0000C7003E06822027003220A70032209781C
:1045000000783EF7D3F800203EF72CF93EF7F2F89A
:104510000020F8BDF8B518460E46224A0146012390
:10452000521D214857F75CFE0090347800257678BC
:104530002F46012E00D9012521463846FCF759FDAA
:10454000002800D10125002C02D113490120088048
:1045500005200007418AC905890F022C0ED00129C8
:1045600004D0022905D0032906D00FE0052C05D080
:104570000CE0012C02D009E00A2C07D1818AC9067F
:10458000FCD4418AFF22813291434182002D17D011
:104590000098FF2101701BE0000300508859FC07C0
:1045A0003075000012FE00000108000020340050A9
:1045B000E456FC0780841E00598DFC075A8DFC07C9
:1045C000994807709948047099480670FEF727FECD
:1045D00000984AF7CBFC0020F8BDF8B51946012336
:1045E000944A954857F7FCFD94494A880123D243E1
:1045F000D207D417641C10D14A881A434A804A88CB
:104600007825AA4328324A804A8806252A434A80C8
:104610008B4D0222521CAA42FCDB4A88FF27D2079C
:10462000002A20D0874A5588538013880825AB4339
:10463000138013889B089B009B1C13801388042500
:104640002B431380002306E0FF260B3602255B1C5C
:104650006D1CB542FCDB15886D0701D5642BF3DBBF
:104660001288520701D5077001E000220270002C69
:1046700003D14A88520852004A804AF777FC00204A
:10468000F8BD6C4A10B519460123921C6A4857F7C9
:10469000A7FD002101704AF769FC002010BD10B58C
:1046A00018460C46634A01460123521D624857F7DB
:1046B00097FD002101704AF759FC2078FDF7F7FEBD
:1046C0003DF7BEFF002010BD70B518460D46594A93
:1046D00001460123921D584857F782FD04460020E9
:1046E00020702878002800D00120FEF707FE204621
:1046F0004AF73CFC002070BDF8B50E46069C0168E8
:10470000074600250819904201D901250FE0002B2A
:1047100007D0306802199A4200D90225224659F77B
:10472000F7FF386800193860306800193060284693
:10473000F8BDF0B587B004460390C8180491029004
:104740001088154607190020002927D00220009064
:104750003B4603A904A8029AFFF7CEFF002818D110
:1047600004983B460678A01C03900120009003A902
:1047700004A8029AFFF7C0FF00280AD1B006000E75
:10478000E11C039100903B4603A904A8029AFFF79D
:10479000B3FF0399091B298007B0F0BD8821118060
:1047A000FAE7F0B587B00646C81802AF43C71088CD
:1047B00015468019019000200C46002924D00127BD
:1047C000009704A903A8019B029AFFF795FF002810
:1047D00016D1601C0390009704A903A8019B029ABC
:1047E000FFF78AFF00280BD16078A41C8006000E1A
:1047F0000090039404A903A8019B029AFFF77CFF91
:104800000499891B2980C7E700211180C4E700288B
:1048100009DBC106C90E012088400B490860BFF3BF
:104820004F8FBFF36F8F7047135AFC07145AFC0762
:10483000155AFC0716FE0000010800002000005079
:10484000552308000016005080E100E0F0B4134644
:104850000246002528462C4C2C4E0AE0C700E75B98
:104860009F4205D1C00000194468002C11D103E01B
:10487000401C3778B842F1DB0020254C254E0DE076
:10488000C700E75B9F4208D1C00000194468002CB4
:1048900007D0A446F0BC18466047401C3778B842A1
:1048A000EEDB2846F0BC7047F8B5FF222D321A49DE
:1048B0001A4859F72DFF0020184B1949194C08E0E8
:1048C0000C224243D5181219C4CAFF352D35C4C570
:1048D000401C0A789042F3DB0020134A0CE00C786D
:1048E0000C2524186C43114E4543AD19E418E0CD56
:1048F000FF342D34E0C4401C1478A042EFDB0C4898
:104900003821C3624185F8BD0C57FC071C57FC07D2
:104910000056FC07E056FC0770F1F107608DFC07BC
:104920000857FC07F056FC07FC55FC07AC54FC0785
:1049300000BAFC0710B51946FD22022312020E48E8
:1049400057F74EFC90214170002101704AF70EFB91
:10495000002010BD10B519460323084A064857F732
:104960003FFC91214170FF218170002101704AF7C5
:10497000FDFA002010BD00000108000001FD00004C
:10498000F8B507460120002302460090194603208F
:1049900044F75CFA04460221803001702B4D2A480E
:1049A0002A68C08F1146FF31F7310886264840300B
:1049B000008848862648066A0123DB069E431E437C
:1049C0000662FF320020FF32383250829082D0825D
:1049D0001D2008821F4848841F48C8821F4808833A
:1049E00000204882384644F771FD01462868FF30B0
:1049F000F730C28B920992010A43C283184841687A
:104A000000208847002C02D0204643F708FE2046AD
:104A1000F8BD10B5A0221349134859F779FE114982
:104A200050225039114859F773FE114801680E4859
:104A3000A03001600B495839416001200A49000546
:104A40002039086010BD7047E8BBFC074CB9FC0773
:104A5000C000004010800000294100007671000075
:104A60000CBFFC077857FC0720000840C000FC077B
:104A7000FC53FC0710B50F49032057F705FD002133
:104A8000032057F733FD10BD10B5044601230A4A31
:104A900000210A4857F7A4FB09498C4201D10321A0
:104AA00003E008498C4201D1002101704AF75EFA07
:104AB00010BD00001858FC0711FC000001080000A0
:104AC000A5A5A5A5C3C3C3C310B53248016B402239
:104AD00091430163016B3823994330310163016BCA
:104AE00006239943091D0163016B031419430163F4
:104AF000016B0723DB0219430163016B03235B0294
:104B000099430315C9180163016B13041943016329
:104B1000016B0723DB04994303231B05C9180163B9
:104B2000016BDB1099431303C9180163016BC305C3
:104B300099430163016B0723DB0619430163016B92
:104B400003235B0699431305C918016311492031FA
:104B5000898A016B012319430163036B81150B43A0
:104B60000363036B841323430363036B0C0423432A
:104B7000036309480160BFF34F8FBFF36F8F07488E
:104B800003681B0A1B02134303600348803801605B
:104B900010BD00008010004080E100E008E400E06B
:104BA00010B50C460123FE4A0021FE4857F718FBBA
:104BB000FD4A21781170002101704AF7D7F90020D1
:104BC00010BD10B5F64A0C460123521E0021F548CF
:104BD00057F706FBF54A21781170002101704AF75A
:104BE000C5F9002010BD10B5ED4A0C460123921EF8
:104BF0000021EC4857F7F4FAED49A288CA872288C9
:104C00004A870A46E3884032138062888A870021F7
:104C100001704AF7ABF9002010BD10B51A46822387
:104C20000021E04857F7DCFA112101704AF79EF99C
:104C3000002010BDDA4A10B50123413A0021D948BD
:104C400057F7CEFA112101704AF790F9002010BDF4
:104C5000D34A10B50123403A0021D24857F7C0FA91
:104C6000112101704AF782F9002010BD10B51A46D3
:104C700002230021CB4857F7B3FA112101704AF7FC
:104C800075F9002010BD10B51A4601230021C54852
:104C900057F7A6FA112101704AF768F9002010BDF4
:104CA00010B51A4601230021BE4857F799FA112181
:104CB00001704AF75BF9002010BD10B51A46822337
:104CC0000021B84857F78CFA112101704AF74EF9C4
:104CD000002010BD10B51A4682230021B14857F7B5
:104CE0007FFA00214170112101704AF73FF900203D
:104CF00010BD10B51A4601230021AA4857F770FAD3
:104D0000112101704AF732F9002010BDA44A10B5F4
:104D10000823333A0021A34857F762FA0446031DDB
:104D2000C21C811C401C57F733F8014600200029A3
:104D30000BD0112121706070A070E070A080E08025
:104D400020464AF713F9002010BD2070F7E77FB521
:104D50000846103857F789FA57F72FFA00246D469E
:104D60000390204657F723FA61004919641CE4B206
:104D70004880042CF5D38A4A1023313A002189480F
:104D800057F72EFA6D461ECD1EC000211038017057
:104D90004AF7ECF8012004B070BDF8B5804A0F4620
:104DA00008230A3A00217F4857F71AFA814D044632
:104DB000286B6E12B043304328637F493888496AB4
:104DC00088476060286BB043002128633888608082
:104DD000217020464AF7CAF80020F8BDF8B5704A9D
:104DE0000D460423093A00216E4857F7F9F9714E30
:104DF0000446306B7712B843384330636E4A2888D4
:104E0000926A69689047306BB84300213063288804
:104E10006080217020464AF7A9F80020F8BD70B5DF
:104E200018460D465E4A01460123323A5D4857F75F
:104E3000D7F904462878002802D0012805D101E0DE
:104E40005E4800E05E483DF791FC1220207020464D
:104E50004AF78CF8002070BD10B518460C46504A31
:104E600001460823133A4F4857F7BAF9218801221F
:104E700092078918096841602188418000210170EA
:104E80004AF774F8002010BD10B518460C46444A85
:104E900001460423123A434857F7A2F92288012316
:104EA0009B07D21861681160218841800021017040
:104EB0004AF75CF8002010BD10B51C46084647F7BD
:104EC00053FD374A0123113A2146364857F788F9EE
:104ED000002101704AF74AF8002010BD70B50C8817
:104EE00018461646032C00D30324CA788B78150283
:104EF00052225443334A1D431368E318FF330133EE
:104F00005D830B7911686118FF3101318A8B120AB8
:104F100012021A438A83224A014601230E3A21488B
:104F200057F75EF9002101704AF720F8002130465A
:104F300057F7DCFA002070BD10B588781C460028B1
:104F400001D0012200E000220888114641F7BAFB97
:104F5000134A01230D3A2146124857F741F900211F
:104F600001704AF703F8002010BD70B518460C46D2
:104F70000B4A014601230C3A0A4857F731F92278C7
:104F800052214A430F4900230D685219FF32413222
:104F90005382227852256A430D685219FF3213E07A
:104FA00043FC000001080000B0B9FC07D9B9FC07B8
:104FB000E8BBFC07400000400CBFFC07C3C3C3C3F1
:104FC000A5A5A5A54CB9FC074132938222785224AD
:104FD000096862435118FF314131CB8200210170D1
:104FE00049F7C4FF002070BD70B518460C46014655
:104FF0000123334A334857F7F3F8227852214A43C2
:10500000314900230D685219FF32413293812278D1
:1050100052256A430D685219FF324132D3812278FA
:105020005224096862435118FF3141310B8200213B
:10503000017049F79BFF002070BD70B518461646F9
:105040000D461F4A01460123D21C1E4857F7C8F8D7
:1050500004462888032800D3032043F7F5FA0028E4
:1050600005D000212170A9786430C17701E01220B9
:105070002070204649F77AFF0021304657F736FA6C
:10508000002070BDF8B50E4610491C46154600209C
:10509000C2008A5AA24209D1C00040184768002FB6
:1050A00007D02A4631461846B84702E0401C192866
:1050B000EED3224631462846FFF7C8FBF8BD000074
:1050C00038FC0000010800004CB9FC072858FC0718
:1050D00003460A780270401C491C002AF9D1184680
:1050E00070470000064C0125064E05E0E36807CC3A
:1050F0002B430C3C98471034B442F7D3FBF70CF821
:105100005859FC077859FC07F8B5040C8BB22646B1
:1051100082B25E430D0C1046370C5843360480199A
:105120000021794116466E43370C360480197941C7
:1051300026466E438919F8BD02E008C8121F08C14F
:10514000002AFAD170477047002001E001C1121F08
:10515000002AFBD17047FFFFFFFFFFFFF40122226F
:1051600022CAEA80D0070640643200005C51FC0786
:10517000248CFC071B26FC07B926FC07E3D7F007A5
:1051800041D8F00749D8F00799D8F007B1D8F0070F
:105190007F06FC07E9D8F00769DCF0070DDFF007B0
:1051A0004DDDF0076DDDF0078DDDF007A706FC078C
:1051B000DBDDF00769F3F00731F1F0074FF1F0079D
:1051C0006BF1F00785F1F00799F1F0079906FC07FC
:1051D0002FF2F00775C4F10781C6F10795B3F00708
:1051E0001103FC073105F2072D05F2072905F20727
:1051F0008D21F0076B06FC07ED27FC07590AFC0719
:10520000230AFC077709FC07F578F007BF77F0075A
:105210008149FC074196F107C345F107D106F20722
:105220005107F207F507F2073108F207C108F20744
:10523000F908F20700000000754AFC07894AFC07DC
:1052400021C0F007D98BF107D190F1074795F107FD
:105250002F94F1074F5CF107EF6BF1072D1CF1075D
:10526000DFFDF0074106FC07F39DF00741CCF00796
:1052700013B7F0074BB7F007F5B7F0072D2DF00780
:10528000C72DF007557BF0071F7AF0078D35F00723
:10529000000000005B06FC076306FC074306FC07F2
:1052A00087BBF10761BCF107EFBCF1071727FC07CB
:1052B00000000000000000000000000000000000EE
:1052C00000000000000000000000000000000000DE
:1052D00000000000000000000000000000000000CE
:1052E00000000000000000000000000000000000BE
:1052F000050000005060FC07000400000C94FC074F
:105300007C0200000090FC07000400009496FC075B
:10531000700500002003000000A60E00050000003C
:10532000D2000000320000003C000000010000003C
:105330000100000002000000020000000400000064
:105340000300000006000000000000000200000052
:105350000200000000000000000000000300000048
:10536000030000000500000005000000060000002A
:105370000A0000000A000000C8000000B80B00008E
:1053800002000000B80B0000B80B00001000000085
:10539000D4010000E5010000700200006A00000076
:1053A0000400000001000000200000000A000000CE
:1053B00001000000E20400008A020000DC05000099
:1053C000960000006C51FC07000000000000000087
:1053D000000000009454FC070000000000000000E2
:1053E00000000000000000000000000000000000BD
:1053F000000000000104000000000000C4C5F10727
:10540000FD00000000000000010099090300990957
:10541000070099090F0099091F1099092F20990970
:105420005F519909080004D000000000000000004E
:10543000030005D08B0035F010005CF0565610B01C
:10544000DC4118B094831AB0030051F003FF38B068
:1054500098013AB0F40B64B0F48B66B0777722B061
:10546000010005D0000024B0000000000A00008008
:1054700008030490000004F0030006D000000000C0
:105480000A00008008030490000004F0030006D026
:10549000000000000000000000000000000000000C
:1054A0000300000001050A000003010100FE0700DF
:1054B0003859FC075459FC0701FE07002C59FC071A
:1054C0000000000002FE07000C59FC074859FC07C9
:1054D00003FE07001859FC071859FC0704FE0701D2
:1054E0003459FC07A347FC0705FE07023347FC07B6
:1054F0003059FC0706FE07005059FC074C59FC07C1
:1055000007FE0700000000000000000008FE070082
:10551000000000001459FC0709FE07001059FC07A1
:105520004859FC070AFE07003C59FC070000000030
:105530000BFE07002459FC07000000000CFE0700CA
:105540003859FC07000000000DFE070000000000B5
:105550004059FC070EFE07003059FC070000000010
:105560000FFE07003059FC070000000010FE070086
:10557000000000000000000011FE07002059FC0799
:105580004859FC0712FE07001C59FC073859FC0754
:1055900013FE07003859FC073859FC0714FE0700B2
:1055A0000059FC070059FC0715FE07003859FC0795
:1055B0003859FC0716FE0700000000003859FC07A8
:1055C00017FE07000859FC073859FC0718FE0700AA
:1055D0003859FC073859FC071AFE07000000000084
:1055E0004859FC071BFE07003859FC073859FC07CF
:1055F0001CFE07003859FC073859FC071C00000046
:1056000000FE00003D38FC0701FE00005B3DFC078A
:1056100002FE0000D939FC0703FE00007539FC07C3
:1056200004FE0000F93DFC0705FE0000673EFC0794
:1056300006FE0000F938FC0707FE00006938FC0789
:1056400008FE00008138FC0709FE0000B538FC07A1
:105650000AFE0000E13DFC070BFE0000353DFC07A3
:105660000CFE0000CF3BFC070DFE0000F93BFC07E1
:105670000EFE0000813CFC070FFE00004739FC07CE
:1056800010FE00009D3BFC0711FE0000F33EFC07EE
:1056900012FE00007942FC0713FE00000B44FC07D9
:1056A00014FE00004944FC0715FE00007144FC078D
:1056B00016FE0000DB45FC0717FE00001545FC0741
:1056C00018FE00008346FC071AFE00001D38FC0788
:1056D0001BFE00009F46FC071CFE0000C946FC079D
:1056E0001C00000003000000010000000100000099
:1056F00000FD07003859FC073059FC0701FD070081
:105700003859FC070C59FC070200000000FD00009E
:105710003549FC0701FD00005549FC070200000067
:105720000000000000000000000000000000000079
:105730000000000000000000000000000000000069
:105740000000000000000000000000000000000059
:105750000000000000000000000000000000000049
:105760000000000000000000000000000000000039
:105770000000000000000000000000000000000029
:105780000000000000000000000000000000000019
:105790000000000000000000000000000000000009
:1057A00000000000000000000000000000000000F9
:1057B00000000000000000000000000000000000E9
:1057C00000000000000000000000000000000000D9
:1057D00000000000000000000000000000000000C9
:1057E00000000000000000000000000000000000B9
:1057F00000000000000000000000000000000000A9
:105800000000000000000000000000000000000098
:10581000000000000000000000000000F858FC0735
:105820004A5AFC070100010001FC00001B4CFC0768
:1058300002FC0000354CFC0703FC0000514CFC0747
:1058400005FC00006D4CFC0706FC0000874CFC07C3
:1058500007FC0000A14CFC0708FC0000BB4CFC0747
:1058600009FC0000D54CFC070AFC0000F34CFC07C7
:1058700010FC00000D4DFC0739FC00009B4DFC079F
:105880003AFC0000DD4DFC0711FC00001F4EFC0738
:1058900030FC0000594EFC0731FC0000894EFC072B
:1058A00032FC0000B94EFC0735FC0000DD4EFC0761
:1058B00036FC0000394FFC0737FC00006B4FFC073B
:1058C00038FC0000E94FFC073BFC00003B50FC07A4
:1058D00012FC00004F4DFC0741FC0000E74BFC07A9
:1058E00042FC0000C34BFC0743FC0000A14BFC073B
:1058F000050800008550FC07F058FC070100000077
:1059000031303042000000003242000033420000DB
:105910003442000036364200423642003642000031
:1059200031374200424242424200000042424200BD
:10593000424200004842000042000000424800008D
:1059400048484848000000004800000042424C001F
:10595000424C4C004C0000009859FC079C59FC0735
:10596000B40600004851FC07F08BFC07F08BFC07E5
:10597000100400004851FC070E0300006400000002
:105980000000D0070800010048004F000800170081
:0859900001000100000001010B
:0400000507FC0111E2
:00000001FF
