:0200000407FCF7
:100000008862FC076D01FC077501FC078D01FC0788
:1000100000000000000000000000000000000000E0
:10002000000000000000000000000000A501FC0727
:100030000000000000000000A701FC07ED16FC070F
:10004000E51AFC07471BFC071D27F007A511FC0755
:10005000B516FC07AB01FC078F0EFC07AB01FC07D4
:10006000191CFC07AB01FC079310FC079710FC0759
:100070009B10FC079F10FC07A310FC072915FC0729
:10008000E910FC07AB01FC07AB01FC07AB01FC0767
:10009000AB01FC07AB01FC07AB01FC07AB01FC07A4
:0200000407FCF7
:100110000348854605F03CF9004800473904FC07D0
:100120008862FC0710B50F49062008800F2000F0F8
:100130000CF8012000F009F8002000F006F800207B
:1001400005210907088062B610BD002809DBC10639
:10015000C90E0120884004490860BFF34F8FBFF3E8
:100160006F8F70470034005080E100E00F488047F7
:100170000F48004704207146084203D0EFF309807E
:100180000C490847EFF308800A49084704207146E4
:10019000084203D0EFF3098007490847EFF30880CE
:1001A00005490847FEE7FEE7FEE7FEE72501FC07F5
:1001B0001101FC071D02FC07BD01FC070522120707
:1001C000518A802319435182124903680B604368A6
:1001D0004B6083688B60C368CB6003690B614369C4
:1001E0004B6183698B61C369CB6108620A48836A8A
:1001F0004B62C36A8B62036BCB62C36B0B63436B53
:100200004B63806B8863908A800601D500BE70477F
:10021000FEE700000000FD0700ED00E005210907F2
:100220000A8A04231A430A820A8A02231A430A8288
:100230000A8940231A430A811B4B01221A601B4B77
:1002400008221A804A8A80231A434A82184A03687D
:1002500013614368536183689361C368D361036921
:1002600013624369536283699362C369D362106303
:100270001048836A5363C36A9363036BD363C36B8E
:100280000B4A40321360436B5360806B9060888AE6
:10029000800608D500BE488A012280088000D2036B
:1002A000104348827047FEE780E200E000330050D0
:1002B0004000FD0700ED00E0F8B503460C460120C4
:1002C000154600212B4E0246412B3BD00ADC012B68
:1002D00016D00222072B26D0402B23D120780228CB
:1002E00024D32AE0422B33D0432B37D0442B19D1CF
:1002F000207800281AD01F48407B2870227010E018
:1003000006221D491D485DF7F5FE0627002802D08C
:1003100006221A4901E00622B11C28465DF7C6FEF6
:1003200027700020F8BD2078022802D22170042016
:10033000F8BD30782870707802E0307A2870707AD2
:100340006870DBE720780028F0D00A48807AD4E78C
:1003500020780028EAD00748C07ACEE72078002825
:10036000E4D0307BC9E700207047012070470120AE
:10037000704700000254FC0790E1F1073448FD0784
:10038000F8B5022801D003284ED1A04A13690421F0
:100390000B43136105242407628A20239A43628257
:1003A000228A02231A432282994E00271022022811
:1003B0007578608A39D010436082608A0843608211
:1003C000B068C01C830893480760628A40210A43D2
:1003D0006282628A8A43628247618F498162012117
:1003E0000904C1622188802001432180009700997F
:1003F000491C00916429FADB618A10221143618251
:1004000084495B1E4B6121888143218003205BF777
:1004100059FA00280CD00120F070208A0F2109021F
:100420008843290208432082F8BD90436082EDE7AB
:10043000F77030780543F0E708B500F093F800F066
:1004400037FB05252D07724F042610E0142000F01D
:10045000B1F900200090042168464CF7CBFD00283C
:1004600001D000F088FA02F0F9F900280BD02889B1
:10047000000608D501208007006B000403D46748FC
:100480000078C00713D002F018FA0028EFD100F06E
:10049000C0FA0028EBD072B601F048FC04280DD059
:1004A000022812D0032810D0012854D058E05BF75E
:1004B00094FF5B4800780428D5D1C7E759480078F5
:1004C000012801D0032000E002206946087004469C
:1004D000288A304328822046FFF752FF204602F048
:1004E000EEF9022C01D0032C1BD14F484188FF228A
:1004F0000132914341806988B980418801221143CA
:100500004180002000900099491C00911429FADBD9
:10051000698989088900491C698169894906FCD56E
:100520006880A88A800602D540490820088030BF2C
:10053000A88AF878002807D03D48006801898AB267
:10054000416803205BF798F902F0BAF92F48016976
:10055000B143016104E000F05CFA002800D030BF34
:1005600062B684E7F0B53348334E0827334A344B3C
:10057000B04201D3394608E0904201D30C2104E097
:10058000984201D30E2100E00F212E4C2E4D204821
:1005900064192E4D817064190125ED038460AC420D
:1005A00001D8012406E00325AD03AC4201D80324A1
:1005B00000E00F240C434470254C31468C4223D27A
:1005C000244D26467519944205D38D4201D2042745
:1005D0001AE00C2718E09C4209D3954201D2022769
:1005E00012E08D4201D206270EE00E270CE09D425C
:1005F00001D2012708E0954201D2032704E08D4291
:1006000001D2072700E00F270770F0BD00ED00E0E2
:100610000448FD070000F407204F101A5877FD0723
:10062000BC48FD07B477FD072000005000330050A0
:100630005876FD070448FD070000FD0700C0FC07D1
:100640000080FC071001FC078C5A0000000004F831
:100650008862FC070C040000704770B50D4600244A
:1006600042F789F92855641CE4B2202CF8D3002005
:1006700070BD10B55DF708FD10BD10B55DF70DFD3F
:1006800010BD05210907488A012280088000D20395
:1006900010434882704700003C480178002902D08E
:1006A0008021417070473A49002008703949C8706C
:1006B000704736490A78002A03D000280CD002205F
:1006C0000BE0002801D0022000E001203049087032
:1006D00030490120C8707047012080304870704751
:1006E00010B52D4A0821118072B605242407228AEC
:1006F00004210A432282228980239A43228122896B
:1007000040231A432281254A13690B431361618AEE
:10071000202291436182218A022211432182218A6F
:100720000F221202914321821D494A88FF2301337F
:100730009A434A800A88CB019A430A80002806D04F
:1007400000F0B1FC208A01210843208207E0208AC2
:1007500040084000208212490020E031088000203B
:100760001049C043086000BF00BF00BF30BF10BDCC
:10077000074900200978002904D0012903D0022963
:1007800000D1022070470120704700001048FD078B
:10079000B477FD075877FD070033005000ED00E007
:1007A0002000005080E200E00148C078704700005F
:1007B0001048FD0770B5FF4D04466878002822D028
:1007C000FD4801884907FCD4C188808809040E18B7
:1007D000FA492046484331465DF7EEFB0021697037
:1007E0006861B00121465DF7E7FBA861F44800238A
:1007F0004443E0170105220B11432005324604F063
:100800009DFCE962A86270BDEB494880088803221C
:10081000104308800888042210430880E54901201D
:100820004870704770B50521090708893022904348
:10083000088108898023184308810889800880007E
:10084000401C08810889082210430881DD4804887B
:100850001C4304804C8A94434C820D8940242543D8
:100860000D810D8A0426B5430D828D8AAD07FCD516
:10087000D04EAA2535618588F026B543B0358580F0
:10088000858803263602B543858085882D092D018C
:10089000858085880126B602354385808588760067
:1008A0003543858085887600354385804D8A95431C
:1008B0004D82028852085200028002889A430280C8
:1008C0000A89A2430A814089800503D5BD490520D4
:1008D00060318880012080070168821591430160A2
:1008E000B94801683F2252029143421489180160BD
:1008F000016802031143016070BD10B5B3490020C7
:100900000968572901D9573908B2C10F0818401092
:100910003D21484300B2C10701D01F3000B2AC49AD
:10092000884200D8084680B25BF7E4FD10BD10B5E0
:10093000A4494888C006040F488801221043488013
:1009400048881E22904348809B484B0143800523E2
:10095000038003885B07FCD480884B88934314335F
:100960004B804B885B085B004B804B889343620055
:1009700013434B8010BD70B596490120C863C86B06
:100980000028FCD101208007C0698A4C0021E26860
:10099000904200D2E160A2780125002A04D0A17023
:1009A000E060FFF7C4FF11E0E1681922411AD201AB
:1009B000914211D3E060FFF7BAFFA188884201D9C4
:1009C000411A00E0091A89B2182905D3A08003F062
:1009D000E9FF002800D1A57070BD10B575494969BF
:1009E00048437D49401849005DF7E6FA10BD10B54F
:1009F00070490122D2038969904205D304F0DAFCE0
:100A00008905800A084310BD4843800A10BDE4E709
:100A1000EDE710B5714801240078C00705D0704893
:100A2000417D01290CD1007D06E005205BF775FAB8
:100A3000002805D16B48807A002802D0032800D016
:100A40000024204610BD10B5674900200860FFF75C
:100A500054FF01208007016B49004908016310BD64
:100A600008B558494A8801231A434A800022009257
:100A70000099491C00911429FADB052109074B89CB
:100A80009B089B005B1C4B814B895B06FCD5488017
:100A9000192080010092521C00928242FBDB48899F
:100AA00080088000488148890006FCD508BD704751
:100AB000F8B54E490820088000F05CFA4148203023
:100AC0004088FFF7F4FF3B4F012038703D4860300D
:100AD0004188C908C90041803A4D698989050AD50C
:100AE0004188C2130905090D89184180418878227F
:100AF000914340314180052424076088002803D1B8
:100B000033488838FFF7ACFF6888400840006880A9
:100B1000374800260660628A40210A436282628A60
:100B20008A43628246613349816201210904C162BC
:100B3000208880210843208000960098401C009067
:100B40006428FADB002000F0DDFB1A481C3000F0BE
:100B5000DFF82948018A3981408A788100F0AEFBAC
:100B600000F064F801F0EFFA012041F70AFFFFF707
:100B700059FE2248006841F79DFB2148C670067166
:100B80000120800701688215114301601420FFF7DE
:100B90003BFE1420FFF70EFEFFF77EFD01F042FB47
:100BA000FFF751FF174913200860FF2016499130C5
:100BB00008602BE01848FD07001600500024F400E0
:100BC000102700002000005000020040C048FD0730
:100BD000E2040000C000004020A10700F976FD07F4
:100BE000507DFD07187DFD07AC76FD0700330050F2
:100BF0000000F407204F101A00FEF8074C76FD079E
:100C00005877FD07C448FD07C848FD0706494F202F
:100C10000860E6826888E0218843A030688001206F
:100C200003F0EAFEF8BD0000C048FD0770B5204E95
:100C300020483446002520C4401E0028FBDA03F07B
:100C400051FD1D48302205801C491D485DF72EFAD4
:100C500003F0D2F81B49012008701C4A1A491160A0
:100C60001C4A1B4911601D4A1B4911601C4A0A217C
:100C700011701C491C4A0D70322111701B4A05214C
:100C800011601B4A10601B4801601B490620086068
:100C90001A49072008601A4908200860FF201949EE
:100CA00007300860184908601848066070BD0000E9
:100CB000005CFD07FF0800004848FD0758ECF107FD
:100CC000FC76FD07F976FD075056FC075076FD07C8
:100CD0001054FC075476FD079455FC075876FD0721
:100CE000B476FD07B576FD07DD76FD075C76FD077A
:100CF0006076FD076476FD076876FD076C76FD0774
:100D00007076FD074876FD074476FD074C76FD07B3
:100D100010B5062201495DF7C9F910BDA8FFF80713
:100D200083490A880F239B019A43800102430A806A
:100D300070477F490A880F239B019A438001024331
:100D40000A80704710B5044679497A480880002027
:100D50004880062000F0A4F8204600F0AEF810BD50
:100D60007348018801229203114301800188012206
:100D70001143018070476E486F49028802231A436D
:100D80000280491E02D302889207FAD40021018111
:100D900040897047F8B50546684800680090684685
:100DA000FFF7D0FF142000F0B3F8002D01D0092088
:100DB00000E00720FFF7BDFFFFF7DDFF044601203D
:100DC00000F0A6F8002668468670FFF7BBFF002DEE
:100DD00001D0092000E00720FFF7ABFFFFF7CBFFB2
:100DE000534900190E80F8BDF1B5514C0099208887
:100DF0000122D2029043C90208432080FFF7B0FFCE
:100E0000142000F085F801267602A680E68020886E
:100E1000F1000843208020888D10A8432080FFF730
:100E2000AAFF801B87B2208828432080FFF7A3FFFA
:100E3000801B009980B201291CD0F11B89B2A94204
:100E400000D300BEA288920A92020A43A280301AFE
:100E500080B2A84200D300BEE188890A890201431A
:100E6000E1802088A843208021880120000381435D
:100E70002180F8BD7900711A89B2A94200D300BE61
:100E8000A288920A92020A43A2804000DFE7284922
:100E9000012008812A480068002800D000477047D8
:100EA000002809DBC106C90E0120884025490860D9
:100EB000BFF34F8FBFF36F8F704730B505001FD062
:100EC0001B4C297820880122D2029043C902084392
:100ED000208028780128687813D0FFF721FFA978AF
:100EE00001208002002921880ED0014321800920A1
:100EF0006080E97802200029618807D00143618081
:100F000030BDFFF716FFEAE78143EFE78143F6E7DD
:100F10000AE000BF00BF00BF00BF00BF00BF00BFAE
:100F200000BF00BF00BF00BF401EF2D270470000EC
:100F30000015005001400000A0860100AC56FC07DF
:100F40004C48FD0780E100E00520000701883022C1
:100F5000114301800188032211430180704705205D
:100F600000070188302291430180018889088900A7
:100F700001807047704710B5032800D10420544CFD
:100F800040010019490008181A43C28010BD032807
:100F900000D104204E4A4001801801228A408280FC
:100FA0007047032800D10420494A400180180122DB
:100FB0008A404280704770B506460498144600285F
:100FC0000D46304602D0FFF7ECFF01E0FFF7DFFFF0
:100FD000224629463046FFF7CEFF70BD10B50028E7
:100FE00007D0431E3A4C5B0070341B19012802D015
:100FF00002E00023F6E70831188801248C40A04362
:101000008A4002431A8010BD032800D10420304AD0
:1010100040018018008801228A40104000D0012041
:10102000704708B52BA212680092032805D86A46BB
:10103000105C884201D3012008BD002008BD70B5B6
:10104000012421460A3881400D4688B200F02FF86D
:1010500084402148C189A9430C43C48170BD10B5A7
:1010600004460A3804280AD82046FFF7E8FF1B493F
:10107000A00040188038806D002801D0804710BD46
:10108000002CFCDBE106C90E0120884014490860F1
:1010900010BD0A20E3E70B20E1E70C20DFE70D207D
:1010A000DDE70E20DBE70F490020088070470028AD
:1010B0000BD0411E4840C003010C002002E049084B
:1010C000401C80B20029FAD1704710207047000000
:1010D0000030005007050907001400505048FD0774
:1010E00080E200E04000005010B5FFF738FF052017
:1010F00000078188CA0B164918D0164B1A88520768
:1011000014D51A88D20711D01888022210431880EB
:1011100018884008400018800C68002C05D0985EA4
:101120000421595E0A229A5EA04710BD8088C0063D
:10113000FBD5094802881206F7D501228280028871
:1011400080239A43028048680028EED0804710BD73
:101150006448FD070002005000010050544930B4BB
:10116000884201D0012100E00021524A490189183A
:1011700008E0838ADB07DB0F12D00388541C8D68DC
:10118000CC81AB54CA898B899A42F2D382885208A7
:10119000520082808A69002A02D0C88930BC104778
:1011A00030BC704710B5444800F001F810BDF8B5E8
:1011B0003F4D404E044620890007000F062826D0E8
:1011C00009DC012840D002281DD00428F3D1204694
:1011D000FFF7C4FFEFE7072828D00C28EBD1AC427B
:1011E00001D0012000E00020400187192046FFF7D0
:1011F000B5FFA18849084900A180B9690029DAD062
:10120000F8898847D7E7204600F01FF8D3E7204643
:10121000AC4201D0012100E00021490189190A698D
:10122000002AC8D0818A9E2319400BE02046AC4298
:1012300001D0012100E00021490189190A69002A31
:10124000B9D001219047B6E7F8BD194930B48842BA
:1012500001D0012100E00021164A490189180EE061
:1012600003891B069B0F032B1BD0838A9B06DB0F76
:10127000002B95D0531C0C68CB80A25C0280CA88DE
:101280008B889A42ECD3828802239A438280828898
:1012900080239A4382804A69002A81D0888830BCA2
:1012A00010477C231B5A9B07DB0FE1E778E7000020
:1012B000001000506C48FD070011005018B53F4960
:1012C00000220A6005200007448A40231C43448210
:1012D000448A9C4344824A61394B8B6201231B043C
:1012E000CB62048880231C4304800092521C00922D
:1012F000642AFBDB0A68D208D2000A60018899439D
:10130000018018BD052109070988090600D400BE1F
:101310002A490A88520700D000BE002802D0FF20C8
:10132000023000E001200860704770B505242407F2
:101330002488049D240600D400BE204C268876070D
:1013400000D000BE01267603B14200D300BE0126C4
:10135000B603002B0FD0B34200D300BE4900012AD0
:1013600000D0002211432161591E6161002D04D07B
:10137000FF21053105E000BEF0E72168C908C9007A
:10138000091D2160002108E0A2681205120F082A39
:10139000FAD08A008258A261491C9942F4D300F025
:1013A00007F8A068800701D5002070BD012070BD3E
:1013B000024881684906FCD5704700000000F40728
:1013C000204F101AEFF31080012181F310880521BE
:1013D00009078A880123DB021A438A80002800D08B
:1013E000012080F31088704710B5034841780078D9
:1013F000FFF7D7FD10BD0000AC48FD0710B5EFF3B7
:101400001084012080F310880A48018849084900A7
:1014100001800520000781880122D202914381804A
:10142000FFF7E2FF002C03D0012080F3108810BDED
:101430000020FAE70012005010B5044681781348E6
:101440000170E1784170FFF7CFFFFFF7BBFF207815
:101450000207C107520F490E520000091143C00094
:10146000014360784207920D4006C00F114380038C
:101470000143074801800189890889000181012110
:10148000C18002880A430280002010BDAC48FD07DD
:101490000012005010B5034841780078FFF777FD3F
:1014A00010BD0000AC48FD070E4900220B899B08C7
:1014B0009B009B1C0B810B88DB059B0F012B01D92B
:1014C000030C8B80488008888004FCD50120C880EC
:1014D0000888C005800F012801D98888020448883F
:1014E0008018704700120050C9009200891840000F
:1014F000081810490880104801680902090A4207C3
:101500001143016070470B4801880122114301809B
:101510007047084801884908490001807047054B19
:1015200058809980DA80704704480068002800D00D
:1015300000477047003400500CE400E0B048FD075D
:1015400010B50A4A13885B085B0013801388402497
:10155000A343138013880824A343C00003431380CC
:101560001089800A80020843108110BD00130050CA
:1015700030B5104B1C880125640864002C431C8086
:101580001C884025AC432C431C80012900D101203C
:101590001C882025AC43400104431C80188810247B
:1015A000A0430901084318809888800A80021043EC
:1015B000988030BD0013005030B5EFF31081012248
:1015C00082F3108805231B079A882024A243224314
:1015D0009A80002900D0012181F31088294CA1892B
:1015E00049084900A181A189C907C90FFBD1254933
:1015F000002240390A82234A0388603A9382438852
:10160000138383889383C3880B8013880625AB4399
:10161000457A6D002B431380827B002A00D100BEE7
:10162000C37B002B00D100BE8B8B5B095B01521E7C
:1016300013438B830A8B5309C27B5B01521E1343F6
:101640000B83817A012917D08189C07AFFF778FF4F
:10165000A189012081430143A181A089C007C00F56
:10166000FBD0094801688022090A09021143016080
:1016700006491020086030BD8289C17A007AFFF7E0
:1016800077FFE5E76013005004E400E000E100E0CC
:10169000074881894908490081818189C907C90FA3
:1016A000FBD1052109078888202290438880704754
:1016B0006013005010B50A4880890A49C96A002998
:1016C00001D0884710BD042000F001F810BD0028AB
:1016D00005DBC106C90E0120884003490860704738
:1016E00020130050A45BFC0780E200E01C48006867
:1016F000002800D0004770471A4A13695B085B0056
:10170000136153691B0E1B06401E0343536190690E
:10171000000E0006906110690223984349000843B7
:101720001061106904218843106110690121084388
:10173000106170470B488169090E090681610169D2
:10174000490849000161704700B50021FFF7D4FF47
:1017500004480169C903FCD5FFF7ECFF00BD000098
:10176000B448FD0700E000E016490A8A0078042327
:101770009A43800002430A8270470A4610B5014628
:1017800010465CF719FC0F49401EC88110BD70B5AA
:1017900042780546642A00D900BE0A4CE0896421DB
:1017A000401C50435CF708FC2978012905D0022928
:1017B00005D0032900D1A08170BD208170BD60815A
:1017C00070BD000000340050002070477047704723
:1017D00070470020704701218907086B07221043DA
:1017E00008637047704740087038C0B270473E4980
:1017F0003C4808603E493D4848813E4841880622B1
:101800009143891C41803C4A6321D1803B49384A3D
:101810000988603A11823A4909880180394800787C
:10182000002802D0384930200883704700B58BB0BB
:10183000364A4262364A8262364A4261364AC26259
:10184000364A0260364A0262364A4260364AC2610D
:10185000254800214038426B1F231B049A43431341
:10186000D218426331480268C3129A430260026888
:1018700003139A43026068464154491CC9B228299F
:10188000FAD301462A482822006840305CF70EFC53
:10189000FFF7ADFFFFF74BF82649088003F082F809
:1018A0000BB000BD104810B54038416B1F22120428
:1018B000914342138918416300060168C908C900B1
:1018C000016005200007018989088900491C018100
:1018D0000189082211430181FFF789FF012003F0EC
:1018E0008BF810BD4C05540780000040EBE600006B
:1018F0006028005000260050002C00502248FD07B0
:101900002048FD07B848FD0700240050C917FC0710
:10191000CD17FC07D317FC07D717FC07CF17FC0719
:10192000E517FC07D117FC07E717FC07000200408A
:101930004C76FD071C48FD0710B5DE49DE4A097DDF
:1019400027E0DC4B203B1C6B0A234B43E3189B78BE
:101950005B065B0EDC060DD05468641C5460DC072B
:1019600002D0D468641CD4601B0708D593685B1C44
:1019700093600BE01468641C14601B0706D4CF4C02
:10198000138A6488240A1B195B081382491C4907BF
:10199000490F0346401EC0B2002BD2D110BDF8B58E
:1019A0000126B607B56B2846FFF732F8C24C143C47
:1019B0002169471800202061C14938465CF7FCFACC
:1019C000C0494860BE4A5043381A00D0101A80B24D
:1019D0000860306B0821884308433063BA480560CB
:1019E000BA480068002810D0A8420ED2B849097839
:1019F00000290AD16168281A4018E168821D8A42CC
:101A000001D2801D00E008466060F8BDF8B5FFF720
:101A1000A6FA0026AE48052706700425AD4C38E02E
:101A20002188042089088900891C21806080208801
:101A300028432080FFF788FA00E000BF2088400795
:101A4000FBD4FFF78CFAE088A18800044018A24973
:101A50004018052810D2984814384188491C89B28A
:101A6000418014291AD3468042688168531E8B42F4
:101A700000D91946416011E08F4914394E804868F9
:101A8000CB68821C9A4200D213464B6090480121D9
:101A9000017038467F1EFFB20028C1D10520000723
:101AA0004189890708D041898908890041818B498A
:101AB0004A88520852004A800189802211430181DC
:101AC000018AA9430182818A8907FCD500F026F9A1
:101AD000012080070169490700D500BE0169490757
:101AE000FCD5F8BDF8B57E4F0820388005263607AE
:101AF0007089800721D0B08A400701D500F023FB10
:101B0000764D2888802108432880724CFF20608011
:101B100004202080FFF718FA7D21C900E088A28800
:101B2000000480188842F9D9052020806D4800887B
:101B30007080298880208143298038894007FCD41F
:101B4000FFF764FFF8BDF8B55B4E0127143EBD07F3
:101B50002C69002C5FD0200606D58020A8614BF7A9
:101B6000F2F81420FEF750FEA0070AD50220A86163
:101B70005D4800688030008EC0B2FFF7DDFE47F799
:101B8000A8F8200717D50820A861584852220068F5
:101B9000643081885143564A12688918C031898B54
:101BA000407E090A081AC0B2FFF7C6FE002047F7B8
:101BB00050F804203070E00505D5FF200130A86101
:101BC000012047F746F8A00504D501204002A8618E
:101BD0004BF722F9600603D54020A86147F734F897
:101BE000E00603D51020A86145F769FC600703D51E
:101BF0000420A86100F02AF8E00706D00120A861BF
:101C00005AF76AFC4BF79FF83770A006A0D5202042
:101C1000A86100BE9CE7F8BD10B53648C188408871
:101C20000A460240344BD20705D00322334C1A70C7
:101C30002288521C2280890707D5C00505D50220BD
:101C40002F4918700888401C088010BD70B52448C2
:101C500001894908490001812A480078C00705D058
:101C6000002040F7BBFD40F781FD01E040F766FD35
:101C70005AF716FC40F720FD01251420FEF7C4FD9D
:101C80001D4C0020207015484089800510D56078D3
:101C900000280DD11C4865700088C00708D10120BC
:101CA000FFF778F88B218900884201D90220607003
:101CB00070BD00000079FD07D048FD0700290050E5
:101CC0007102000040000040EC48FD07E448FD07B9
:101CD000D45BFC070016005061F8FFFF20000050A5
:101CE000003300500848FD075876FD073879FD0796
:101CF0004C76FD0720200050BC48FD07DE5BFC074A
:101D0000E05BFC07F976FD070015005010B540F7C1
:101D10000AFB754880687549486010BD10B540F7EA
:101D20002EFB724870494068886010BDF8B50026E7
:101D300000F0D5F86E4C009021790020022900D1E6
:101D400000906C4F3989C9070DD159F700FD002863
:101D500009D0E07801260028FAD005200007808A03
:101D6000C00701D00426B8E020880028FBD1FEF788
:101D70001BFD002806D16048806A002802D000F0D0
:101D8000AEF80090FEF7B9FDA17868465AF7EAF977
:101D900000283ED00125AD072869400639D4A17836
:101DA00068464BF727F9002833D04DF7CCF80028C8
:101DB0002ED04BF729FD00282AD0A17868465AF783
:101DC000D1F9002826D02869400623D448488178D4
:101DD00068464BF70FF900281CD000BE0099002977
:101DE00006D0286AFF383938DA2801D8491E009110
:101DF00042484089800500D500BE4148FEF707FEF5
:101E0000064604463F481234007802280FD00FE0FF
:101E1000002662E03C480078C00705D0002040F76B
:101E2000DDFC40F7A3FC58E040F788FC55E0113496
:101E30003648FEF7ECFDE96B301A890A8902014346
:101E4000E963E86B32490840A1020843E863E86BA4
:101E5000C002C00A71050843E8632E4A00980426B0
:101E60000021904200D300BE2B4B0CCB5CF7CEF888
:101E70000903000D08431D4A401E611C1060884282
:101E800000D114601A480079002801D0012100E037
:101E90000021106847F783F82048C06A8047124C39
:101EA000286B0004C00FFBD02068C005FCD520685B
:101EB0008025A84320607889462804D24621184A04
:101EC000081A10607981FFF721FF20680006FCD511
:101ED000052000070189A94301813046F8BD11485A
:101EE0000068406A7047000000020040E448FD07B7
:101EF0005877FD0700330050787EFD072000005022
:101F00001D0D0000B477FD07F976FD07540B0000A6
:101F1000FF03E0FF40420F004048FD07B47FFD078C
:101F2000CC48FD075876FD07F8B50025344EFF274D
:101F300000280FD00024182060438019C782456014
:101F40008560C581007D59F7FBFF641CE4B2202C3D
:101F5000F1D3F8BD002420461821484381192246B8
:101F600010320D618A82CF824D608D60CD818D816E
:101F70003550087D59F76DFF641CE4B2202CEAD37C
:101F8000F8BD402070470020401CC0B22028FBD381
:101F900070470020401CC0B22028FBD3704730B5EA
:101FA000FF21020AC4B2164B002018254543ED1844
:101FB000AD8AA54204D118214843C018C18A03E064
:101FC000401CC0B22028F0D31002084330BD30B509
:101FD000FF21020AC4B20A4B002018254543ED1820
:101FE000ED8AA54204D118214843C018818A03E034
:101FF000401CC0B22028F0D31002084330BD0000BE
:10200000F048FD0738B500256E4C0095E178A078C2
:1020100001232A46FEF7CFFF2078A178884203D11A
:102020006178E278914206D000950322617802231C
:102030001202FEF7C0FF38BD70B501280DD104298A
:102040000BD1012A09D1052B07D11C07A58AAD06A2
:10205000FCD4658A8026B54365825A4C2070617035
:10206000A270E37070BD10B5564CE41E20780028B5
:1020700016D155480078002806D0022808D0042838
:1020800011D006280AD112E001230022114602E0F5
:102090000323002202210020FFF7CEFF0120207041
:1020A000FFF7B0FF10BD052300220421F3E707234B
:1020B00000220621EFE738B50025424C0095E17873
:1020C000A0782B462A46FEF776FF2078A178884232
:1020D00003D16178E278914205D0009500236178C0
:1020E0001A46FEF768FF38BD3848418806229143FA
:1020F000091D4180418801221143418041883822D5
:10210000114341804188402291434180418803220C
:102110005202114341804288FF2101310A4342802B
:1021200042880723DB021A43428042888B019A438C
:1021300042802748016027480268120A12020260A2
:1021400025480160704770B505242407208A0221C4
:1021500088432082A08A0007FCD520484188FF22BE
:1021600001321143418002F0A5FAFEF7F8FE1C4847
:1021700008210180A28880200243A280628A024353
:102180006282184A07201081164D0020803D288168
:10219000A8808320A8810B48C01E4278002A02D163
:1021A00041700B21817081780322407840F7BAFAA0
:1021B0000320A881FFF757FF608A20218843084346
:1021C000608270BDF34BFD07A05BFC072020005030
:1021D00000E100E008E400E080E200E020000050C0
:1021E000003300508010005018B5F84900220A60F2
:1021F00005200007448A40231C434482448A9C43B0
:1022000044824A61F24B8B6201231B04CB6201883A
:1022100080231943018000920098401C009064289C
:10222000FADB18BD10B5FEF737FAEA49002048700E
:10223000E94B02221A70E94A107025228A70322274
:10224000CA800881E6494860C860886008600882E2
:10225000E4480168020311430160FFF745FF10BD28
:10226000F7B582B016460446002513E0FFF7BCFF21
:10227000002002460090E10802230398FFF755F87A
:10228000012148400746FFF719F80834002F03D111
:10229000AD1CADB2B542E9D305200007018880220C
:1022A00091430180002005B0F0BD70B515460E4683
:1022B0000446FFF799FF0020FFF724F82A4621463D
:1022C00030465BF7F3FEFEF7F9FF70BD38B5C14C41
:1022D0006078002825D1C148017868460170252121
:1022E0004170BD4801786846817047F796FEBE4848
:1022F000016AC21311430162016A0214914301622F
:10230000016A821491430162016A490A4902016229
:1023100005206070B54910110860BFF34F8FBFF3FF
:102320006F8F38BD10B5AB4C6078012805D0607850
:10233000022802D06078052807D1AD48806D40F7AB
:1023400056FA0021084659F7B6FD0020607010BD0E
:1023500038B5A04C6078002819D120819F480178B9
:1023600068460170A17841709B4801786846817089
:1023700047F753FE9E4D05E0684647F74EFE00289E
:1023800000D0FEE7A86D0028F6D00120607038BDAF
:1023900038B5904C607800280ED191494860C860EB
:1023A0008860086008828D48007869460870684631
:1023B00047F7ADFE0220607038BD70B50446417825
:1023C00000250078FEF72DFE002800D10125E178D8
:1023D000A078FEF726FE002800D10125284670BD12
:1023E000F8B5044600267D20000100960099491C9E
:1023F00000918142FADB7F4D0096002369782878AE
:102400001A46FEF7D8FD00960023E978A8781A4608
:10241000FEF7D1FDE378A27861782078FFF70CFE13
:10242000FFF7F0FDF8BD74490A8A5207D20FFBD0BE
:10243000714A603A1082088A4007C00FFBD0FF2023
:1024400001301082088B8006800EFBD0108AC0B24B
:102450007047694A138A5B07DB0FFBD0664B603B12
:1024600018821982108A4007C00FFBD0108A80069C
:10247000C00FFBD1704770B50D460446FFF70AF850
:102480002046FFF711F82846FFF70EF8FEF7ACFFDD
:1024900070BD10B50446FEF7FDFF80202043FFF716
:1024A00003F80020FFF700F8C4B2FEF79DFF2046B6
:1024B00010BD014600B500200B005BF74BFE261453
:1024C00016191C1F22252815152B2E3134373A15C5
:1024D0001515153D404346494C4F5255585B5E61BA
:1024E00064676A6D7015454800BD4448801C00BD96
:1024F0004248001D00BD4148801D00BD3F480830D6
:1025000000BD3E480A3000BD3C480C3000BD3B4891
:102510000E3000BD3948203000BD3848223000BDA3
:102520003648243000BD3548263000BD33482830B9
:1025300000BD32482A3000BD3048403000BD2F4831
:10254000423000BD2D48443000BD2C48463000BD0F
:102550002A48483000BD29484A3000BD27484C3041
:1025600000BD26484E3000BD2448503000BD2348F1
:10257000523000BD2148803000BD2048823000BD6F
:102580001E48843000BD1D48863000BD1B48883081
:1025900000BD1A488A3000BD18488C3000BD17486D
:1025A0008E3000BD1CB50B4C012020701449102347
:1025B000096801910090032221791202E078FEF768
:1025C000FAFC607900281DD001221CE00000F4070D
:1025D000204F101AD65BFC07845CFC07855CFC0767
:1025E000D048FD0700020040C000004080E100E04C
:1025F0006479FD07F34BFD0760130050063000506F
:10260000B056FC0700222179E078FEF7E7FCFEF7E0
:1026100080FF1048018880221143018005200007B7
:10262000818808221143818081886A46890812794D
:10263000890011438180002211461046FEF754FFA5
:102640007D20C000044A0146FEF769FFFEF75BFFEC
:102650001CBD000020000050FFFF000010B5014627
:102660000B2000F0C1F800F0B4F810BD10B504461E
:10267000C1B2062000F0B8F8210A072000F0B4F833
:1026800000F0A7F810BD10B50446C1B2002000F05C
:10269000ABF8210A012000F0A7F800F09AF810BD6D
:1026A00010B50024002803D00121401E81408CB2C7
:1026B000E1B2042000F098F8210A052000F094F817
:1026C00000F087F810BD10B50446C1B2022000F03A
:1026D0008BF8210A032000F087F800F07AF810BD8B
:1026E000C10710B5C90F082000F07EF800F071F89E
:1026F00010BD10B500F038F80020FFF7F1FF002002
:10270000FFF7E1FF0020FFF7CBFF0020FFF7BBFF43
:102710000020FFF7ABFF0020FFF7A0FF10BD10B5B2
:102720000446002000F072F8012000F06FF87D20D0
:10273000C000604300F074F8002000F067F810BD9E
:1027400010B50021092000F04FF800F042F80121F7
:10275000092000F049F800F03CF80021092000F0C1
:1027600043F800F036F810BD2C4900220A800320FF
:102770000002C880088148818881C8810882488217
:102780008882264940390A80C8800881488188812A
:10279000C88108827047214940390A880007120918
:1027A0001201000F02430A8070471C4A403A118808
:1027B0001023C0079943C00E014311807047174A88
:1027C000403A11882023C0079943800E01431180AD
:1027D000704700B50020FFF7F2FF0120FFF7EFFF81
:1027E0000020FFF7ECFF00BD30B505460C46002089
:1027F000FFF7DBFF094804802846FFF7CCFF0120E4
:10280000FFF7D3FF0020FFF7D0FF30BD00B5014632
:102810000A20FFF7E9FFFFF7DCFF00BD8030005022
:1028200001010748814200D90146064800220261A1
:1028300041618261052101610169C903FCD57047CD
:10284000FFFFFF0000E000E010B500231E4A19461C
:102850001E4859F7ADF94CF75BF910BD70B51C4D2A
:10286000002428782646012806D11A48806D0028C1
:1028700002D12E70FFF76CFD17480188174A1288A5
:10288000914207D32978012904D10680FFF7DCFFA4
:10289000FFF748FD59F7A1FDFDF76AFF0100104859
:1028A00007D001684A1E0260002900DD012420468D
:1028B00070BD012464210160F9E700207047704772
:1028C00010B5FDF7E9FE10BD0BFE00000108000089
:1028D000D75BFC076479FD07DE5BFC07DC5BFC076C
:1028E000845BFC073EB50D4D6D1E14D002880A4274
:1028F000FAD16D1E0FD002880A42FAD0084A136836
:102900000124234313606D1E05D002880A42FAD1C8
:10291000044A10683EBD00203EBD0000C0C62D0028
:1029200010E000E018E000E0FE494843012102E029
:1029300000BF00BF491C8142FAD97047FA49FF28FD
:1029400004D8002805D0FF20013002E0884200D9D9
:1029500008460521090748800220E5E7F8B5002769
:10296000F24900978A78521C8A700A215BF724FB8F
:1029700001228A40D1B2002807D0012807D00228BE
:1029800008D0032809D00020F8BDE94807E0E8484E
:10299000203004E0E648403001E0E5488030E64C75
:1029A000E44E6661A761226904231A432261EFF3B2
:1029B0001085012282F31088FFF794FF00902069B0
:1029C000400840002061002D0CD0012080F31088C9
:1029D0000098D649301A0F70B04201D101220A7016
:1029E0004860F8BD0020F1E7F8B50D4607461C46E3
:1029F000501B02F057FC0646781B02F053FC314690
:102A000002F012FC00900698001B02F04BFC0099AB
:102A100002F0CDFB009002F050FC0019F8BDF1B5BA
:102A2000C24D022782B01035C0487F1C403041683B
:102A3000FFB2BE00301880380091C36F6A68701909
:102A40008038C16FBD48FFF7CFFF0446FF2802DC86
:102A5000FF24013403E0B448844200DD0446B34857
:102A6000403084518059FFF769FF0298FFF776FFE5
:102A7000A851A959AD480A2F816004D2A859AF497D
:102A80000A398842D0DBA948002181702046FEBD6A
:102A9000F1B5A74DA649A64C009E0320A44A00020A
:102AA00020354031803433005BF754FB26141A2064
:102AB000262C32383ED3D3444A50565C62D3D3D30B
:102AC000D3686E747A80868C92989EA4AAB0B6BCA5
:102AD000C2C8CED3D1888143FF310131D180B8E063
:102AE00011898143FF3101311181B2E05189814364
:102AF000FF3101315181ACE091898143FF310131D6
:102B00009181A6E0D1898143FF310131D181A0E0DB
:102B1000118A8143FF31013111829AE0518A814348
:102B2000FF310131518294E0918A8143FF310131BB
:102B300091828EE0E9888143FF310131E98088E0AC
:102B400029898143FF310131298182E069898143EB
:102B5000FF31013169817CE0A9898143FF31013175
:102B6000A98176E0E9898143FF310131E98170E093
:102B7000298A8143FF31013129826AE0CA88824370
:102B8000FF320132CA8064E00A898243FF32013297
:102B90000A815EE04A898243FF3201324A8158E06D
:102BA0008A898243FF3201328A8152E0CA89824394
:102BB000FF320132CA814CE00A8A8243FF3201327D
:102BC0000A8246E04A8A8243FF3201324A8240E06A
:102BD0008A8A8243FF3201328A823AE0CA8A824379
:102BE000FF320132CA8234E00A8B8243FF32013263
:102BF0000A832EE0E1888143FF310131E18028E042
:102C000021898143FF310131218122E061898143A2
:102C1000FF31013161811CE0A1898143FF31013124
:102C2000A18116E0E1898143FF310131E18110E0AA
:102C3000218A8143FF31013121820AE0618A814387
:102C4000FF310131618204E0A18A8143FF3101310A
:102C5000A182364E00204036374630373446014692
:102C6000303C8200B150B950A150401CC0B20A287B
:102C7000F7D93348B060B068FFF760FE0098FFF7FF
:102C80006DFEF860294D2878002874D128467030F0
:102C9000C0682A4FB8422DDDAF2189002846403058
:102CA0008160274941608068FFF748FE0098FFF780
:102CB00055FE2E467036B060F0686060B068A06067
:102CC00002206870B068B84252DDFF210131284609
:102CD00040308160AF21890041608068FFF72EFE9F
:102CE0000098FFF73BFE7060B06860607068A0609D
:102CF00001203CE00D4812494030816019218901D2
:102D000041604068FFF71AFE0098FFF727FE074E64
:102D10007036306130696060F068A06003206870D0
:102D200030690FE0F1060000FF070000E45BFC07DC
:102D300000300050FFFFFF0000E000E0FC117A00CF
:102D40007E040000B84213DA192189013046303878
:102D50008160174941604068FFF7F0FD0098FFF778
:102D6000FDFD7061706960603069A060042068706A
:102D70002878002805D00020FFF7E0FD0120C0439F
:102D8000F8BD0098FFF74BFE0A49686841185029C2
:102D900002DC381A502805DD0020FFF7CFFD0020A7
:102DA000C043F8BD052000074088E860E868F8BD2A
:102DB000FF070000FCED85FF10B519460223FC4A11
:102DC000FC4858F7F5FE04460120FEF70DF8FA48D6
:102DD0004089800501D5012000E00020FDF7DAFFE1
:102DE000208020464BF794FE002010BD10B51846F9
:102DF0000C467F22014604235202EE4858F7D8FEC3
:102E00002178332904D001604BF782FE002010BDE9
:102E1000052109074988F6E7E54A10B51946002358
:102E2000133AE44858F7C4FE4BF772FE002010BD79
:102E300070B5DF4A19464223123ADE4858F7B8FE09
:102E40000D2504460570DDA1801C02F0A7F920467F
:102E50006570DAA1223002F0A1F920464BF758FE46
:102E6000002070BD38B518460C46D14A01460223F1
:102E7000113AD04858F79CFE054621786846017003
:102E800061784170A1788170E178C170FFF795FA9F
:102E9000288028464BF73CFE2888002802D1684647
:102EA000FFF79EFA002038BD10B518460C46C04A00
:102EB00001460823143ABF4858F77AFE217801707A
:102EC0000021417022786168002A06D0012A06D0CC
:102ED000022A07D0032A0AD107E0096803E0A268A2
:102EE0000A6004E00988416001E022890A804BF70A
:102EF0000FFE002010BD70B518460C46AC4A0146C6
:102F000000230B3AAB4858F753FE0546AF482178EB
:102F1000417061780170FFF7D9F928464BF7F8FD49
:102F2000002070BD7CB518460C46A14A0146072317
:102F3000173AA04858F73CFE054600200090019043
:102F4000217829702078661C03005BF703F90403DD
:102F5000071118290222691C9D480DE0707831780C
:102F6000000208430090924801226946FE3015E0B5
:102F700097480622691C9030FFF797F910E0A01CD3
:102F80005BF7C5F8617800020843009070793179E9
:102F9000000208430190012269468E48FFF760F95C
:102FA00028464BF7B5FD00207CBDF0B518460E460F
:102FB0007F4A014689B00223183A7E4858F7F8FD47
:102FC0000546B178707800270902059701433278E9
:102FD0000520000713005BF7BDF80805070B141C5C
:102FE000232C2C89408801E0418017E028807DE077
:102FF000794801210163032177480902C038018221
:103000000CE04288734B57335B1A934206D3511836
:10301000EAE742888A4201D3511AE5E70020E5E752
:103020006D490020086301226B495202C0390A82AF
:10303000DCE77078FE281CD00A2104905AF7BCFF08
:10304000044601910498FFF734FA039000284BD00E
:1030500000880590FF210398013101800498FFF753
:1030600017FD411C2ED0811C2ED0317807292DD080
:103070003BE0002459A00194006807901AE00A2060
:10308000019960434018C0B20490FFF712FA00881B
:103090000007000F0128D5D007A8015D01988142E3
:1030A00003D1641CE4B2002001E0401CC0B20190D6
:1030B000032C04D807A8015D01988142DFD2FF20CC
:1030C0000490BFE7012710E002270EE080B20790CE
:1030D000002140480891012207A99038FFF7C0F865
:1030E000002802D0032700E004272F80307806282C
:1030F00001D0072821D10598C006C00E012801D0B3
:1031000003281AD1364F20460199FDF77DFF00288C
:1031100002D07F1E781CF6D1314F20460199FDF771
:1031200073FF002801D17F1EF7D2002004902D48A4
:103130000499491C04918142FADB28464BF7E8FCCC
:103140003078062801D0072818D10598C006C00E8F
:10315000012801D0032811D1234D20460199FDF704
:1031600053FF002804D128466D1EADB20028F4D1CB
:103170000398002802D0039905980880002009B020
:10318000F0BD0B4A10B5194600230A3A094858F712
:103190000FFD044615480078052807D1FFF7C2F84F
:1031A00013490020086220464BF7B2FC002010BDF6
:1031B0001AFE00000108000020000050765F362E45
:1031C000302E31312E39383900000000845CFC0784
:1031D00018FFF807A8FF0000C030005007050907D6
:1031E00018F73600120E0000B68C0000D75BFC0703
:1031F000C000004070B518460C4601460023FE4A48
:10320000FE4858F7D5FC0546FD4920784870FFF781
:10321000BFF828464BF77CFC002070BDF64A10B57D
:1032200019460823521CF54858F7C2FC0446F548D5
:10323000007802280DD1FFF775F8F3480188218046
:10324000818961800189A180008AE08020464BF756
:103250005FFC0020ABE7F8B518460F46E64A01468A
:103260000023921CE54858F7A3FC0090E74D3878FE
:10327000FF26E64C203501364F2804D0522821D0B5
:10328000542839D10AE0002020802880E049032218
:103290008A80E0490E60E0490E6028E0082000F0D6
:1032A0005DFD78782188314321802188090A09024F
:1032B000014321800120D649800388800420288092
:1032C000022012E0082000F049FD7878218831437F
:1032D00021802188090A0902014321800120CC496B
:1032E0008003888001202880082028800620C54986
:1032F000087000984BF70CFC0020F8BD10B5C048D2
:103300000A784270C54B4A781A708A780270087938
:10331000C97800020843C2490880FFF719F8002065
:1033200045E710B518460C460146B34AB348012399
:103330000B3A401C58F73CFC002101704BF7E8FBAE
:103340004AF75EF82078002804D0012805D002282A
:1033500025D11FE0FDF7A0F921E0FEF7ACFE617872
:10336000B048002902D1A178002910D001210171B3
:103370006078AD4919224843A17892015143401821
:10338000AA49096848620020FDF793F907E0022185
:103390000171F8E7FEF78FFE0020FDF7A1F900208C
:1033A00005E770B518460C46934A01460023921E65
:1033B000924858F7FDFB0546207803005AF7CAFEED
:1033C00009060A0E12161A1E242E2900A078FFF7ED
:1033D00090F91EE06088FFF776F91AE0A078FFF711
:1033E0005FF916E06088FFF74EF9F3E7A078FFF782
:1033F00077F90EE06088FFF792F90AE06088FFF73E
:1034000035F96088002802D0FFF79AF901E0FFF74C
:1034100025F928464BF77CFB002070BDA078F6E725
:10342000FEB518460D46744A0146F223083A734821
:1034300058F7BEFB044628880190AD780026002D81
:1034400001D03C2D19D912201AE00198B700391883
:10345000FF20C004081804226946FEF726FF6946CB
:1034600038190978817069464978C1706946897848
:1034700001716946C9784171761CAE42E5D30020DE
:103480002070657020464BF743FB0020FEBDF0B571
:1034900018460C46584A014687B00223D21F5748A7
:1034A00058F786FB0025064602950395A778E01C91
:1034B000009020880490002F01D03C2F21D91220A9
:1034C00022E0A8000099019040180590401C5AF78E
:1034D0001EFE0102009A0198105C014305980291BA
:1034E000401D5AF714FE010205980122007901439C
:1034F000039102A90498FEF7B3FE04980830AD1CAE
:103500000490BD42DDD300203070A078707030464A
:103510004BF7FEFA002007B0F0BDF0B518460C4698
:10352000354A014685B00223521D344858F740FB06
:1035300005462078002802D001287BD1E8E0002051
:1035400003900290019007460646E178A078FDF7C7
:1035500068FD00286FD061792079FDF762FD0028B1
:1035600069D0E179A079FDF75CFD002863D0617A2C
:10357000207AFDF756FD00285DD0607B002805D03D
:10358000E17BA07BFDF74DFD00287AD0E078FEF7C7
:1035900090FF002801D0008803906079FEF789FF32
:1035A000002801D000880290E079FEF782FF002811
:1035B00001D000880190607AFEF77BFF002800D0E0
:1035C0000788E07BFEF775FF002800D006881848C2
:1035D000217A8170617AC170FDF72EFF0020009082
:1035E0000322E178A07807231202FDF7E4FC002013
:1035F0000090617920791FE00CFE000001080000B6
:10360000845CFC07D75BFC07D048FD070020005016
:10361000002C005000E100E080E200E0D85BFC07F5
:10362000DC5BFC075877FD07007701005876FD0743
:10363000885BFC07EAE024E005230022FDF7BBFCE1
:10364000002000900623E179A079DA01FDF7B3FCB0
:10365000012000900322617A207A08231202FDF7EC
:10366000AAFC607B002808D0002000900122E17BAA
:10367000A07B00235202FDF79EFC6078012803D056
:1036800008E0FF202880C1E0637A227AE17AA07AFC
:10369000FEF7F1FEFE48FEF757F8627A217AA07A2B
:1036A000FEF7F7FE2880607B00280DD000200090F8
:1036B000FF20F5300099491C00918142FADBE17B43
:1036C000A07BFDF7A1FC2880E078FEF7F2FE002841
:1036D00001D0039901806079FEF7EBFE002801D04C
:1036E00002990180E079FEF7E4FE002801D00199FB
:1036F0000180607AFEF7DDFE002800D00780A07B05
:10370000FEF7D7FE002800D00680FDF777FE7DE0AB
:10371000002001900746064661792079FDF781FC7B
:103720000028AED0E178A078FDF77BFC0028A8D077
:10373000607B002805D0E17BA07BFDF772FC0028B0
:103740009FD0E078FEF7B5FE002801D000880190F8
:103750006079FEF7AEFE002800D00788A07BFEF758
:10376000A8FE002800D00688CA49207B8881084628
:10377000FDF722FFE178A07809230022FDF7FBFB8B
:10378000617920790A230022FDF7F5FB607B002890
:1037900008D0002000900122E17BA07B0023520290
:1037A000FDF709FC6078012803D1E17AA07AFEF7E1
:1037B00050FEB748FDF7C8FFA07AFEF734FE288018
:1037C000607B00280DD000200090FF20F53000998C
:1037D000491C00918142FADBE17BA07BFDF714FCE0
:1037E0002880E078FEF765FE002801D0019901806D
:1037F0006079FEF75EFE002800D00780A07BFEF710
:1038000058FE002800D00680FDF742FFFEF72BFC93
:1038100028464BF77DF9002005B0F0BDF0B51846FD
:103820000C46014689B001239B4A9C4858F7C0F9D1
:1038300005900020089020780A215AF7BDFB0291DC
:103840000190A678E0780090257967790198FDF7D6
:10385000E8FB002801D1012008906078002806D0FC
:10386000012806D0022807D0032811D107E0002242
:1038700007E0FF22013204E00122520201E00322AC
:103880001202012E04D8642F02D80898002801D013
:10389000FF2137E005240198240701280BD1029865
:1038A000042801D0052806D1A08A8006FCD4608AAD
:1038B0008021884360820098002D55D00021002887
:1038C0000ED00128E4D10020032200901723120219
:1038D00002990198FDF76FFB002E1AD0012219E022
:1038E0006F48028A520852000282002301225202CB
:1038F00000913EE0012200E0002202990198FDF7CC
:103900006DFB00210598017005984BF701F9002027
:1039100035E4002202990198FDF760FB61480168D7
:103920000091A18808221143A180A1886A468908D4
:10393000127889001143A180406803906A4657734A
:103940000020089008A8FDF70FFF7D20C000684305
:103950005549FDF712FF03A8FDF719FF5048018AEA
:10396000012211430182CCE7012800D0002000236E
:10397000009002990198FDF71EFB002EBCD0B9E71C
:1039800070B518460D46444A01460123521C43486F
:1039900058F70EF9044628780A215AF70DFB054618
:1039A0000E46FDF73EFB002809D031462846FDF7BC
:1039B0002BFB207020464BF7ABF8002070BDFF209A
:1039C000F7E770B518460D46334A01466423921C4A
:1039D000324858F7EDF80446642229465AF766FB48
:1039E00020464BF795F8002070BDF8B518460E46F6
:1039F000294A01460123D21C284858F7D9F83178C2
:103A000001240025052920D004291ED003291CD01B
:103A100002291AD0012918D0002916D004704BF7BA
:103A200077F849F7EDFC00950098401C0090C828F5
:103A3000FADB377808220B261C481D493B005AF751
:103A400089FB0616120E0B08060B0570E7E71A2213
:103A50000AE004700D700EE002700E700BE011228F
:103A60000270062206E0342202700C7003E0682225
:103A7000027003220A700322097800783EF752FE92
:103A800000203EF7ABFE3EF771FE0020F8BD0000BF
:103A9000307500008C5BFC0712FE0000010800007E
:103AA00000340050C458FC0780841E00F14BFD0711
:103AB000F24BFD07F8B518460F4601460123AE4A02
:103AC000AE4858F775F80090002538780A215AF763
:103AD00073FA7F7806460C46012F00D90125FDF7C1
:103AE000A0FA002800D10125012E0CD1042C01D010
:103AF000052C08D105200007818A8906FCD4418A5B
:103B0000802291434182002D03D00098FF21017053
:103B100007E09B4806709B4804709B480770FEF7BF
:103B200041FD00984AF7F4FF0020AFE770B5924AD4
:103B300019460123521E914858F73AF8934900223A
:103B40004B8801234B800B889B089B009B1C0B80A0
:103B50000C8804231C430C80FF240B3404E0022354
:103B6000521C5B1CA342FCDB0B885B0701D5642A5B
:103B7000F5DB0988490701D5FF2100E0002101702C
:103B80004AF7C6FF002070BDF8B518460E467A4ABF
:103B900001460123521C794858F70AF800250570A0
:103BA0000446377801200522794E000312070823C6
:103BB0007849012F08D0002F20D0FF202070204608
:103BC0004AF7A6FF002061E735600D8801263543DE
:103BD0000D804D89AD050D8801D5054300E0854375
:103BE0000D8008887825A843283008800888062595
:103BF00028430880508A18435082E0E7AA253560A0
:103C00008D88F026B543B0358D808D880326360229
:103C1000B5438D808D882D092D018D808D880126DD
:103C2000B60235438D808D88760035438D808D8832
:103C300005438D80508A984350821420FCF7E4FDA0
:103C40001420FCF7B7FDBAE7F8B50E46069C0168EC
:103C5000074600250819904201D901250FE0002BE5
:103C600007D0306802199A4200D9022522465AF735
:103C70001DFA38680019386030680019306028462D
:103C800004E7F0B587B004460390C8180491029089
:103C90001088154607190020002926D00220009020
:103CA0003B4603A904A8029AFFF7CEFF002818D1CB
:103CB00004983B460678A01C03900120009003A9BD
:103CC00004A8029AFFF7C0FF00280AD1B006000E30
:103CD000E11C039100903B4603A904A8029AFFF758
:103CE000B3FF0399091B298015E48821118012E490
:103CF000F0B587B00646C81802AF43C7108815460E
:103D00008019019000200C46002924D0012700973B
:103D100004A903A8019B029AFFF796FF002816D179
:103D2000601C0390009704A903A8019B029AFFF767
:103D30008BFF00280BD16078A41C8006000E009039
:103D4000039404A903A8019B029AFFF77DFF04993D
:103D5000891B2980C8E700211180C5E7002809DBFD
:103D6000C106C90E012088400B490860BFF34F8F80
:103D7000BFF36F8F7047000017FE000001080000BE
:103D8000D95BFC07DA5BFC07DB5BFC070016005025
:103D90002848FD072000005080E100E0F0B4134601
:103DA0000246002528462C4C2C4E0AE0C700E75B53
:103DB0009F4205D1C00000194468002C11D103E0D6
:103DC000401C3778B842F1DB0020254C254E0DE031
:103DD000C700E75B9F4208D1C00000194468002C6F
:103DE00007D0A446F0BC18466047401C3778B8425C
:103DF000EEDB2846F0BC7047F8B5FF222D321A4999
:103E00001A485AF753F90020184B1949194C08E081
:103E10000C224243D5181219C4CAFF352D35C4C52A
:103E2000401C0A789042F3DB0020134A0CE00C7827
:103E30000C2524186C43114E4543AD19E418E0CD10
:103E4000FF342D34E0C4401C1478A042EFDB0C4852
:103E50003821C3624185F8BDE858FC07F858FC07D3
:103E6000F057FC07C058FC0714EBF107F84BFD07AF
:103E7000E458FC07CC58FC07EC57FC07B456FC0789
:103E8000FC76FD0710B51946FD22022312020E48EA
:103E900057F78EFE90214170002101704AF738FEDD
:103EA000002010BD10B519460323084A064857F7ED
:103EB0007FFE91214170FF218170002101704AF73E
:103EC00027FE002010BD00000108000001FD0000D9
:103ED00070B50E460446002203214DF73CFD054611
:103EE0004EF708FF688028464DF746FD4EF702FF63
:103EF0007188884200D30846014620464DF723FECC
:103F0000002070BD0246FB4B92009A5801201269B6
:103F100000290ED0517F5E239B5C002B0BD005291E
:103F200006D1517E090702D5917C090700D40020F3
:103F30007047917DEFE70229F9D00429F7D00529D0
:103F4000F6D10020EDE7024630B59300E94A0120A2
:103F5000D2581269137DD47E157F2340547D2C40A6
:103F6000012901D0022909D1957C527E15402A07EA
:103F700004D41A462243D20700D10020032901D0DD
:103F8000042904D1590702D4610700D4002030BDB0
:103F9000FFB5160AD84CB500615910460A8B0123AB
:103FA0009B0281B01A430A8357F7B7FF002852D00B
:103FB000132850D014284ED0152811D060592D2127
:103FC0000B5C0122D90600290DDA0146A0318F7D54
:103FD000002F08D08A753D21304642F70BFA3AE0AF
:103FE000022005B0F0BD190703D50021A03081756E
:103FF000F6E7A030827502980122817843780902A1
:104000001943401C1B39E12900D30022C178837871
:1040100009021943B94BFF39801C4939994200D331
:104020000022C178877809023943801C1B39E129B5
:1040300000D30022C178877808023843FF38493816
:1040400098420AD2002A08D030463FF7CDFE3046CB
:1040500002993FF70CFF0020C3E71E2214213046CF
:104060003FF786FC60590121028B89028A43028353
:10407000F1E710B50446A248008D8007800F0128A3
:1040800000D000206071002807D054F7AFFA014635
:104090000622A01D5AF70AF810BD06229949A01D54
:1040A000F8E770B5054600243EF765FC2855641C0A
:1040B000082CF9DB70BDF8B502270770012604460D
:1040C00046700D4688799049C96988472A21085564
:1040D000287900210007000FA07003005AF73AF872
:1040E00007050709100D100B1000A1700AE0A6705B
:1040F00026E0032002E0A77004E00420A07001E0A5
:1041000001281DD0A888000A801FC0B2A0721F28F5
:1041100000D9A17228463EF7E3FC811D2046A27A11
:104120000B3059F7C3FF28463EF7DAFC014606225A
:10413000201D59F7BBFF28794006C00FE070F8BD7D
:10414000A172F0E7F7B544688CB025462435039595
:1041500005460746243548F7D7FD06464420405B10
:1041600052214843694909684018C030408969466E
:1041700008840121384643F706FD48F73AFC0990C8
:104180000E9800698088000AC100614808182989D2
:1041900040185F495B3159F70FFF01466868039D7E
:1041A00047184035288906900090A0680099381A71
:1041B0004001400959F700FF0A910098C019401AC0
:1041C000400140096946A060098C4900C919891C51
:1041D00049014909884204D2069940184001400922
:1041E000A06001460998081A40014A4940098842DE
:1041F00015D900202B89A268401CD21852015209FF
:10420000A260EA89521CEA81A368099A9A1A5201AB
:1042100052098A42EED801B20D9843F755FDA168C4
:104220000998081A4201607D5209824210D82A89F1
:10423000891849014909A1602A890A99511A8142BC
:1042400006D901210D9843F73FFDE889401CE8811C
:104250002989A06859F7B0FEF1802889B080208AAA
:104260003081A88870810020B081C807C00FB0736A
:10427000A888522148438E303082304648F74FFD9F
:104280000398466320460FB0F0BDFFB51C490020DF
:10429000496801240A7893B0064621460C2A0CD0BE
:1042A0006A46117300221192002E09D015990291CD
:1042B000169D1F2D66D9402064E0002422461194EB
:1042C00013990291149DF4E70299891849780129FC
:1042D00005D0172903D0182901D0192924D1631E2C
:1042E00004E003AFFF5C8F4216D05B1E5BB2002B75
:1042F000F7DA15E02C7EFD071879FD0701070000AD
:104300004C7EFD07CF79FD07B47FFD074C76FD0796
:1043100016020000FFFFFF03002B01DB4A2003E031
:1043200003AB1955641CE4B20B0059F713FF1D26AB
:1043300010101010101010101026262626262626E3
:104340002626262626261010101010102600119B57
:1043500003E00BAFFF5C8F4204D05B1E5BB2002B0F
:10436000F7DA03E0002B01DB4A2006E0119F0BABDC
:10437000D9551199491CC9B211910299895C521CF5
:1043800089188AB2AA4201D200289DD0AA4200D040
:104390004A20761CF6B2022E01D2002882D017B035
:1043A000F0BD10B50022134607E084186478012C94
:1043B00007D0845C521CA21892B28A42F5D31846E8
:1043C00010BD80188378FAE7F0B50646A9B0154607
:1043D000002084006318DA789F7812025B783A43F1
:1043E00052BA1B041A430B5D07241B061A43231AF7
:1043F0009F0020AB401CDA510828EAD300218A0034
:1044000090190746C37880781B02034378785BBA1B
:1044100000040343B05C10AA00060343601A800046
:10442000135038462230437800781B020343384645
:10443000203047785BBA3F0400783B4300060343D3
:104440000F27781A8000491C13500829D7D358F732
:10445000C1FC0146304659F73AF900282DD058F7EB
:10446000B9FC034620AA10A9684659F73BFD002273
:104470006846A11A8B009600C75C7119CF70C75AA5
:104480003F0A8F70C7583F0C4F70C35820311B0E26
:10449000AB550F239B1A9B00C65CCE70C65A521CAC
:1044A000360A8E70C658360C4E70C3581B0E0B70F1
:1044B000082ADED3002029B0F0BD0120FBE7F7B5C4
:1044C00000251746064641232A4629460A2057F763
:1044D0006FFB0446002E10D0012E02D0022E0CD10C
:1044E00005E02022611C00203EF75EFA04E0621C19
:1044F000394601983EF708FA2070204657F771FBBD
:104500002846FEBDF8B57848009007680C46002F95
:104510007BD005461C35287E002876D0012802D0A5
:10452000022872D102E02078002819D038896F491A
:10453000002688423AD1072047F7DEFF002835D011
:1045400042233E2200216A4857F732FB08210170BE
:104550002178002913D0032141702178817043E034
:1045600061480226611C14302E762022044659F739
:104570009DFD22465F4930463EF7D0F945E00021D7
:1045800046701F22531A1B1947185B78491CBB70D1
:104590002029F7DB00213F22531A47181B19203727
:1045A0005B78491CBB702029F6DB1DE04F49388938
:1045B000491C88421AD1082047F79EFF002815D0D1
:1045C00022233E2200214A4857F7F2FA09210170BE
:1045D000217800291BD0122141700021FF224318AD
:1045E000491C9A702029FADB4AF792FA2E7640206D
:1045F00057F761FF00983EF795FA57F71CFB0098B4
:104600000068002801D03EF784F90020F8BD0021A1
:1046100046701F22531A1B1947185B78491CBB7040
:104620002029F7DBE0E770B5087800250C46012863
:1046300009D01D2810D02B2812D04022194652F73D
:1046400077FA284670BD57F720FE2B4801250460F5
:104650002A4853F700FEF4E729483EF7C3F8F0E78D
:10466000284801680029ECD10121016026483EF765
:10467000BFF9E6E770B51D4D244C223DAB4217D182
:104680001B4809232A460021C01E57F791FA044609
:1046900008221F49401C59F709FD207908210843C9
:1046A00020710025257020464AF732FA284670BD51
:1046B000A04770BD10B5A0221649174859F7F6FC5F
:1046C000144950225039154859F7F0FC1248144942
:1046D000A03001600F49703941600F4911482039FD
:1046E000086010BD70470000287AFD0725200000F3
:1046F0000408000089E7F1074C7EFD07030C000069
:10470000C3C3C3C35077FD07CC7DFD070DC3F007BE
:104710005CE5F1076C59FC0720000840C000FC076D
:104720008CBFF107FF031000F0B5374887B001894F
:1047300006914188354D0591A9890491698B344AC8
:10474000C9B212880392334AD289334C029222882A
:104750000192C2880092314A0126038976037711BB
:10476000BB4303814388B7103B434380A889000AB9
:10477000000296310843A881254838210180254848
:104780000027C781107800280DD0254821880068AF
:104790007211114321802188090A09024030007DED
:1047A0000143218002E0142000F026FA1848878097
:1047B000018801880122114301800188C907FCD0CA
:1047C00000E0761E0188C90701D0002EF9D187804C
:1047D0000D49069A0A81059A4A80049AAA81039A89
:1047E00002800C4B029ADA81019A2280009ACA80D8
:1047F000002E02D0012007B0F0BD01884908490011
:1048000001800020F7E70000002C00500025005038
:104810000022005000240050002000501C5AFC07C9
:104820004C76FD07F0B5324885B001880391418888
:10483000029130490989304B019119882F4C009120
:1048400027882F49CE8803256D022E490022028039
:1048500022224280FF222748D13202812C221A8054
:104860000878FF21013100280CD0274822880068F1
:104870000A4322802188090A09024030C07C014392
:1048800021800AE02088084320802088000A000256
:1048900013302080132000F0AFF9174800218180E9
:1048A0000288028801231A4302800288D207FCD0C2
:1048B00000E06D1E0288D20701D0002DF9D1818061
:1048C0000B49039A0A80029A4A800A4A0199118187
:1048D0000099018027800A49CE80002D02D0012056
:1048E00005B0F0BD01884908490001800020F7E7C4
:1048F000002400506028005000220050002000508A
:10490000002C00501C5AFC074C76FD0730B564485B
:104910000288032149023423038000238380048812
:10492000048801252C4304800488E407FCD000E0BF
:10493000491E0488E40701D00029F9D18380028050
:10494000002901D0012030BD0188490849000180BB
:10495000002030BDF8B5534C6088C6076088F60F5C
:10496000C005C50F60884008400060806088FF2750
:104970000137B8436080FFF7C9FF002805D0FFF773
:1049800051FF002801D0FFF7CFFE6188A188618820
:10499000490849003143618061882A02B9431143C3
:1049A0006180F8BDF8B53F4C6088C6076088F60F97
:1049B000C005C50F60884008400060806088FF2700
:1049C0000137B84360803DF7FBFF3DF7FFFF002252
:1049D000082102203DF7EEFF002800D00120618869
:1049E000A1886188490849003143618061882A02B1
:1049F000B94311436180F8BD70B501252A492A02E7
:104A00000A60BFF34F8FBFF36F8F28490A602849B0
:104A10000B681C0A240240231C430C602249803985
:104A20000A6020494C880626B443241D4C804C88DB
:104A30002C434C804C8838252C434C804C889C431C
:104A40004C8001280FD14888330218434880488899
:104A50001043488048882A02104348804888012231
:104A600092039043488070BD10B5124CE18A124AFF
:104A7000CBB21189248BC904890E6404640E001B17
:104A8000093141430120C002401A80B2584340031B
:104A90001189000E090A09020143118110BD0000AD
:104AA000002200502020005080E100E080E200E081
:104AB00008E400E000230050002C005010B50F491E
:104AC000032057F7C6F90021032057F7F4F910BD6A
:104AD00010B5044601230A4A00210A4857F768F82E
:104AE00009498C4201D1032103E008498C4201D1DC
:104AF000002101704AF70CF810BD00000C5AFC07A9
:104B000011FC000001080000A5A5A5A5C3C3C3C3EF
:104B1000F8B5020205464123092134480A3257F705
:104B200047F827210170044600201F233049AA00BE
:104B30008F581E1A4936BE5D2718401C7E702028EB
:104B4000F6DB00203F238E581F1A4937F65D2718E1
:104B50002037401C7E702028F5DB58F73BF90146D2
:104B6000601C58F7B4FD002812D10A2000906A4654
:104B7000052128464FF7A8F8284650F78DF80099E8
:104B800060221143CAB20146012328464FF706F8B6
:104B9000204657F726F8F8BD70B50546044600894B
:104BA00014490C3488B088421AD100201F216E4667
:104BB0000A1AA25C3254401C2028F9DB202231461C
:104BC000204659F773FA00203F210A1AA25C32549A
:104BD000401C2028F9DB20226946A01859F766FA04
:104BE000284646F782FB08B070BD0000270D000084
:104BF0002C7EFD0726200000064A4108515CC207B2
:104C0000054801D0090901E00907090F1031C180E9
:104C100070470000AC4EFD07002C005010B50C464C
:104C20000123FE4A0021FE4856F7C2FFFD4A2178C3
:104C300011700021017049F76BFF002010BD10B505
:104C4000F64A0C460123521E0021F54856F7B0FFE4
:104C5000F54A217811700021017049F759FF0020B1
:104C600010BD10B5ED4A0C460123921E0021EC4800
:104C700056F79EFFED49A288CA8722884A870A46CE
:104C8000E3884032138062888A870021017049F7E7
:104C90003FFF002010BD10B51A4682230021E048D6
:104CA00056F786FF1121017049F732FF002010BD31
:104CB000DA4A10B50123413A0021D94856F778FF66
:104CC0001121017049F724FF002010BDD34A10B50F
:104CD0000123403A0021D24856F76AFF11210170A2
:104CE00049F716FF002010BD10B51A460223002117
:104CF000CB4856F75DFF1121017049F709FF0020ED
:104D000010BD10B51A4601230021C54856F750FFC3
:104D10001121017049F7FCFE002010BD10B51A46A4
:104D200001230021BE4856F743FF1121017049F7C6
:104D3000EFFE002010BD10B51A4682230021B848AE
:104D400056F736FF1121017049F7E2FE002010BD31
:104D500010B51A4682230021B14856F729FF0021D9
:104D600041701121017049F7D3FE002010BD10B52C
:104D70001A4601230021AA4856F71AFF1121017093
:104D800049F7C6FE002010BDA44A10B50823333AE7
:104D90000021A34856F70CFF0446031DC21C811CCA
:104DA000401C56F7DDFC0146002000290BD01121E4
:104DB00021706070A070E070A080E080204649F70C
:104DC000A7FE002010BD2070F7E77FB508460C381D
:104DD00056F731FF56F7D9FE00246D460390204662
:104DE00056F7CDFE61004919641CE4B24880042CDA
:104DF000F5D38A4A1023313A0021894856F7D8FE64
:104E00006D461ECD1EC000211038017049F780FE8E
:104E1000012004B070BDF8B5804A0F4608230A3A55
:104E200000217F4856F7C4FE814D0446286B6E1260
:104E3000B043304328637F493888496A88476060B7
:104E4000286BB04300212863388860802170204699
:104E500049F75EFE0020F8BDF8B5704A0D46042300
:104E6000093A00216E4856F7A3FE714E0446306B96
:104E70007712B843384330636E4A2888926A69686B
:104E80009047306BB84300213063288860802170E0
:104E9000204649F73DFE0020F8BD70B518460D4686
:104EA0005E4A01460123323A5D4856F781FE0446C8
:104EB0002878002802D0012805D101E05E4800E0F2
:104EC0005E483DF78FFC12202070204649F720FEF7
:104ED000002070BD10B518460C46504A0146082304
:104EE000133A4F4856F764FE218801229207891829
:104EF00009684160218841800021017049F708FE5E
:104F0000002010BD10B518460C46444A0146042343
:104F1000123A434856F74CFE228801239B07D218C9
:104F200061681160218841800021017049F7F0FD1E
:104F3000002010BD10B51C46084647F7D6FA374A80
:104F40000123113A2146364856F732FE00210170FE
:104F500049F7DEFD002010BD70B50C8818461646D6
:104F6000082C00D30824CA788B78150252225443A7
:104F7000334A1D431368E31880331D830B7911688E
:104F8000611880314A8B120A12021A434A83234A5B
:104F9000014601230E3A224856F70AFE002101700D
:104FA00049F7B6FD0021304656F785FF002070BD59
:104FB00010B588781C46002801D0012200E00022AC
:104FC0000888114641F75AFA144A01230D3A21463E
:104FD000134856F7EDFD0021017049F799FD0020B7
:104FE00010BD70B518460C460C4A014601230C3A18
:104FF0000B4856F7DDFD227852214A431049002321
:105000000D685219C0321382227852256A430D6806
:105010005219C03253822278522413E043FC00001C
:1050200001080000B476FD07DD76FD07A479FD07D1
:1050300040000040B47FFD07C3C3C3C3A5A5A5A519
:105040004C76FD07096862435118C0318B820021FC
:10505000017049F75DFD002070BD70B518460C4623
:1050600001460123314A324856F7A2FD22785221E7
:105070004A43304900230D685219C03253812278C7
:1050800052256A430D685219C03293812278522406
:10509000096862435118C031CB810021017049F782
:1050A00037FD002070BD70B5184616460D461F4AE4
:1050B00001460123D21C1E4856F77AFD0446288873
:1050C000082800D3082043F723F9002805D0002141
:1050D0002170A9786430017701E012202070204609
:1050E00049F716FD0021304656F7E5FE002070BD59
:1050F000F8B50E4610491C4615460020C2008A5AD3
:10510000A24209D1C00040184768002F07D02A46A4
:1051100031461846B84702E0401C1928EED3224613
:1051200031462846FEF73AFEF8BD000038FC000084
:10513000010800004C76FD07345AFC07F0B51FB497
:105140000646002082B005464024019100901BE0F5
:10515000019922460F46304600F0C8F8049A059B94
:10516000801A994110D310461946224658F7E2FF9B
:10517000361A8F410197224601200021009F58F7DF
:10518000D9FF38184D4100902046641E0028DFDC0E
:10519000019B00982946324607B0F0BD03460A78C5
:1051A0000270401C491C002AF9D11846704702467B
:1051B00070B54A40D30FDB0740002DD04A002AD0FB
:1051C000010E140E000212020919400A520A841834
:1051D000E50104465443000A120A2E045043A41960
:1051E0004219200CC543AA18120C0125AD03521C0C
:1051F000521912047F39240400D0521C104301D4E8
:105200004000491EC2B20C06C0092018401C4008CC
:10521000802A02D003E0002070BD40084000002931
:1052200000DA0020184370BD70B502464A40D50F21
:1052300040004A00ED0740085208002814D0002A18
:1052400012D0C40DD30D41020120C0055202490AFB
:10525000520AE41A091812187D34914201D3641CD1
:1052600000E04900002C01DA002070BD00239142CB
:1052700001D3891A0343400849000028F7D10029C7
:105280000AD0914202D10121C90705E0914201D221
:10529000012101E00121C943E005C018401900F0D7
:1052A00036F870BDC217C10F504010B54018CA077C
:1052B0009623002100F033F810BDC20F41004002D8
:1052C0000123400ADB05D207090EC0187F2901DA45
:1052D00000207047962903DC9623591AC84001E044
:1052E00096398840002AF4D04042704710B5202AF1
:1052F00004DB0846203AD040002110BD0B46D340C5
:10530000D0402024A21A91400843194610BD00291C
:1053100004DA401C490001D140084000704770B4D5
:105320000024050C05D11024000402D1002921D04D
:105330001124050E01D100020834050F01D100012E
:10534000241D850F01D18000A41C002801DB400032
:10535000641C002908D020252E1B0D46F540A140D5
:1053600000D001212943084301061B1B000ADB1D55
:1053700002D5002070BC7047DB0518188018002982
:10538000F8DA401C4900F5D170BC40084000704775
:10539000064C0125064E05E0E36807CC2B430C3C88
:1053A00098471034B442F7D3FAF7B6FE645BFC07B3
:1053B000845BFC07F8B5040C8BB2264682B25E43D0
:1053C0000D0C1046370C58433604801900217941E2
:1053D00016466E43370C36048019794126466E43D3
:1053E0008919F8BD02E008C8121F08C1002AFAD1C5
:1053F00070477047002001E001C1121F002AFBD155
:105400007047F401222222CAEA80D00706406432A3
:105410002D18FC07A518FC074BD3F007A9D3F007FC
:10542000B1D3F00701D4F00719D4F0072FD4F00757
:1054300051D4F007E1D7F00781DAF007C1D8F007BF
:10544000E1D8F00701D9F0073FD9F0074FD9F007AD
:10545000FBEEF007D5ECF007F3ECF0070FEDF007EB
:1054600029EDF0073DEDF007BFEDF007D7EDF007B0
:105470003FBEF10749C0F10773AFF007B902FC075F
:105480006F03FC076B03FC076703FC07ED21F007C4
:105490008306FC079F19FC07470AFC070F0AFC0755
:1054A000110AFC07FF75F007C974F0076B75F00768
:1054B0007190F1071F40F107291FFC07831FFC07AC
:1054C000871FFC07931FFC079F1FFC07CF1FFC07CC
:1054D00000000000BD4AFC07D14AFC0757BBF0079B
:1054E0000986F107018BF107778FF1075F8EF107CE
:1054F000AB56F1075366F1077F17F10773F9F00711
:105500005906FC07D599F007C943FC07994BFC07DE
:10551000BF44FC070545FC07BF2DF007532EF007DD
:105520005B78F0072577F007F535F00700000000FD
:105530007306FC077B06FC075B06FC0795D5F007A6
:105540008BD6F007D7D6F0078FB5F1072FB6F10746
:10555000BFB6F107000000000000000000000000DE
:10556000000000000000000000000000000000003B
:10557000000000000000000000000000000000002B
:10558000000000000000000000000000000000001B
:1055900000000000050000008862FC070004000015
:1055A000CC52FD0768020000C04EFD070004000059
:1055B0004055FD07700500002003000000A60E0006
:1055C00005000000D2000000320000003C00000096
:1055D00001000000010000000200000002000000C5
:1055E00004000000030000000600000000000000AE
:1055F00002000000020000000000000000000000A7
:10560000030000000300000005000000050000008A
:10561000060000000A0000000A000000C8000000A8
:10562000B80B000002000000B80B0000B80B00002F
:1056300010000000D4010000E5010000700200002D
:105640006A000000040000000100000020000000CB
:10565000504600030003983A6400F401B80BB80BFD
:10566000B80B000CB80B120030003000CD009A01CE
:105670001200240030006400B0001800280012005E
:105680001200D0070000FFFF000000006400C80007
:105690000000D007000244413134353835000000A5
:1056A00000000000000000000000000001000101F7
:1056B0000300000000FE0700445BFC07605BFC0782
:1056C00001FE0700385BFC070000000002FE070037
:1056D000185BFC07545BFC0703FE0700245BFC0718
:1056E000245BFC0704FE0701405BFC07F13CFC0760
:1056F00005FE0702833CFC073C5BFC0706FE070037
:105700005C5BFC07585BFC0707FE0700000000001D
:105710000000000008FE070000000000205BFC07FE
:1057200009FE07001C5BFC07545BFC070AFE070030
:10573000485BFC07000000000BFE0700305BFC0725
:10574000000000000CFE0700445BFC0700000000A6
:105750000DFE0700000000004C5BFC070EFE07007A
:105760003C5BFC07000000000FFE07003C5BFC07F1
:105770000000000010FE0700000000000000000014
:1057800011FE07002C5BFC07545BFC0712FE0700B0
:10579000285BFC07445BFC0713FE0700445BFC0727
:1057A000445BFC0714FE07000C5BFC070C5BFC076A
:1057B00015FE0700445BFC07445BFC0716FE070070
:1057C00000000000445BFC0717FE0700145BFC07A9
:1057D000445BFC0718FE0700445BFC07445BFC07C6
:1057E0001AFE070000000000545BFC071A000000CE
:1057F00000FE0000ED2DFC0701FE00002333FC0736
:1058000002FE0000AB2FFC0703FE0000252FFC0763
:1058100004FE00002134FC0705FE00008F34FC0765
:1058200006FE0000A92EFC0707FE0000192EFC074B
:1058300008FE0000312EFC0709FE0000652EFC0763
:105840000AFE0000A333FC070BFE0000FD32FC073C
:105850000CFE0000F531FC070DFE00001D32FC07B8
:105860000EFE00005732FC070FFE0000F72EFC076B
:1058700010FE00008331FC0711FE00001B35FC0701
:1058800012FE00001D38FC0713FE00008139FC07E2
:1058900014FE0000C339FC0715FE0000EB39FC07BD
:1058A00016FE00002D3BFC0717FE0000B53AFC0772
:1058B00018FE0000893BFC071AFE0000B92DFC070A
:1058C0001A000000030000000100000000FD0700B6
:1058D000445BFC073C5BFC0701FD0700445BFC07E5
:1058E000185BFC070200000000FD0000853EFC077D
:1058F00001FD0000A53EFC070200000001001D01A3
:10590000913FFC070900020D2746FC07000005082F
:105910007546FC070000000000000000D13EFC07B7
:10592000114BFC07053FFC07473FFC077340FC0792
:10593000A343FC07A340FC074541FC07B740FC0715
:105940008B42FC0700000000000000000000000087
:105950000000000000000000000000000000000047
:10596000000000000000000000000000750BF107BF
:1059700000000000B3B5F107000000003B3FF10755
:10598000000000004538F107000000005791F107C2
:10599000000000001584F107000000005764F007C4
:1059A000000000007985F00700000000C397F007B1
:1059B00000000000B97AF1070000000000000000BC
:1059C00000000000000000000000000000000000D7
:1059D00000000000000000000000000000000000C7
:1059E00000000000000000000000000000000000B7
:1059F00000000000000000000000000000000000A7
:105A00000000000000000000000000000000000096
:105A1000045BFC07865CFC07010001000101000A31
:105A200004280A040203AA0055032A00A001FFFF6C
:105A30002C01000001FC0000974CFC0702FC000058
:105A4000B14CFC0703FC0000CD4CFC0705FC00003A
:105A5000E94CFC0706FC0000034DFC0707FC0000B6
:105A60001D4DFC0708FC0000374DFC0709FC000039
:105A7000514DFC070AFC00006F4DFC0710FC0000B4
:105A8000894DFC0739FC0000174EFC073AFC00006A
:105A9000594EFC0711FC00009B4EFC0730FC000037
:105AA000D54EFC0731FC0000054FFC0732FC00001E
:105AB000354FFC0735FC0000594FFC0736FC000051
:105AC000B14FFC0737FC0000E34FFC0738FC000037
:105AD0005B50FC073BFC0000A750FC0712FC0000D9
:105AE000CB4DFC0741FC0000634CFC0742FC00006E
:105AF0003F4CFC0743FC00001D4CFC070508000060
:105B0000F150FC07FC5AFC07010000003130304224
:105B10000000000032420000334200003442000026
:105B200036364200423642003642000031374200EB
:105B300042424242420000004242420042420000D1
