:0200000407FCF7
:100000004827FC076501FC076D01FC078501FC071B
:1000100000000000000000000000000000000000E0
:100020000000000000000000000000009D01FC072F
:1000300000000000000000009F01FC07A101FC0778
:100040003903FC07BD18FC07A526F0073504FC079B
:10005000ED03FC07A301FC072D03FC07A301FC072C
:10006000A301FC07A301FC079903FC07A303FC07FA
:10007000AD03FC07B703FC07C103FC07A301FC07A2
:100080007904FC07A301FC07A301FC07A301FC07FB
:10009000A301FC07A301FC07A301FC07A301FC07C4
:0800A0000000000090070E00B3
:0200000407FCF7
:100110005458000652580005525453000743545394
:100120000008504F520000010000000000000000D5
:0200000407FCF7
:100130004669726D776172650000000033303831B6
:0C01400006001600790500020000000017
:0200000407FCF7
:100150000348854600F0D2F800480047E10BFC0751
:100160004827FC070F4880470F4800470420714686
:10017000084203D0EFF309800C490847EFF30880E9
:100180000A49084704207146084203D0EFF309806A
:1001900007490847EFF3088005490847FEE7FEE7EF
:1001A000FEE7FEE7911BFC075101FC07FD03FC077E
:1001B000E903FC07F0B50546007985B007073F0F56
:1001C000284642F74AFC029028794006C00F039067
:1001D000284642F742FC4448806A8079012825D0AD
:1001E0000126414840300079800775D5002E73D034
:1001F00000222B2311463D485AF77EFD0227077047
:1002000001263B4946700446C969A87988472A21D6
:100210000855287900210007000FA07003005DF742
:100220001BF90737393B423F423D4200029801909B
:100230002D4814300090002604680BE0611D0198E1
:1002400042F721FD002804D02079B84201D10126CF
:100250001BE02468002CF1D1009842F70AFD2549E3
:100260000978884202D1244806780EE000210C204B
:100270005AF734FC04460622401D01995DF798F8B0
:1002800027712146009842F725FC01204640A8E747
:10029000A1700AE0A67021E0032002E0A77004E04C
:1002A0000420A07001E0012818D0A888000A801F4F
:1002B000A072284642F7D1FB811D2046A27A0B305E
:1002C0005DF776F80622201D02995DF771F8039814
:1002D000E07020464DF792FD05B0F0BDA172F1E748
:1002E000704770477047000074FBFC07040800006B
:1002F000E4FEFC07A1F9FC07A2F9FC071CB50948BC
:1003000000900948019005460126009C05E0E3683D
:1003100007CC33430C3C98471034AC42F7D3FFF77B
:100320001BFF0000F01FFC071020FC070148012103
:10033000018070470E15005010B514480821018047
:10034000AD4CA189608960F7E9FE5FF72AFA35486C
:100350004188890703D04188032291434180018865
:1003600080220A430280018904229143018181890C
:100370008907FCD541F7D5FFA06905490860054804
:10038000016801684907FCD510BDC0460033005024
:10039000080200401000004080B50A2000F01AF862
:1003A00080BD80B50B2000F015F880BD80B50C2015
:1003B00000F010F880BD80B50D2000F00BF880BD76
:1003C00080B50E2000F006F880BD80B500235FF7F1
:1003D000E3FA80BD10B504465FF7EAFBE0B2012105
:1003E00081401148016010BDFEE70000024800880E
:1003F0000D481021016070472C13005009480189F5
:1004000004220A430281018840220A4302800649ED
:1004100001220A604189054A11408918091D41815C
:100420007047C0460800005080E200E0FC7F0000FA
:100430007047000010B50F4CA1880F20084002281B
:1004400006D004280BD00C280CD00128F4D110E0E1
:1004500020880221884320802088802106E001F046
:100460007FFBE9E701F07CFB2088012188432080A5
:10047000E2E710BD0411005080B55FF792F919480A
:10048000018809050CD518490A8805231340052B56
:1004900006D10888042202430A80088801221EE04F
:1004A0000188C90606D511498A88D20702D00A8870
:1004B000120610D40088C0060CD50C488188890724
:1004C00008D50188C90505D5022181800188084A1F
:1004D0000A40028080BD01208880088880229043E5
:1004E000088080BD04000050000200500001005050
:1004F000FFFE000080B5C1B20C2904D1A021084341
:100500005F21884380BD084661F720FB80BD80B530
:10051000C1B2A02904D10C210843F321884380BD36
:10052000084661F72FFB80BDB0B50C460025202D95
:1005300004D042F7E4F960556D1CF8E70020B0BD27
:10054000B0B5044609480A4D402229465CF730FF01
:1005500048350848302229465CF72AFF0648001B28
:100560000649088014304880B0BDC04670E0FC07E2
:100570007C37F207B0E0FC07B8E0FFFF78E0FC074B
:1005800007481E214180018803220A430280018816
:1005900004220A430280E948012101707047C046E5
:1005A0000016005080B5E4480078C00708D1052047
:1005B0005AF7E8FD00280FD12A200949085C04E019
:1005C0000648417D012907D1007D41424141C21EBB
:1005D00050425041084380BD002080BD14FDFC07FF
:1005E000BCFCFC0780B503480168D448401C5EF79A
:1005F0000FFE80BD1020FC0770CCFC0770477047D1
:10060000704780B55EF7A8FE80BDF8B56946C87032
:10061000020A8A70020C4A70000E087008465EF7E3
:1006200083FE8FBD7047704770B505460469261D6F
:100630003068002805D0304642F730FA5AF7C9FA38
:10064000F6E70020286120465AF7C3FA70BD000083
:10065000F0B58BB01E4607920F46044610980690E0
:1006600000880890002101200246092913D00325A3
:100670008540099020463446089ECE403B460127DF
:1006800037407E421F462E40324326460446099894
:10069000801C491CE9E70A92802030439E210140DA
:1006A000A08A03911D4902910190002000901C49ED
:1006B0000AAA132338464FF735F90546002829D1F1
:1006C000089720270121059138465AF707FA09961D
:1006D000064639465CF785FE266130461E301149D4
:1006E0006160A0600898008830830598E08114203C
:1006F000E082A08A70800998C0030799084330807F
:10070000069800887083301D42F7C0F9A08A002146
:100710005AF723FD28460BB0F0BDC046081CFC0765
:100720000A180000EC1CFC07004870470C1DFC0771
:10073000FEB51F4616460C46142061F7DFF9002867
:1007400019D001972778082F029615D80546418BB6
:10075000008B3A4600F094F800280FD060788D2680
:1007600080283AD8082F0BD0072F0CD0062F0CD199
:1007700008280AD031E0FEE781262EE082262CE010
:10078000072802D029E0062827D32E1D35462D68DC
:10079000002D0BD02979B942F9D1002230462946E3
:1007A00042F7ECF928465AF714FA6078083001212C
:1007B0005AF794F90546617808315CF712FE207803
:1007C000287160786871A81D6278A11C5CF7F0FD43
:1007D0003046294642F77EF9002606480223019951
:1007E000029A5AF789FA2178017046705AF79FFAEF
:1007F0000020FEBD01140000F8B514460D46104659
:100800005AF7C0FC012838D1142061F777F9002885
:1008100021D00746418B008B3E7F324600F030F8F6
:100820000090787F010208312A78B948964213D1A6
:100830006A7889B2931D22465AF75EFA074600206D
:1008400038710098388068787880781D6A78A91C9B
:100850005CF7AEFD0AE0FEE789B2062322465AF7AE
:100860004BFA0746802038710098388038465AF78E
:100870005EFA002120465AF770FC0020F8BDC04601
:10088000B0B58BB2411C00200446092C0DD01D468A
:10089000E540ED0702D0A24202D0891C641CF4E7B7
:1008A000092A01D0481C00E0002080B2B0BD000041
:1008B00080B55AF781FF4BF7F4FBC648012101715F
:1008C00080BDC0467047000080B5002048F7B8FDE5
:1008D000C0480421017160F793FE80BD80B50120FE
:1008E00048F7AEFD80BD80B54BF7DBFBFFF748FE58
:1008F00080BD80B548F7F0FD80BD000080B50D4893
:1009000001880122914301800B480078C00702D181
:1009100041F7D8FE04E0002041F724FF41F7EAFE4A
:100920005AF72EFF41F78CFEFFF72AFEA948002157
:10093000017180BD08330050C5F9FC0770CCFC077D
:1009400070B50D4633494018062861D878440079BF
:1009500040008744035D1C5D335D46002878841C9D
:1009600034480C22194623465AF7C6F90446002695
:1009700006702878607029788E4246D2B10701D17E
:100980005EF7EAFCA1198870761C000AF3E7264896
:100990000C22142519462B465AF7AEF90446234972
:1009A00008312A465CF704FD21480178217001795D
:1009B0006170017AA170007BE07026E018480C227B
:1009C0000224194623465AF797F904460620207058
:1009D000287841B2002901D403280ED3302060705A
:1009E00013E00D480C220124194623465AF784F9D6
:1009F00004460A480078207007E00021617009A1D0
:100A0000085C0649087000F073FF20465AF78FF91A
:100A1000002070BDFF5FFFFF08A000004CCCFC076A
:100A200006A000000C08010004A000003001FC0733
:100A30000032005002A00000F8B51E4614460D46D4
:100A400010465AF79FFB01281AD0002847D11420DE
:100A500061F754F8002812D00096418B2A88038B46
:100A60005E1C0023092B2ED00F46DF40FF0704D069
:100A7000B7B27F1C974205D0B61C5B1CF2E7FEE7BD
:100A800002242DE0DFB2082F1DD8061D3668002E87
:100A900028D03179B942F9D17079831D1C48009969
:100AA00022465AF729F907462888388000243C71E5
:100AB00070797880781D7279B11D5CF779FC3846C1
:100AC0005AF735F90CE012480623009922465AF7E6
:100AD00013F929880180802101715AF728F900242F
:100AE0002046F8BD07770099090A417761F724F895
:100AF00001460848012522462B465AF7FDF80770A3
:100B00005AF715F9204629465AF727FBE7E7C0466A
:100B1000140C00000214000080B52E48C01C0249CD
:100B2000891C60F703F880BD1820FC0770B5174ECC
:100B3000B06800F02DF82749CA690023CB61151869
:100B4000084C284621465CF7B9FB706106494143D1
:100B5000481901D0201A80B2306130680821014361
:100B6000316070BD710200008FFDFFFF80B5064847
:100B70000021016000F0BCFF0120C00703490A68A2
:100B800082430A6080BDC0469CF9FC0730000040EB
:100B900080B50246C00B09D00E48C06A00210B4642
:100BA0005CF7B6FB8905800A401880BD0948C06A19
:100BB0004243900A80BDC04680B5FFF7E9FF80BD83
:100BC00080B50449896A41430348081803495CF722
:100BD00075FB80BD70CCFC0720A1070040420F00D0
:100BE00000B5A1B0D94808210E460180D84F3888F9
:100BF0001EAC20802088C046C04620880422D143F5
:100C000008420F9202D00020388003E0B889012109
:100C10008843B881CF4D2888344630432880012648
:100C200030020E902C305EF7A1FD6888802109917A
:100C3000084368800F208102BA8B0A43BA83E98D8A
:100C400006239943E985B103BA8B0A43BA832988FD
:100C5000C14A0A402A806988139319430A94A14320
:100C60006980052111910C07628DBC4BFF33E98D22
:100C700019407D23DB000703D0050793129721D489
:100C8000032042021143E985E98D3943E985B04BE0
:100C9000998B0A9FB9439983998B04229143998335
:100CA0006988AF4A0A406A806988AE4A0A40C00231
:100CB00010186880E88D3043E8850F9A608D4007F2
:100CC000FCD519E0184618300143E985E88DA6499E
:100CD0000140F0030818E8859D4B988B0A9F384324
:100CE0009883988B0F9A90439883E88DB043E8855A
:100CF000988B402101439983988B03210D910843E0
:100D00009883288820210C9108434021884328801B
:100D1000208F02273843208794480280A088944976
:100D20000140A180934846703004934908603546DD
:100D30001646FFF7F1FE109738465FF7BFFE8F4863
:100D40000068C1B20C20AA29014600D03146228891
:100D5000824388182080C046C0468948008885495B
:100D600088848848006808620F952846C046C046B7
:100D7000882785480026C65315AD84A1242228461D
:100D80005CF716FB8A49804832462B465EF76EFBBD
:100D90007D4BD85D4008D8558920195C4908195405
:100DA0008420195A002901D1079919528621585ACD
:100DB0000028119F16D1FF200202704800681040E1
:100DC00035221202904209D00D229202904203D0A5
:100DD00033221202904204D1942000E09020585215
:100DE00000E00020634D68815EF72AFA7F20A8703A
:100DF000624880696F498860E81C891C5FF742FF80
:100E00006D4800686D49884200D094E06C486D4997
:100E10005CF7E7FA072631026B485CF7E2FAFFF766
:100E200061FA6A486A4901606A486B4930225CF796
:100E3000BFFA6A480025C571857145710571C57095
:100E4000857045703F2108910170654865A1402279
:100E50000B925CF7ADFA7348C57185710D994171BC
:100E6000FF210171C1708170417001706E48057081
:100E70006E486F4901606F486F4901606F49704863
:100E8000086070480A2101706F4805706F4807605C
:100E90006F480F9901606F4807606F4813990160B0
:100EA0006E4806606E480A9901600E9FB81D6D4934
:100EB00008606D4908606D494148086000F0BEFB5C
:100EC0005EF7ECF85EF730F91299FF31E08C0840DC
:100ED00071020143E1845EF743F9374800683749FE
:100EE00088423E46614F119500D1D6E0386860498E
:100EF00088603B462F4FB8683871010EF971010CBC
:100F0000B971000A78713046C0305A4A002800D1C1
:100F1000B4E0401E1946574BC35C167835460D9F0A
:100F20003D40244F7D192D795D400B4675400E9E46
:100F30001570521CEAE750484E497A02964200D991
:100F400064E732587250361DF7E7C0460033005050
:100F50000403005052000050FFBF000000F0FFFFEC
:100F6000FFF90000FFC70000FF0F00000002005063
:100F7000FFF7000070CCFC0780E200E0D02FF807FC
:100F8000D82FF807D42FF807C0CBFC072516FC078D
:100F90000116FC07B515FC0700000000D915FC0779
:100FA0000000000000000000D02EF807C02FF80756
:100FB000A000FC071820FC079CF8FC07658734128A
:100FC00000E0FC07AC14000000F9FC0724FAFC0761
:100FD0002C1DFC07C8F9FC075CDEF107A4F9FC072F
:100FE0003CFCFC072000800000C000000000040062
:100FF00000002822000000000000040000F7FFFFAE
:101000007F00000030F0070800000000000400002E
:1010100000000000000000000000000000000000D0
:1010200000000000ACF9FC07C5F9FC0750F9FC070B
:10103000E036F20754F9FC075C1EFC0758F9FC0780
:10104000541DFC07A1F9FC07A2F9FC075CF9FC0799
:1010500060F9FC0764F9FC0768F9FC076CF9FC0708
:1010600070F9FC0748F9FC0744F9FC074CF9FC0748
:1010700000020040A8CCFC0700F0FC073D461C35F0
:10108000E7491C2228461F465EF70EFF28465EF7FA
:101090004BF9E448E4490160119D386841F7DAF8FA
:1010A000E2480571C5700F9887073868304338608B
:1010B000FFF766FA0F9800F033FBDC48C570DC4898
:1010C00005700C201390DB495AF715F81398294640
:1010D0005AF743F8D548C570D5480570FFF746FD67
:1010E0000F9948020290089880020190C80312905C
:1010F000D1480C301390D148D1490818D149401833
:101100008008401E08902089000600D4ACE0386BAF
:101110001299084200D0A7E0C4480088C00700D058
:10112000A2E05AF7C6FA0025284600F0F9FAF74877
:101130000079042800D097E00F9800F0F1FA149598
:1011400014A804214BF704F90028F04A00D18BE0E1
:101150000F98F649086008680028FCD1F869116901
:10116000884201D215612946411AC90919297BD340
:101170001061EF4908880690488805908888049097
:10118000C88803901F95ED481E9015AB1846ECA13A
:1011900064C964C07C20DE4A105A000918711EA878
:1011A000DC495FF771FE07981730E14E3189014045
:1011B000D64BD9807189014019813089019D284021
:1011C00002990843308170892840084370815FF795
:1011D0004FFFD0490988CD4AD28833892B40134329
:1011E0003381CA4A128973892B401343079A73814A
:1011F000401A11464143002804DCCF4A8918C01721
:10120000084001E050189630D0495CF76DF8850928
:101210001935BE4A90787F280E9E1BD0281A41B2FD
:10122000C9114840401A40B2082814DB5069401CDC
:10123000506160F7CFF900F09BF900F059FB60F7BF
:1012400007FA60F78DF9B448703060F733FA60F749
:10125000D7F9AE4A9570B6480599418004998180C6
:101260000399C18006990180FFF79CF9002800D1FD
:1012700049E772B61EA9119A0A70AA480079022895
:10128000104602D0A5480068406A15901398B04AED
:101290005FF786FF00282FD1AE48806A002803D070
:1012A0009E480068406A159000F022FC15A913982A
:1012B0005FF7ACFF00281FD14CF7CEFF002818D0F5
:1012C0004BF74AFC002814D015A85FF7C1FF00288F
:1012D00012D101205EF770FA159A002A00D1B3E00E
:1012E000386A9D494018DA2800D9AEE0521E15929E
:1012F000ABE01EA8002101708B48007801281098EF
:1013000000D00D981EA90978042900D00846811E36
:1013100002292BD2218A04252943218202280F9AEF
:101320002CD0032878494BD18249086828430860AB
:101330007449088990430881608AA8436082FFF756
:10134000EBFB0F9A608A102101436182089887495C
:101350000860EFF3108082F310882188099B99437D
:101360002180002818D082F3108818E0012854D179
:10137000FFF718F9002850D030BF4EE06D490868DB
:10138000284308605F49088990430881608A1021DA
:10139000884360825C4911E0002080F31088608DF2
:1013A000304259490AD000205849C8700B205EF7D6
:1013B00035FA0F9A5449C88D1043C8850020208300
:1013C000608D304207D1888810438880088860216A
:1013D00088434D490880A08C9043A0840D20164678
:1013E0005EF7C4F960893043022188436081A08A96
:1013F000C00602D50A984249088030BFA08A4249F7
:1014000008880C9A10430B9A9043088000F016F954
:1014100048490868A84308600E9E62B673E6C04655
:10142000A8CCFC079CF8FC076587341218FAFC0767
:1014300078FAFC07A01BFC071820FC07C41E00005C
:101440005001FC07030004F80022304DA889314DFB
:1014500029690818686138487E30FB6B03400B43EC
:10146000FB63F86B3D490840A96989020143F963B0
:101470001EA804210170F86B3949084069694905C3
:101480000818F8633748824239D22049086B496B03
:1014900000235BF73DFF0903000D4118A869821C7A
:1014A0008A4200D0481E1F4909794A1E914148F7D7
:1014B00083F92D48C06A80471299386B0842FCD0E6
:1014C000174D28683042FCD0286809998843286065
:1014D0000B484089452805D84621094A5181081AF8
:1014E0000A49C86140F7F1FEA86808498861286880
:1014F0000006FCD52089099988432081FCE6FEE797
:1015000000330050040300505200005070CCFC0720
:10151000C0CBFC071820FC0700E0FC0758F9FC07CB
:101520000002004018FAFC0778FAFC07FC000040B3
:101530000015005010ED00E082FBFFFF01040000E9
:101540005BB005020000000032000000FC08000053
:10155000E505FC0700FEFC07C8FEFFFFFF03E0FFF8
:10156000FFFF1F0040420F00E4FEFC072000F407CD
:1015700010B5D14C2078401C20700D490968C3B2C9
:101580002D4800225EF7C4F82078401E207010BD60
:1015900010B5C94C2078401C2070C3B226480449BD
:1015A00000225EF781F82078401E207010BDC046F2
:1015B0004420FC0770B50C461948111889251E4EA9
:1015C000705DC00030183030A2005BF7F1FE705D36
:1015D0000019705570BDC0461148115809234B437E
:1015E0001058000C1A1A1204D214134B60331A84C8
:1015F00089B2401A0104890C0818401CD88370472E
:1016000070B50C460648111888250B4E705DC00059
:101610003018A2005BF7CCFE705D0019705570BDEC
:10162000D42EF80788001018024940587C21024A3D
:1016300050527047D02EF807C0CBFC07F8B543488E
:10164000C2782C48811C1B205EF740F92A480021F3
:10165000016008200B210324224641F727F8274F79
:10166000B87D5EF7C3F9264B002826D0B87D797D7A
:10167000BA798A4202D1FA7982421ED0BA788A4275
:1016800002D1FA78824218D0FA7A8A4202D13A7BA1
:10169000824212D03A7C8A4202D1797C81420CD0BB
:1016A00001251D8000210A46FEF78FFEF97D481EA8
:1016B0008141B87D2A465EF78DFAF878250202222C
:1016C0003C46104F2946B847E079002601243146B0
:1016D0002246B8470948007B14222946B8470748E4
:1016E000407C13223146B8470549888920438881C8
:1016F000F8BDC0461820FC07000008401001FC0798
:1017000000030050CB03FC0703480188034A114043
:101710008918091D0180704712000050FC7F0000ED
:1017200080B5014609480278012A0ED1084A0029ED
:1017300003D011884907FCD402E01188490704D47A
:101740000021017028305DF725FD80BD70CCFC07BD
:101750000016005070470000F0B58BB03022002119
:1017600081541F221204204B1C689443012255040B
:1017700064191C601E4C1F4D45611F4D1F4E204FAC
:10178000204BC36106624462184B8362C5621E4BE4
:1017900007604360D004544A1368834313602829C8
:1017A00003D001A84154491CF9E7184800684030AB
:1017B00001A928225BF7FCFDC048082101705FF7F2
:1017C00009FFFFF7E5FEFFF7D3FE00F091F85FF7A2
:1017D0003FFF5FF751FF5FF7C3FE23485FF78AFFC4
:1017E0005FF70EFF0BB0F0BD740000401518FC074A
:1017F0001118FC079518FC073516F2073104FC0791
:101800006D18FC076F18FC075517FC074CF9FC070F
:10181000002070477047000080B51F2000040121A0
:101820008A07536F834348041818506710680721CC
:10183000884310600B48018808220A4302805FF742
:10184000C9FEFFF7A5FEFFF793FE00F051F85FF722
:10185000FFFE5FF711FF04485FF73CFF5FF7D0FE24
:1018600080BDC0460800005070E0FC07704780B59E
:10187000E62800D3E620282800D82820FF22EC32D2
:1018800042437D20C10010465BF718FD7E38C0B290
:1018900080BD0000022901D0012904D1002803D015
:1018A000FF2805D0FEE7FEE7022901D10C20704792
:1018B000824800787047C0464CCCFC0780B50A4887
:1018C0000168C90703D0016802220A430260016867
:1018D000490204D50121890502680A4302600348D0
:1018E0005FF746FC80BDC04600020040B01BFC070D
:1018F000FCB57F2000025E494A6982430B2000024A
:1019000010184861086880B25A4A801808608869CF
:10191000594A02408A610320019000020A6B024387
:101920000A63888F102202438A87888801220092E6
:101930001043888051485249016052490888104339
:101940000880514E30461038504DA98B014015206B
:10195000440108195030A88368694D4901404D4839
:1019600008186861A8694C4901400920400208181C
:10197000A8612868494901404948081828606868F2
:1019800048490140484808186860A868474901402C
:1019900047480818A860E8684649014046480818C2
:1019A000E860C12040014549097809060818444902
:1019B000086005208102434A11804F1D9780178CD3
:1019C00055203843AA27B8431084FF276C37384680
:1019D000C93010853C4B18460E3090853B48108628
:1019E0009386C01D10870A312985A86B38490140AC
:1019F00038480818A86338480780028F32402146CB
:101A0000203152180287354D2A883240D219D532FA
:101A10002A80AA8832401219AA802A893240511895
:101A200029813946213181802D48018831400919A9
:101A300060310180818A19220A4306218A43828209
:101A400007841F4A908F27490140009840030818D7
:101A500090870C4A106C0199084304218843106454
:101A6000506A21490140214808185062FCBDC04617
:101A70002030004000006666FF00FEFF800000404E
:101A800059055C07401000401FFCFFFF0420004088
:101A90000000E0FF09601A00FEE1FFFFE0E0000047
:101AA0000809294900000303696A686C031FFFFFE6
:101AB00070600000E0E0E0E00B0A0A084CCCFC0794
:101AC0000010004028130040260A000051080000C2
:101AD0002304E0FE181A06010012004044120040E0
:101AE00088120040FF9F000000FE00FE50015001E0
:101AF000F8B5842013490E5A134FBC6A3046604330
:101B00001249401812495BF7D9FB0546B8813C36AB
:101B100066430E4830180E495BF7D0FB001D0D4997
:101B200008612818C01D88610B4A1278022A01D169
:101B300011308861FFF72CF80849401880B259F736
:101B400049FEF8BDC0CBFC0770CCFC0720A1070004
:101B500040420F001820FC0778FAFC07E20400005E
:101B6000024801880122914301807047041100500E
:101B700002E008C8121F08C1002AFAD17047704756
:101B8000002001E001C1121F002AFBD170470000B4
:101B900080B502485CF7A0FF80BDC046A000FC07EE
:101BA000000000001C1DFC0768CCFC0702000100BF
:101BB00080000000E708FC0702000000F308FC07B3
:101BC00008000000C908FC0700010000DD08FC0750
:101BD0000002000075C1F007400000003794F007D4
:101BE00010000000C97BF00704000000FD08FC079E
:101BF00001000000B108FC0720000000C508FC0738
:101C000000000000000000000028000001000000AB
:101C10000000000003280000010000000200000096
:101C2000292A000001000000808000000328000035
:101C30000100000004000000242A00000100000050
:101C40008080000003280000010000000600000062
:101C5000252A000001000000808000000328000009
:101C60000100000008000000272A00000100000019
:101C70008080000003280000010000000A0000002E
:101C8000262A0000010000008080000003280000D8
:101C9000010000000C000000282A000001000000E4
:101CA0008080000003280000010000000E000000FA
:101CB000232A000001000000088000000328000023
:101CC00001000000100000002A2A000001000000AE
:101CD000088000000328000001000000120000003E
:101CE000502A00000100000007800000F41CFC07DF
:101CF00003000000001400003107FC07130C000073
:101D0000390AFC0703140000F907FC075106FC0719
:101D10002906FC072706FC072506FC07241DFC07EF
:101D200001000000FFFF00004109FC070000000067
:101D300000000000F4011100F4352348F40108C448
:101D4000140A0000140000002907FC07FF0000002F
:101D500000000000050000004827FC070004000008
:101D6000B4D0FC07B0020000A8CCFC0700040000BF
:101D700070D3FC07700500002003000000A60E00D1
:101D800005000000D2000000320000003C0000000E
:101D9000010000000100000002000000020000003D
:101DA0000400000003000000060000000000000026
:101DB000020000000200000000000000000000001F
:101DC0000300000003000000050000000500000003
:101DD000060000000A0000000A000000C800000021
:101DE000B80B000002000000B80B0000B80B0000A8
:101DF00010000000D4010000CC01000070020000BF
:101E00006A00000004000000010000002000000043
:101E10000C00000001000000E20400008A02000043
:101E2000DC050000AF000000DC1FFC074C1EFC07B7
:101E300000000000E41FFC0700000000000000009C
:101E400000000000000000005E010000A8F8FC0790
:101E5000A0F8FC07B8F8FC07F8F8FC075917FC07CE
:101E60001918FC07A7C6F00703C7F0070BC7F00750
:101E70005FC7F00777C7F0078DC7F007AFC7F00758
:101E800031CBF007D5CDF00715CCF00735CCF007F6
:101E900055CCF00793CCF007A3CCF0070DE2F00788
:101EA000C9DFF007E7DFF00703E0F0071DE0F00708
:101EB00031E0F007AFE0F007C7E0F007E3B0F1076B
:101EC0006BB3F10707A9F007B5EFF10799F0F10738
:101ED00095F0F10791F0F1078D21F0070917FC0744
:101EE0002D0BFC076D0BFC07C10BFC07B90BFC07A6
:101EF000057DF007D37BF007737CF007AD82F10717
:101F00004134F1075D19F207DD19F207811AF20772
:101F1000BD1AF207F504FC070F05FC0700000000DE
:101F2000FF05FC070106FC077DB3F007D976F10732
:101F3000617DF107B181F1079780F107C549F1078C
:101F40009759F107F10AF107A1ECF007FD05FC072D
:101F5000B501FC07DDBAF00725AAF00799AAF0073A
:101F600049ABF007E72DF007A32EF007657FF007D8
:101F70002F7EF0070136F007000000000306FC0783
:101F80000B06FC072905FC0701A7F10783A7F1074A
:101F900007A8F1074105FC07B5B7F00700000000EE
:101FA0000000000000000000000000000000000031
:101FB0000000000000000000000000000000000021
:101FC0000000000000000000000000000000000011
:101FD000000000000000000000000000341DFC07AD
:101FE00090CCFC07441DFC0750CCFC07010000000E
:101FF0001420FC071820FC0730070000801BFC079A
:10200000C0CBFC07C0CBFC07E8000000801BFC072E
:04201000E0010000EB
:0400000507FC0151A2
:00000001FF
